{
	"compilerInput": "{\"language\":\"Solidity\",\"sources\":{\"emailpayment.sol\":{\"content\":\"// SPDX-License-Identifier: MIT\\r\\npragma solidity ^0.8.0;\\r\\n\\r\\n/**\\r\\n * @title EmailPaymentRegistry\\r\\n * @dev Contract for mapping email addresses to wallet addresses and facilitating transfers\\r\\n * Compatible with MetaMask and EIP-1193 compliant wallets\\r\\n */\\r\\ncontract EmailPaymentRegistry {\\r\\n    address public owner;\\r\\n    \\r\\n    // Mapping of keccak256 hashed emails to wallet addresses\\r\\n    mapping(bytes32 => address) private emailToWallet;\\r\\n    \\r\\n    // User profile data\\r\\n    struct UserProfile {\\r\\n        address wallet;\\r\\n        uint256 registeredAt;\\r\\n        uint256 lastUpdatedAt;\\r\\n        uint256 totalReceived;\\r\\n        uint256 totalSent;\\r\\n    }\\r\\n    \\r\\n    // Enhanced mapping with profile data\\r\\n    mapping(bytes32 => UserProfile) private emailProfiles;\\r\\n    \\r\\n    // Events\\r\\n    event EmailRegistered(bytes32 indexed emailHash, address indexed wallet);\\r\\n    event PaymentSent(bytes32 indexed fromEmailHash, bytes32 indexed toEmailHash, uint256 amount);\\r\\n    event OwnershipTransferred(address indexed previousOwner, address indexed newOwner);\\r\\n    \\r\\n    // Modifiers\\r\\n    modifier onlyOwner() {\\r\\n        require(msg.sender == owner, \\\"Only owner can call this function\\\");\\r\\n        _;\\r\\n    }\\r\\n    \\r\\n    // Constructor\\r\\n    constructor() {\\r\\n        owner = msg.sender;\\r\\n    }\\r\\n    \\r\\n    /**\\r\\n     * @dev Transfer ownership to a new address\\r\\n     * @param newOwner The address to transfer ownership to\\r\\n     */\\r\\n    function transferOwnership(address newOwner) public onlyOwner {\\r\\n        require(newOwner != address(0), \\\"New owner cannot be zero address\\\");\\r\\n        emit OwnershipTransferred(owner, newOwner);\\r\\n        owner = newOwner;\\r\\n    }\\r\\n    \\r\\n    /**\\r\\n     * @dev Register or update an email-to-wallet mapping\\r\\n     * @param emailHash The keccak256 hash of the email address\\r\\n     * @param wallet The wallet address to associate with this email\\r\\n     */\\r\\n    function registerEmail(bytes32 emailHash, address wallet) public {\\r\\n        require(wallet != address(0), \\\"Cannot register zero address\\\");\\r\\n        \\r\\n        // If email is already registered, ensure it's being updated by the current wallet owner\\r\\n        if (emailProfiles[emailHash].wallet != address(0)) {\\r\\n            require(emailProfiles[emailHash].wallet == msg.sender, \\\"Email already registered to another wallet\\\");\\r\\n        }\\r\\n        \\r\\n        // Update or create profile\\r\\n        if (emailProfiles[emailHash].wallet == address(0)) {\\r\\n            // New registration\\r\\n            emailProfiles[emailHash] = UserProfile({\\r\\n                wallet: wallet,\\r\\n                registeredAt: block.timestamp,\\r\\n                lastUpdatedAt: block.timestamp,\\r\\n                totalReceived: 0,\\r\\n                totalSent: 0\\r\\n            });\\r\\n        } else {\\r\\n            // Update existing registration\\r\\n            emailProfiles[emailHash].wallet = wallet;\\r\\n            emailProfiles[emailHash].lastUpdatedAt = block.timestamp;\\r\\n        }\\r\\n        \\r\\n        // Also update the simple mapping for backward compatibility\\r\\n        emailToWallet[emailHash] = wallet;\\r\\n        \\r\\n        emit EmailRegistered(emailHash, wallet);\\r\\n    }\\r\\n    \\r\\n    /**\\r\\n     * @dev Get wallet address associated with email hash\\r\\n     * @param emailHash The keccak256 hash of the email address\\r\\n     * @return The wallet address associated with this email\\r\\n     */\\r\\n    function getWalletByEmail(bytes32 emailHash) public view returns (address) {\\r\\n        return emailProfiles[emailHash].wallet;\\r\\n    }\\r\\n    \\r\\n    /**\\r\\n     * @dev Get full user profile information\\r\\n     * @param emailHash The keccak256 hash of the email address\\r\\n     * @return wallet The wallet address\\r\\n     * @return registeredAt Registration timestamp\\r\\n     * @return lastUpdatedAt Last update timestamp\\r\\n     * @return totalReceived Total ETH received\\r\\n     * @return totalSent Total ETH sent\\r\\n     */\\r\\n    function getUserProfile(bytes32 emailHash) public view returns (\\r\\n        address wallet,\\r\\n        uint256 registeredAt,\\r\\n        uint256 lastUpdatedAt,\\r\\n        uint256 totalReceived,\\r\\n        uint256 totalSent\\r\\n    ) {\\r\\n        UserProfile memory profile = emailProfiles[emailHash];\\r\\n        return (\\r\\n            profile.wallet,\\r\\n            profile.registeredAt,\\r\\n            profile.lastUpdatedAt,\\r\\n            profile.totalReceived,\\r\\n            profile.totalSent\\r\\n        );\\r\\n    }\\r\\n    \\r\\n    /**\\r\\n     * @dev Send payment from one email to another\\r\\n     * @param fromEmailHash The sender's email hash\\r\\n     * @param toEmailHash The recipient's email hash\\r\\n     */\\r\\n    function sendPaymentByEmail(bytes32 fromEmailHash, bytes32 toEmailHash) public payable {\\r\\n        address payable toWallet = payable(emailProfiles[toEmailHash].wallet);\\r\\n        require(toWallet != address(0), \\\"Recipient email not registered\\\");\\r\\n        \\r\\n        // Either the sender must be the registered wallet for fromEmailHash or the contract owner\\r\\n        require(\\r\\n            msg.sender == emailProfiles[fromEmailHash].wallet || msg.sender == owner,\\r\\n            \\\"Sender not authorized for this email\\\"\\r\\n        );\\r\\n        \\r\\n        // Update statistics\\r\\n        emailProfiles[fromEmailHash].totalSent += msg.value;\\r\\n        emailProfiles[toEmailHash].totalReceived += msg.value;\\r\\n        \\r\\n        // Send payment\\r\\n        (bool sent, ) = toWallet.call{value: msg.value}(\\\"\\\");\\r\\n        require(sent, \\\"Failed to send payment\\\");\\r\\n        \\r\\n        emit PaymentSent(fromEmailHash, toEmailHash, msg.value);\\r\\n    }\\r\\n    \\r\\n    /**\\r\\n     * @dev Send payment directly to an email address\\r\\n     * @param toEmailHash The recipient's email hash\\r\\n     */\\r\\n    function sendPaymentToEmail(bytes32 toEmailHash) public payable {\\r\\n        address payable toWallet = payable(emailProfiles[toEmailHash].wallet);\\r\\n        require(toWallet != address(0), \\\"Recipient email not registered\\\");\\r\\n        \\r\\n        // Calculate sender's email hash (if registered)\\r\\n        bytes32 fromEmailHash;\\r\\n        bool senderIsRegistered = false;\\r\\n        \\r\\n        // Find if sender is registered with any email\\r\\n        for (uint i = 0; i < 10; i++) {\\r\\n            // This is inefficient but works for the demo\\r\\n            // In a production environment, you would use a reverse lookup or proper index\\r\\n            bytes32 testHash = keccak256(abi.encodePacked(\\\"placeholder\\\", i));\\r\\n            if (emailProfiles[testHash].wallet == msg.sender) {\\r\\n                fromEmailHash = testHash;\\r\\n                senderIsRegistered = true;\\r\\n                break;\\r\\n            }\\r\\n        }\\r\\n        \\r\\n        // Update statistics if sender is registered\\r\\n        if (senderIsRegistered) {\\r\\n            emailProfiles[fromEmailHash].totalSent += msg.value;\\r\\n        }\\r\\n        \\r\\n        // Always update recipient stats\\r\\n        emailProfiles[toEmailHash].totalReceived += msg.value;\\r\\n        \\r\\n        // Send payment\\r\\n        (bool sent, ) = toWallet.call{value: msg.value}(\\\"\\\");\\r\\n        require(sent, \\\"Failed to send payment\\\");\\r\\n        \\r\\n        emit PaymentSent(\\r\\n            senderIsRegistered ? fromEmailHash : bytes32(0),\\r\\n            toEmailHash,\\r\\n            msg.value\\r\\n        );\\r\\n    }\\r\\n    \\r\\n    /**\\r\\n     * @dev Utility function to compute email hash offchain\\r\\n     * @param email The email address as a string\\r\\n     * @return The keccak256 hash of the email\\r\\n     */\\r\\n    function computeEmailHash(string memory email) public pure returns (bytes32) {\\r\\n        return keccak256(abi.encodePacked(email));\\r\\n    }\\r\\n    \\r\\n    /**\\r\\n     * @dev Withdraw any funds accidentally sent to the contract\\r\\n     */\\r\\n    function withdraw() public onlyOwner {\\r\\n        payable(owner).transfer(address(this).balance);\\r\\n    }\\r\\n    \\r\\n    /**\\r\\n     * @dev Emergency function to override an email registration\\r\\n     * Only to be used if someone loses access to their wallet\\r\\n     */\\r\\n    function adminOverrideEmail(bytes32 emailHash, address newWallet) public onlyOwner {\\r\\n        require(newWallet != address(0), \\\"Cannot set zero address\\\");\\r\\n        \\r\\n        // Keep the registration time but update other fields\\r\\n        uint256 originalRegTime = emailProfiles[emailHash].registeredAt;\\r\\n        \\r\\n        emailProfiles[emailHash] = UserProfile({\\r\\n            wallet: newWallet,\\r\\n            registeredAt: originalRegTime > 0 ? originalRegTime : block.timestamp,\\r\\n            lastUpdatedAt: block.timestamp,\\r\\n            totalReceived: emailProfiles[emailHash].totalReceived,\\r\\n            totalSent: emailProfiles[emailHash].totalSent\\r\\n        });\\r\\n        \\r\\n        // Also update simple mapping\\r\\n        emailToWallet[emailHash] = newWallet;\\r\\n        \\r\\n        emit EmailRegistered(emailHash, newWallet);\\r\\n    }\\r\\n}\\r\\n\"}},\"settings\":{\"optimizer\":{\"enabled\":false,\"runs\":200},\"outputSelection\":{\"*\":{\"\":[\"ast\"],\"*\":[\"abi\",\"metadata\",\"devdoc\",\"userdoc\",\"storageLayout\",\"evm.legacyAssembly\",\"evm.bytecode\",\"evm.deployedBytecode\",\"evm.methodIdentifiers\",\"evm.gasEstimates\",\"evm.assembly\"]}},\"remappings\":[]}}",
	"name": "EmailPaymentRegistry",
	"bytecode": {
		"linkReferences": {},
		"object": "6080604052348015600e575f5ffd5b50335f5f6101000a81548173ffffffffffffffffffffffffffffffffffffffff021916908373ffffffffffffffffffffffffffffffffffffffff160217905550611b5b8061005b5f395ff3fe608060405260043610610090575f3560e01c80638aed9cc3116100585780638aed9cc31461015e5780638da5cb5b1461019a5780638db5b06a146101c45780639d36fd0c146101ec578063f2fde38b1461021457610090565b80630d8d5e1b146100945780633ccfd60b146100d05780636c6848cc146100e65780637945b7141461012657806379658c5d14610142575b5f5ffd5b34801561009f575f5ffd5b506100ba60048036038101906100b5919061124a565b61023c565b6040516100c791906112b4565b60405180910390f35b3480156100db575f5ffd5b506100e4610277565b005b3480156100f1575f5ffd5b5061010c6004803603810190610107919061124a565b61036b565b60405161011d9594939291906112e5565b60405180910390f35b610140600480360381019061013b919061124a565b610437565b005b61015c60048036038101906101579190611336565b6106ea565b005b348015610169575f5ffd5b50610184600480360381019061017f91906114b0565b6109bf565b6040516101919190611506565b60405180910390f35b3480156101a5575f5ffd5b506101ae6109ee565b6040516101bb91906112b4565b60405180910390f35b3480156101cf575f5ffd5b506101ea60048036038101906101e59190611549565b610a12565b005b3480156101f7575f5ffd5b50610212600480360381019061020d9190611549565b610daf565b005b34801561021f575f5ffd5b5061023a60048036038101906102359190611587565b61104e565b005b5f60025f8381526020019081526020015f205f015f9054906101000a900473ffffffffffffffffffffffffffffffffffffffff169050919050565b5f5f9054906101000a900473ffffffffffffffffffffffffffffffffffffffff1673ffffffffffffffffffffffffffffffffffffffff163373ffffffffffffffffffffffffffffffffffffffff1614610305576040517f08c379a00000000000000000000000000000000000000000000000000000000081526004016102fc90611632565b60405180910390fd5b5f5f9054906101000a900473ffffffffffffffffffffffffffffffffffffffff1673ffffffffffffffffffffffffffffffffffffffff166108fc4790811502906040515f60405180830381858888f19350505050158015610368573d5f5f3e3d5ffd5b50565b5f5f5f5f5f5f60025f8881526020019081526020015f206040518060a00160405290815f82015f9054906101000a900473ffffffffffffffffffffffffffffffffffffffff1673ffffffffffffffffffffffffffffffffffffffff1673ffffffffffffffffffffffffffffffffffffffff1681526020016001820154815260200160028201548152602001600382015481526020016004820154815250509050805f01518160200151826040015183606001518460800151955095509550955095505091939590929450565b5f60025f8381526020019081526020015f205f015f9054906101000a900473ffffffffffffffffffffffffffffffffffffffff1690505f73ffffffffffffffffffffffffffffffffffffffff168173ffffffffffffffffffffffffffffffffffffffff16036104db576040517f08c379a00000000000000000000000000000000000000000000000000000000081526004016104d29061169a565b60405180910390fd5b5f5f5f90505f5f90505b600a811015610598575f81604051602001610500919061172c565b6040516020818303038152906040528051906020012090503373ffffffffffffffffffffffffffffffffffffffff1660025f8381526020019081526020015f205f015f9054906101000a900473ffffffffffffffffffffffffffffffffffffffff1673ffffffffffffffffffffffffffffffffffffffff160361058a578093506001925050610598565b5080806001019150506104e5565b5080156105ca573460025f8481526020019081526020015f206004015f8282546105c2919061177e565b925050819055505b3460025f8681526020019081526020015f206003015f8282546105ed919061177e565b925050819055505f8373ffffffffffffffffffffffffffffffffffffffff1634604051610619906117de565b5f6040518083038185875af1925050503d805f8114610653576040519150601f19603f3d011682016040523d82523d5f602084013e610658565b606091505b505090508061069c576040517f08c379a00000000000000000000000000000000000000000000000000000000081526004016106939061183c565b60405180910390fd5b84826106aa575f5f1b6106ac565b835b7f6f2c8059f88af5345e68db9cea15e62a0aa75bb19b80b8a46b694f57f655d627346040516106db919061185a565b60405180910390a35050505050565b5f60025f8381526020019081526020015f205f015f9054906101000a900473ffffffffffffffffffffffffffffffffffffffff1690505f73ffffffffffffffffffffffffffffffffffffffff168173ffffffffffffffffffffffffffffffffffffffff160361078e576040517f08c379a00000000000000000000000000000000000000000000000000000000081526004016107859061169a565b60405180910390fd5b60025f8481526020019081526020015f205f015f9054906101000a900473ffffffffffffffffffffffffffffffffffffffff1673ffffffffffffffffffffffffffffffffffffffff163373ffffffffffffffffffffffffffffffffffffffff16148061084557505f5f9054906101000a900473ffffffffffffffffffffffffffffffffffffffff1673ffffffffffffffffffffffffffffffffffffffff163373ffffffffffffffffffffffffffffffffffffffff16145b610884576040517f08c379a000000000000000000000000000000000000000000000000000000000815260040161087b906118e3565b60405180910390fd5b3460025f8581526020019081526020015f206004015f8282546108a7919061177e565b925050819055503460025f8481526020019081526020015f206003015f8282546108d1919061177e565b925050819055505f8173ffffffffffffffffffffffffffffffffffffffff16346040516108fd906117de565b5f6040518083038185875af1925050503d805f8114610937576040519150601f19603f3d011682016040523d82523d5f602084013e61093c565b606091505b5050905080610980576040517f08c379a00000000000000000000000000000000000000000000000000000000081526004016109779061183c565b60405180910390fd5b82847f6f2c8059f88af5345e68db9cea15e62a0aa75bb19b80b8a46b694f57f655d627346040516109b1919061185a565b60405180910390a350505050565b5f816040516020016109d19190611949565b604051602081830303815290604052805190602001209050919050565b5f5f9054906101000a900473ffffffffffffffffffffffffffffffffffffffff1681565b5f73ffffffffffffffffffffffffffffffffffffffff168173ffffffffffffffffffffffffffffffffffffffff1603610a80576040517f08c379a0000000000000000000000000000000000000000000000000000000008152600401610a77906119a9565b60405180910390fd5b5f73ffffffffffffffffffffffffffffffffffffffff1660025f8481526020019081526020015f205f015f9054906101000a900473ffffffffffffffffffffffffffffffffffffffff1673ffffffffffffffffffffffffffffffffffffffff1614610b86573373ffffffffffffffffffffffffffffffffffffffff1660025f8481526020019081526020015f205f015f9054906101000a900473ffffffffffffffffffffffffffffffffffffffff1673ffffffffffffffffffffffffffffffffffffffff1614610b85576040517f08c379a0000000000000000000000000000000000000000000000000000000008152600401610b7c90611a37565b60405180910390fd5b5b5f73ffffffffffffffffffffffffffffffffffffffff1660025f8481526020019081526020015f205f015f9054906101000a900473ffffffffffffffffffffffffffffffffffffffff1673ffffffffffffffffffffffffffffffffffffffff1603610cad576040518060a001604052808273ffffffffffffffffffffffffffffffffffffffff1681526020014281526020014281526020015f81526020015f81525060025f8481526020019081526020015f205f820151815f015f6101000a81548173ffffffffffffffffffffffffffffffffffffffff021916908373ffffffffffffffffffffffffffffffffffffffff16021790555060208201518160010155604082015181600201556060820151816003015560808201518160040155905050610d18565b8060025f8481526020019081526020015f205f015f6101000a81548173ffffffffffffffffffffffffffffffffffffffff021916908373ffffffffffffffffffffffffffffffffffffffff1602179055504260025f8481526020019081526020015f20600201819055505b8060015f8481526020019081526020015f205f6101000a81548173ffffffffffffffffffffffffffffffffffffffff021916908373ffffffffffffffffffffffffffffffffffffffff1602179055508073ffffffffffffffffffffffffffffffffffffffff16827f3e3775452c1a736bc664f4466fcab0687388450658c0a5fdabc4da48b96fb21060405160405180910390a35050565b5f5f9054906101000a900473ffffffffffffffffffffffffffffffffffffffff1673ffffffffffffffffffffffffffffffffffffffff163373ffffffffffffffffffffffffffffffffffffffff1614610e3d576040517f08c379a0000000000000000000000000000000000000000000000000000000008152600401610e3490611632565b60405180910390fd5b5f73ffffffffffffffffffffffffffffffffffffffff168173ffffffffffffffffffffffffffffffffffffffff1603610eab576040517f08c379a0000000000000000000000000000000000000000000000000000000008152600401610ea290611a9f565b60405180910390fd5b5f60025f8481526020019081526020015f206001015490506040518060a001604052808373ffffffffffffffffffffffffffffffffffffffff1681526020015f8311610ef75742610ef9565b825b815260200142815260200160025f8681526020019081526020015f2060030154815260200160025f8681526020019081526020015f206004015481525060025f8581526020019081526020015f205f820151815f015f6101000a81548173ffffffffffffffffffffffffffffffffffffffff021916908373ffffffffffffffffffffffffffffffffffffffff160217905550602082015181600101556040820151816002015560608201518160030155608082015181600401559050508160015f8581526020019081526020015f205f6101000a81548173ffffffffffffffffffffffffffffffffffffffff021916908373ffffffffffffffffffffffffffffffffffffffff1602179055508173ffffffffffffffffffffffffffffffffffffffff16837f3e3775452c1a736bc664f4466fcab0687388450658c0a5fdabc4da48b96fb21060405160405180910390a3505050565b5f5f9054906101000a900473ffffffffffffffffffffffffffffffffffffffff1673ffffffffffffffffffffffffffffffffffffffff163373ffffffffffffffffffffffffffffffffffffffff16146110dc576040517f08c379a00000000000000000000000000000000000000000000000000000000081526004016110d390611632565b60405180910390fd5b5f73ffffffffffffffffffffffffffffffffffffffff168173ffffffffffffffffffffffffffffffffffffffff160361114a576040517f08c379a000000000000000000000000000000000000000000000000000000000815260040161114190611b07565b60405180910390fd5b8073ffffffffffffffffffffffffffffffffffffffff165f5f9054906101000a900473ffffffffffffffffffffffffffffffffffffffff1673ffffffffffffffffffffffffffffffffffffffff167f8be0079c531659141344cd1fd0a4f28419497f9722a3daafe3b4186f6b6457e060405160405180910390a3805f5f6101000a81548173ffffffffffffffffffffffffffffffffffffffff021916908373ffffffffffffffffffffffffffffffffffffffff16021790555050565b5f604051905090565b5f5ffd5b5f5ffd5b5f819050919050565b61122981611217565b8114611233575f5ffd5b50565b5f8135905061124481611220565b92915050565b5f6020828403121561125f5761125e61120f565b5b5f61126c84828501611236565b91505092915050565b5f73ffffffffffffffffffffffffffffffffffffffff82169050919050565b5f61129e82611275565b9050919050565b6112ae81611294565b82525050565b5f6020820190506112c75f8301846112a5565b92915050565b5f819050919050565b6112df816112cd565b82525050565b5f60a0820190506112f85f8301886112a5565b61130560208301876112d6565b61131260408301866112d6565b61131f60608301856112d6565b61132c60808301846112d6565b9695505050505050565b5f5f6040838503121561134c5761134b61120f565b5b5f61135985828601611236565b925050602061136a85828601611236565b9150509250929050565b5f5ffd5b5f5ffd5b5f601f19601f8301169050919050565b7f4e487b71000000000000000000000000000000000000000000000000000000005f52604160045260245ffd5b6113c28261137c565b810181811067ffffffffffffffff821117156113e1576113e061138c565b5b80604052505050565b5f6113f3611206565b90506113ff82826113b9565b919050565b5f67ffffffffffffffff82111561141e5761141d61138c565b5b6114278261137c565b9050602081019050919050565b828183375f83830152505050565b5f61145461144f84611404565b6113ea565b9050828152602081018484840111156114705761146f611378565b5b61147b848285611434565b509392505050565b5f82601f83011261149757611496611374565b5b81356114a7848260208601611442565b91505092915050565b5f602082840312156114c5576114c461120f565b5b5f82013567ffffffffffffffff8111156114e2576114e1611213565b5b6114ee84828501611483565b91505092915050565b61150081611217565b82525050565b5f6020820190506115195f8301846114f7565b92915050565b61152881611294565b8114611532575f5ffd5b50565b5f813590506115438161151f565b92915050565b5f5f6040838503121561155f5761155e61120f565b5b5f61156c85828601611236565b925050602061157d85828601611535565b9150509250929050565b5f6020828403121561159c5761159b61120f565b5b5f6115a984828501611535565b91505092915050565b5f82825260208201905092915050565b7f4f6e6c79206f776e65722063616e2063616c6c20746869732066756e6374696f5f8201527f6e00000000000000000000000000000000000000000000000000000000000000602082015250565b5f61161c6021836115b2565b9150611627826115c2565b604082019050919050565b5f6020820190508181035f83015261164981611610565b9050919050565b7f526563697069656e7420656d61696c206e6f74207265676973746572656400005f82015250565b5f611684601e836115b2565b915061168f82611650565b602082019050919050565b5f6020820190508181035f8301526116b181611678565b9050919050565b5f81905092915050565b7f706c616365686f6c6465720000000000000000000000000000000000000000005f82015250565b5f6116f6600b836116b8565b9150611701826116c2565b600b82019050919050565b5f819050919050565b611726611721826112cd565b61170c565b82525050565b5f611736826116ea565b91506117428284611715565b60208201915081905092915050565b7f4e487b71000000000000000000000000000000000000000000000000000000005f52601160045260245ffd5b5f611788826112cd565b9150611793836112cd565b92508282019050808211156117ab576117aa611751565b5b92915050565b5f81905092915050565b50565b5f6117c95f836117b1565b91506117d4826117bb565b5f82019050919050565b5f6117e8826117be565b9150819050919050565b7f4661696c656420746f2073656e64207061796d656e74000000000000000000005f82015250565b5f6118266016836115b2565b9150611831826117f2565b602082019050919050565b5f6020820190508181035f8301526118538161181a565b9050919050565b5f60208201905061186d5f8301846112d6565b92915050565b7f53656e646572206e6f7420617574686f72697a656420666f72207468697320655f8201527f6d61696c00000000000000000000000000000000000000000000000000000000602082015250565b5f6118cd6024836115b2565b91506118d882611873565b604082019050919050565b5f6020820190508181035f8301526118fa816118c1565b9050919050565b5f81519050919050565b8281835e5f83830152505050565b5f61192382611901565b61192d81856116b8565b935061193d81856020860161190b565b80840191505092915050565b5f6119548284611919565b915081905092915050565b7f43616e6e6f74207265676973746572207a65726f2061646472657373000000005f82015250565b5f611993601c836115b2565b915061199e8261195f565b602082019050919050565b5f6020820190508181035f8301526119c081611987565b9050919050565b7f456d61696c20616c7265616479207265676973746572656420746f20616e6f745f8201527f6865722077616c6c657400000000000000000000000000000000000000000000602082015250565b5f611a21602a836115b2565b9150611a2c826119c7565b604082019050919050565b5f6020820190508181035f830152611a4e81611a15565b9050919050565b7f43616e6e6f7420736574207a65726f20616464726573730000000000000000005f82015250565b5f611a896017836115b2565b9150611a9482611a55565b602082019050919050565b5f6020820190508181035f830152611ab681611a7d565b9050919050565b7f4e6577206f776e65722063616e6e6f74206265207a65726f20616464726573735f82015250565b5f611af16020836115b2565b9150611afc82611abd565b602082019050919050565b5f6020820190508181035f830152611b1e81611ae5565b905091905056fea26469706673582212207b2fe52d19d3add336e22ff2a800aa21f77a27328bc94930e8995f897233b70164736f6c634300081e0033",
		"opcodes": "PUSH1 0x80 PUSH1 0x40 MSTORE CALLVALUE DUP1 ISZERO PUSH1 0xE JUMPI PUSH0 PUSH0 REVERT JUMPDEST POP CALLER PUSH0 PUSH0 PUSH2 0x100 EXP DUP2 SLOAD DUP2 PUSH20 0xFFFFFFFFFFFFFFFFFFFFFFFFFFFFFFFFFFFFFFFF MUL NOT AND SWAP1 DUP4 PUSH20 0xFFFFFFFFFFFFFFFFFFFFFFFFFFFFFFFFFFFFFFFF AND MUL OR SWAP1 SSTORE POP PUSH2 0x1B5B DUP1 PUSH2 0x5B PUSH0 CODECOPY PUSH0 RETURN INVALID PUSH1 0x80 PUSH1 0x40 MSTORE PUSH1 0x4 CALLDATASIZE LT PUSH2 0x90 JUMPI PUSH0 CALLDATALOAD PUSH1 0xE0 SHR DUP1 PUSH4 0x8AED9CC3 GT PUSH2 0x58 JUMPI DUP1 PUSH4 0x8AED9CC3 EQ PUSH2 0x15E JUMPI DUP1 PUSH4 0x8DA5CB5B EQ PUSH2 0x19A JUMPI DUP1 PUSH4 0x8DB5B06A EQ PUSH2 0x1C4 JUMPI DUP1 PUSH4 0x9D36FD0C EQ PUSH2 0x1EC JUMPI DUP1 PUSH4 0xF2FDE38B EQ PUSH2 0x214 JUMPI PUSH2 0x90 JUMP JUMPDEST DUP1 PUSH4 0xD8D5E1B EQ PUSH2 0x94 JUMPI DUP1 PUSH4 0x3CCFD60B EQ PUSH2 0xD0 JUMPI DUP1 PUSH4 0x6C6848CC EQ PUSH2 0xE6 JUMPI DUP1 PUSH4 0x7945B714 EQ PUSH2 0x126 JUMPI DUP1 PUSH4 0x79658C5D EQ PUSH2 0x142 JUMPI JUMPDEST PUSH0 PUSH0 REVERT JUMPDEST CALLVALUE DUP1 ISZERO PUSH2 0x9F JUMPI PUSH0 PUSH0 REVERT JUMPDEST POP PUSH2 0xBA PUSH1 0x4 DUP1 CALLDATASIZE SUB DUP2 ADD SWAP1 PUSH2 0xB5 SWAP2 SWAP1 PUSH2 0x124A JUMP JUMPDEST PUSH2 0x23C JUMP JUMPDEST PUSH1 0x40 MLOAD PUSH2 0xC7 SWAP2 SWAP1 PUSH2 0x12B4 JUMP JUMPDEST PUSH1 0x40 MLOAD DUP1 SWAP2 SUB SWAP1 RETURN JUMPDEST CALLVALUE DUP1 ISZERO PUSH2 0xDB JUMPI PUSH0 PUSH0 REVERT JUMPDEST POP PUSH2 0xE4 PUSH2 0x277 JUMP JUMPDEST STOP JUMPDEST CALLVALUE DUP1 ISZERO PUSH2 0xF1 JUMPI PUSH0 PUSH0 REVERT JUMPDEST POP PUSH2 0x10C PUSH1 0x4 DUP1 CALLDATASIZE SUB DUP2 ADD SWAP1 PUSH2 0x107 SWAP2 SWAP1 PUSH2 0x124A JUMP JUMPDEST PUSH2 0x36B JUMP JUMPDEST PUSH1 0x40 MLOAD PUSH2 0x11D SWAP6 SWAP5 SWAP4 SWAP3 SWAP2 SWAP1 PUSH2 0x12E5 JUMP JUMPDEST PUSH1 0x40 MLOAD DUP1 SWAP2 SUB SWAP1 RETURN JUMPDEST PUSH2 0x140 PUSH1 0x4 DUP1 CALLDATASIZE SUB DUP2 ADD SWAP1 PUSH2 0x13B SWAP2 SWAP1 PUSH2 0x124A JUMP JUMPDEST PUSH2 0x437 JUMP JUMPDEST STOP JUMPDEST PUSH2 0x15C PUSH1 0x4 DUP1 CALLDATASIZE SUB DUP2 ADD SWAP1 PUSH2 0x157 SWAP2 SWAP1 PUSH2 0x1336 JUMP JUMPDEST PUSH2 0x6EA JUMP JUMPDEST STOP JUMPDEST CALLVALUE DUP1 ISZERO PUSH2 0x169 JUMPI PUSH0 PUSH0 REVERT JUMPDEST POP PUSH2 0x184 PUSH1 0x4 DUP1 CALLDATASIZE SUB DUP2 ADD SWAP1 PUSH2 0x17F SWAP2 SWAP1 PUSH2 0x14B0 JUMP JUMPDEST PUSH2 0x9BF JUMP JUMPDEST PUSH1 0x40 MLOAD PUSH2 0x191 SWAP2 SWAP1 PUSH2 0x1506 JUMP JUMPDEST PUSH1 0x40 MLOAD DUP1 SWAP2 SUB SWAP1 RETURN JUMPDEST CALLVALUE DUP1 ISZERO PUSH2 0x1A5 JUMPI PUSH0 PUSH0 REVERT JUMPDEST POP PUSH2 0x1AE PUSH2 0x9EE JUMP JUMPDEST PUSH1 0x40 MLOAD PUSH2 0x1BB SWAP2 SWAP1 PUSH2 0x12B4 JUMP JUMPDEST PUSH1 0x40 MLOAD DUP1 SWAP2 SUB SWAP1 RETURN JUMPDEST CALLVALUE DUP1 ISZERO PUSH2 0x1CF JUMPI PUSH0 PUSH0 REVERT JUMPDEST POP PUSH2 0x1EA PUSH1 0x4 DUP1 CALLDATASIZE SUB DUP2 ADD SWAP1 PUSH2 0x1E5 SWAP2 SWAP1 PUSH2 0x1549 JUMP JUMPDEST PUSH2 0xA12 JUMP JUMPDEST STOP JUMPDEST CALLVALUE DUP1 ISZERO PUSH2 0x1F7 JUMPI PUSH0 PUSH0 REVERT JUMPDEST POP PUSH2 0x212 PUSH1 0x4 DUP1 CALLDATASIZE SUB DUP2 ADD SWAP1 PUSH2 0x20D SWAP2 SWAP1 PUSH2 0x1549 JUMP JUMPDEST PUSH2 0xDAF JUMP JUMPDEST STOP JUMPDEST CALLVALUE DUP1 ISZERO PUSH2 0x21F JUMPI PUSH0 PUSH0 REVERT JUMPDEST POP PUSH2 0x23A PUSH1 0x4 DUP1 CALLDATASIZE SUB DUP2 ADD SWAP1 PUSH2 0x235 SWAP2 SWAP1 PUSH2 0x1587 JUMP JUMPDEST PUSH2 0x104E JUMP JUMPDEST STOP JUMPDEST PUSH0 PUSH1 0x2 PUSH0 DUP4 DUP2 MSTORE PUSH1 0x20 ADD SWAP1 DUP2 MSTORE PUSH1 0x20 ADD PUSH0 KECCAK256 PUSH0 ADD PUSH0 SWAP1 SLOAD SWAP1 PUSH2 0x100 EXP SWAP1 DIV PUSH20 0xFFFFFFFFFFFFFFFFFFFFFFFFFFFFFFFFFFFFFFFF AND SWAP1 POP SWAP2 SWAP1 POP JUMP JUMPDEST PUSH0 PUSH0 SWAP1 SLOAD SWAP1 PUSH2 0x100 EXP SWAP1 DIV PUSH20 0xFFFFFFFFFFFFFFFFFFFFFFFFFFFFFFFFFFFFFFFF AND PUSH20 0xFFFFFFFFFFFFFFFFFFFFFFFFFFFFFFFFFFFFFFFF AND CALLER PUSH20 0xFFFFFFFFFFFFFFFFFFFFFFFFFFFFFFFFFFFFFFFF AND EQ PUSH2 0x305 JUMPI PUSH1 0x40 MLOAD PUSH32 0x8C379A000000000000000000000000000000000000000000000000000000000 DUP2 MSTORE PUSH1 0x4 ADD PUSH2 0x2FC SWAP1 PUSH2 0x1632 JUMP JUMPDEST PUSH1 0x40 MLOAD DUP1 SWAP2 SUB SWAP1 REVERT JUMPDEST PUSH0 PUSH0 SWAP1 SLOAD SWAP1 PUSH2 0x100 EXP SWAP1 DIV PUSH20 0xFFFFFFFFFFFFFFFFFFFFFFFFFFFFFFFFFFFFFFFF AND PUSH20 0xFFFFFFFFFFFFFFFFFFFFFFFFFFFFFFFFFFFFFFFF AND PUSH2 0x8FC SELFBALANCE SWAP1 DUP2 ISZERO MUL SWAP1 PUSH1 0x40 MLOAD PUSH0 PUSH1 0x40 MLOAD DUP1 DUP4 SUB DUP2 DUP6 DUP9 DUP9 CALL SWAP4 POP POP POP POP ISZERO DUP1 ISZERO PUSH2 0x368 JUMPI RETURNDATASIZE PUSH0 PUSH0 RETURNDATACOPY RETURNDATASIZE PUSH0 REVERT JUMPDEST POP JUMP JUMPDEST PUSH0 PUSH0 PUSH0 PUSH0 PUSH0 PUSH0 PUSH1 0x2 PUSH0 DUP9 DUP2 MSTORE PUSH1 0x20 ADD SWAP1 DUP2 MSTORE PUSH1 0x20 ADD PUSH0 KECCAK256 PUSH1 0x40 MLOAD DUP1 PUSH1 0xA0 ADD PUSH1 0x40 MSTORE SWAP1 DUP2 PUSH0 DUP3 ADD PUSH0 SWAP1 SLOAD SWAP1 PUSH2 0x100 EXP SWAP1 DIV PUSH20 0xFFFFFFFFFFFFFFFFFFFFFFFFFFFFFFFFFFFFFFFF AND PUSH20 0xFFFFFFFFFFFFFFFFFFFFFFFFFFFFFFFFFFFFFFFF AND PUSH20 0xFFFFFFFFFFFFFFFFFFFFFFFFFFFFFFFFFFFFFFFF AND DUP2 MSTORE PUSH1 0x20 ADD PUSH1 0x1 DUP3 ADD SLOAD DUP2 MSTORE PUSH1 0x20 ADD PUSH1 0x2 DUP3 ADD SLOAD DUP2 MSTORE PUSH1 0x20 ADD PUSH1 0x3 DUP3 ADD SLOAD DUP2 MSTORE PUSH1 0x20 ADD PUSH1 0x4 DUP3 ADD SLOAD DUP2 MSTORE POP POP SWAP1 POP DUP1 PUSH0 ADD MLOAD DUP2 PUSH1 0x20 ADD MLOAD DUP3 PUSH1 0x40 ADD MLOAD DUP4 PUSH1 0x60 ADD MLOAD DUP5 PUSH1 0x80 ADD MLOAD SWAP6 POP SWAP6 POP SWAP6 POP SWAP6 POP SWAP6 POP POP SWAP2 SWAP4 SWAP6 SWAP1 SWAP3 SWAP5 POP JUMP JUMPDEST PUSH0 PUSH1 0x2 PUSH0 DUP4 DUP2 MSTORE PUSH1 0x20 ADD SWAP1 DUP2 MSTORE PUSH1 0x20 ADD PUSH0 KECCAK256 PUSH0 ADD PUSH0 SWAP1 SLOAD SWAP1 PUSH2 0x100 EXP SWAP1 DIV PUSH20 0xFFFFFFFFFFFFFFFFFFFFFFFFFFFFFFFFFFFFFFFF AND SWAP1 POP PUSH0 PUSH20 0xFFFFFFFFFFFFFFFFFFFFFFFFFFFFFFFFFFFFFFFF AND DUP2 PUSH20 0xFFFFFFFFFFFFFFFFFFFFFFFFFFFFFFFFFFFFFFFF AND SUB PUSH2 0x4DB JUMPI PUSH1 0x40 MLOAD PUSH32 0x8C379A000000000000000000000000000000000000000000000000000000000 DUP2 MSTORE PUSH1 0x4 ADD PUSH2 0x4D2 SWAP1 PUSH2 0x169A JUMP JUMPDEST PUSH1 0x40 MLOAD DUP1 SWAP2 SUB SWAP1 REVERT JUMPDEST PUSH0 PUSH0 PUSH0 SWAP1 POP PUSH0 PUSH0 SWAP1 POP JUMPDEST PUSH1 0xA DUP2 LT ISZERO PUSH2 0x598 JUMPI PUSH0 DUP2 PUSH1 0x40 MLOAD PUSH1 0x20 ADD PUSH2 0x500 SWAP2 SWAP1 PUSH2 0x172C JUMP JUMPDEST PUSH1 0x40 MLOAD PUSH1 0x20 DUP2 DUP4 SUB SUB DUP2 MSTORE SWAP1 PUSH1 0x40 MSTORE DUP1 MLOAD SWAP1 PUSH1 0x20 ADD KECCAK256 SWAP1 POP CALLER PUSH20 0xFFFFFFFFFFFFFFFFFFFFFFFFFFFFFFFFFFFFFFFF AND PUSH1 0x2 PUSH0 DUP4 DUP2 MSTORE PUSH1 0x20 ADD SWAP1 DUP2 MSTORE PUSH1 0x20 ADD PUSH0 KECCAK256 PUSH0 ADD PUSH0 SWAP1 SLOAD SWAP1 PUSH2 0x100 EXP SWAP1 DIV PUSH20 0xFFFFFFFFFFFFFFFFFFFFFFFFFFFFFFFFFFFFFFFF AND PUSH20 0xFFFFFFFFFFFFFFFFFFFFFFFFFFFFFFFFFFFFFFFF AND SUB PUSH2 0x58A JUMPI DUP1 SWAP4 POP PUSH1 0x1 SWAP3 POP POP PUSH2 0x598 JUMP JUMPDEST POP DUP1 DUP1 PUSH1 0x1 ADD SWAP2 POP POP PUSH2 0x4E5 JUMP JUMPDEST POP DUP1 ISZERO PUSH2 0x5CA JUMPI CALLVALUE PUSH1 0x2 PUSH0 DUP5 DUP2 MSTORE PUSH1 0x20 ADD SWAP1 DUP2 MSTORE PUSH1 0x20 ADD PUSH0 KECCAK256 PUSH1 0x4 ADD PUSH0 DUP3 DUP3 SLOAD PUSH2 0x5C2 SWAP2 SWAP1 PUSH2 0x177E JUMP JUMPDEST SWAP3 POP POP DUP2 SWAP1 SSTORE POP JUMPDEST CALLVALUE PUSH1 0x2 PUSH0 DUP7 DUP2 MSTORE PUSH1 0x20 ADD SWAP1 DUP2 MSTORE PUSH1 0x20 ADD PUSH0 KECCAK256 PUSH1 0x3 ADD PUSH0 DUP3 DUP3 SLOAD PUSH2 0x5ED SWAP2 SWAP1 PUSH2 0x177E JUMP JUMPDEST SWAP3 POP POP DUP2 SWAP1 SSTORE POP PUSH0 DUP4 PUSH20 0xFFFFFFFFFFFFFFFFFFFFFFFFFFFFFFFFFFFFFFFF AND CALLVALUE PUSH1 0x40 MLOAD PUSH2 0x619 SWAP1 PUSH2 0x17DE JUMP JUMPDEST PUSH0 PUSH1 0x40 MLOAD DUP1 DUP4 SUB DUP2 DUP6 DUP8 GAS CALL SWAP3 POP POP POP RETURNDATASIZE DUP1 PUSH0 DUP2 EQ PUSH2 0x653 JUMPI PUSH1 0x40 MLOAD SWAP2 POP PUSH1 0x1F NOT PUSH1 0x3F RETURNDATASIZE ADD AND DUP3 ADD PUSH1 0x40 MSTORE RETURNDATASIZE DUP3 MSTORE RETURNDATASIZE PUSH0 PUSH1 0x20 DUP5 ADD RETURNDATACOPY PUSH2 0x658 JUMP JUMPDEST PUSH1 0x60 SWAP2 POP JUMPDEST POP POP SWAP1 POP DUP1 PUSH2 0x69C JUMPI PUSH1 0x40 MLOAD PUSH32 0x8C379A000000000000000000000000000000000000000000000000000000000 DUP2 MSTORE PUSH1 0x4 ADD PUSH2 0x693 SWAP1 PUSH2 0x183C JUMP JUMPDEST PUSH1 0x40 MLOAD DUP1 SWAP2 SUB SWAP1 REVERT JUMPDEST DUP5 DUP3 PUSH2 0x6AA JUMPI PUSH0 PUSH0 SHL PUSH2 0x6AC JUMP JUMPDEST DUP4 JUMPDEST PUSH32 0x6F2C8059F88AF5345E68DB9CEA15E62A0AA75BB19B80B8A46B694F57F655D627 CALLVALUE PUSH1 0x40 MLOAD PUSH2 0x6DB SWAP2 SWAP1 PUSH2 0x185A JUMP JUMPDEST PUSH1 0x40 MLOAD DUP1 SWAP2 SUB SWAP1 LOG3 POP POP POP POP POP JUMP JUMPDEST PUSH0 PUSH1 0x2 PUSH0 DUP4 DUP2 MSTORE PUSH1 0x20 ADD SWAP1 DUP2 MSTORE PUSH1 0x20 ADD PUSH0 KECCAK256 PUSH0 ADD PUSH0 SWAP1 SLOAD SWAP1 PUSH2 0x100 EXP SWAP1 DIV PUSH20 0xFFFFFFFFFFFFFFFFFFFFFFFFFFFFFFFFFFFFFFFF AND SWAP1 POP PUSH0 PUSH20 0xFFFFFFFFFFFFFFFFFFFFFFFFFFFFFFFFFFFFFFFF AND DUP2 PUSH20 0xFFFFFFFFFFFFFFFFFFFFFFFFFFFFFFFFFFFFFFFF AND SUB PUSH2 0x78E JUMPI PUSH1 0x40 MLOAD PUSH32 0x8C379A000000000000000000000000000000000000000000000000000000000 DUP2 MSTORE PUSH1 0x4 ADD PUSH2 0x785 SWAP1 PUSH2 0x169A JUMP JUMPDEST PUSH1 0x40 MLOAD DUP1 SWAP2 SUB SWAP1 REVERT JUMPDEST PUSH1 0x2 PUSH0 DUP5 DUP2 MSTORE PUSH1 0x20 ADD SWAP1 DUP2 MSTORE PUSH1 0x20 ADD PUSH0 KECCAK256 PUSH0 ADD PUSH0 SWAP1 SLOAD SWAP1 PUSH2 0x100 EXP SWAP1 DIV PUSH20 0xFFFFFFFFFFFFFFFFFFFFFFFFFFFFFFFFFFFFFFFF AND PUSH20 0xFFFFFFFFFFFFFFFFFFFFFFFFFFFFFFFFFFFFFFFF AND CALLER PUSH20 0xFFFFFFFFFFFFFFFFFFFFFFFFFFFFFFFFFFFFFFFF AND EQ DUP1 PUSH2 0x845 JUMPI POP PUSH0 PUSH0 SWAP1 SLOAD SWAP1 PUSH2 0x100 EXP SWAP1 DIV PUSH20 0xFFFFFFFFFFFFFFFFFFFFFFFFFFFFFFFFFFFFFFFF AND PUSH20 0xFFFFFFFFFFFFFFFFFFFFFFFFFFFFFFFFFFFFFFFF AND CALLER PUSH20 0xFFFFFFFFFFFFFFFFFFFFFFFFFFFFFFFFFFFFFFFF AND EQ JUMPDEST PUSH2 0x884 JUMPI PUSH1 0x40 MLOAD PUSH32 0x8C379A000000000000000000000000000000000000000000000000000000000 DUP2 MSTORE PUSH1 0x4 ADD PUSH2 0x87B SWAP1 PUSH2 0x18E3 JUMP JUMPDEST PUSH1 0x40 MLOAD DUP1 SWAP2 SUB SWAP1 REVERT JUMPDEST CALLVALUE PUSH1 0x2 PUSH0 DUP6 DUP2 MSTORE PUSH1 0x20 ADD SWAP1 DUP2 MSTORE PUSH1 0x20 ADD PUSH0 KECCAK256 PUSH1 0x4 ADD PUSH0 DUP3 DUP3 SLOAD PUSH2 0x8A7 SWAP2 SWAP1 PUSH2 0x177E JUMP JUMPDEST SWAP3 POP POP DUP2 SWAP1 SSTORE POP CALLVALUE PUSH1 0x2 PUSH0 DUP5 DUP2 MSTORE PUSH1 0x20 ADD SWAP1 DUP2 MSTORE PUSH1 0x20 ADD PUSH0 KECCAK256 PUSH1 0x3 ADD PUSH0 DUP3 DUP3 SLOAD PUSH2 0x8D1 SWAP2 SWAP1 PUSH2 0x177E JUMP JUMPDEST SWAP3 POP POP DUP2 SWAP1 SSTORE POP PUSH0 DUP2 PUSH20 0xFFFFFFFFFFFFFFFFFFFFFFFFFFFFFFFFFFFFFFFF AND CALLVALUE PUSH1 0x40 MLOAD PUSH2 0x8FD SWAP1 PUSH2 0x17DE JUMP JUMPDEST PUSH0 PUSH1 0x40 MLOAD DUP1 DUP4 SUB DUP2 DUP6 DUP8 GAS CALL SWAP3 POP POP POP RETURNDATASIZE DUP1 PUSH0 DUP2 EQ PUSH2 0x937 JUMPI PUSH1 0x40 MLOAD SWAP2 POP PUSH1 0x1F NOT PUSH1 0x3F RETURNDATASIZE ADD AND DUP3 ADD PUSH1 0x40 MSTORE RETURNDATASIZE DUP3 MSTORE RETURNDATASIZE PUSH0 PUSH1 0x20 DUP5 ADD RETURNDATACOPY PUSH2 0x93C JUMP JUMPDEST PUSH1 0x60 SWAP2 POP JUMPDEST POP POP SWAP1 POP DUP1 PUSH2 0x980 JUMPI PUSH1 0x40 MLOAD PUSH32 0x8C379A000000000000000000000000000000000000000000000000000000000 DUP2 MSTORE PUSH1 0x4 ADD PUSH2 0x977 SWAP1 PUSH2 0x183C JUMP JUMPDEST PUSH1 0x40 MLOAD DUP1 SWAP2 SUB SWAP1 REVERT JUMPDEST DUP3 DUP5 PUSH32 0x6F2C8059F88AF5345E68DB9CEA15E62A0AA75BB19B80B8A46B694F57F655D627 CALLVALUE PUSH1 0x40 MLOAD PUSH2 0x9B1 SWAP2 SWAP1 PUSH2 0x185A JUMP JUMPDEST PUSH1 0x40 MLOAD DUP1 SWAP2 SUB SWAP1 LOG3 POP POP POP POP JUMP JUMPDEST PUSH0 DUP2 PUSH1 0x40 MLOAD PUSH1 0x20 ADD PUSH2 0x9D1 SWAP2 SWAP1 PUSH2 0x1949 JUMP JUMPDEST PUSH1 0x40 MLOAD PUSH1 0x20 DUP2 DUP4 SUB SUB DUP2 MSTORE SWAP1 PUSH1 0x40 MSTORE DUP1 MLOAD SWAP1 PUSH1 0x20 ADD KECCAK256 SWAP1 POP SWAP2 SWAP1 POP JUMP JUMPDEST PUSH0 PUSH0 SWAP1 SLOAD SWAP1 PUSH2 0x100 EXP SWAP1 DIV PUSH20 0xFFFFFFFFFFFFFFFFFFFFFFFFFFFFFFFFFFFFFFFF AND DUP2 JUMP JUMPDEST PUSH0 PUSH20 0xFFFFFFFFFFFFFFFFFFFFFFFFFFFFFFFFFFFFFFFF AND DUP2 PUSH20 0xFFFFFFFFFFFFFFFFFFFFFFFFFFFFFFFFFFFFFFFF AND SUB PUSH2 0xA80 JUMPI PUSH1 0x40 MLOAD PUSH32 0x8C379A000000000000000000000000000000000000000000000000000000000 DUP2 MSTORE PUSH1 0x4 ADD PUSH2 0xA77 SWAP1 PUSH2 0x19A9 JUMP JUMPDEST PUSH1 0x40 MLOAD DUP1 SWAP2 SUB SWAP1 REVERT JUMPDEST PUSH0 PUSH20 0xFFFFFFFFFFFFFFFFFFFFFFFFFFFFFFFFFFFFFFFF AND PUSH1 0x2 PUSH0 DUP5 DUP2 MSTORE PUSH1 0x20 ADD SWAP1 DUP2 MSTORE PUSH1 0x20 ADD PUSH0 KECCAK256 PUSH0 ADD PUSH0 SWAP1 SLOAD SWAP1 PUSH2 0x100 EXP SWAP1 DIV PUSH20 0xFFFFFFFFFFFFFFFFFFFFFFFFFFFFFFFFFFFFFFFF AND PUSH20 0xFFFFFFFFFFFFFFFFFFFFFFFFFFFFFFFFFFFFFFFF AND EQ PUSH2 0xB86 JUMPI CALLER PUSH20 0xFFFFFFFFFFFFFFFFFFFFFFFFFFFFFFFFFFFFFFFF AND PUSH1 0x2 PUSH0 DUP5 DUP2 MSTORE PUSH1 0x20 ADD SWAP1 DUP2 MSTORE PUSH1 0x20 ADD PUSH0 KECCAK256 PUSH0 ADD PUSH0 SWAP1 SLOAD SWAP1 PUSH2 0x100 EXP SWAP1 DIV PUSH20 0xFFFFFFFFFFFFFFFFFFFFFFFFFFFFFFFFFFFFFFFF AND PUSH20 0xFFFFFFFFFFFFFFFFFFFFFFFFFFFFFFFFFFFFFFFF AND EQ PUSH2 0xB85 JUMPI PUSH1 0x40 MLOAD PUSH32 0x8C379A000000000000000000000000000000000000000000000000000000000 DUP2 MSTORE PUSH1 0x4 ADD PUSH2 0xB7C SWAP1 PUSH2 0x1A37 JUMP JUMPDEST PUSH1 0x40 MLOAD DUP1 SWAP2 SUB SWAP1 REVERT JUMPDEST JUMPDEST PUSH0 PUSH20 0xFFFFFFFFFFFFFFFFFFFFFFFFFFFFFFFFFFFFFFFF AND PUSH1 0x2 PUSH0 DUP5 DUP2 MSTORE PUSH1 0x20 ADD SWAP1 DUP2 MSTORE PUSH1 0x20 ADD PUSH0 KECCAK256 PUSH0 ADD PUSH0 SWAP1 SLOAD SWAP1 PUSH2 0x100 EXP SWAP1 DIV PUSH20 0xFFFFFFFFFFFFFFFFFFFFFFFFFFFFFFFFFFFFFFFF AND PUSH20 0xFFFFFFFFFFFFFFFFFFFFFFFFFFFFFFFFFFFFFFFF AND SUB PUSH2 0xCAD JUMPI PUSH1 0x40 MLOAD DUP1 PUSH1 0xA0 ADD PUSH1 0x40 MSTORE DUP1 DUP3 PUSH20 0xFFFFFFFFFFFFFFFFFFFFFFFFFFFFFFFFFFFFFFFF AND DUP2 MSTORE PUSH1 0x20 ADD TIMESTAMP DUP2 MSTORE PUSH1 0x20 ADD TIMESTAMP DUP2 MSTORE PUSH1 0x20 ADD PUSH0 DUP2 MSTORE PUSH1 0x20 ADD PUSH0 DUP2 MSTORE POP PUSH1 0x2 PUSH0 DUP5 DUP2 MSTORE PUSH1 0x20 ADD SWAP1 DUP2 MSTORE PUSH1 0x20 ADD PUSH0 KECCAK256 PUSH0 DUP3 ADD MLOAD DUP2 PUSH0 ADD PUSH0 PUSH2 0x100 EXP DUP2 SLOAD DUP2 PUSH20 0xFFFFFFFFFFFFFFFFFFFFFFFFFFFFFFFFFFFFFFFF MUL NOT AND SWAP1 DUP4 PUSH20 0xFFFFFFFFFFFFFFFFFFFFFFFFFFFFFFFFFFFFFFFF AND MUL OR SWAP1 SSTORE POP PUSH1 0x20 DUP3 ADD MLOAD DUP2 PUSH1 0x1 ADD SSTORE PUSH1 0x40 DUP3 ADD MLOAD DUP2 PUSH1 0x2 ADD SSTORE PUSH1 0x60 DUP3 ADD MLOAD DUP2 PUSH1 0x3 ADD SSTORE PUSH1 0x80 DUP3 ADD MLOAD DUP2 PUSH1 0x4 ADD SSTORE SWAP1 POP POP PUSH2 0xD18 JUMP JUMPDEST DUP1 PUSH1 0x2 PUSH0 DUP5 DUP2 MSTORE PUSH1 0x20 ADD SWAP1 DUP2 MSTORE PUSH1 0x20 ADD PUSH0 KECCAK256 PUSH0 ADD PUSH0 PUSH2 0x100 EXP DUP2 SLOAD DUP2 PUSH20 0xFFFFFFFFFFFFFFFFFFFFFFFFFFFFFFFFFFFFFFFF MUL NOT AND SWAP1 DUP4 PUSH20 0xFFFFFFFFFFFFFFFFFFFFFFFFFFFFFFFFFFFFFFFF AND MUL OR SWAP1 SSTORE POP TIMESTAMP PUSH1 0x2 PUSH0 DUP5 DUP2 MSTORE PUSH1 0x20 ADD SWAP1 DUP2 MSTORE PUSH1 0x20 ADD PUSH0 KECCAK256 PUSH1 0x2 ADD DUP2 SWAP1 SSTORE POP JUMPDEST DUP1 PUSH1 0x1 PUSH0 DUP5 DUP2 MSTORE PUSH1 0x20 ADD SWAP1 DUP2 MSTORE PUSH1 0x20 ADD PUSH0 KECCAK256 PUSH0 PUSH2 0x100 EXP DUP2 SLOAD DUP2 PUSH20 0xFFFFFFFFFFFFFFFFFFFFFFFFFFFFFFFFFFFFFFFF MUL NOT AND SWAP1 DUP4 PUSH20 0xFFFFFFFFFFFFFFFFFFFFFFFFFFFFFFFFFFFFFFFF AND MUL OR SWAP1 SSTORE POP DUP1 PUSH20 0xFFFFFFFFFFFFFFFFFFFFFFFFFFFFFFFFFFFFFFFF AND DUP3 PUSH32 0x3E3775452C1A736BC664F4466FCAB0687388450658C0A5FDABC4DA48B96FB210 PUSH1 0x40 MLOAD PUSH1 0x40 MLOAD DUP1 SWAP2 SUB SWAP1 LOG3 POP POP JUMP JUMPDEST PUSH0 PUSH0 SWAP1 SLOAD SWAP1 PUSH2 0x100 EXP SWAP1 DIV PUSH20 0xFFFFFFFFFFFFFFFFFFFFFFFFFFFFFFFFFFFFFFFF AND PUSH20 0xFFFFFFFFFFFFFFFFFFFFFFFFFFFFFFFFFFFFFFFF AND CALLER PUSH20 0xFFFFFFFFFFFFFFFFFFFFFFFFFFFFFFFFFFFFFFFF AND EQ PUSH2 0xE3D JUMPI PUSH1 0x40 MLOAD PUSH32 0x8C379A000000000000000000000000000000000000000000000000000000000 DUP2 MSTORE PUSH1 0x4 ADD PUSH2 0xE34 SWAP1 PUSH2 0x1632 JUMP JUMPDEST PUSH1 0x40 MLOAD DUP1 SWAP2 SUB SWAP1 REVERT JUMPDEST PUSH0 PUSH20 0xFFFFFFFFFFFFFFFFFFFFFFFFFFFFFFFFFFFFFFFF AND DUP2 PUSH20 0xFFFFFFFFFFFFFFFFFFFFFFFFFFFFFFFFFFFFFFFF AND SUB PUSH2 0xEAB JUMPI PUSH1 0x40 MLOAD PUSH32 0x8C379A000000000000000000000000000000000000000000000000000000000 DUP2 MSTORE PUSH1 0x4 ADD PUSH2 0xEA2 SWAP1 PUSH2 0x1A9F JUMP JUMPDEST PUSH1 0x40 MLOAD DUP1 SWAP2 SUB SWAP1 REVERT JUMPDEST PUSH0 PUSH1 0x2 PUSH0 DUP5 DUP2 MSTORE PUSH1 0x20 ADD SWAP1 DUP2 MSTORE PUSH1 0x20 ADD PUSH0 KECCAK256 PUSH1 0x1 ADD SLOAD SWAP1 POP PUSH1 0x40 MLOAD DUP1 PUSH1 0xA0 ADD PUSH1 0x40 MSTORE DUP1 DUP4 PUSH20 0xFFFFFFFFFFFFFFFFFFFFFFFFFFFFFFFFFFFFFFFF AND DUP2 MSTORE PUSH1 0x20 ADD PUSH0 DUP4 GT PUSH2 0xEF7 JUMPI TIMESTAMP PUSH2 0xEF9 JUMP JUMPDEST DUP3 JUMPDEST DUP2 MSTORE PUSH1 0x20 ADD TIMESTAMP DUP2 MSTORE PUSH1 0x20 ADD PUSH1 0x2 PUSH0 DUP7 DUP2 MSTORE PUSH1 0x20 ADD SWAP1 DUP2 MSTORE PUSH1 0x20 ADD PUSH0 KECCAK256 PUSH1 0x3 ADD SLOAD DUP2 MSTORE PUSH1 0x20 ADD PUSH1 0x2 PUSH0 DUP7 DUP2 MSTORE PUSH1 0x20 ADD SWAP1 DUP2 MSTORE PUSH1 0x20 ADD PUSH0 KECCAK256 PUSH1 0x4 ADD SLOAD DUP2 MSTORE POP PUSH1 0x2 PUSH0 DUP6 DUP2 MSTORE PUSH1 0x20 ADD SWAP1 DUP2 MSTORE PUSH1 0x20 ADD PUSH0 KECCAK256 PUSH0 DUP3 ADD MLOAD DUP2 PUSH0 ADD PUSH0 PUSH2 0x100 EXP DUP2 SLOAD DUP2 PUSH20 0xFFFFFFFFFFFFFFFFFFFFFFFFFFFFFFFFFFFFFFFF MUL NOT AND SWAP1 DUP4 PUSH20 0xFFFFFFFFFFFFFFFFFFFFFFFFFFFFFFFFFFFFFFFF AND MUL OR SWAP1 SSTORE POP PUSH1 0x20 DUP3 ADD MLOAD DUP2 PUSH1 0x1 ADD SSTORE PUSH1 0x40 DUP3 ADD MLOAD DUP2 PUSH1 0x2 ADD SSTORE PUSH1 0x60 DUP3 ADD MLOAD DUP2 PUSH1 0x3 ADD SSTORE PUSH1 0x80 DUP3 ADD MLOAD DUP2 PUSH1 0x4 ADD SSTORE SWAP1 POP POP DUP2 PUSH1 0x1 PUSH0 DUP6 DUP2 MSTORE PUSH1 0x20 ADD SWAP1 DUP2 MSTORE PUSH1 0x20 ADD PUSH0 KECCAK256 PUSH0 PUSH2 0x100 EXP DUP2 SLOAD DUP2 PUSH20 0xFFFFFFFFFFFFFFFFFFFFFFFFFFFFFFFFFFFFFFFF MUL NOT AND SWAP1 DUP4 PUSH20 0xFFFFFFFFFFFFFFFFFFFFFFFFFFFFFFFFFFFFFFFF AND MUL OR SWAP1 SSTORE POP DUP2 PUSH20 0xFFFFFFFFFFFFFFFFFFFFFFFFFFFFFFFFFFFFFFFF AND DUP4 PUSH32 0x3E3775452C1A736BC664F4466FCAB0687388450658C0A5FDABC4DA48B96FB210 PUSH1 0x40 MLOAD PUSH1 0x40 MLOAD DUP1 SWAP2 SUB SWAP1 LOG3 POP POP POP JUMP JUMPDEST PUSH0 PUSH0 SWAP1 SLOAD SWAP1 PUSH2 0x100 EXP SWAP1 DIV PUSH20 0xFFFFFFFFFFFFFFFFFFFFFFFFFFFFFFFFFFFFFFFF AND PUSH20 0xFFFFFFFFFFFFFFFFFFFFFFFFFFFFFFFFFFFFFFFF AND CALLER PUSH20 0xFFFFFFFFFFFFFFFFFFFFFFFFFFFFFFFFFFFFFFFF AND EQ PUSH2 0x10DC JUMPI PUSH1 0x40 MLOAD PUSH32 0x8C379A000000000000000000000000000000000000000000000000000000000 DUP2 MSTORE PUSH1 0x4 ADD PUSH2 0x10D3 SWAP1 PUSH2 0x1632 JUMP JUMPDEST PUSH1 0x40 MLOAD DUP1 SWAP2 SUB SWAP1 REVERT JUMPDEST PUSH0 PUSH20 0xFFFFFFFFFFFFFFFFFFFFFFFFFFFFFFFFFFFFFFFF AND DUP2 PUSH20 0xFFFFFFFFFFFFFFFFFFFFFFFFFFFFFFFFFFFFFFFF AND SUB PUSH2 0x114A JUMPI PUSH1 0x40 MLOAD PUSH32 0x8C379A000000000000000000000000000000000000000000000000000000000 DUP2 MSTORE PUSH1 0x4 ADD PUSH2 0x1141 SWAP1 PUSH2 0x1B07 JUMP JUMPDEST PUSH1 0x40 MLOAD DUP1 SWAP2 SUB SWAP1 REVERT JUMPDEST DUP1 PUSH20 0xFFFFFFFFFFFFFFFFFFFFFFFFFFFFFFFFFFFFFFFF AND PUSH0 PUSH0 SWAP1 SLOAD SWAP1 PUSH2 0x100 EXP SWAP1 DIV PUSH20 0xFFFFFFFFFFFFFFFFFFFFFFFFFFFFFFFFFFFFFFFF AND PUSH20 0xFFFFFFFFFFFFFFFFFFFFFFFFFFFFFFFFFFFFFFFF AND PUSH32 0x8BE0079C531659141344CD1FD0A4F28419497F9722A3DAAFE3B4186F6B6457E0 PUSH1 0x40 MLOAD PUSH1 0x40 MLOAD DUP1 SWAP2 SUB SWAP1 LOG3 DUP1 PUSH0 PUSH0 PUSH2 0x100 EXP DUP2 SLOAD DUP2 PUSH20 0xFFFFFFFFFFFFFFFFFFFFFFFFFFFFFFFFFFFFFFFF MUL NOT AND SWAP1 DUP4 PUSH20 0xFFFFFFFFFFFFFFFFFFFFFFFFFFFFFFFFFFFFFFFF AND MUL OR SWAP1 SSTORE POP POP JUMP JUMPDEST PUSH0 PUSH1 0x40 MLOAD SWAP1 POP SWAP1 JUMP JUMPDEST PUSH0 PUSH0 REVERT JUMPDEST PUSH0 PUSH0 REVERT JUMPDEST PUSH0 DUP2 SWAP1 POP SWAP2 SWAP1 POP JUMP JUMPDEST PUSH2 0x1229 DUP2 PUSH2 0x1217 JUMP JUMPDEST DUP2 EQ PUSH2 0x1233 JUMPI PUSH0 PUSH0 REVERT JUMPDEST POP JUMP JUMPDEST PUSH0 DUP2 CALLDATALOAD SWAP1 POP PUSH2 0x1244 DUP2 PUSH2 0x1220 JUMP JUMPDEST SWAP3 SWAP2 POP POP JUMP JUMPDEST PUSH0 PUSH1 0x20 DUP3 DUP5 SUB SLT ISZERO PUSH2 0x125F JUMPI PUSH2 0x125E PUSH2 0x120F JUMP JUMPDEST JUMPDEST PUSH0 PUSH2 0x126C DUP5 DUP3 DUP6 ADD PUSH2 0x1236 JUMP JUMPDEST SWAP2 POP POP SWAP3 SWAP2 POP POP JUMP JUMPDEST PUSH0 PUSH20 0xFFFFFFFFFFFFFFFFFFFFFFFFFFFFFFFFFFFFFFFF DUP3 AND SWAP1 POP SWAP2 SWAP1 POP JUMP JUMPDEST PUSH0 PUSH2 0x129E DUP3 PUSH2 0x1275 JUMP JUMPDEST SWAP1 POP SWAP2 SWAP1 POP JUMP JUMPDEST PUSH2 0x12AE DUP2 PUSH2 0x1294 JUMP JUMPDEST DUP3 MSTORE POP POP JUMP JUMPDEST PUSH0 PUSH1 0x20 DUP3 ADD SWAP1 POP PUSH2 0x12C7 PUSH0 DUP4 ADD DUP5 PUSH2 0x12A5 JUMP JUMPDEST SWAP3 SWAP2 POP POP JUMP JUMPDEST PUSH0 DUP2 SWAP1 POP SWAP2 SWAP1 POP JUMP JUMPDEST PUSH2 0x12DF DUP2 PUSH2 0x12CD JUMP JUMPDEST DUP3 MSTORE POP POP JUMP JUMPDEST PUSH0 PUSH1 0xA0 DUP3 ADD SWAP1 POP PUSH2 0x12F8 PUSH0 DUP4 ADD DUP9 PUSH2 0x12A5 JUMP JUMPDEST PUSH2 0x1305 PUSH1 0x20 DUP4 ADD DUP8 PUSH2 0x12D6 JUMP JUMPDEST PUSH2 0x1312 PUSH1 0x40 DUP4 ADD DUP7 PUSH2 0x12D6 JUMP JUMPDEST PUSH2 0x131F PUSH1 0x60 DUP4 ADD DUP6 PUSH2 0x12D6 JUMP JUMPDEST PUSH2 0x132C PUSH1 0x80 DUP4 ADD DUP5 PUSH2 0x12D6 JUMP JUMPDEST SWAP7 SWAP6 POP POP POP POP POP POP JUMP JUMPDEST PUSH0 PUSH0 PUSH1 0x40 DUP4 DUP6 SUB SLT ISZERO PUSH2 0x134C JUMPI PUSH2 0x134B PUSH2 0x120F JUMP JUMPDEST JUMPDEST PUSH0 PUSH2 0x1359 DUP6 DUP3 DUP7 ADD PUSH2 0x1236 JUMP JUMPDEST SWAP3 POP POP PUSH1 0x20 PUSH2 0x136A DUP6 DUP3 DUP7 ADD PUSH2 0x1236 JUMP JUMPDEST SWAP2 POP POP SWAP3 POP SWAP3 SWAP1 POP JUMP JUMPDEST PUSH0 PUSH0 REVERT JUMPDEST PUSH0 PUSH0 REVERT JUMPDEST PUSH0 PUSH1 0x1F NOT PUSH1 0x1F DUP4 ADD AND SWAP1 POP SWAP2 SWAP1 POP JUMP JUMPDEST PUSH32 0x4E487B7100000000000000000000000000000000000000000000000000000000 PUSH0 MSTORE PUSH1 0x41 PUSH1 0x4 MSTORE PUSH1 0x24 PUSH0 REVERT JUMPDEST PUSH2 0x13C2 DUP3 PUSH2 0x137C JUMP JUMPDEST DUP2 ADD DUP2 DUP2 LT PUSH8 0xFFFFFFFFFFFFFFFF DUP3 GT OR ISZERO PUSH2 0x13E1 JUMPI PUSH2 0x13E0 PUSH2 0x138C JUMP JUMPDEST JUMPDEST DUP1 PUSH1 0x40 MSTORE POP POP POP JUMP JUMPDEST PUSH0 PUSH2 0x13F3 PUSH2 0x1206 JUMP JUMPDEST SWAP1 POP PUSH2 0x13FF DUP3 DUP3 PUSH2 0x13B9 JUMP JUMPDEST SWAP2 SWAP1 POP JUMP JUMPDEST PUSH0 PUSH8 0xFFFFFFFFFFFFFFFF DUP3 GT ISZERO PUSH2 0x141E JUMPI PUSH2 0x141D PUSH2 0x138C JUMP JUMPDEST JUMPDEST PUSH2 0x1427 DUP3 PUSH2 0x137C JUMP JUMPDEST SWAP1 POP PUSH1 0x20 DUP2 ADD SWAP1 POP SWAP2 SWAP1 POP JUMP JUMPDEST DUP3 DUP2 DUP4 CALLDATACOPY PUSH0 DUP4 DUP4 ADD MSTORE POP POP POP JUMP JUMPDEST PUSH0 PUSH2 0x1454 PUSH2 0x144F DUP5 PUSH2 0x1404 JUMP JUMPDEST PUSH2 0x13EA JUMP JUMPDEST SWAP1 POP DUP3 DUP2 MSTORE PUSH1 0x20 DUP2 ADD DUP5 DUP5 DUP5 ADD GT ISZERO PUSH2 0x1470 JUMPI PUSH2 0x146F PUSH2 0x1378 JUMP JUMPDEST JUMPDEST PUSH2 0x147B DUP5 DUP3 DUP6 PUSH2 0x1434 JUMP JUMPDEST POP SWAP4 SWAP3 POP POP POP JUMP JUMPDEST PUSH0 DUP3 PUSH1 0x1F DUP4 ADD SLT PUSH2 0x1497 JUMPI PUSH2 0x1496 PUSH2 0x1374 JUMP JUMPDEST JUMPDEST DUP2 CALLDATALOAD PUSH2 0x14A7 DUP5 DUP3 PUSH1 0x20 DUP7 ADD PUSH2 0x1442 JUMP JUMPDEST SWAP2 POP POP SWAP3 SWAP2 POP POP JUMP JUMPDEST PUSH0 PUSH1 0x20 DUP3 DUP5 SUB SLT ISZERO PUSH2 0x14C5 JUMPI PUSH2 0x14C4 PUSH2 0x120F JUMP JUMPDEST JUMPDEST PUSH0 DUP3 ADD CALLDATALOAD PUSH8 0xFFFFFFFFFFFFFFFF DUP2 GT ISZERO PUSH2 0x14E2 JUMPI PUSH2 0x14E1 PUSH2 0x1213 JUMP JUMPDEST JUMPDEST PUSH2 0x14EE DUP5 DUP3 DUP6 ADD PUSH2 0x1483 JUMP JUMPDEST SWAP2 POP POP SWAP3 SWAP2 POP POP JUMP JUMPDEST PUSH2 0x1500 DUP2 PUSH2 0x1217 JUMP JUMPDEST DUP3 MSTORE POP POP JUMP JUMPDEST PUSH0 PUSH1 0x20 DUP3 ADD SWAP1 POP PUSH2 0x1519 PUSH0 DUP4 ADD DUP5 PUSH2 0x14F7 JUMP JUMPDEST SWAP3 SWAP2 POP POP JUMP JUMPDEST PUSH2 0x1528 DUP2 PUSH2 0x1294 JUMP JUMPDEST DUP2 EQ PUSH2 0x1532 JUMPI PUSH0 PUSH0 REVERT JUMPDEST POP JUMP JUMPDEST PUSH0 DUP2 CALLDATALOAD SWAP1 POP PUSH2 0x1543 DUP2 PUSH2 0x151F JUMP JUMPDEST SWAP3 SWAP2 POP POP JUMP JUMPDEST PUSH0 PUSH0 PUSH1 0x40 DUP4 DUP6 SUB SLT ISZERO PUSH2 0x155F JUMPI PUSH2 0x155E PUSH2 0x120F JUMP JUMPDEST JUMPDEST PUSH0 PUSH2 0x156C DUP6 DUP3 DUP7 ADD PUSH2 0x1236 JUMP JUMPDEST SWAP3 POP POP PUSH1 0x20 PUSH2 0x157D DUP6 DUP3 DUP7 ADD PUSH2 0x1535 JUMP JUMPDEST SWAP2 POP POP SWAP3 POP SWAP3 SWAP1 POP JUMP JUMPDEST PUSH0 PUSH1 0x20 DUP3 DUP5 SUB SLT ISZERO PUSH2 0x159C JUMPI PUSH2 0x159B PUSH2 0x120F JUMP JUMPDEST JUMPDEST PUSH0 PUSH2 0x15A9 DUP5 DUP3 DUP6 ADD PUSH2 0x1535 JUMP JUMPDEST SWAP2 POP POP SWAP3 SWAP2 POP POP JUMP JUMPDEST PUSH0 DUP3 DUP3 MSTORE PUSH1 0x20 DUP3 ADD SWAP1 POP SWAP3 SWAP2 POP POP JUMP JUMPDEST PUSH32 0x4F6E6C79206F776E65722063616E2063616C6C20746869732066756E6374696F PUSH0 DUP3 ADD MSTORE PUSH32 0x6E00000000000000000000000000000000000000000000000000000000000000 PUSH1 0x20 DUP3 ADD MSTORE POP JUMP JUMPDEST PUSH0 PUSH2 0x161C PUSH1 0x21 DUP4 PUSH2 0x15B2 JUMP JUMPDEST SWAP2 POP PUSH2 0x1627 DUP3 PUSH2 0x15C2 JUMP JUMPDEST PUSH1 0x40 DUP3 ADD SWAP1 POP SWAP2 SWAP1 POP JUMP JUMPDEST PUSH0 PUSH1 0x20 DUP3 ADD SWAP1 POP DUP2 DUP2 SUB PUSH0 DUP4 ADD MSTORE PUSH2 0x1649 DUP2 PUSH2 0x1610 JUMP JUMPDEST SWAP1 POP SWAP2 SWAP1 POP JUMP JUMPDEST PUSH32 0x526563697069656E7420656D61696C206E6F7420726567697374657265640000 PUSH0 DUP3 ADD MSTORE POP JUMP JUMPDEST PUSH0 PUSH2 0x1684 PUSH1 0x1E DUP4 PUSH2 0x15B2 JUMP JUMPDEST SWAP2 POP PUSH2 0x168F DUP3 PUSH2 0x1650 JUMP JUMPDEST PUSH1 0x20 DUP3 ADD SWAP1 POP SWAP2 SWAP1 POP JUMP JUMPDEST PUSH0 PUSH1 0x20 DUP3 ADD SWAP1 POP DUP2 DUP2 SUB PUSH0 DUP4 ADD MSTORE PUSH2 0x16B1 DUP2 PUSH2 0x1678 JUMP JUMPDEST SWAP1 POP SWAP2 SWAP1 POP JUMP JUMPDEST PUSH0 DUP2 SWAP1 POP SWAP3 SWAP2 POP POP JUMP JUMPDEST PUSH32 0x706C616365686F6C646572000000000000000000000000000000000000000000 PUSH0 DUP3 ADD MSTORE POP JUMP JUMPDEST PUSH0 PUSH2 0x16F6 PUSH1 0xB DUP4 PUSH2 0x16B8 JUMP JUMPDEST SWAP2 POP PUSH2 0x1701 DUP3 PUSH2 0x16C2 JUMP JUMPDEST PUSH1 0xB DUP3 ADD SWAP1 POP SWAP2 SWAP1 POP JUMP JUMPDEST PUSH0 DUP2 SWAP1 POP SWAP2 SWAP1 POP JUMP JUMPDEST PUSH2 0x1726 PUSH2 0x1721 DUP3 PUSH2 0x12CD JUMP JUMPDEST PUSH2 0x170C JUMP JUMPDEST DUP3 MSTORE POP POP JUMP JUMPDEST PUSH0 PUSH2 0x1736 DUP3 PUSH2 0x16EA JUMP JUMPDEST SWAP2 POP PUSH2 0x1742 DUP3 DUP5 PUSH2 0x1715 JUMP JUMPDEST PUSH1 0x20 DUP3 ADD SWAP2 POP DUP2 SWAP1 POP SWAP3 SWAP2 POP POP JUMP JUMPDEST PUSH32 0x4E487B7100000000000000000000000000000000000000000000000000000000 PUSH0 MSTORE PUSH1 0x11 PUSH1 0x4 MSTORE PUSH1 0x24 PUSH0 REVERT JUMPDEST PUSH0 PUSH2 0x1788 DUP3 PUSH2 0x12CD JUMP JUMPDEST SWAP2 POP PUSH2 0x1793 DUP4 PUSH2 0x12CD JUMP JUMPDEST SWAP3 POP DUP3 DUP3 ADD SWAP1 POP DUP1 DUP3 GT ISZERO PUSH2 0x17AB JUMPI PUSH2 0x17AA PUSH2 0x1751 JUMP JUMPDEST JUMPDEST SWAP3 SWAP2 POP POP JUMP JUMPDEST PUSH0 DUP2 SWAP1 POP SWAP3 SWAP2 POP POP JUMP JUMPDEST POP JUMP JUMPDEST PUSH0 PUSH2 0x17C9 PUSH0 DUP4 PUSH2 0x17B1 JUMP JUMPDEST SWAP2 POP PUSH2 0x17D4 DUP3 PUSH2 0x17BB JUMP JUMPDEST PUSH0 DUP3 ADD SWAP1 POP SWAP2 SWAP1 POP JUMP JUMPDEST PUSH0 PUSH2 0x17E8 DUP3 PUSH2 0x17BE JUMP JUMPDEST SWAP2 POP DUP2 SWAP1 POP SWAP2 SWAP1 POP JUMP JUMPDEST PUSH32 0x4661696C656420746F2073656E64207061796D656E7400000000000000000000 PUSH0 DUP3 ADD MSTORE POP JUMP JUMPDEST PUSH0 PUSH2 0x1826 PUSH1 0x16 DUP4 PUSH2 0x15B2 JUMP JUMPDEST SWAP2 POP PUSH2 0x1831 DUP3 PUSH2 0x17F2 JUMP JUMPDEST PUSH1 0x20 DUP3 ADD SWAP1 POP SWAP2 SWAP1 POP JUMP JUMPDEST PUSH0 PUSH1 0x20 DUP3 ADD SWAP1 POP DUP2 DUP2 SUB PUSH0 DUP4 ADD MSTORE PUSH2 0x1853 DUP2 PUSH2 0x181A JUMP JUMPDEST SWAP1 POP SWAP2 SWAP1 POP JUMP JUMPDEST PUSH0 PUSH1 0x20 DUP3 ADD SWAP1 POP PUSH2 0x186D PUSH0 DUP4 ADD DUP5 PUSH2 0x12D6 JUMP JUMPDEST SWAP3 SWAP2 POP POP JUMP JUMPDEST PUSH32 0x53656E646572206E6F7420617574686F72697A656420666F7220746869732065 PUSH0 DUP3 ADD MSTORE PUSH32 0x6D61696C00000000000000000000000000000000000000000000000000000000 PUSH1 0x20 DUP3 ADD MSTORE POP JUMP JUMPDEST PUSH0 PUSH2 0x18CD PUSH1 0x24 DUP4 PUSH2 0x15B2 JUMP JUMPDEST SWAP2 POP PUSH2 0x18D8 DUP3 PUSH2 0x1873 JUMP JUMPDEST PUSH1 0x40 DUP3 ADD SWAP1 POP SWAP2 SWAP1 POP JUMP JUMPDEST PUSH0 PUSH1 0x20 DUP3 ADD SWAP1 POP DUP2 DUP2 SUB PUSH0 DUP4 ADD MSTORE PUSH2 0x18FA DUP2 PUSH2 0x18C1 JUMP JUMPDEST SWAP1 POP SWAP2 SWAP1 POP JUMP JUMPDEST PUSH0 DUP2 MLOAD SWAP1 POP SWAP2 SWAP1 POP JUMP JUMPDEST DUP3 DUP2 DUP4 MCOPY PUSH0 DUP4 DUP4 ADD MSTORE POP POP POP JUMP JUMPDEST PUSH0 PUSH2 0x1923 DUP3 PUSH2 0x1901 JUMP JUMPDEST PUSH2 0x192D DUP2 DUP6 PUSH2 0x16B8 JUMP JUMPDEST SWAP4 POP PUSH2 0x193D DUP2 DUP6 PUSH1 0x20 DUP7 ADD PUSH2 0x190B JUMP JUMPDEST DUP1 DUP5 ADD SWAP2 POP POP SWAP3 SWAP2 POP POP JUMP JUMPDEST PUSH0 PUSH2 0x1954 DUP3 DUP5 PUSH2 0x1919 JUMP JUMPDEST SWAP2 POP DUP2 SWAP1 POP SWAP3 SWAP2 POP POP JUMP JUMPDEST PUSH32 0x43616E6E6F74207265676973746572207A65726F206164647265737300000000 PUSH0 DUP3 ADD MSTORE POP JUMP JUMPDEST PUSH0 PUSH2 0x1993 PUSH1 0x1C DUP4 PUSH2 0x15B2 JUMP JUMPDEST SWAP2 POP PUSH2 0x199E DUP3 PUSH2 0x195F JUMP JUMPDEST PUSH1 0x20 DUP3 ADD SWAP1 POP SWAP2 SWAP1 POP JUMP JUMPDEST PUSH0 PUSH1 0x20 DUP3 ADD SWAP1 POP DUP2 DUP2 SUB PUSH0 DUP4 ADD MSTORE PUSH2 0x19C0 DUP2 PUSH2 0x1987 JUMP JUMPDEST SWAP1 POP SWAP2 SWAP1 POP JUMP JUMPDEST PUSH32 0x456D61696C20616C7265616479207265676973746572656420746F20616E6F74 PUSH0 DUP3 ADD MSTORE PUSH32 0x6865722077616C6C657400000000000000000000000000000000000000000000 PUSH1 0x20 DUP3 ADD MSTORE POP JUMP JUMPDEST PUSH0 PUSH2 0x1A21 PUSH1 0x2A DUP4 PUSH2 0x15B2 JUMP JUMPDEST SWAP2 POP PUSH2 0x1A2C DUP3 PUSH2 0x19C7 JUMP JUMPDEST PUSH1 0x40 DUP3 ADD SWAP1 POP SWAP2 SWAP1 POP JUMP JUMPDEST PUSH0 PUSH1 0x20 DUP3 ADD SWAP1 POP DUP2 DUP2 SUB PUSH0 DUP4 ADD MSTORE PUSH2 0x1A4E DUP2 PUSH2 0x1A15 JUMP JUMPDEST SWAP1 POP SWAP2 SWAP1 POP JUMP JUMPDEST PUSH32 0x43616E6E6F7420736574207A65726F2061646472657373000000000000000000 PUSH0 DUP3 ADD MSTORE POP JUMP JUMPDEST PUSH0 PUSH2 0x1A89 PUSH1 0x17 DUP4 PUSH2 0x15B2 JUMP JUMPDEST SWAP2 POP PUSH2 0x1A94 DUP3 PUSH2 0x1A55 JUMP JUMPDEST PUSH1 0x20 DUP3 ADD SWAP1 POP SWAP2 SWAP1 POP JUMP JUMPDEST PUSH0 PUSH1 0x20 DUP3 ADD SWAP1 POP DUP2 DUP2 SUB PUSH0 DUP4 ADD MSTORE PUSH2 0x1AB6 DUP2 PUSH2 0x1A7D JUMP JUMPDEST SWAP1 POP SWAP2 SWAP1 POP JUMP JUMPDEST PUSH32 0x4E6577206F776E65722063616E6E6F74206265207A65726F2061646472657373 PUSH0 DUP3 ADD MSTORE POP JUMP JUMPDEST PUSH0 PUSH2 0x1AF1 PUSH1 0x20 DUP4 PUSH2 0x15B2 JUMP JUMPDEST SWAP2 POP PUSH2 0x1AFC DUP3 PUSH2 0x1ABD JUMP JUMPDEST PUSH1 0x20 DUP3 ADD SWAP1 POP SWAP2 SWAP1 POP JUMP JUMPDEST PUSH0 PUSH1 0x20 DUP3 ADD SWAP1 POP DUP2 DUP2 SUB PUSH0 DUP4 ADD MSTORE PUSH2 0x1B1E DUP2 PUSH2 0x1AE5 JUMP JUMPDEST SWAP1 POP SWAP2 SWAP1 POP JUMP INVALID LOG2 PUSH5 0x6970667358 0x22 SLT KECCAK256 PUSH28 0x2FE52D19D3ADD336E22FF2A800AA21F77A27328BC94930E8995F8972 CALLER 0xB7 ADD PUSH5 0x736F6C6343 STOP ADDMOD 0x1E STOP CALLER "
	},
	"abi": [
		{
			"inputs": [
				{
					"internalType": "bytes32",
					"name": "emailHash",
					"type": "bytes32"
				},
				{
					"internalType": "address",
					"name": "newWallet",
					"type": "address"
				}
			],
			"name": "adminOverrideEmail",
			"outputs": [],
			"stateMutability": "nonpayable",
			"type": "function"
		},
		{
			"inputs": [],
			"stateMutability": "nonpayable",
			"type": "constructor"
		},
		{
			"anonymous": false,
			"inputs": [
				{
					"indexed": true,
					"internalType": "bytes32",
					"name": "emailHash",
					"type": "bytes32"
				},
				{
					"indexed": true,
					"internalType": "address",
					"name": "wallet",
					"type": "address"
				}
			],
			"name": "EmailRegistered",
			"type": "event"
		},
		{
			"anonymous": false,
			"inputs": [
				{
					"indexed": true,
					"internalType": "address",
					"name": "previousOwner",
					"type": "address"
				},
				{
					"indexed": true,
					"internalType": "address",
					"name": "newOwner",
					"type": "address"
				}
			],
			"name": "OwnershipTransferred",
			"type": "event"
		},
		{
			"anonymous": false,
			"inputs": [
				{
					"indexed": true,
					"internalType": "bytes32",
					"name": "fromEmailHash",
					"type": "bytes32"
				},
				{
					"indexed": true,
					"internalType": "bytes32",
					"name": "toEmailHash",
					"type": "bytes32"
				},
				{
					"indexed": false,
					"internalType": "uint256",
					"name": "amount",
					"type": "uint256"
				}
			],
			"name": "PaymentSent",
			"type": "event"
		},
		{
			"inputs": [
				{
					"internalType": "bytes32",
					"name": "emailHash",
					"type": "bytes32"
				},
				{
					"internalType": "address",
					"name": "wallet",
					"type": "address"
				}
			],
			"name": "registerEmail",
			"outputs": [],
			"stateMutability": "nonpayable",
			"type": "function"
		},
		{
			"inputs": [
				{
					"internalType": "bytes32",
					"name": "fromEmailHash",
					"type": "bytes32"
				},
				{
					"internalType": "bytes32",
					"name": "toEmailHash",
					"type": "bytes32"
				}
			],
			"name": "sendPaymentByEmail",
			"outputs": [],
			"stateMutability": "payable",
			"type": "function"
		},
		{
			"inputs": [
				{
					"internalType": "bytes32",
					"name": "toEmailHash",
					"type": "bytes32"
				}
			],
			"name": "sendPaymentToEmail",
			"outputs": [],
			"stateMutability": "payable",
			"type": "function"
		},
		{
			"inputs": [
				{
					"internalType": "address",
					"name": "newOwner",
					"type": "address"
				}
			],
			"name": "transferOwnership",
			"outputs": [],
			"stateMutability": "nonpayable",
			"type": "function"
		},
		{
			"inputs": [],
			"name": "withdraw",
			"outputs": [],
			"stateMutability": "nonpayable",
			"type": "function"
		},
		{
			"inputs": [
				{
					"internalType": "string",
					"name": "email",
					"type": "string"
				}
			],
			"name": "computeEmailHash",
			"outputs": [
				{
					"internalType": "bytes32",
					"name": "",
					"type": "bytes32"
				}
			],
			"stateMutability": "pure",
			"type": "function"
		},
		{
			"inputs": [
				{
					"internalType": "bytes32",
					"name": "emailHash",
					"type": "bytes32"
				}
			],
			"name": "getUserProfile",
			"outputs": [
				{
					"internalType": "address",
					"name": "wallet",
					"type": "address"
				},
				{
					"internalType": "uint256",
					"name": "registeredAt",
					"type": "uint256"
				},
				{
					"internalType": "uint256",
					"name": "lastUpdatedAt",
					"type": "uint256"
				},
				{
					"internalType": "uint256",
					"name": "totalReceived",
					"type": "uint256"
				},
				{
					"internalType": "uint256",
					"name": "totalSent",
					"type": "uint256"
				}
			],
			"stateMutability": "view",
			"type": "function"
		},
		{
			"inputs": [
				{
					"internalType": "bytes32",
					"name": "emailHash",
					"type": "bytes32"
				}
			],
			"name": "getWalletByEmail",
			"outputs": [
				{
					"internalType": "address",
					"name": "",
					"type": "address"
				}
			],
			"stateMutability": "view",
			"type": "function"
		},
		{
			"inputs": [],
			"name": "owner",
			"outputs": [
				{
					"internalType": "address",
					"name": "",
					"type": "address"
				}
			],
			"stateMutability": "view",
			"type": "function"
		}
	],
	"storageLayout": {
		"storage": [
			{
				"astId": 4,
				"contract": "emailpayment.sol:EmailPaymentRegistry",
				"label": "owner",
				"offset": 0,
				"slot": "0",
				"type": "t_address"
			},
			{
				"astId": 8,
				"contract": "emailpayment.sol:EmailPaymentRegistry",
				"label": "emailToWallet",
				"offset": 0,
				"slot": "1",
				"type": "t_mapping(t_bytes32,t_address)"
			},
			{
				"astId": 24,
				"contract": "emailpayment.sol:EmailPaymentRegistry",
				"label": "emailProfiles",
				"offset": 0,
				"slot": "2",
				"type": "t_mapping(t_bytes32,t_struct(UserProfile)19_storage)"
			}
		],
		"types": {
			"t_address": {
				"encoding": "inplace",
				"label": "address",
				"numberOfBytes": "20"
			},
			"t_bytes32": {
				"encoding": "inplace",
				"label": "bytes32",
				"numberOfBytes": "32"
			},
			"t_mapping(t_bytes32,t_address)": {
				"encoding": "mapping",
				"key": "t_bytes32",
				"label": "mapping(bytes32 => address)",
				"numberOfBytes": "32",
				"value": "t_address"
			},
			"t_mapping(t_bytes32,t_struct(UserProfile)19_storage)": {
				"encoding": "mapping",
				"key": "t_bytes32",
				"label": "mapping(bytes32 => struct EmailPaymentRegistry.UserProfile)",
				"numberOfBytes": "32",
				"value": "t_struct(UserProfile)19_storage"
			},
			"t_struct(UserProfile)19_storage": {
				"encoding": "inplace",
				"label": "struct EmailPaymentRegistry.UserProfile",
				"members": [
					{
						"astId": 10,
						"contract": "emailpayment.sol:EmailPaymentRegistry",
						"label": "wallet",
						"offset": 0,
						"slot": "0",
						"type": "t_address"
					},
					{
						"astId": 12,
						"contract": "emailpayment.sol:EmailPaymentRegistry",
						"label": "registeredAt",
						"offset": 0,
						"slot": "1",
						"type": "t_uint256"
					},
					{
						"astId": 14,
						"contract": "emailpayment.sol:EmailPaymentRegistry",
						"label": "lastUpdatedAt",
						"offset": 0,
						"slot": "2",
						"type": "t_uint256"
					},
					{
						"astId": 16,
						"contract": "emailpayment.sol:EmailPaymentRegistry",
						"label": "totalReceived",
						"offset": 0,
						"slot": "3",
						"type": "t_uint256"
					},
					{
						"astId": 18,
						"contract": "emailpayment.sol:EmailPaymentRegistry",
						"label": "totalSent",
						"offset": 0,
						"slot": "4",
						"type": "t_uint256"
					}
				],
				"numberOfBytes": "160"
			},
			"t_uint256": {
				"encoding": "inplace",
				"label": "uint256",
				"numberOfBytes": "32"
			}
		}
	},
	"web3Deploy": "var emailpaymentregistryContract = new web3.eth.Contract([{\"inputs\":[],\"stateMutability\":\"nonpayable\",\"type\":\"constructor\"},{\"anonymous\":false,\"inputs\":[{\"indexed\":true,\"internalType\":\"bytes32\",\"name\":\"emailHash\",\"type\":\"bytes32\"},{\"indexed\":true,\"internalType\":\"address\",\"name\":\"wallet\",\"type\":\"address\"}],\"name\":\"EmailRegistered\",\"type\":\"event\"},{\"anonymous\":false,\"inputs\":[{\"indexed\":true,\"internalType\":\"address\",\"name\":\"previousOwner\",\"type\":\"address\"},{\"indexed\":true,\"internalType\":\"address\",\"name\":\"newOwner\",\"type\":\"address\"}],\"name\":\"OwnershipTransferred\",\"type\":\"event\"},{\"anonymous\":false,\"inputs\":[{\"indexed\":true,\"internalType\":\"bytes32\",\"name\":\"fromEmailHash\",\"type\":\"bytes32\"},{\"indexed\":true,\"internalType\":\"bytes32\",\"name\":\"toEmailHash\",\"type\":\"bytes32\"},{\"indexed\":false,\"internalType\":\"uint256\",\"name\":\"amount\",\"type\":\"uint256\"}],\"name\":\"PaymentSent\",\"type\":\"event\"},{\"inputs\":[{\"internalType\":\"bytes32\",\"name\":\"emailHash\",\"type\":\"bytes32\"},{\"internalType\":\"address\",\"name\":\"newWallet\",\"type\":\"address\"}],\"name\":\"adminOverrideEmail\",\"outputs\":[],\"stateMutability\":\"nonpayable\",\"type\":\"function\"},{\"inputs\":[{\"internalType\":\"string\",\"name\":\"email\",\"type\":\"string\"}],\"name\":\"computeEmailHash\",\"outputs\":[{\"internalType\":\"bytes32\",\"name\":\"\",\"type\":\"bytes32\"}],\"stateMutability\":\"pure\",\"type\":\"function\"},{\"inputs\":[{\"internalType\":\"bytes32\",\"name\":\"emailHash\",\"type\":\"bytes32\"}],\"name\":\"getUserProfile\",\"outputs\":[{\"internalType\":\"address\",\"name\":\"wallet\",\"type\":\"address\"},{\"internalType\":\"uint256\",\"name\":\"registeredAt\",\"type\":\"uint256\"},{\"internalType\":\"uint256\",\"name\":\"lastUpdatedAt\",\"type\":\"uint256\"},{\"internalType\":\"uint256\",\"name\":\"totalReceived\",\"type\":\"uint256\"},{\"internalType\":\"uint256\",\"name\":\"totalSent\",\"type\":\"uint256\"}],\"stateMutability\":\"view\",\"type\":\"function\"},{\"inputs\":[{\"internalType\":\"bytes32\",\"name\":\"emailHash\",\"type\":\"bytes32\"}],\"name\":\"getWalletByEmail\",\"outputs\":[{\"internalType\":\"address\",\"name\":\"\",\"type\":\"address\"}],\"stateMutability\":\"view\",\"type\":\"function\"},{\"inputs\":[],\"name\":\"owner\",\"outputs\":[{\"internalType\":\"address\",\"name\":\"\",\"type\":\"address\"}],\"stateMutability\":\"view\",\"type\":\"function\"},{\"inputs\":[{\"internalType\":\"bytes32\",\"name\":\"emailHash\",\"type\":\"bytes32\"},{\"internalType\":\"address\",\"name\":\"wallet\",\"type\":\"address\"}],\"name\":\"registerEmail\",\"outputs\":[],\"stateMutability\":\"nonpayable\",\"type\":\"function\"},{\"inputs\":[{\"internalType\":\"bytes32\",\"name\":\"fromEmailHash\",\"type\":\"bytes32\"},{\"internalType\":\"bytes32\",\"name\":\"toEmailHash\",\"type\":\"bytes32\"}],\"name\":\"sendPaymentByEmail\",\"outputs\":[],\"stateMutability\":\"payable\",\"type\":\"function\"},{\"inputs\":[{\"internalType\":\"bytes32\",\"name\":\"toEmailHash\",\"type\":\"bytes32\"}],\"name\":\"sendPaymentToEmail\",\"outputs\":[],\"stateMutability\":\"payable\",\"type\":\"function\"},{\"inputs\":[{\"internalType\":\"address\",\"name\":\"newOwner\",\"type\":\"address\"}],\"name\":\"transferOwnership\",\"outputs\":[],\"stateMutability\":\"nonpayable\",\"type\":\"function\"},{\"inputs\":[],\"name\":\"withdraw\",\"outputs\":[],\"stateMutability\":\"nonpayable\",\"type\":\"function\"}]);\nvar emailpaymentregistry = emailpaymentregistryContract.deploy({\n     data: '0x6080604052348015600e575f5ffd5b50335f5f6101000a81548173ffffffffffffffffffffffffffffffffffffffff021916908373ffffffffffffffffffffffffffffffffffffffff160217905550611b5b8061005b5f395ff3fe608060405260043610610090575f3560e01c80638aed9cc3116100585780638aed9cc31461015e5780638da5cb5b1461019a5780638db5b06a146101c45780639d36fd0c146101ec578063f2fde38b1461021457610090565b80630d8d5e1b146100945780633ccfd60b146100d05780636c6848cc146100e65780637945b7141461012657806379658c5d14610142575b5f5ffd5b34801561009f575f5ffd5b506100ba60048036038101906100b5919061124a565b61023c565b6040516100c791906112b4565b60405180910390f35b3480156100db575f5ffd5b506100e4610277565b005b3480156100f1575f5ffd5b5061010c6004803603810190610107919061124a565b61036b565b60405161011d9594939291906112e5565b60405180910390f35b610140600480360381019061013b919061124a565b610437565b005b61015c60048036038101906101579190611336565b6106ea565b005b348015610169575f5ffd5b50610184600480360381019061017f91906114b0565b6109bf565b6040516101919190611506565b60405180910390f35b3480156101a5575f5ffd5b506101ae6109ee565b6040516101bb91906112b4565b60405180910390f35b3480156101cf575f5ffd5b506101ea60048036038101906101e59190611549565b610a12565b005b3480156101f7575f5ffd5b50610212600480360381019061020d9190611549565b610daf565b005b34801561021f575f5ffd5b5061023a60048036038101906102359190611587565b61104e565b005b5f60025f8381526020019081526020015f205f015f9054906101000a900473ffffffffffffffffffffffffffffffffffffffff169050919050565b5f5f9054906101000a900473ffffffffffffffffffffffffffffffffffffffff1673ffffffffffffffffffffffffffffffffffffffff163373ffffffffffffffffffffffffffffffffffffffff1614610305576040517f08c379a00000000000000000000000000000000000000000000000000000000081526004016102fc90611632565b60405180910390fd5b5f5f9054906101000a900473ffffffffffffffffffffffffffffffffffffffff1673ffffffffffffffffffffffffffffffffffffffff166108fc4790811502906040515f60405180830381858888f19350505050158015610368573d5f5f3e3d5ffd5b50565b5f5f5f5f5f5f60025f8881526020019081526020015f206040518060a00160405290815f82015f9054906101000a900473ffffffffffffffffffffffffffffffffffffffff1673ffffffffffffffffffffffffffffffffffffffff1673ffffffffffffffffffffffffffffffffffffffff1681526020016001820154815260200160028201548152602001600382015481526020016004820154815250509050805f01518160200151826040015183606001518460800151955095509550955095505091939590929450565b5f60025f8381526020019081526020015f205f015f9054906101000a900473ffffffffffffffffffffffffffffffffffffffff1690505f73ffffffffffffffffffffffffffffffffffffffff168173ffffffffffffffffffffffffffffffffffffffff16036104db576040517f08c379a00000000000000000000000000000000000000000000000000000000081526004016104d29061169a565b60405180910390fd5b5f5f5f90505f5f90505b600a811015610598575f81604051602001610500919061172c565b6040516020818303038152906040528051906020012090503373ffffffffffffffffffffffffffffffffffffffff1660025f8381526020019081526020015f205f015f9054906101000a900473ffffffffffffffffffffffffffffffffffffffff1673ffffffffffffffffffffffffffffffffffffffff160361058a578093506001925050610598565b5080806001019150506104e5565b5080156105ca573460025f8481526020019081526020015f206004015f8282546105c2919061177e565b925050819055505b3460025f8681526020019081526020015f206003015f8282546105ed919061177e565b925050819055505f8373ffffffffffffffffffffffffffffffffffffffff1634604051610619906117de565b5f6040518083038185875af1925050503d805f8114610653576040519150601f19603f3d011682016040523d82523d5f602084013e610658565b606091505b505090508061069c576040517f08c379a00000000000000000000000000000000000000000000000000000000081526004016106939061183c565b60405180910390fd5b84826106aa575f5f1b6106ac565b835b7f6f2c8059f88af5345e68db9cea15e62a0aa75bb19b80b8a46b694f57f655d627346040516106db919061185a565b60405180910390a35050505050565b5f60025f8381526020019081526020015f205f015f9054906101000a900473ffffffffffffffffffffffffffffffffffffffff1690505f73ffffffffffffffffffffffffffffffffffffffff168173ffffffffffffffffffffffffffffffffffffffff160361078e576040517f08c379a00000000000000000000000000000000000000000000000000000000081526004016107859061169a565b60405180910390fd5b60025f8481526020019081526020015f205f015f9054906101000a900473ffffffffffffffffffffffffffffffffffffffff1673ffffffffffffffffffffffffffffffffffffffff163373ffffffffffffffffffffffffffffffffffffffff16148061084557505f5f9054906101000a900473ffffffffffffffffffffffffffffffffffffffff1673ffffffffffffffffffffffffffffffffffffffff163373ffffffffffffffffffffffffffffffffffffffff16145b610884576040517f08c379a000000000000000000000000000000000000000000000000000000000815260040161087b906118e3565b60405180910390fd5b3460025f8581526020019081526020015f206004015f8282546108a7919061177e565b925050819055503460025f8481526020019081526020015f206003015f8282546108d1919061177e565b925050819055505f8173ffffffffffffffffffffffffffffffffffffffff16346040516108fd906117de565b5f6040518083038185875af1925050503d805f8114610937576040519150601f19603f3d011682016040523d82523d5f602084013e61093c565b606091505b5050905080610980576040517f08c379a00000000000000000000000000000000000000000000000000000000081526004016109779061183c565b60405180910390fd5b82847f6f2c8059f88af5345e68db9cea15e62a0aa75bb19b80b8a46b694f57f655d627346040516109b1919061185a565b60405180910390a350505050565b5f816040516020016109d19190611949565b604051602081830303815290604052805190602001209050919050565b5f5f9054906101000a900473ffffffffffffffffffffffffffffffffffffffff1681565b5f73ffffffffffffffffffffffffffffffffffffffff168173ffffffffffffffffffffffffffffffffffffffff1603610a80576040517f08c379a0000000000000000000000000000000000000000000000000000000008152600401610a77906119a9565b60405180910390fd5b5f73ffffffffffffffffffffffffffffffffffffffff1660025f8481526020019081526020015f205f015f9054906101000a900473ffffffffffffffffffffffffffffffffffffffff1673ffffffffffffffffffffffffffffffffffffffff1614610b86573373ffffffffffffffffffffffffffffffffffffffff1660025f8481526020019081526020015f205f015f9054906101000a900473ffffffffffffffffffffffffffffffffffffffff1673ffffffffffffffffffffffffffffffffffffffff1614610b85576040517f08c379a0000000000000000000000000000000000000000000000000000000008152600401610b7c90611a37565b60405180910390fd5b5b5f73ffffffffffffffffffffffffffffffffffffffff1660025f8481526020019081526020015f205f015f9054906101000a900473ffffffffffffffffffffffffffffffffffffffff1673ffffffffffffffffffffffffffffffffffffffff1603610cad576040518060a001604052808273ffffffffffffffffffffffffffffffffffffffff1681526020014281526020014281526020015f81526020015f81525060025f8481526020019081526020015f205f820151815f015f6101000a81548173ffffffffffffffffffffffffffffffffffffffff021916908373ffffffffffffffffffffffffffffffffffffffff16021790555060208201518160010155604082015181600201556060820151816003015560808201518160040155905050610d18565b8060025f8481526020019081526020015f205f015f6101000a81548173ffffffffffffffffffffffffffffffffffffffff021916908373ffffffffffffffffffffffffffffffffffffffff1602179055504260025f8481526020019081526020015f20600201819055505b8060015f8481526020019081526020015f205f6101000a81548173ffffffffffffffffffffffffffffffffffffffff021916908373ffffffffffffffffffffffffffffffffffffffff1602179055508073ffffffffffffffffffffffffffffffffffffffff16827f3e3775452c1a736bc664f4466fcab0687388450658c0a5fdabc4da48b96fb21060405160405180910390a35050565b5f5f9054906101000a900473ffffffffffffffffffffffffffffffffffffffff1673ffffffffffffffffffffffffffffffffffffffff163373ffffffffffffffffffffffffffffffffffffffff1614610e3d576040517f08c379a0000000000000000000000000000000000000000000000000000000008152600401610e3490611632565b60405180910390fd5b5f73ffffffffffffffffffffffffffffffffffffffff168173ffffffffffffffffffffffffffffffffffffffff1603610eab576040517f08c379a0000000000000000000000000000000000000000000000000000000008152600401610ea290611a9f565b60405180910390fd5b5f60025f8481526020019081526020015f206001015490506040518060a001604052808373ffffffffffffffffffffffffffffffffffffffff1681526020015f8311610ef75742610ef9565b825b815260200142815260200160025f8681526020019081526020015f2060030154815260200160025f8681526020019081526020015f206004015481525060025f8581526020019081526020015f205f820151815f015f6101000a81548173ffffffffffffffffffffffffffffffffffffffff021916908373ffffffffffffffffffffffffffffffffffffffff160217905550602082015181600101556040820151816002015560608201518160030155608082015181600401559050508160015f8581526020019081526020015f205f6101000a81548173ffffffffffffffffffffffffffffffffffffffff021916908373ffffffffffffffffffffffffffffffffffffffff1602179055508173ffffffffffffffffffffffffffffffffffffffff16837f3e3775452c1a736bc664f4466fcab0687388450658c0a5fdabc4da48b96fb21060405160405180910390a3505050565b5f5f9054906101000a900473ffffffffffffffffffffffffffffffffffffffff1673ffffffffffffffffffffffffffffffffffffffff163373ffffffffffffffffffffffffffffffffffffffff16146110dc576040517f08c379a00000000000000000000000000000000000000000000000000000000081526004016110d390611632565b60405180910390fd5b5f73ffffffffffffffffffffffffffffffffffffffff168173ffffffffffffffffffffffffffffffffffffffff160361114a576040517f08c379a000000000000000000000000000000000000000000000000000000000815260040161114190611b07565b60405180910390fd5b8073ffffffffffffffffffffffffffffffffffffffff165f5f9054906101000a900473ffffffffffffffffffffffffffffffffffffffff1673ffffffffffffffffffffffffffffffffffffffff167f8be0079c531659141344cd1fd0a4f28419497f9722a3daafe3b4186f6b6457e060405160405180910390a3805f5f6101000a81548173ffffffffffffffffffffffffffffffffffffffff021916908373ffffffffffffffffffffffffffffffffffffffff16021790555050565b5f604051905090565b5f5ffd5b5f5ffd5b5f819050919050565b61122981611217565b8114611233575f5ffd5b50565b5f8135905061124481611220565b92915050565b5f6020828403121561125f5761125e61120f565b5b5f61126c84828501611236565b91505092915050565b5f73ffffffffffffffffffffffffffffffffffffffff82169050919050565b5f61129e82611275565b9050919050565b6112ae81611294565b82525050565b5f6020820190506112c75f8301846112a5565b92915050565b5f819050919050565b6112df816112cd565b82525050565b5f60a0820190506112f85f8301886112a5565b61130560208301876112d6565b61131260408301866112d6565b61131f60608301856112d6565b61132c60808301846112d6565b9695505050505050565b5f5f6040838503121561134c5761134b61120f565b5b5f61135985828601611236565b925050602061136a85828601611236565b9150509250929050565b5f5ffd5b5f5ffd5b5f601f19601f8301169050919050565b7f4e487b71000000000000000000000000000000000000000000000000000000005f52604160045260245ffd5b6113c28261137c565b810181811067ffffffffffffffff821117156113e1576113e061138c565b5b80604052505050565b5f6113f3611206565b90506113ff82826113b9565b919050565b5f67ffffffffffffffff82111561141e5761141d61138c565b5b6114278261137c565b9050602081019050919050565b828183375f83830152505050565b5f61145461144f84611404565b6113ea565b9050828152602081018484840111156114705761146f611378565b5b61147b848285611434565b509392505050565b5f82601f83011261149757611496611374565b5b81356114a7848260208601611442565b91505092915050565b5f602082840312156114c5576114c461120f565b5b5f82013567ffffffffffffffff8111156114e2576114e1611213565b5b6114ee84828501611483565b91505092915050565b61150081611217565b82525050565b5f6020820190506115195f8301846114f7565b92915050565b61152881611294565b8114611532575f5ffd5b50565b5f813590506115438161151f565b92915050565b5f5f6040838503121561155f5761155e61120f565b5b5f61156c85828601611236565b925050602061157d85828601611535565b9150509250929050565b5f6020828403121561159c5761159b61120f565b5b5f6115a984828501611535565b91505092915050565b5f82825260208201905092915050565b7f4f6e6c79206f776e65722063616e2063616c6c20746869732066756e6374696f5f8201527f6e00000000000000000000000000000000000000000000000000000000000000602082015250565b5f61161c6021836115b2565b9150611627826115c2565b604082019050919050565b5f6020820190508181035f83015261164981611610565b9050919050565b7f526563697069656e7420656d61696c206e6f74207265676973746572656400005f82015250565b5f611684601e836115b2565b915061168f82611650565b602082019050919050565b5f6020820190508181035f8301526116b181611678565b9050919050565b5f81905092915050565b7f706c616365686f6c6465720000000000000000000000000000000000000000005f82015250565b5f6116f6600b836116b8565b9150611701826116c2565b600b82019050919050565b5f819050919050565b611726611721826112cd565b61170c565b82525050565b5f611736826116ea565b91506117428284611715565b60208201915081905092915050565b7f4e487b71000000000000000000000000000000000000000000000000000000005f52601160045260245ffd5b5f611788826112cd565b9150611793836112cd565b92508282019050808211156117ab576117aa611751565b5b92915050565b5f81905092915050565b50565b5f6117c95f836117b1565b91506117d4826117bb565b5f82019050919050565b5f6117e8826117be565b9150819050919050565b7f4661696c656420746f2073656e64207061796d656e74000000000000000000005f82015250565b5f6118266016836115b2565b9150611831826117f2565b602082019050919050565b5f6020820190508181035f8301526118538161181a565b9050919050565b5f60208201905061186d5f8301846112d6565b92915050565b7f53656e646572206e6f7420617574686f72697a656420666f72207468697320655f8201527f6d61696c00000000000000000000000000000000000000000000000000000000602082015250565b5f6118cd6024836115b2565b91506118d882611873565b604082019050919050565b5f6020820190508181035f8301526118fa816118c1565b9050919050565b5f81519050919050565b8281835e5f83830152505050565b5f61192382611901565b61192d81856116b8565b935061193d81856020860161190b565b80840191505092915050565b5f6119548284611919565b915081905092915050565b7f43616e6e6f74207265676973746572207a65726f2061646472657373000000005f82015250565b5f611993601c836115b2565b915061199e8261195f565b602082019050919050565b5f6020820190508181035f8301526119c081611987565b9050919050565b7f456d61696c20616c7265616479207265676973746572656420746f20616e6f745f8201527f6865722077616c6c657400000000000000000000000000000000000000000000602082015250565b5f611a21602a836115b2565b9150611a2c826119c7565b604082019050919050565b5f6020820190508181035f830152611a4e81611a15565b9050919050565b7f43616e6e6f7420736574207a65726f20616464726573730000000000000000005f82015250565b5f611a896017836115b2565b9150611a9482611a55565b602082019050919050565b5f6020820190508181035f830152611ab681611a7d565b9050919050565b7f4e6577206f776e65722063616e6e6f74206265207a65726f20616464726573735f82015250565b5f611af16020836115b2565b9150611afc82611abd565b602082019050919050565b5f6020820190508181035f830152611b1e81611ae5565b905091905056fea26469706673582212207b2fe52d19d3add336e22ff2a800aa21f77a27328bc94930e8995f897233b70164736f6c634300081e0033', \n     arguments: [\n     ]\n}).send({\n     from: web3.eth.accounts[0], \n     gas: '4700000'\n   }, function (e, contract){\n    console.log(e, contract);\n    if (typeof contract.address !== 'undefined') {\n         console.log('Contract mined! address: ' + contract.address + ' transactionHash: ' + contract.transactionHash);\n    }\n })",
	"functionHashes": {
		"9d36fd0c": "adminOverrideEmail(bytes32,address)",
		"8aed9cc3": "computeEmailHash(string)",
		"6c6848cc": "getUserProfile(bytes32)",
		"0d8d5e1b": "getWalletByEmail(bytes32)",
		"8da5cb5b": "owner()",
		"8db5b06a": "registerEmail(bytes32,address)",
		"79658c5d": "sendPaymentByEmail(bytes32,bytes32)",
		"7945b714": "sendPaymentToEmail(bytes32)",
		"f2fde38b": "transferOwnership(address)",
		"3ccfd60b": "withdraw()"
	},
	"gasEstimates": {
		"Creation": {
			"codeDepositCost": "1400600",
			"executionCost": "25720",
			"totalCost": "1426320"
		},
		"External": {
			"adminOverrideEmail(bytes32,address)": "148325",
			"computeEmailHash(string)": "infinite",
			"getUserProfile(bytes32)": "infinite",
			"getWalletByEmail(bytes32)": "2858",
			"owner()": "2529",
			"registerEmail(bytes32,address)": "112103",
			"sendPaymentByEmail(bytes32,bytes32)": "infinite",
			"sendPaymentToEmail(bytes32)": "infinite",
			"transferOwnership(address)": "30683",
			"withdraw()": "infinite"
		}
	},
	"devdoc": {
		"details": "Contract for mapping email addresses to wallet addresses and facilitating transfers Compatible with MetaMask and EIP-1193 compliant wallets",
		"kind": "dev",
		"methods": {
			"adminOverrideEmail(bytes32,address)": {
				"details": "Emergency function to override an email registration Only to be used if someone loses access to their wallet"
			},
			"computeEmailHash(string)": {
				"details": "Utility function to compute email hash offchain",
				"params": {
					"email": "The email address as a string"
				},
				"returns": {
					"_0": "The keccak256 hash of the email"
				}
			},
			"getUserProfile(bytes32)": {
				"details": "Get full user profile information",
				"params": {
					"emailHash": "The keccak256 hash of the email address"
				},
				"returns": {
					"lastUpdatedAt": "Last update timestamp",
					"registeredAt": "Registration timestamp",
					"totalReceived": "Total ETH received",
					"totalSent": "Total ETH sent",
					"wallet": "The wallet address"
				}
			},
			"getWalletByEmail(bytes32)": {
				"details": "Get wallet address associated with email hash",
				"params": {
					"emailHash": "The keccak256 hash of the email address"
				},
				"returns": {
					"_0": "The wallet address associated with this email"
				}
			},
			"registerEmail(bytes32,address)": {
				"details": "Register or update an email-to-wallet mapping",
				"params": {
					"emailHash": "The keccak256 hash of the email address",
					"wallet": "The wallet address to associate with this email"
				}
			},
			"sendPaymentByEmail(bytes32,bytes32)": {
				"details": "Send payment from one email to another",
				"params": {
					"fromEmailHash": "The sender's email hash",
					"toEmailHash": "The recipient's email hash"
				}
			},
			"sendPaymentToEmail(bytes32)": {
				"details": "Send payment directly to an email address",
				"params": {
					"toEmailHash": "The recipient's email hash"
				}
			},
			"transferOwnership(address)": {
				"details": "Transfer ownership to a new address",
				"params": {
					"newOwner": "The address to transfer ownership to"
				}
			},
			"withdraw()": {
				"details": "Withdraw any funds accidentally sent to the contract"
			}
		},
		"title": "EmailPaymentRegistry",
		"version": 1
	},
	"userdoc": {
		"kind": "user",
		"methods": {},
		"version": 1
	},
	"Runtime Bytecode": {
		"immutableReferences": {},
		"linkReferences": {},
		"object": "608060405260043610610090575f3560e01c80638aed9cc3116100585780638aed9cc31461015e5780638da5cb5b1461019a5780638db5b06a146101c45780639d36fd0c146101ec578063f2fde38b1461021457610090565b80630d8d5e1b146100945780633ccfd60b146100d05780636c6848cc146100e65780637945b7141461012657806379658c5d14610142575b5f5ffd5b34801561009f575f5ffd5b506100ba60048036038101906100b5919061124a565b61023c565b6040516100c791906112b4565b60405180910390f35b3480156100db575f5ffd5b506100e4610277565b005b3480156100f1575f5ffd5b5061010c6004803603810190610107919061124a565b61036b565b60405161011d9594939291906112e5565b60405180910390f35b610140600480360381019061013b919061124a565b610437565b005b61015c60048036038101906101579190611336565b6106ea565b005b348015610169575f5ffd5b50610184600480360381019061017f91906114b0565b6109bf565b6040516101919190611506565b60405180910390f35b3480156101a5575f5ffd5b506101ae6109ee565b6040516101bb91906112b4565b60405180910390f35b3480156101cf575f5ffd5b506101ea60048036038101906101e59190611549565b610a12565b005b3480156101f7575f5ffd5b50610212600480360381019061020d9190611549565b610daf565b005b34801561021f575f5ffd5b5061023a60048036038101906102359190611587565b61104e565b005b5f60025f8381526020019081526020015f205f015f9054906101000a900473ffffffffffffffffffffffffffffffffffffffff169050919050565b5f5f9054906101000a900473ffffffffffffffffffffffffffffffffffffffff1673ffffffffffffffffffffffffffffffffffffffff163373ffffffffffffffffffffffffffffffffffffffff1614610305576040517f08c379a00000000000000000000000000000000000000000000000000000000081526004016102fc90611632565b60405180910390fd5b5f5f9054906101000a900473ffffffffffffffffffffffffffffffffffffffff1673ffffffffffffffffffffffffffffffffffffffff166108fc4790811502906040515f60405180830381858888f19350505050158015610368573d5f5f3e3d5ffd5b50565b5f5f5f5f5f5f60025f8881526020019081526020015f206040518060a00160405290815f82015f9054906101000a900473ffffffffffffffffffffffffffffffffffffffff1673ffffffffffffffffffffffffffffffffffffffff1673ffffffffffffffffffffffffffffffffffffffff1681526020016001820154815260200160028201548152602001600382015481526020016004820154815250509050805f01518160200151826040015183606001518460800151955095509550955095505091939590929450565b5f60025f8381526020019081526020015f205f015f9054906101000a900473ffffffffffffffffffffffffffffffffffffffff1690505f73ffffffffffffffffffffffffffffffffffffffff168173ffffffffffffffffffffffffffffffffffffffff16036104db576040517f08c379a00000000000000000000000000000000000000000000000000000000081526004016104d29061169a565b60405180910390fd5b5f5f5f90505f5f90505b600a811015610598575f81604051602001610500919061172c565b6040516020818303038152906040528051906020012090503373ffffffffffffffffffffffffffffffffffffffff1660025f8381526020019081526020015f205f015f9054906101000a900473ffffffffffffffffffffffffffffffffffffffff1673ffffffffffffffffffffffffffffffffffffffff160361058a578093506001925050610598565b5080806001019150506104e5565b5080156105ca573460025f8481526020019081526020015f206004015f8282546105c2919061177e565b925050819055505b3460025f8681526020019081526020015f206003015f8282546105ed919061177e565b925050819055505f8373ffffffffffffffffffffffffffffffffffffffff1634604051610619906117de565b5f6040518083038185875af1925050503d805f8114610653576040519150601f19603f3d011682016040523d82523d5f602084013e610658565b606091505b505090508061069c576040517f08c379a00000000000000000000000000000000000000000000000000000000081526004016106939061183c565b60405180910390fd5b84826106aa575f5f1b6106ac565b835b7f6f2c8059f88af5345e68db9cea15e62a0aa75bb19b80b8a46b694f57f655d627346040516106db919061185a565b60405180910390a35050505050565b5f60025f8381526020019081526020015f205f015f9054906101000a900473ffffffffffffffffffffffffffffffffffffffff1690505f73ffffffffffffffffffffffffffffffffffffffff168173ffffffffffffffffffffffffffffffffffffffff160361078e576040517f08c379a00000000000000000000000000000000000000000000000000000000081526004016107859061169a565b60405180910390fd5b60025f8481526020019081526020015f205f015f9054906101000a900473ffffffffffffffffffffffffffffffffffffffff1673ffffffffffffffffffffffffffffffffffffffff163373ffffffffffffffffffffffffffffffffffffffff16148061084557505f5f9054906101000a900473ffffffffffffffffffffffffffffffffffffffff1673ffffffffffffffffffffffffffffffffffffffff163373ffffffffffffffffffffffffffffffffffffffff16145b610884576040517f08c379a000000000000000000000000000000000000000000000000000000000815260040161087b906118e3565b60405180910390fd5b3460025f8581526020019081526020015f206004015f8282546108a7919061177e565b925050819055503460025f8481526020019081526020015f206003015f8282546108d1919061177e565b925050819055505f8173ffffffffffffffffffffffffffffffffffffffff16346040516108fd906117de565b5f6040518083038185875af1925050503d805f8114610937576040519150601f19603f3d011682016040523d82523d5f602084013e61093c565b606091505b5050905080610980576040517f08c379a00000000000000000000000000000000000000000000000000000000081526004016109779061183c565b60405180910390fd5b82847f6f2c8059f88af5345e68db9cea15e62a0aa75bb19b80b8a46b694f57f655d627346040516109b1919061185a565b60405180910390a350505050565b5f816040516020016109d19190611949565b604051602081830303815290604052805190602001209050919050565b5f5f9054906101000a900473ffffffffffffffffffffffffffffffffffffffff1681565b5f73ffffffffffffffffffffffffffffffffffffffff168173ffffffffffffffffffffffffffffffffffffffff1603610a80576040517f08c379a0000000000000000000000000000000000000000000000000000000008152600401610a77906119a9565b60405180910390fd5b5f73ffffffffffffffffffffffffffffffffffffffff1660025f8481526020019081526020015f205f015f9054906101000a900473ffffffffffffffffffffffffffffffffffffffff1673ffffffffffffffffffffffffffffffffffffffff1614610b86573373ffffffffffffffffffffffffffffffffffffffff1660025f8481526020019081526020015f205f015f9054906101000a900473ffffffffffffffffffffffffffffffffffffffff1673ffffffffffffffffffffffffffffffffffffffff1614610b85576040517f08c379a0000000000000000000000000000000000000000000000000000000008152600401610b7c90611a37565b60405180910390fd5b5b5f73ffffffffffffffffffffffffffffffffffffffff1660025f8481526020019081526020015f205f015f9054906101000a900473ffffffffffffffffffffffffffffffffffffffff1673ffffffffffffffffffffffffffffffffffffffff1603610cad576040518060a001604052808273ffffffffffffffffffffffffffffffffffffffff1681526020014281526020014281526020015f81526020015f81525060025f8481526020019081526020015f205f820151815f015f6101000a81548173ffffffffffffffffffffffffffffffffffffffff021916908373ffffffffffffffffffffffffffffffffffffffff16021790555060208201518160010155604082015181600201556060820151816003015560808201518160040155905050610d18565b8060025f8481526020019081526020015f205f015f6101000a81548173ffffffffffffffffffffffffffffffffffffffff021916908373ffffffffffffffffffffffffffffffffffffffff1602179055504260025f8481526020019081526020015f20600201819055505b8060015f8481526020019081526020015f205f6101000a81548173ffffffffffffffffffffffffffffffffffffffff021916908373ffffffffffffffffffffffffffffffffffffffff1602179055508073ffffffffffffffffffffffffffffffffffffffff16827f3e3775452c1a736bc664f4466fcab0687388450658c0a5fdabc4da48b96fb21060405160405180910390a35050565b5f5f9054906101000a900473ffffffffffffffffffffffffffffffffffffffff1673ffffffffffffffffffffffffffffffffffffffff163373ffffffffffffffffffffffffffffffffffffffff1614610e3d576040517f08c379a0000000000000000000000000000000000000000000000000000000008152600401610e3490611632565b60405180910390fd5b5f73ffffffffffffffffffffffffffffffffffffffff168173ffffffffffffffffffffffffffffffffffffffff1603610eab576040517f08c379a0000000000000000000000000000000000000000000000000000000008152600401610ea290611a9f565b60405180910390fd5b5f60025f8481526020019081526020015f206001015490506040518060a001604052808373ffffffffffffffffffffffffffffffffffffffff1681526020015f8311610ef75742610ef9565b825b815260200142815260200160025f8681526020019081526020015f2060030154815260200160025f8681526020019081526020015f206004015481525060025f8581526020019081526020015f205f820151815f015f6101000a81548173ffffffffffffffffffffffffffffffffffffffff021916908373ffffffffffffffffffffffffffffffffffffffff160217905550602082015181600101556040820151816002015560608201518160030155608082015181600401559050508160015f8581526020019081526020015f205f6101000a81548173ffffffffffffffffffffffffffffffffffffffff021916908373ffffffffffffffffffffffffffffffffffffffff1602179055508173ffffffffffffffffffffffffffffffffffffffff16837f3e3775452c1a736bc664f4466fcab0687388450658c0a5fdabc4da48b96fb21060405160405180910390a3505050565b5f5f9054906101000a900473ffffffffffffffffffffffffffffffffffffffff1673ffffffffffffffffffffffffffffffffffffffff163373ffffffffffffffffffffffffffffffffffffffff16146110dc576040517f08c379a00000000000000000000000000000000000000000000000000000000081526004016110d390611632565b60405180910390fd5b5f73ffffffffffffffffffffffffffffffffffffffff168173ffffffffffffffffffffffffffffffffffffffff160361114a576040517f08c379a000000000000000000000000000000000000000000000000000000000815260040161114190611b07565b60405180910390fd5b8073ffffffffffffffffffffffffffffffffffffffff165f5f9054906101000a900473ffffffffffffffffffffffffffffffffffffffff1673ffffffffffffffffffffffffffffffffffffffff167f8be0079c531659141344cd1fd0a4f28419497f9722a3daafe3b4186f6b6457e060405160405180910390a3805f5f6101000a81548173ffffffffffffffffffffffffffffffffffffffff021916908373ffffffffffffffffffffffffffffffffffffffff16021790555050565b5f604051905090565b5f5ffd5b5f5ffd5b5f819050919050565b61122981611217565b8114611233575f5ffd5b50565b5f8135905061124481611220565b92915050565b5f6020828403121561125f5761125e61120f565b5b5f61126c84828501611236565b91505092915050565b5f73ffffffffffffffffffffffffffffffffffffffff82169050919050565b5f61129e82611275565b9050919050565b6112ae81611294565b82525050565b5f6020820190506112c75f8301846112a5565b92915050565b5f819050919050565b6112df816112cd565b82525050565b5f60a0820190506112f85f8301886112a5565b61130560208301876112d6565b61131260408301866112d6565b61131f60608301856112d6565b61132c60808301846112d6565b9695505050505050565b5f5f6040838503121561134c5761134b61120f565b5b5f61135985828601611236565b925050602061136a85828601611236565b9150509250929050565b5f5ffd5b5f5ffd5b5f601f19601f8301169050919050565b7f4e487b71000000000000000000000000000000000000000000000000000000005f52604160045260245ffd5b6113c28261137c565b810181811067ffffffffffffffff821117156113e1576113e061138c565b5b80604052505050565b5f6113f3611206565b90506113ff82826113b9565b919050565b5f67ffffffffffffffff82111561141e5761141d61138c565b5b6114278261137c565b9050602081019050919050565b828183375f83830152505050565b5f61145461144f84611404565b6113ea565b9050828152602081018484840111156114705761146f611378565b5b61147b848285611434565b509392505050565b5f82601f83011261149757611496611374565b5b81356114a7848260208601611442565b91505092915050565b5f602082840312156114c5576114c461120f565b5b5f82013567ffffffffffffffff8111156114e2576114e1611213565b5b6114ee84828501611483565b91505092915050565b61150081611217565b82525050565b5f6020820190506115195f8301846114f7565b92915050565b61152881611294565b8114611532575f5ffd5b50565b5f813590506115438161151f565b92915050565b5f5f6040838503121561155f5761155e61120f565b5b5f61156c85828601611236565b925050602061157d85828601611535565b9150509250929050565b5f6020828403121561159c5761159b61120f565b5b5f6115a984828501611535565b91505092915050565b5f82825260208201905092915050565b7f4f6e6c79206f776e65722063616e2063616c6c20746869732066756e6374696f5f8201527f6e00000000000000000000000000000000000000000000000000000000000000602082015250565b5f61161c6021836115b2565b9150611627826115c2565b604082019050919050565b5f6020820190508181035f83015261164981611610565b9050919050565b7f526563697069656e7420656d61696c206e6f74207265676973746572656400005f82015250565b5f611684601e836115b2565b915061168f82611650565b602082019050919050565b5f6020820190508181035f8301526116b181611678565b9050919050565b5f81905092915050565b7f706c616365686f6c6465720000000000000000000000000000000000000000005f82015250565b5f6116f6600b836116b8565b9150611701826116c2565b600b82019050919050565b5f819050919050565b611726611721826112cd565b61170c565b82525050565b5f611736826116ea565b91506117428284611715565b60208201915081905092915050565b7f4e487b71000000000000000000000000000000000000000000000000000000005f52601160045260245ffd5b5f611788826112cd565b9150611793836112cd565b92508282019050808211156117ab576117aa611751565b5b92915050565b5f81905092915050565b50565b5f6117c95f836117b1565b91506117d4826117bb565b5f82019050919050565b5f6117e8826117be565b9150819050919050565b7f4661696c656420746f2073656e64207061796d656e74000000000000000000005f82015250565b5f6118266016836115b2565b9150611831826117f2565b602082019050919050565b5f6020820190508181035f8301526118538161181a565b9050919050565b5f60208201905061186d5f8301846112d6565b92915050565b7f53656e646572206e6f7420617574686f72697a656420666f72207468697320655f8201527f6d61696c00000000000000000000000000000000000000000000000000000000602082015250565b5f6118cd6024836115b2565b91506118d882611873565b604082019050919050565b5f6020820190508181035f8301526118fa816118c1565b9050919050565b5f81519050919050565b8281835e5f83830152505050565b5f61192382611901565b61192d81856116b8565b935061193d81856020860161190b565b80840191505092915050565b5f6119548284611919565b915081905092915050565b7f43616e6e6f74207265676973746572207a65726f2061646472657373000000005f82015250565b5f611993601c836115b2565b915061199e8261195f565b602082019050919050565b5f6020820190508181035f8301526119c081611987565b9050919050565b7f456d61696c20616c7265616479207265676973746572656420746f20616e6f745f8201527f6865722077616c6c657400000000000000000000000000000000000000000000602082015250565b5f611a21602a836115b2565b9150611a2c826119c7565b604082019050919050565b5f6020820190508181035f830152611a4e81611a15565b9050919050565b7f43616e6e6f7420736574207a65726f20616464726573730000000000000000005f82015250565b5f611a896017836115b2565b9150611a9482611a55565b602082019050919050565b5f6020820190508181035f830152611ab681611a7d565b9050919050565b7f4e6577206f776e65722063616e6e6f74206265207a65726f20616464726573735f82015250565b5f611af16020836115b2565b9150611afc82611abd565b602082019050919050565b5f6020820190508181035f830152611b1e81611ae5565b905091905056fea26469706673582212207b2fe52d19d3add336e22ff2a800aa21f77a27328bc94930e8995f897233b70164736f6c634300081e0033",
		"opcodes": "PUSH1 0x80 PUSH1 0x40 MSTORE PUSH1 0x4 CALLDATASIZE LT PUSH2 0x90 JUMPI PUSH0 CALLDATALOAD PUSH1 0xE0 SHR DUP1 PUSH4 0x8AED9CC3 GT PUSH2 0x58 JUMPI DUP1 PUSH4 0x8AED9CC3 EQ PUSH2 0x15E JUMPI DUP1 PUSH4 0x8DA5CB5B EQ PUSH2 0x19A JUMPI DUP1 PUSH4 0x8DB5B06A EQ PUSH2 0x1C4 JUMPI DUP1 PUSH4 0x9D36FD0C EQ PUSH2 0x1EC JUMPI DUP1 PUSH4 0xF2FDE38B EQ PUSH2 0x214 JUMPI PUSH2 0x90 JUMP JUMPDEST DUP1 PUSH4 0xD8D5E1B EQ PUSH2 0x94 JUMPI DUP1 PUSH4 0x3CCFD60B EQ PUSH2 0xD0 JUMPI DUP1 PUSH4 0x6C6848CC EQ PUSH2 0xE6 JUMPI DUP1 PUSH4 0x7945B714 EQ PUSH2 0x126 JUMPI DUP1 PUSH4 0x79658C5D EQ PUSH2 0x142 JUMPI JUMPDEST PUSH0 PUSH0 REVERT JUMPDEST CALLVALUE DUP1 ISZERO PUSH2 0x9F JUMPI PUSH0 PUSH0 REVERT JUMPDEST POP PUSH2 0xBA PUSH1 0x4 DUP1 CALLDATASIZE SUB DUP2 ADD SWAP1 PUSH2 0xB5 SWAP2 SWAP1 PUSH2 0x124A JUMP JUMPDEST PUSH2 0x23C JUMP JUMPDEST PUSH1 0x40 MLOAD PUSH2 0xC7 SWAP2 SWAP1 PUSH2 0x12B4 JUMP JUMPDEST PUSH1 0x40 MLOAD DUP1 SWAP2 SUB SWAP1 RETURN JUMPDEST CALLVALUE DUP1 ISZERO PUSH2 0xDB JUMPI PUSH0 PUSH0 REVERT JUMPDEST POP PUSH2 0xE4 PUSH2 0x277 JUMP JUMPDEST STOP JUMPDEST CALLVALUE DUP1 ISZERO PUSH2 0xF1 JUMPI PUSH0 PUSH0 REVERT JUMPDEST POP PUSH2 0x10C PUSH1 0x4 DUP1 CALLDATASIZE SUB DUP2 ADD SWAP1 PUSH2 0x107 SWAP2 SWAP1 PUSH2 0x124A JUMP JUMPDEST PUSH2 0x36B JUMP JUMPDEST PUSH1 0x40 MLOAD PUSH2 0x11D SWAP6 SWAP5 SWAP4 SWAP3 SWAP2 SWAP1 PUSH2 0x12E5 JUMP JUMPDEST PUSH1 0x40 MLOAD DUP1 SWAP2 SUB SWAP1 RETURN JUMPDEST PUSH2 0x140 PUSH1 0x4 DUP1 CALLDATASIZE SUB DUP2 ADD SWAP1 PUSH2 0x13B SWAP2 SWAP1 PUSH2 0x124A JUMP JUMPDEST PUSH2 0x437 JUMP JUMPDEST STOP JUMPDEST PUSH2 0x15C PUSH1 0x4 DUP1 CALLDATASIZE SUB DUP2 ADD SWAP1 PUSH2 0x157 SWAP2 SWAP1 PUSH2 0x1336 JUMP JUMPDEST PUSH2 0x6EA JUMP JUMPDEST STOP JUMPDEST CALLVALUE DUP1 ISZERO PUSH2 0x169 JUMPI PUSH0 PUSH0 REVERT JUMPDEST POP PUSH2 0x184 PUSH1 0x4 DUP1 CALLDATASIZE SUB DUP2 ADD SWAP1 PUSH2 0x17F SWAP2 SWAP1 PUSH2 0x14B0 JUMP JUMPDEST PUSH2 0x9BF JUMP JUMPDEST PUSH1 0x40 MLOAD PUSH2 0x191 SWAP2 SWAP1 PUSH2 0x1506 JUMP JUMPDEST PUSH1 0x40 MLOAD DUP1 SWAP2 SUB SWAP1 RETURN JUMPDEST CALLVALUE DUP1 ISZERO PUSH2 0x1A5 JUMPI PUSH0 PUSH0 REVERT JUMPDEST POP PUSH2 0x1AE PUSH2 0x9EE JUMP JUMPDEST PUSH1 0x40 MLOAD PUSH2 0x1BB SWAP2 SWAP1 PUSH2 0x12B4 JUMP JUMPDEST PUSH1 0x40 MLOAD DUP1 SWAP2 SUB SWAP1 RETURN JUMPDEST CALLVALUE DUP1 ISZERO PUSH2 0x1CF JUMPI PUSH0 PUSH0 REVERT JUMPDEST POP PUSH2 0x1EA PUSH1 0x4 DUP1 CALLDATASIZE SUB DUP2 ADD SWAP1 PUSH2 0x1E5 SWAP2 SWAP1 PUSH2 0x1549 JUMP JUMPDEST PUSH2 0xA12 JUMP JUMPDEST STOP JUMPDEST CALLVALUE DUP1 ISZERO PUSH2 0x1F7 JUMPI PUSH0 PUSH0 REVERT JUMPDEST POP PUSH2 0x212 PUSH1 0x4 DUP1 CALLDATASIZE SUB DUP2 ADD SWAP1 PUSH2 0x20D SWAP2 SWAP1 PUSH2 0x1549 JUMP JUMPDEST PUSH2 0xDAF JUMP JUMPDEST STOP JUMPDEST CALLVALUE DUP1 ISZERO PUSH2 0x21F JUMPI PUSH0 PUSH0 REVERT JUMPDEST POP PUSH2 0x23A PUSH1 0x4 DUP1 CALLDATASIZE SUB DUP2 ADD SWAP1 PUSH2 0x235 SWAP2 SWAP1 PUSH2 0x1587 JUMP JUMPDEST PUSH2 0x104E JUMP JUMPDEST STOP JUMPDEST PUSH0 PUSH1 0x2 PUSH0 DUP4 DUP2 MSTORE PUSH1 0x20 ADD SWAP1 DUP2 MSTORE PUSH1 0x20 ADD PUSH0 KECCAK256 PUSH0 ADD PUSH0 SWAP1 SLOAD SWAP1 PUSH2 0x100 EXP SWAP1 DIV PUSH20 0xFFFFFFFFFFFFFFFFFFFFFFFFFFFFFFFFFFFFFFFF AND SWAP1 POP SWAP2 SWAP1 POP JUMP JUMPDEST PUSH0 PUSH0 SWAP1 SLOAD SWAP1 PUSH2 0x100 EXP SWAP1 DIV PUSH20 0xFFFFFFFFFFFFFFFFFFFFFFFFFFFFFFFFFFFFFFFF AND PUSH20 0xFFFFFFFFFFFFFFFFFFFFFFFFFFFFFFFFFFFFFFFF AND CALLER PUSH20 0xFFFFFFFFFFFFFFFFFFFFFFFFFFFFFFFFFFFFFFFF AND EQ PUSH2 0x305 JUMPI PUSH1 0x40 MLOAD PUSH32 0x8C379A000000000000000000000000000000000000000000000000000000000 DUP2 MSTORE PUSH1 0x4 ADD PUSH2 0x2FC SWAP1 PUSH2 0x1632 JUMP JUMPDEST PUSH1 0x40 MLOAD DUP1 SWAP2 SUB SWAP1 REVERT JUMPDEST PUSH0 PUSH0 SWAP1 SLOAD SWAP1 PUSH2 0x100 EXP SWAP1 DIV PUSH20 0xFFFFFFFFFFFFFFFFFFFFFFFFFFFFFFFFFFFFFFFF AND PUSH20 0xFFFFFFFFFFFFFFFFFFFFFFFFFFFFFFFFFFFFFFFF AND PUSH2 0x8FC SELFBALANCE SWAP1 DUP2 ISZERO MUL SWAP1 PUSH1 0x40 MLOAD PUSH0 PUSH1 0x40 MLOAD DUP1 DUP4 SUB DUP2 DUP6 DUP9 DUP9 CALL SWAP4 POP POP POP POP ISZERO DUP1 ISZERO PUSH2 0x368 JUMPI RETURNDATASIZE PUSH0 PUSH0 RETURNDATACOPY RETURNDATASIZE PUSH0 REVERT JUMPDEST POP JUMP JUMPDEST PUSH0 PUSH0 PUSH0 PUSH0 PUSH0 PUSH0 PUSH1 0x2 PUSH0 DUP9 DUP2 MSTORE PUSH1 0x20 ADD SWAP1 DUP2 MSTORE PUSH1 0x20 ADD PUSH0 KECCAK256 PUSH1 0x40 MLOAD DUP1 PUSH1 0xA0 ADD PUSH1 0x40 MSTORE SWAP1 DUP2 PUSH0 DUP3 ADD PUSH0 SWAP1 SLOAD SWAP1 PUSH2 0x100 EXP SWAP1 DIV PUSH20 0xFFFFFFFFFFFFFFFFFFFFFFFFFFFFFFFFFFFFFFFF AND PUSH20 0xFFFFFFFFFFFFFFFFFFFFFFFFFFFFFFFFFFFFFFFF AND PUSH20 0xFFFFFFFFFFFFFFFFFFFFFFFFFFFFFFFFFFFFFFFF AND DUP2 MSTORE PUSH1 0x20 ADD PUSH1 0x1 DUP3 ADD SLOAD DUP2 MSTORE PUSH1 0x20 ADD PUSH1 0x2 DUP3 ADD SLOAD DUP2 MSTORE PUSH1 0x20 ADD PUSH1 0x3 DUP3 ADD SLOAD DUP2 MSTORE PUSH1 0x20 ADD PUSH1 0x4 DUP3 ADD SLOAD DUP2 MSTORE POP POP SWAP1 POP DUP1 PUSH0 ADD MLOAD DUP2 PUSH1 0x20 ADD MLOAD DUP3 PUSH1 0x40 ADD MLOAD DUP4 PUSH1 0x60 ADD MLOAD DUP5 PUSH1 0x80 ADD MLOAD SWAP6 POP SWAP6 POP SWAP6 POP SWAP6 POP SWAP6 POP POP SWAP2 SWAP4 SWAP6 SWAP1 SWAP3 SWAP5 POP JUMP JUMPDEST PUSH0 PUSH1 0x2 PUSH0 DUP4 DUP2 MSTORE PUSH1 0x20 ADD SWAP1 DUP2 MSTORE PUSH1 0x20 ADD PUSH0 KECCAK256 PUSH0 ADD PUSH0 SWAP1 SLOAD SWAP1 PUSH2 0x100 EXP SWAP1 DIV PUSH20 0xFFFFFFFFFFFFFFFFFFFFFFFFFFFFFFFFFFFFFFFF AND SWAP1 POP PUSH0 PUSH20 0xFFFFFFFFFFFFFFFFFFFFFFFFFFFFFFFFFFFFFFFF AND DUP2 PUSH20 0xFFFFFFFFFFFFFFFFFFFFFFFFFFFFFFFFFFFFFFFF AND SUB PUSH2 0x4DB JUMPI PUSH1 0x40 MLOAD PUSH32 0x8C379A000000000000000000000000000000000000000000000000000000000 DUP2 MSTORE PUSH1 0x4 ADD PUSH2 0x4D2 SWAP1 PUSH2 0x169A JUMP JUMPDEST PUSH1 0x40 MLOAD DUP1 SWAP2 SUB SWAP1 REVERT JUMPDEST PUSH0 PUSH0 PUSH0 SWAP1 POP PUSH0 PUSH0 SWAP1 POP JUMPDEST PUSH1 0xA DUP2 LT ISZERO PUSH2 0x598 JUMPI PUSH0 DUP2 PUSH1 0x40 MLOAD PUSH1 0x20 ADD PUSH2 0x500 SWAP2 SWAP1 PUSH2 0x172C JUMP JUMPDEST PUSH1 0x40 MLOAD PUSH1 0x20 DUP2 DUP4 SUB SUB DUP2 MSTORE SWAP1 PUSH1 0x40 MSTORE DUP1 MLOAD SWAP1 PUSH1 0x20 ADD KECCAK256 SWAP1 POP CALLER PUSH20 0xFFFFFFFFFFFFFFFFFFFFFFFFFFFFFFFFFFFFFFFF AND PUSH1 0x2 PUSH0 DUP4 DUP2 MSTORE PUSH1 0x20 ADD SWAP1 DUP2 MSTORE PUSH1 0x20 ADD PUSH0 KECCAK256 PUSH0 ADD PUSH0 SWAP1 SLOAD SWAP1 PUSH2 0x100 EXP SWAP1 DIV PUSH20 0xFFFFFFFFFFFFFFFFFFFFFFFFFFFFFFFFFFFFFFFF AND PUSH20 0xFFFFFFFFFFFFFFFFFFFFFFFFFFFFFFFFFFFFFFFF AND SUB PUSH2 0x58A JUMPI DUP1 SWAP4 POP PUSH1 0x1 SWAP3 POP POP PUSH2 0x598 JUMP JUMPDEST POP DUP1 DUP1 PUSH1 0x1 ADD SWAP2 POP POP PUSH2 0x4E5 JUMP JUMPDEST POP DUP1 ISZERO PUSH2 0x5CA JUMPI CALLVALUE PUSH1 0x2 PUSH0 DUP5 DUP2 MSTORE PUSH1 0x20 ADD SWAP1 DUP2 MSTORE PUSH1 0x20 ADD PUSH0 KECCAK256 PUSH1 0x4 ADD PUSH0 DUP3 DUP3 SLOAD PUSH2 0x5C2 SWAP2 SWAP1 PUSH2 0x177E JUMP JUMPDEST SWAP3 POP POP DUP2 SWAP1 SSTORE POP JUMPDEST CALLVALUE PUSH1 0x2 PUSH0 DUP7 DUP2 MSTORE PUSH1 0x20 ADD SWAP1 DUP2 MSTORE PUSH1 0x20 ADD PUSH0 KECCAK256 PUSH1 0x3 ADD PUSH0 DUP3 DUP3 SLOAD PUSH2 0x5ED SWAP2 SWAP1 PUSH2 0x177E JUMP JUMPDEST SWAP3 POP POP DUP2 SWAP1 SSTORE POP PUSH0 DUP4 PUSH20 0xFFFFFFFFFFFFFFFFFFFFFFFFFFFFFFFFFFFFFFFF AND CALLVALUE PUSH1 0x40 MLOAD PUSH2 0x619 SWAP1 PUSH2 0x17DE JUMP JUMPDEST PUSH0 PUSH1 0x40 MLOAD DUP1 DUP4 SUB DUP2 DUP6 DUP8 GAS CALL SWAP3 POP POP POP RETURNDATASIZE DUP1 PUSH0 DUP2 EQ PUSH2 0x653 JUMPI PUSH1 0x40 MLOAD SWAP2 POP PUSH1 0x1F NOT PUSH1 0x3F RETURNDATASIZE ADD AND DUP3 ADD PUSH1 0x40 MSTORE RETURNDATASIZE DUP3 MSTORE RETURNDATASIZE PUSH0 PUSH1 0x20 DUP5 ADD RETURNDATACOPY PUSH2 0x658 JUMP JUMPDEST PUSH1 0x60 SWAP2 POP JUMPDEST POP POP SWAP1 POP DUP1 PUSH2 0x69C JUMPI PUSH1 0x40 MLOAD PUSH32 0x8C379A000000000000000000000000000000000000000000000000000000000 DUP2 MSTORE PUSH1 0x4 ADD PUSH2 0x693 SWAP1 PUSH2 0x183C JUMP JUMPDEST PUSH1 0x40 MLOAD DUP1 SWAP2 SUB SWAP1 REVERT JUMPDEST DUP5 DUP3 PUSH2 0x6AA JUMPI PUSH0 PUSH0 SHL PUSH2 0x6AC JUMP JUMPDEST DUP4 JUMPDEST PUSH32 0x6F2C8059F88AF5345E68DB9CEA15E62A0AA75BB19B80B8A46B694F57F655D627 CALLVALUE PUSH1 0x40 MLOAD PUSH2 0x6DB SWAP2 SWAP1 PUSH2 0x185A JUMP JUMPDEST PUSH1 0x40 MLOAD DUP1 SWAP2 SUB SWAP1 LOG3 POP POP POP POP POP JUMP JUMPDEST PUSH0 PUSH1 0x2 PUSH0 DUP4 DUP2 MSTORE PUSH1 0x20 ADD SWAP1 DUP2 MSTORE PUSH1 0x20 ADD PUSH0 KECCAK256 PUSH0 ADD PUSH0 SWAP1 SLOAD SWAP1 PUSH2 0x100 EXP SWAP1 DIV PUSH20 0xFFFFFFFFFFFFFFFFFFFFFFFFFFFFFFFFFFFFFFFF AND SWAP1 POP PUSH0 PUSH20 0xFFFFFFFFFFFFFFFFFFFFFFFFFFFFFFFFFFFFFFFF AND DUP2 PUSH20 0xFFFFFFFFFFFFFFFFFFFFFFFFFFFFFFFFFFFFFFFF AND SUB PUSH2 0x78E JUMPI PUSH1 0x40 MLOAD PUSH32 0x8C379A000000000000000000000000000000000000000000000000000000000 DUP2 MSTORE PUSH1 0x4 ADD PUSH2 0x785 SWAP1 PUSH2 0x169A JUMP JUMPDEST PUSH1 0x40 MLOAD DUP1 SWAP2 SUB SWAP1 REVERT JUMPDEST PUSH1 0x2 PUSH0 DUP5 DUP2 MSTORE PUSH1 0x20 ADD SWAP1 DUP2 MSTORE PUSH1 0x20 ADD PUSH0 KECCAK256 PUSH0 ADD PUSH0 SWAP1 SLOAD SWAP1 PUSH2 0x100 EXP SWAP1 DIV PUSH20 0xFFFFFFFFFFFFFFFFFFFFFFFFFFFFFFFFFFFFFFFF AND PUSH20 0xFFFFFFFFFFFFFFFFFFFFFFFFFFFFFFFFFFFFFFFF AND CALLER PUSH20 0xFFFFFFFFFFFFFFFFFFFFFFFFFFFFFFFFFFFFFFFF AND EQ DUP1 PUSH2 0x845 JUMPI POP PUSH0 PUSH0 SWAP1 SLOAD SWAP1 PUSH2 0x100 EXP SWAP1 DIV PUSH20 0xFFFFFFFFFFFFFFFFFFFFFFFFFFFFFFFFFFFFFFFF AND PUSH20 0xFFFFFFFFFFFFFFFFFFFFFFFFFFFFFFFFFFFFFFFF AND CALLER PUSH20 0xFFFFFFFFFFFFFFFFFFFFFFFFFFFFFFFFFFFFFFFF AND EQ JUMPDEST PUSH2 0x884 JUMPI PUSH1 0x40 MLOAD PUSH32 0x8C379A000000000000000000000000000000000000000000000000000000000 DUP2 MSTORE PUSH1 0x4 ADD PUSH2 0x87B SWAP1 PUSH2 0x18E3 JUMP JUMPDEST PUSH1 0x40 MLOAD DUP1 SWAP2 SUB SWAP1 REVERT JUMPDEST CALLVALUE PUSH1 0x2 PUSH0 DUP6 DUP2 MSTORE PUSH1 0x20 ADD SWAP1 DUP2 MSTORE PUSH1 0x20 ADD PUSH0 KECCAK256 PUSH1 0x4 ADD PUSH0 DUP3 DUP3 SLOAD PUSH2 0x8A7 SWAP2 SWAP1 PUSH2 0x177E JUMP JUMPDEST SWAP3 POP POP DUP2 SWAP1 SSTORE POP CALLVALUE PUSH1 0x2 PUSH0 DUP5 DUP2 MSTORE PUSH1 0x20 ADD SWAP1 DUP2 MSTORE PUSH1 0x20 ADD PUSH0 KECCAK256 PUSH1 0x3 ADD PUSH0 DUP3 DUP3 SLOAD PUSH2 0x8D1 SWAP2 SWAP1 PUSH2 0x177E JUMP JUMPDEST SWAP3 POP POP DUP2 SWAP1 SSTORE POP PUSH0 DUP2 PUSH20 0xFFFFFFFFFFFFFFFFFFFFFFFFFFFFFFFFFFFFFFFF AND CALLVALUE PUSH1 0x40 MLOAD PUSH2 0x8FD SWAP1 PUSH2 0x17DE JUMP JUMPDEST PUSH0 PUSH1 0x40 MLOAD DUP1 DUP4 SUB DUP2 DUP6 DUP8 GAS CALL SWAP3 POP POP POP RETURNDATASIZE DUP1 PUSH0 DUP2 EQ PUSH2 0x937 JUMPI PUSH1 0x40 MLOAD SWAP2 POP PUSH1 0x1F NOT PUSH1 0x3F RETURNDATASIZE ADD AND DUP3 ADD PUSH1 0x40 MSTORE RETURNDATASIZE DUP3 MSTORE RETURNDATASIZE PUSH0 PUSH1 0x20 DUP5 ADD RETURNDATACOPY PUSH2 0x93C JUMP JUMPDEST PUSH1 0x60 SWAP2 POP JUMPDEST POP POP SWAP1 POP DUP1 PUSH2 0x980 JUMPI PUSH1 0x40 MLOAD PUSH32 0x8C379A000000000000000000000000000000000000000000000000000000000 DUP2 MSTORE PUSH1 0x4 ADD PUSH2 0x977 SWAP1 PUSH2 0x183C JUMP JUMPDEST PUSH1 0x40 MLOAD DUP1 SWAP2 SUB SWAP1 REVERT JUMPDEST DUP3 DUP5 PUSH32 0x6F2C8059F88AF5345E68DB9CEA15E62A0AA75BB19B80B8A46B694F57F655D627 CALLVALUE PUSH1 0x40 MLOAD PUSH2 0x9B1 SWAP2 SWAP1 PUSH2 0x185A JUMP JUMPDEST PUSH1 0x40 MLOAD DUP1 SWAP2 SUB SWAP1 LOG3 POP POP POP POP JUMP JUMPDEST PUSH0 DUP2 PUSH1 0x40 MLOAD PUSH1 0x20 ADD PUSH2 0x9D1 SWAP2 SWAP1 PUSH2 0x1949 JUMP JUMPDEST PUSH1 0x40 MLOAD PUSH1 0x20 DUP2 DUP4 SUB SUB DUP2 MSTORE SWAP1 PUSH1 0x40 MSTORE DUP1 MLOAD SWAP1 PUSH1 0x20 ADD KECCAK256 SWAP1 POP SWAP2 SWAP1 POP JUMP JUMPDEST PUSH0 PUSH0 SWAP1 SLOAD SWAP1 PUSH2 0x100 EXP SWAP1 DIV PUSH20 0xFFFFFFFFFFFFFFFFFFFFFFFFFFFFFFFFFFFFFFFF AND DUP2 JUMP JUMPDEST PUSH0 PUSH20 0xFFFFFFFFFFFFFFFFFFFFFFFFFFFFFFFFFFFFFFFF AND DUP2 PUSH20 0xFFFFFFFFFFFFFFFFFFFFFFFFFFFFFFFFFFFFFFFF AND SUB PUSH2 0xA80 JUMPI PUSH1 0x40 MLOAD PUSH32 0x8C379A000000000000000000000000000000000000000000000000000000000 DUP2 MSTORE PUSH1 0x4 ADD PUSH2 0xA77 SWAP1 PUSH2 0x19A9 JUMP JUMPDEST PUSH1 0x40 MLOAD DUP1 SWAP2 SUB SWAP1 REVERT JUMPDEST PUSH0 PUSH20 0xFFFFFFFFFFFFFFFFFFFFFFFFFFFFFFFFFFFFFFFF AND PUSH1 0x2 PUSH0 DUP5 DUP2 MSTORE PUSH1 0x20 ADD SWAP1 DUP2 MSTORE PUSH1 0x20 ADD PUSH0 KECCAK256 PUSH0 ADD PUSH0 SWAP1 SLOAD SWAP1 PUSH2 0x100 EXP SWAP1 DIV PUSH20 0xFFFFFFFFFFFFFFFFFFFFFFFFFFFFFFFFFFFFFFFF AND PUSH20 0xFFFFFFFFFFFFFFFFFFFFFFFFFFFFFFFFFFFFFFFF AND EQ PUSH2 0xB86 JUMPI CALLER PUSH20 0xFFFFFFFFFFFFFFFFFFFFFFFFFFFFFFFFFFFFFFFF AND PUSH1 0x2 PUSH0 DUP5 DUP2 MSTORE PUSH1 0x20 ADD SWAP1 DUP2 MSTORE PUSH1 0x20 ADD PUSH0 KECCAK256 PUSH0 ADD PUSH0 SWAP1 SLOAD SWAP1 PUSH2 0x100 EXP SWAP1 DIV PUSH20 0xFFFFFFFFFFFFFFFFFFFFFFFFFFFFFFFFFFFFFFFF AND PUSH20 0xFFFFFFFFFFFFFFFFFFFFFFFFFFFFFFFFFFFFFFFF AND EQ PUSH2 0xB85 JUMPI PUSH1 0x40 MLOAD PUSH32 0x8C379A000000000000000000000000000000000000000000000000000000000 DUP2 MSTORE PUSH1 0x4 ADD PUSH2 0xB7C SWAP1 PUSH2 0x1A37 JUMP JUMPDEST PUSH1 0x40 MLOAD DUP1 SWAP2 SUB SWAP1 REVERT JUMPDEST JUMPDEST PUSH0 PUSH20 0xFFFFFFFFFFFFFFFFFFFFFFFFFFFFFFFFFFFFFFFF AND PUSH1 0x2 PUSH0 DUP5 DUP2 MSTORE PUSH1 0x20 ADD SWAP1 DUP2 MSTORE PUSH1 0x20 ADD PUSH0 KECCAK256 PUSH0 ADD PUSH0 SWAP1 SLOAD SWAP1 PUSH2 0x100 EXP SWAP1 DIV PUSH20 0xFFFFFFFFFFFFFFFFFFFFFFFFFFFFFFFFFFFFFFFF AND PUSH20 0xFFFFFFFFFFFFFFFFFFFFFFFFFFFFFFFFFFFFFFFF AND SUB PUSH2 0xCAD JUMPI PUSH1 0x40 MLOAD DUP1 PUSH1 0xA0 ADD PUSH1 0x40 MSTORE DUP1 DUP3 PUSH20 0xFFFFFFFFFFFFFFFFFFFFFFFFFFFFFFFFFFFFFFFF AND DUP2 MSTORE PUSH1 0x20 ADD TIMESTAMP DUP2 MSTORE PUSH1 0x20 ADD TIMESTAMP DUP2 MSTORE PUSH1 0x20 ADD PUSH0 DUP2 MSTORE PUSH1 0x20 ADD PUSH0 DUP2 MSTORE POP PUSH1 0x2 PUSH0 DUP5 DUP2 MSTORE PUSH1 0x20 ADD SWAP1 DUP2 MSTORE PUSH1 0x20 ADD PUSH0 KECCAK256 PUSH0 DUP3 ADD MLOAD DUP2 PUSH0 ADD PUSH0 PUSH2 0x100 EXP DUP2 SLOAD DUP2 PUSH20 0xFFFFFFFFFFFFFFFFFFFFFFFFFFFFFFFFFFFFFFFF MUL NOT AND SWAP1 DUP4 PUSH20 0xFFFFFFFFFFFFFFFFFFFFFFFFFFFFFFFFFFFFFFFF AND MUL OR SWAP1 SSTORE POP PUSH1 0x20 DUP3 ADD MLOAD DUP2 PUSH1 0x1 ADD SSTORE PUSH1 0x40 DUP3 ADD MLOAD DUP2 PUSH1 0x2 ADD SSTORE PUSH1 0x60 DUP3 ADD MLOAD DUP2 PUSH1 0x3 ADD SSTORE PUSH1 0x80 DUP3 ADD MLOAD DUP2 PUSH1 0x4 ADD SSTORE SWAP1 POP POP PUSH2 0xD18 JUMP JUMPDEST DUP1 PUSH1 0x2 PUSH0 DUP5 DUP2 MSTORE PUSH1 0x20 ADD SWAP1 DUP2 MSTORE PUSH1 0x20 ADD PUSH0 KECCAK256 PUSH0 ADD PUSH0 PUSH2 0x100 EXP DUP2 SLOAD DUP2 PUSH20 0xFFFFFFFFFFFFFFFFFFFFFFFFFFFFFFFFFFFFFFFF MUL NOT AND SWAP1 DUP4 PUSH20 0xFFFFFFFFFFFFFFFFFFFFFFFFFFFFFFFFFFFFFFFF AND MUL OR SWAP1 SSTORE POP TIMESTAMP PUSH1 0x2 PUSH0 DUP5 DUP2 MSTORE PUSH1 0x20 ADD SWAP1 DUP2 MSTORE PUSH1 0x20 ADD PUSH0 KECCAK256 PUSH1 0x2 ADD DUP2 SWAP1 SSTORE POP JUMPDEST DUP1 PUSH1 0x1 PUSH0 DUP5 DUP2 MSTORE PUSH1 0x20 ADD SWAP1 DUP2 MSTORE PUSH1 0x20 ADD PUSH0 KECCAK256 PUSH0 PUSH2 0x100 EXP DUP2 SLOAD DUP2 PUSH20 0xFFFFFFFFFFFFFFFFFFFFFFFFFFFFFFFFFFFFFFFF MUL NOT AND SWAP1 DUP4 PUSH20 0xFFFFFFFFFFFFFFFFFFFFFFFFFFFFFFFFFFFFFFFF AND MUL OR SWAP1 SSTORE POP DUP1 PUSH20 0xFFFFFFFFFFFFFFFFFFFFFFFFFFFFFFFFFFFFFFFF AND DUP3 PUSH32 0x3E3775452C1A736BC664F4466FCAB0687388450658C0A5FDABC4DA48B96FB210 PUSH1 0x40 MLOAD PUSH1 0x40 MLOAD DUP1 SWAP2 SUB SWAP1 LOG3 POP POP JUMP JUMPDEST PUSH0 PUSH0 SWAP1 SLOAD SWAP1 PUSH2 0x100 EXP SWAP1 DIV PUSH20 0xFFFFFFFFFFFFFFFFFFFFFFFFFFFFFFFFFFFFFFFF AND PUSH20 0xFFFFFFFFFFFFFFFFFFFFFFFFFFFFFFFFFFFFFFFF AND CALLER PUSH20 0xFFFFFFFFFFFFFFFFFFFFFFFFFFFFFFFFFFFFFFFF AND EQ PUSH2 0xE3D JUMPI PUSH1 0x40 MLOAD PUSH32 0x8C379A000000000000000000000000000000000000000000000000000000000 DUP2 MSTORE PUSH1 0x4 ADD PUSH2 0xE34 SWAP1 PUSH2 0x1632 JUMP JUMPDEST PUSH1 0x40 MLOAD DUP1 SWAP2 SUB SWAP1 REVERT JUMPDEST PUSH0 PUSH20 0xFFFFFFFFFFFFFFFFFFFFFFFFFFFFFFFFFFFFFFFF AND DUP2 PUSH20 0xFFFFFFFFFFFFFFFFFFFFFFFFFFFFFFFFFFFFFFFF AND SUB PUSH2 0xEAB JUMPI PUSH1 0x40 MLOAD PUSH32 0x8C379A000000000000000000000000000000000000000000000000000000000 DUP2 MSTORE PUSH1 0x4 ADD PUSH2 0xEA2 SWAP1 PUSH2 0x1A9F JUMP JUMPDEST PUSH1 0x40 MLOAD DUP1 SWAP2 SUB SWAP1 REVERT JUMPDEST PUSH0 PUSH1 0x2 PUSH0 DUP5 DUP2 MSTORE PUSH1 0x20 ADD SWAP1 DUP2 MSTORE PUSH1 0x20 ADD PUSH0 KECCAK256 PUSH1 0x1 ADD SLOAD SWAP1 POP PUSH1 0x40 MLOAD DUP1 PUSH1 0xA0 ADD PUSH1 0x40 MSTORE DUP1 DUP4 PUSH20 0xFFFFFFFFFFFFFFFFFFFFFFFFFFFFFFFFFFFFFFFF AND DUP2 MSTORE PUSH1 0x20 ADD PUSH0 DUP4 GT PUSH2 0xEF7 JUMPI TIMESTAMP PUSH2 0xEF9 JUMP JUMPDEST DUP3 JUMPDEST DUP2 MSTORE PUSH1 0x20 ADD TIMESTAMP DUP2 MSTORE PUSH1 0x20 ADD PUSH1 0x2 PUSH0 DUP7 DUP2 MSTORE PUSH1 0x20 ADD SWAP1 DUP2 MSTORE PUSH1 0x20 ADD PUSH0 KECCAK256 PUSH1 0x3 ADD SLOAD DUP2 MSTORE PUSH1 0x20 ADD PUSH1 0x2 PUSH0 DUP7 DUP2 MSTORE PUSH1 0x20 ADD SWAP1 DUP2 MSTORE PUSH1 0x20 ADD PUSH0 KECCAK256 PUSH1 0x4 ADD SLOAD DUP2 MSTORE POP PUSH1 0x2 PUSH0 DUP6 DUP2 MSTORE PUSH1 0x20 ADD SWAP1 DUP2 MSTORE PUSH1 0x20 ADD PUSH0 KECCAK256 PUSH0 DUP3 ADD MLOAD DUP2 PUSH0 ADD PUSH0 PUSH2 0x100 EXP DUP2 SLOAD DUP2 PUSH20 0xFFFFFFFFFFFFFFFFFFFFFFFFFFFFFFFFFFFFFFFF MUL NOT AND SWAP1 DUP4 PUSH20 0xFFFFFFFFFFFFFFFFFFFFFFFFFFFFFFFFFFFFFFFF AND MUL OR SWAP1 SSTORE POP PUSH1 0x20 DUP3 ADD MLOAD DUP2 PUSH1 0x1 ADD SSTORE PUSH1 0x40 DUP3 ADD MLOAD DUP2 PUSH1 0x2 ADD SSTORE PUSH1 0x60 DUP3 ADD MLOAD DUP2 PUSH1 0x3 ADD SSTORE PUSH1 0x80 DUP3 ADD MLOAD DUP2 PUSH1 0x4 ADD SSTORE SWAP1 POP POP DUP2 PUSH1 0x1 PUSH0 DUP6 DUP2 MSTORE PUSH1 0x20 ADD SWAP1 DUP2 MSTORE PUSH1 0x20 ADD PUSH0 KECCAK256 PUSH0 PUSH2 0x100 EXP DUP2 SLOAD DUP2 PUSH20 0xFFFFFFFFFFFFFFFFFFFFFFFFFFFFFFFFFFFFFFFF MUL NOT AND SWAP1 DUP4 PUSH20 0xFFFFFFFFFFFFFFFFFFFFFFFFFFFFFFFFFFFFFFFF AND MUL OR SWAP1 SSTORE POP DUP2 PUSH20 0xFFFFFFFFFFFFFFFFFFFFFFFFFFFFFFFFFFFFFFFF AND DUP4 PUSH32 0x3E3775452C1A736BC664F4466FCAB0687388450658C0A5FDABC4DA48B96FB210 PUSH1 0x40 MLOAD PUSH1 0x40 MLOAD DUP1 SWAP2 SUB SWAP1 LOG3 POP POP POP JUMP JUMPDEST PUSH0 PUSH0 SWAP1 SLOAD SWAP1 PUSH2 0x100 EXP SWAP1 DIV PUSH20 0xFFFFFFFFFFFFFFFFFFFFFFFFFFFFFFFFFFFFFFFF AND PUSH20 0xFFFFFFFFFFFFFFFFFFFFFFFFFFFFFFFFFFFFFFFF AND CALLER PUSH20 0xFFFFFFFFFFFFFFFFFFFFFFFFFFFFFFFFFFFFFFFF AND EQ PUSH2 0x10DC JUMPI PUSH1 0x40 MLOAD PUSH32 0x8C379A000000000000000000000000000000000000000000000000000000000 DUP2 MSTORE PUSH1 0x4 ADD PUSH2 0x10D3 SWAP1 PUSH2 0x1632 JUMP JUMPDEST PUSH1 0x40 MLOAD DUP1 SWAP2 SUB SWAP1 REVERT JUMPDEST PUSH0 PUSH20 0xFFFFFFFFFFFFFFFFFFFFFFFFFFFFFFFFFFFFFFFF AND DUP2 PUSH20 0xFFFFFFFFFFFFFFFFFFFFFFFFFFFFFFFFFFFFFFFF AND SUB PUSH2 0x114A JUMPI PUSH1 0x40 MLOAD PUSH32 0x8C379A000000000000000000000000000000000000000000000000000000000 DUP2 MSTORE PUSH1 0x4 ADD PUSH2 0x1141 SWAP1 PUSH2 0x1B07 JUMP JUMPDEST PUSH1 0x40 MLOAD DUP1 SWAP2 SUB SWAP1 REVERT JUMPDEST DUP1 PUSH20 0xFFFFFFFFFFFFFFFFFFFFFFFFFFFFFFFFFFFFFFFF AND PUSH0 PUSH0 SWAP1 SLOAD SWAP1 PUSH2 0x100 EXP SWAP1 DIV PUSH20 0xFFFFFFFFFFFFFFFFFFFFFFFFFFFFFFFFFFFFFFFF AND PUSH20 0xFFFFFFFFFFFFFFFFFFFFFFFFFFFFFFFFFFFFFFFF AND PUSH32 0x8BE0079C531659141344CD1FD0A4F28419497F9722A3DAAFE3B4186F6B6457E0 PUSH1 0x40 MLOAD PUSH1 0x40 MLOAD DUP1 SWAP2 SUB SWAP1 LOG3 DUP1 PUSH0 PUSH0 PUSH2 0x100 EXP DUP2 SLOAD DUP2 PUSH20 0xFFFFFFFFFFFFFFFFFFFFFFFFFFFFFFFFFFFFFFFF MUL NOT AND SWAP1 DUP4 PUSH20 0xFFFFFFFFFFFFFFFFFFFFFFFFFFFFFFFFFFFFFFFF AND MUL OR SWAP1 SSTORE POP POP JUMP JUMPDEST PUSH0 PUSH1 0x40 MLOAD SWAP1 POP SWAP1 JUMP JUMPDEST PUSH0 PUSH0 REVERT JUMPDEST PUSH0 PUSH0 REVERT JUMPDEST PUSH0 DUP2 SWAP1 POP SWAP2 SWAP1 POP JUMP JUMPDEST PUSH2 0x1229 DUP2 PUSH2 0x1217 JUMP JUMPDEST DUP2 EQ PUSH2 0x1233 JUMPI PUSH0 PUSH0 REVERT JUMPDEST POP JUMP JUMPDEST PUSH0 DUP2 CALLDATALOAD SWAP1 POP PUSH2 0x1244 DUP2 PUSH2 0x1220 JUMP JUMPDEST SWAP3 SWAP2 POP POP JUMP JUMPDEST PUSH0 PUSH1 0x20 DUP3 DUP5 SUB SLT ISZERO PUSH2 0x125F JUMPI PUSH2 0x125E PUSH2 0x120F JUMP JUMPDEST JUMPDEST PUSH0 PUSH2 0x126C DUP5 DUP3 DUP6 ADD PUSH2 0x1236 JUMP JUMPDEST SWAP2 POP POP SWAP3 SWAP2 POP POP JUMP JUMPDEST PUSH0 PUSH20 0xFFFFFFFFFFFFFFFFFFFFFFFFFFFFFFFFFFFFFFFF DUP3 AND SWAP1 POP SWAP2 SWAP1 POP JUMP JUMPDEST PUSH0 PUSH2 0x129E DUP3 PUSH2 0x1275 JUMP JUMPDEST SWAP1 POP SWAP2 SWAP1 POP JUMP JUMPDEST PUSH2 0x12AE DUP2 PUSH2 0x1294 JUMP JUMPDEST DUP3 MSTORE POP POP JUMP JUMPDEST PUSH0 PUSH1 0x20 DUP3 ADD SWAP1 POP PUSH2 0x12C7 PUSH0 DUP4 ADD DUP5 PUSH2 0x12A5 JUMP JUMPDEST SWAP3 SWAP2 POP POP JUMP JUMPDEST PUSH0 DUP2 SWAP1 POP SWAP2 SWAP1 POP JUMP JUMPDEST PUSH2 0x12DF DUP2 PUSH2 0x12CD JUMP JUMPDEST DUP3 MSTORE POP POP JUMP JUMPDEST PUSH0 PUSH1 0xA0 DUP3 ADD SWAP1 POP PUSH2 0x12F8 PUSH0 DUP4 ADD DUP9 PUSH2 0x12A5 JUMP JUMPDEST PUSH2 0x1305 PUSH1 0x20 DUP4 ADD DUP8 PUSH2 0x12D6 JUMP JUMPDEST PUSH2 0x1312 PUSH1 0x40 DUP4 ADD DUP7 PUSH2 0x12D6 JUMP JUMPDEST PUSH2 0x131F PUSH1 0x60 DUP4 ADD DUP6 PUSH2 0x12D6 JUMP JUMPDEST PUSH2 0x132C PUSH1 0x80 DUP4 ADD DUP5 PUSH2 0x12D6 JUMP JUMPDEST SWAP7 SWAP6 POP POP POP POP POP POP JUMP JUMPDEST PUSH0 PUSH0 PUSH1 0x40 DUP4 DUP6 SUB SLT ISZERO PUSH2 0x134C JUMPI PUSH2 0x134B PUSH2 0x120F JUMP JUMPDEST JUMPDEST PUSH0 PUSH2 0x1359 DUP6 DUP3 DUP7 ADD PUSH2 0x1236 JUMP JUMPDEST SWAP3 POP POP PUSH1 0x20 PUSH2 0x136A DUP6 DUP3 DUP7 ADD PUSH2 0x1236 JUMP JUMPDEST SWAP2 POP POP SWAP3 POP SWAP3 SWAP1 POP JUMP JUMPDEST PUSH0 PUSH0 REVERT JUMPDEST PUSH0 PUSH0 REVERT JUMPDEST PUSH0 PUSH1 0x1F NOT PUSH1 0x1F DUP4 ADD AND SWAP1 POP SWAP2 SWAP1 POP JUMP JUMPDEST PUSH32 0x4E487B7100000000000000000000000000000000000000000000000000000000 PUSH0 MSTORE PUSH1 0x41 PUSH1 0x4 MSTORE PUSH1 0x24 PUSH0 REVERT JUMPDEST PUSH2 0x13C2 DUP3 PUSH2 0x137C JUMP JUMPDEST DUP2 ADD DUP2 DUP2 LT PUSH8 0xFFFFFFFFFFFFFFFF DUP3 GT OR ISZERO PUSH2 0x13E1 JUMPI PUSH2 0x13E0 PUSH2 0x138C JUMP JUMPDEST JUMPDEST DUP1 PUSH1 0x40 MSTORE POP POP POP JUMP JUMPDEST PUSH0 PUSH2 0x13F3 PUSH2 0x1206 JUMP JUMPDEST SWAP1 POP PUSH2 0x13FF DUP3 DUP3 PUSH2 0x13B9 JUMP JUMPDEST SWAP2 SWAP1 POP JUMP JUMPDEST PUSH0 PUSH8 0xFFFFFFFFFFFFFFFF DUP3 GT ISZERO PUSH2 0x141E JUMPI PUSH2 0x141D PUSH2 0x138C JUMP JUMPDEST JUMPDEST PUSH2 0x1427 DUP3 PUSH2 0x137C JUMP JUMPDEST SWAP1 POP PUSH1 0x20 DUP2 ADD SWAP1 POP SWAP2 SWAP1 POP JUMP JUMPDEST DUP3 DUP2 DUP4 CALLDATACOPY PUSH0 DUP4 DUP4 ADD MSTORE POP POP POP JUMP JUMPDEST PUSH0 PUSH2 0x1454 PUSH2 0x144F DUP5 PUSH2 0x1404 JUMP JUMPDEST PUSH2 0x13EA JUMP JUMPDEST SWAP1 POP DUP3 DUP2 MSTORE PUSH1 0x20 DUP2 ADD DUP5 DUP5 DUP5 ADD GT ISZERO PUSH2 0x1470 JUMPI PUSH2 0x146F PUSH2 0x1378 JUMP JUMPDEST JUMPDEST PUSH2 0x147B DUP5 DUP3 DUP6 PUSH2 0x1434 JUMP JUMPDEST POP SWAP4 SWAP3 POP POP POP JUMP JUMPDEST PUSH0 DUP3 PUSH1 0x1F DUP4 ADD SLT PUSH2 0x1497 JUMPI PUSH2 0x1496 PUSH2 0x1374 JUMP JUMPDEST JUMPDEST DUP2 CALLDATALOAD PUSH2 0x14A7 DUP5 DUP3 PUSH1 0x20 DUP7 ADD PUSH2 0x1442 JUMP JUMPDEST SWAP2 POP POP SWAP3 SWAP2 POP POP JUMP JUMPDEST PUSH0 PUSH1 0x20 DUP3 DUP5 SUB SLT ISZERO PUSH2 0x14C5 JUMPI PUSH2 0x14C4 PUSH2 0x120F JUMP JUMPDEST JUMPDEST PUSH0 DUP3 ADD CALLDATALOAD PUSH8 0xFFFFFFFFFFFFFFFF DUP2 GT ISZERO PUSH2 0x14E2 JUMPI PUSH2 0x14E1 PUSH2 0x1213 JUMP JUMPDEST JUMPDEST PUSH2 0x14EE DUP5 DUP3 DUP6 ADD PUSH2 0x1483 JUMP JUMPDEST SWAP2 POP POP SWAP3 SWAP2 POP POP JUMP JUMPDEST PUSH2 0x1500 DUP2 PUSH2 0x1217 JUMP JUMPDEST DUP3 MSTORE POP POP JUMP JUMPDEST PUSH0 PUSH1 0x20 DUP3 ADD SWAP1 POP PUSH2 0x1519 PUSH0 DUP4 ADD DUP5 PUSH2 0x14F7 JUMP JUMPDEST SWAP3 SWAP2 POP POP JUMP JUMPDEST PUSH2 0x1528 DUP2 PUSH2 0x1294 JUMP JUMPDEST DUP2 EQ PUSH2 0x1532 JUMPI PUSH0 PUSH0 REVERT JUMPDEST POP JUMP JUMPDEST PUSH0 DUP2 CALLDATALOAD SWAP1 POP PUSH2 0x1543 DUP2 PUSH2 0x151F JUMP JUMPDEST SWAP3 SWAP2 POP POP JUMP JUMPDEST PUSH0 PUSH0 PUSH1 0x40 DUP4 DUP6 SUB SLT ISZERO PUSH2 0x155F JUMPI PUSH2 0x155E PUSH2 0x120F JUMP JUMPDEST JUMPDEST PUSH0 PUSH2 0x156C DUP6 DUP3 DUP7 ADD PUSH2 0x1236 JUMP JUMPDEST SWAP3 POP POP PUSH1 0x20 PUSH2 0x157D DUP6 DUP3 DUP7 ADD PUSH2 0x1535 JUMP JUMPDEST SWAP2 POP POP SWAP3 POP SWAP3 SWAP1 POP JUMP JUMPDEST PUSH0 PUSH1 0x20 DUP3 DUP5 SUB SLT ISZERO PUSH2 0x159C JUMPI PUSH2 0x159B PUSH2 0x120F JUMP JUMPDEST JUMPDEST PUSH0 PUSH2 0x15A9 DUP5 DUP3 DUP6 ADD PUSH2 0x1535 JUMP JUMPDEST SWAP2 POP POP SWAP3 SWAP2 POP POP JUMP JUMPDEST PUSH0 DUP3 DUP3 MSTORE PUSH1 0x20 DUP3 ADD SWAP1 POP SWAP3 SWAP2 POP POP JUMP JUMPDEST PUSH32 0x4F6E6C79206F776E65722063616E2063616C6C20746869732066756E6374696F PUSH0 DUP3 ADD MSTORE PUSH32 0x6E00000000000000000000000000000000000000000000000000000000000000 PUSH1 0x20 DUP3 ADD MSTORE POP JUMP JUMPDEST PUSH0 PUSH2 0x161C PUSH1 0x21 DUP4 PUSH2 0x15B2 JUMP JUMPDEST SWAP2 POP PUSH2 0x1627 DUP3 PUSH2 0x15C2 JUMP JUMPDEST PUSH1 0x40 DUP3 ADD SWAP1 POP SWAP2 SWAP1 POP JUMP JUMPDEST PUSH0 PUSH1 0x20 DUP3 ADD SWAP1 POP DUP2 DUP2 SUB PUSH0 DUP4 ADD MSTORE PUSH2 0x1649 DUP2 PUSH2 0x1610 JUMP JUMPDEST SWAP1 POP SWAP2 SWAP1 POP JUMP JUMPDEST PUSH32 0x526563697069656E7420656D61696C206E6F7420726567697374657265640000 PUSH0 DUP3 ADD MSTORE POP JUMP JUMPDEST PUSH0 PUSH2 0x1684 PUSH1 0x1E DUP4 PUSH2 0x15B2 JUMP JUMPDEST SWAP2 POP PUSH2 0x168F DUP3 PUSH2 0x1650 JUMP JUMPDEST PUSH1 0x20 DUP3 ADD SWAP1 POP SWAP2 SWAP1 POP JUMP JUMPDEST PUSH0 PUSH1 0x20 DUP3 ADD SWAP1 POP DUP2 DUP2 SUB PUSH0 DUP4 ADD MSTORE PUSH2 0x16B1 DUP2 PUSH2 0x1678 JUMP JUMPDEST SWAP1 POP SWAP2 SWAP1 POP JUMP JUMPDEST PUSH0 DUP2 SWAP1 POP SWAP3 SWAP2 POP POP JUMP JUMPDEST PUSH32 0x706C616365686F6C646572000000000000000000000000000000000000000000 PUSH0 DUP3 ADD MSTORE POP JUMP JUMPDEST PUSH0 PUSH2 0x16F6 PUSH1 0xB DUP4 PUSH2 0x16B8 JUMP JUMPDEST SWAP2 POP PUSH2 0x1701 DUP3 PUSH2 0x16C2 JUMP JUMPDEST PUSH1 0xB DUP3 ADD SWAP1 POP SWAP2 SWAP1 POP JUMP JUMPDEST PUSH0 DUP2 SWAP1 POP SWAP2 SWAP1 POP JUMP JUMPDEST PUSH2 0x1726 PUSH2 0x1721 DUP3 PUSH2 0x12CD JUMP JUMPDEST PUSH2 0x170C JUMP JUMPDEST DUP3 MSTORE POP POP JUMP JUMPDEST PUSH0 PUSH2 0x1736 DUP3 PUSH2 0x16EA JUMP JUMPDEST SWAP2 POP PUSH2 0x1742 DUP3 DUP5 PUSH2 0x1715 JUMP JUMPDEST PUSH1 0x20 DUP3 ADD SWAP2 POP DUP2 SWAP1 POP SWAP3 SWAP2 POP POP JUMP JUMPDEST PUSH32 0x4E487B7100000000000000000000000000000000000000000000000000000000 PUSH0 MSTORE PUSH1 0x11 PUSH1 0x4 MSTORE PUSH1 0x24 PUSH0 REVERT JUMPDEST PUSH0 PUSH2 0x1788 DUP3 PUSH2 0x12CD JUMP JUMPDEST SWAP2 POP PUSH2 0x1793 DUP4 PUSH2 0x12CD JUMP JUMPDEST SWAP3 POP DUP3 DUP3 ADD SWAP1 POP DUP1 DUP3 GT ISZERO PUSH2 0x17AB JUMPI PUSH2 0x17AA PUSH2 0x1751 JUMP JUMPDEST JUMPDEST SWAP3 SWAP2 POP POP JUMP JUMPDEST PUSH0 DUP2 SWAP1 POP SWAP3 SWAP2 POP POP JUMP JUMPDEST POP JUMP JUMPDEST PUSH0 PUSH2 0x17C9 PUSH0 DUP4 PUSH2 0x17B1 JUMP JUMPDEST SWAP2 POP PUSH2 0x17D4 DUP3 PUSH2 0x17BB JUMP JUMPDEST PUSH0 DUP3 ADD SWAP1 POP SWAP2 SWAP1 POP JUMP JUMPDEST PUSH0 PUSH2 0x17E8 DUP3 PUSH2 0x17BE JUMP JUMPDEST SWAP2 POP DUP2 SWAP1 POP SWAP2 SWAP1 POP JUMP JUMPDEST PUSH32 0x4661696C656420746F2073656E64207061796D656E7400000000000000000000 PUSH0 DUP3 ADD MSTORE POP JUMP JUMPDEST PUSH0 PUSH2 0x1826 PUSH1 0x16 DUP4 PUSH2 0x15B2 JUMP JUMPDEST SWAP2 POP PUSH2 0x1831 DUP3 PUSH2 0x17F2 JUMP JUMPDEST PUSH1 0x20 DUP3 ADD SWAP1 POP SWAP2 SWAP1 POP JUMP JUMPDEST PUSH0 PUSH1 0x20 DUP3 ADD SWAP1 POP DUP2 DUP2 SUB PUSH0 DUP4 ADD MSTORE PUSH2 0x1853 DUP2 PUSH2 0x181A JUMP JUMPDEST SWAP1 POP SWAP2 SWAP1 POP JUMP JUMPDEST PUSH0 PUSH1 0x20 DUP3 ADD SWAP1 POP PUSH2 0x186D PUSH0 DUP4 ADD DUP5 PUSH2 0x12D6 JUMP JUMPDEST SWAP3 SWAP2 POP POP JUMP JUMPDEST PUSH32 0x53656E646572206E6F7420617574686F72697A656420666F7220746869732065 PUSH0 DUP3 ADD MSTORE PUSH32 0x6D61696C00000000000000000000000000000000000000000000000000000000 PUSH1 0x20 DUP3 ADD MSTORE POP JUMP JUMPDEST PUSH0 PUSH2 0x18CD PUSH1 0x24 DUP4 PUSH2 0x15B2 JUMP JUMPDEST SWAP2 POP PUSH2 0x18D8 DUP3 PUSH2 0x1873 JUMP JUMPDEST PUSH1 0x40 DUP3 ADD SWAP1 POP SWAP2 SWAP1 POP JUMP JUMPDEST PUSH0 PUSH1 0x20 DUP3 ADD SWAP1 POP DUP2 DUP2 SUB PUSH0 DUP4 ADD MSTORE PUSH2 0x18FA DUP2 PUSH2 0x18C1 JUMP JUMPDEST SWAP1 POP SWAP2 SWAP1 POP JUMP JUMPDEST PUSH0 DUP2 MLOAD SWAP1 POP SWAP2 SWAP1 POP JUMP JUMPDEST DUP3 DUP2 DUP4 MCOPY PUSH0 DUP4 DUP4 ADD MSTORE POP POP POP JUMP JUMPDEST PUSH0 PUSH2 0x1923 DUP3 PUSH2 0x1901 JUMP JUMPDEST PUSH2 0x192D DUP2 DUP6 PUSH2 0x16B8 JUMP JUMPDEST SWAP4 POP PUSH2 0x193D DUP2 DUP6 PUSH1 0x20 DUP7 ADD PUSH2 0x190B JUMP JUMPDEST DUP1 DUP5 ADD SWAP2 POP POP SWAP3 SWAP2 POP POP JUMP JUMPDEST PUSH0 PUSH2 0x1954 DUP3 DUP5 PUSH2 0x1919 JUMP JUMPDEST SWAP2 POP DUP2 SWAP1 POP SWAP3 SWAP2 POP POP JUMP JUMPDEST PUSH32 0x43616E6E6F74207265676973746572207A65726F206164647265737300000000 PUSH0 DUP3 ADD MSTORE POP JUMP JUMPDEST PUSH0 PUSH2 0x1993 PUSH1 0x1C DUP4 PUSH2 0x15B2 JUMP JUMPDEST SWAP2 POP PUSH2 0x199E DUP3 PUSH2 0x195F JUMP JUMPDEST PUSH1 0x20 DUP3 ADD SWAP1 POP SWAP2 SWAP1 POP JUMP JUMPDEST PUSH0 PUSH1 0x20 DUP3 ADD SWAP1 POP DUP2 DUP2 SUB PUSH0 DUP4 ADD MSTORE PUSH2 0x19C0 DUP2 PUSH2 0x1987 JUMP JUMPDEST SWAP1 POP SWAP2 SWAP1 POP JUMP JUMPDEST PUSH32 0x456D61696C20616C7265616479207265676973746572656420746F20616E6F74 PUSH0 DUP3 ADD MSTORE PUSH32 0x6865722077616C6C657400000000000000000000000000000000000000000000 PUSH1 0x20 DUP3 ADD MSTORE POP JUMP JUMPDEST PUSH0 PUSH2 0x1A21 PUSH1 0x2A DUP4 PUSH2 0x15B2 JUMP JUMPDEST SWAP2 POP PUSH2 0x1A2C DUP3 PUSH2 0x19C7 JUMP JUMPDEST PUSH1 0x40 DUP3 ADD SWAP1 POP SWAP2 SWAP1 POP JUMP JUMPDEST PUSH0 PUSH1 0x20 DUP3 ADD SWAP1 POP DUP2 DUP2 SUB PUSH0 DUP4 ADD MSTORE PUSH2 0x1A4E DUP2 PUSH2 0x1A15 JUMP JUMPDEST SWAP1 POP SWAP2 SWAP1 POP JUMP JUMPDEST PUSH32 0x43616E6E6F7420736574207A65726F2061646472657373000000000000000000 PUSH0 DUP3 ADD MSTORE POP JUMP JUMPDEST PUSH0 PUSH2 0x1A89 PUSH1 0x17 DUP4 PUSH2 0x15B2 JUMP JUMPDEST SWAP2 POP PUSH2 0x1A94 DUP3 PUSH2 0x1A55 JUMP JUMPDEST PUSH1 0x20 DUP3 ADD SWAP1 POP SWAP2 SWAP1 POP JUMP JUMPDEST PUSH0 PUSH1 0x20 DUP3 ADD SWAP1 POP DUP2 DUP2 SUB PUSH0 DUP4 ADD MSTORE PUSH2 0x1AB6 DUP2 PUSH2 0x1A7D JUMP JUMPDEST SWAP1 POP SWAP2 SWAP1 POP JUMP JUMPDEST PUSH32 0x4E6577206F776E65722063616E6E6F74206265207A65726F2061646472657373 PUSH0 DUP3 ADD MSTORE POP JUMP JUMPDEST PUSH0 PUSH2 0x1AF1 PUSH1 0x20 DUP4 PUSH2 0x15B2 JUMP JUMPDEST SWAP2 POP PUSH2 0x1AFC DUP3 PUSH2 0x1ABD JUMP JUMPDEST PUSH1 0x20 DUP3 ADD SWAP1 POP SWAP2 SWAP1 POP JUMP JUMPDEST PUSH0 PUSH1 0x20 DUP3 ADD SWAP1 POP DUP2 DUP2 SUB PUSH0 DUP4 ADD MSTORE PUSH2 0x1B1E DUP2 PUSH2 0x1AE5 JUMP JUMPDEST SWAP1 POP SWAP2 SWAP1 POP JUMP INVALID LOG2 PUSH5 0x6970667358 0x22 SLT KECCAK256 PUSH28 0x2FE52D19D3ADD336E22FF2A800AA21F77A27328BC94930E8995F8972 CALLER 0xB7 ADD PUSH5 0x736F6C6343 STOP ADDMOD 0x1E STOP CALLER "
	},
	"Assembly": ".code\n  PUSH 80\t\t\tcontract EmailPaymentRegistry ...\n  PUSH 40\t\t\tcontract EmailPaymentRegistry ...\n  MSTORE \t\t\tcontract EmailPaymentRegistry ...\n  CALLVALUE \t\t\tconstructor() {\\r\\n        own...\n  DUP1 \t\t\tconstructor() {\\r\\n        own...\n  ISZERO \t\t\tconstructor() {\\r\\n        own...\n  PUSH [tag] 1\t\t\tconstructor() {\\r\\n        own...\n  JUMPI \t\t\tconstructor() {\\r\\n        own...\n  PUSH 0\t\t\tconstructor() {\\r\\n        own...\n  PUSH 0\t\t\tconstructor() {\\r\\n        own...\n  REVERT \t\t\tconstructor() {\\r\\n        own...\ntag 1\t\t\tconstructor() {\\r\\n        own...\n  JUMPDEST \t\t\tconstructor() {\\r\\n        own...\n  POP \t\t\tconstructor() {\\r\\n        own...\n  CALLER \t\t\tmsg.sender\n  PUSH 0\t\t\towner\n  PUSH 0\t\t\towner\n  PUSH 100\t\t\towner = msg.sender\n  EXP \t\t\towner = msg.sender\n  DUP2 \t\t\towner = msg.sender\n  SLOAD \t\t\towner = msg.sender\n  DUP2 \t\t\towner = msg.sender\n  PUSH FFFFFFFFFFFFFFFFFFFFFFFFFFFFFFFFFFFFFFFF\t\t\towner = msg.sender\n  MUL \t\t\towner = msg.sender\n  NOT \t\t\towner = msg.sender\n  AND \t\t\towner = msg.sender\n  SWAP1 \t\t\towner = msg.sender\n  DUP4 \t\t\towner = msg.sender\n  PUSH FFFFFFFFFFFFFFFFFFFFFFFFFFFFFFFFFFFFFFFF\t\t\towner = msg.sender\n  AND \t\t\towner = msg.sender\n  MUL \t\t\towner = msg.sender\n  OR \t\t\towner = msg.sender\n  SWAP1 \t\t\towner = msg.sender\n  SSTORE \t\t\towner = msg.sender\n  POP \t\t\towner = msg.sender\n  PUSH #[$] 0000000000000000000000000000000000000000000000000000000000000000\t\t\tcontract EmailPaymentRegistry ...\n  DUP1 \t\t\tcontract EmailPaymentRegistry ...\n  PUSH [$] 0000000000000000000000000000000000000000000000000000000000000000\t\t\tcontract EmailPaymentRegistry ...\n  PUSH 0\t\t\tcontract EmailPaymentRegistry ...\n  CODECOPY \t\t\tcontract EmailPaymentRegistry ...\n  PUSH 0\t\t\tcontract EmailPaymentRegistry ...\n  RETURN \t\t\tcontract EmailPaymentRegistry ...\n.data\n  0:\n    .code\n      PUSH 80\t\t\tcontract EmailPaymentRegistry ...\n      PUSH 40\t\t\tcontract EmailPaymentRegistry ...\n      MSTORE \t\t\tcontract EmailPaymentRegistry ...\n      PUSH 4\t\t\tcontract EmailPaymentRegistry ...\n      CALLDATASIZE \t\t\tcontract EmailPaymentRegistry ...\n      LT \t\t\tcontract EmailPaymentRegistry ...\n      PUSH [tag] 1\t\t\tcontract EmailPaymentRegistry ...\n      JUMPI \t\t\tcontract EmailPaymentRegistry ...\n      PUSH 0\t\t\tcontract EmailPaymentRegistry ...\n      CALLDATALOAD \t\t\tcontract EmailPaymentRegistry ...\n      PUSH E0\t\t\tcontract EmailPaymentRegistry ...\n      SHR \t\t\tcontract EmailPaymentRegistry ...\n      DUP1 \t\t\tcontract EmailPaymentRegistry ...\n      PUSH 8AED9CC3\t\t\tcontract EmailPaymentRegistry ...\n      GT \t\t\tcontract EmailPaymentRegistry ...\n      PUSH [tag] 12\t\t\tcontract EmailPaymentRegistry ...\n      JUMPI \t\t\tcontract EmailPaymentRegistry ...\n      DUP1 \t\t\tcontract EmailPaymentRegistry ...\n      PUSH 8AED9CC3\t\t\tcontract EmailPaymentRegistry ...\n      EQ \t\t\tcontract EmailPaymentRegistry ...\n      PUSH [tag] 7\t\t\tcontract EmailPaymentRegistry ...\n      JUMPI \t\t\tcontract EmailPaymentRegistry ...\n      DUP1 \t\t\tcontract EmailPaymentRegistry ...\n      PUSH 8DA5CB5B\t\t\tcontract EmailPaymentRegistry ...\n      EQ \t\t\tcontract EmailPaymentRegistry ...\n      PUSH [tag] 8\t\t\tcontract EmailPaymentRegistry ...\n      JUMPI \t\t\tcontract EmailPaymentRegistry ...\n      DUP1 \t\t\tcontract EmailPaymentRegistry ...\n      PUSH 8DB5B06A\t\t\tcontract EmailPaymentRegistry ...\n      EQ \t\t\tcontract EmailPaymentRegistry ...\n      PUSH [tag] 9\t\t\tcontract EmailPaymentRegistry ...\n      JUMPI \t\t\tcontract EmailPaymentRegistry ...\n      DUP1 \t\t\tcontract EmailPaymentRegistry ...\n      PUSH 9D36FD0C\t\t\tcontract EmailPaymentRegistry ...\n      EQ \t\t\tcontract EmailPaymentRegistry ...\n      PUSH [tag] 10\t\t\tcontract EmailPaymentRegistry ...\n      JUMPI \t\t\tcontract EmailPaymentRegistry ...\n      DUP1 \t\t\tcontract EmailPaymentRegistry ...\n      PUSH F2FDE38B\t\t\tcontract EmailPaymentRegistry ...\n      EQ \t\t\tcontract EmailPaymentRegistry ...\n      PUSH [tag] 11\t\t\tcontract EmailPaymentRegistry ...\n      JUMPI \t\t\tcontract EmailPaymentRegistry ...\n      PUSH [tag] 1\t\t\tcontract EmailPaymentRegistry ...\n      JUMP \t\t\tcontract EmailPaymentRegistry ...\n    tag 12\t\t\tcontract EmailPaymentRegistry ...\n      JUMPDEST \t\t\tcontract EmailPaymentRegistry ...\n      DUP1 \t\t\tcontract EmailPaymentRegistry ...\n      PUSH D8D5E1B\t\t\tcontract EmailPaymentRegistry ...\n      EQ \t\t\tcontract EmailPaymentRegistry ...\n      PUSH [tag] 2\t\t\tcontract EmailPaymentRegistry ...\n      JUMPI \t\t\tcontract EmailPaymentRegistry ...\n      DUP1 \t\t\tcontract EmailPaymentRegistry ...\n      PUSH 3CCFD60B\t\t\tcontract EmailPaymentRegistry ...\n      EQ \t\t\tcontract EmailPaymentRegistry ...\n      PUSH [tag] 3\t\t\tcontract EmailPaymentRegistry ...\n      JUMPI \t\t\tcontract EmailPaymentRegistry ...\n      DUP1 \t\t\tcontract EmailPaymentRegistry ...\n      PUSH 6C6848CC\t\t\tcontract EmailPaymentRegistry ...\n      EQ \t\t\tcontract EmailPaymentRegistry ...\n      PUSH [tag] 4\t\t\tcontract EmailPaymentRegistry ...\n      JUMPI \t\t\tcontract EmailPaymentRegistry ...\n      DUP1 \t\t\tcontract EmailPaymentRegistry ...\n      PUSH 7945B714\t\t\tcontract EmailPaymentRegistry ...\n      EQ \t\t\tcontract EmailPaymentRegistry ...\n      PUSH [tag] 5\t\t\tcontract EmailPaymentRegistry ...\n      JUMPI \t\t\tcontract EmailPaymentRegistry ...\n      DUP1 \t\t\tcontract EmailPaymentRegistry ...\n      PUSH 79658C5D\t\t\tcontract EmailPaymentRegistry ...\n      EQ \t\t\tcontract EmailPaymentRegistry ...\n      PUSH [tag] 6\t\t\tcontract EmailPaymentRegistry ...\n      JUMPI \t\t\tcontract EmailPaymentRegistry ...\n    tag 1\t\t\tcontract EmailPaymentRegistry ...\n      JUMPDEST \t\t\tcontract EmailPaymentRegistry ...\n      PUSH 0\t\t\tcontract EmailPaymentRegistry ...\n      PUSH 0\t\t\tcontract EmailPaymentRegistry ...\n      REVERT \t\t\tcontract EmailPaymentRegistry ...\n    tag 2\t\t\tfunction getWalletByEmail(byte...\n      JUMPDEST \t\t\tfunction getWalletByEmail(byte...\n      CALLVALUE \t\t\tfunction getWalletByEmail(byte...\n      DUP1 \t\t\tfunction getWalletByEmail(byte...\n      ISZERO \t\t\tfunction getWalletByEmail(byte...\n      PUSH [tag] 13\t\t\tfunction getWalletByEmail(byte...\n      JUMPI \t\t\tfunction getWalletByEmail(byte...\n      PUSH 0\t\t\tfunction getWalletByEmail(byte...\n      PUSH 0\t\t\tfunction getWalletByEmail(byte...\n      REVERT \t\t\tfunction getWalletByEmail(byte...\n    tag 13\t\t\tfunction getWalletByEmail(byte...\n      JUMPDEST \t\t\tfunction getWalletByEmail(byte...\n      POP \t\t\tfunction getWalletByEmail(byte...\n      PUSH [tag] 14\t\t\tfunction getWalletByEmail(byte...\n      PUSH 4\t\t\tfunction getWalletByEmail(byte...\n      DUP1 \t\t\tfunction getWalletByEmail(byte...\n      CALLDATASIZE \t\t\tfunction getWalletByEmail(byte...\n      SUB \t\t\tfunction getWalletByEmail(byte...\n      DUP2 \t\t\tfunction getWalletByEmail(byte...\n      ADD \t\t\tfunction getWalletByEmail(byte...\n      SWAP1 \t\t\tfunction getWalletByEmail(byte...\n      PUSH [tag] 15\t\t\tfunction getWalletByEmail(byte...\n      SWAP2 \t\t\tfunction getWalletByEmail(byte...\n      SWAP1 \t\t\tfunction getWalletByEmail(byte...\n      PUSH [tag] 16\t\t\tfunction getWalletByEmail(byte...\n      JUMP \t\t\tfunction getWalletByEmail(byte...\n    tag 15\t\t\tfunction getWalletByEmail(byte...\n      JUMPDEST \t\t\tfunction getWalletByEmail(byte...\n      PUSH [tag] 17\t\t\tfunction getWalletByEmail(byte...\n      JUMP \t\t\tfunction getWalletByEmail(byte...\n    tag 14\t\t\tfunction getWalletByEmail(byte...\n      JUMPDEST \t\t\tfunction getWalletByEmail(byte...\n      PUSH 40\t\t\tfunction getWalletByEmail(byte...\n      MLOAD \t\t\tfunction getWalletByEmail(byte...\n      PUSH [tag] 18\t\t\tfunction getWalletByEmail(byte...\n      SWAP2 \t\t\tfunction getWalletByEmail(byte...\n      SWAP1 \t\t\tfunction getWalletByEmail(byte...\n      PUSH [tag] 19\t\t\tfunction getWalletByEmail(byte...\n      JUMP \t\t\tfunction getWalletByEmail(byte...\n    tag 18\t\t\tfunction getWalletByEmail(byte...\n      JUMPDEST \t\t\tfunction getWalletByEmail(byte...\n      PUSH 40\t\t\tfunction getWalletByEmail(byte...\n      MLOAD \t\t\tfunction getWalletByEmail(byte...\n      DUP1 \t\t\tfunction getWalletByEmail(byte...\n      SWAP2 \t\t\tfunction getWalletByEmail(byte...\n      SUB \t\t\tfunction getWalletByEmail(byte...\n      SWAP1 \t\t\tfunction getWalletByEmail(byte...\n      RETURN \t\t\tfunction getWalletByEmail(byte...\n    tag 3\t\t\tfunction withdraw() public onl...\n      JUMPDEST \t\t\tfunction withdraw() public onl...\n      CALLVALUE \t\t\tfunction withdraw() public onl...\n      DUP1 \t\t\tfunction withdraw() public onl...\n      ISZERO \t\t\tfunction withdraw() public onl...\n      PUSH [tag] 20\t\t\tfunction withdraw() public onl...\n      JUMPI \t\t\tfunction withdraw() public onl...\n      PUSH 0\t\t\tfunction withdraw() public onl...\n      PUSH 0\t\t\tfunction withdraw() public onl...\n      REVERT \t\t\tfunction withdraw() public onl...\n    tag 20\t\t\tfunction withdraw() public onl...\n      JUMPDEST \t\t\tfunction withdraw() public onl...\n      POP \t\t\tfunction withdraw() public onl...\n      PUSH [tag] 21\t\t\tfunction withdraw() public onl...\n      PUSH [tag] 22\t\t\tfunction withdraw() public onl...\n      JUMP \t\t\tfunction withdraw() public onl...\n    tag 21\t\t\tfunction withdraw() public onl...\n      JUMPDEST \t\t\tfunction withdraw() public onl...\n      STOP \t\t\tfunction withdraw() public onl...\n    tag 4\t\t\tfunction getUserProfile(bytes3...\n      JUMPDEST \t\t\tfunction getUserProfile(bytes3...\n      CALLVALUE \t\t\tfunction getUserProfile(bytes3...\n      DUP1 \t\t\tfunction getUserProfile(bytes3...\n      ISZERO \t\t\tfunction getUserProfile(bytes3...\n      PUSH [tag] 23\t\t\tfunction getUserProfile(bytes3...\n      JUMPI \t\t\tfunction getUserProfile(bytes3...\n      PUSH 0\t\t\tfunction getUserProfile(bytes3...\n      PUSH 0\t\t\tfunction getUserProfile(bytes3...\n      REVERT \t\t\tfunction getUserProfile(bytes3...\n    tag 23\t\t\tfunction getUserProfile(bytes3...\n      JUMPDEST \t\t\tfunction getUserProfile(bytes3...\n      POP \t\t\tfunction getUserProfile(bytes3...\n      PUSH [tag] 24\t\t\tfunction getUserProfile(bytes3...\n      PUSH 4\t\t\tfunction getUserProfile(bytes3...\n      DUP1 \t\t\tfunction getUserProfile(bytes3...\n      CALLDATASIZE \t\t\tfunction getUserProfile(bytes3...\n      SUB \t\t\tfunction getUserProfile(bytes3...\n      DUP2 \t\t\tfunction getUserProfile(bytes3...\n      ADD \t\t\tfunction getUserProfile(bytes3...\n      SWAP1 \t\t\tfunction getUserProfile(bytes3...\n      PUSH [tag] 25\t\t\tfunction getUserProfile(bytes3...\n      SWAP2 \t\t\tfunction getUserProfile(bytes3...\n      SWAP1 \t\t\tfunction getUserProfile(bytes3...\n      PUSH [tag] 16\t\t\tfunction getUserProfile(bytes3...\n      JUMP \t\t\tfunction getUserProfile(bytes3...\n    tag 25\t\t\tfunction getUserProfile(bytes3...\n      JUMPDEST \t\t\tfunction getUserProfile(bytes3...\n      PUSH [tag] 26\t\t\tfunction getUserProfile(bytes3...\n      JUMP \t\t\tfunction getUserProfile(bytes3...\n    tag 24\t\t\tfunction getUserProfile(bytes3...\n      JUMPDEST \t\t\tfunction getUserProfile(bytes3...\n      PUSH 40\t\t\tfunction getUserProfile(bytes3...\n      MLOAD \t\t\tfunction getUserProfile(bytes3...\n      PUSH [tag] 27\t\t\tfunction getUserProfile(bytes3...\n      SWAP6 \t\t\tfunction getUserProfile(bytes3...\n      SWAP5 \t\t\tfunction getUserProfile(bytes3...\n      SWAP4 \t\t\tfunction getUserProfile(bytes3...\n      SWAP3 \t\t\tfunction getUserProfile(bytes3...\n      SWAP2 \t\t\tfunction getUserProfile(bytes3...\n      SWAP1 \t\t\tfunction getUserProfile(bytes3...\n      PUSH [tag] 28\t\t\tfunction getUserProfile(bytes3...\n      JUMP \t\t\tfunction getUserProfile(bytes3...\n    tag 27\t\t\tfunction getUserProfile(bytes3...\n      JUMPDEST \t\t\tfunction getUserProfile(bytes3...\n      PUSH 40\t\t\tfunction getUserProfile(bytes3...\n      MLOAD \t\t\tfunction getUserProfile(bytes3...\n      DUP1 \t\t\tfunction getUserProfile(bytes3...\n      SWAP2 \t\t\tfunction getUserProfile(bytes3...\n      SUB \t\t\tfunction getUserProfile(bytes3...\n      SWAP1 \t\t\tfunction getUserProfile(bytes3...\n      RETURN \t\t\tfunction getUserProfile(bytes3...\n    tag 5\t\t\tfunction sendPaymentToEmail(by...\n      JUMPDEST \t\t\tfunction sendPaymentToEmail(by...\n      PUSH [tag] 29\t\t\tfunction sendPaymentToEmail(by...\n      PUSH 4\t\t\tfunction sendPaymentToEmail(by...\n      DUP1 \t\t\tfunction sendPaymentToEmail(by...\n      CALLDATASIZE \t\t\tfunction sendPaymentToEmail(by...\n      SUB \t\t\tfunction sendPaymentToEmail(by...\n      DUP2 \t\t\tfunction sendPaymentToEmail(by...\n      ADD \t\t\tfunction sendPaymentToEmail(by...\n      SWAP1 \t\t\tfunction sendPaymentToEmail(by...\n      PUSH [tag] 30\t\t\tfunction sendPaymentToEmail(by...\n      SWAP2 \t\t\tfunction sendPaymentToEmail(by...\n      SWAP1 \t\t\tfunction sendPaymentToEmail(by...\n      PUSH [tag] 16\t\t\tfunction sendPaymentToEmail(by...\n      JUMP \t\t\tfunction sendPaymentToEmail(by...\n    tag 30\t\t\tfunction sendPaymentToEmail(by...\n      JUMPDEST \t\t\tfunction sendPaymentToEmail(by...\n      PUSH [tag] 31\t\t\tfunction sendPaymentToEmail(by...\n      JUMP \t\t\tfunction sendPaymentToEmail(by...\n    tag 29\t\t\tfunction sendPaymentToEmail(by...\n      JUMPDEST \t\t\tfunction sendPaymentToEmail(by...\n      STOP \t\t\tfunction sendPaymentToEmail(by...\n    tag 6\t\t\tfunction sendPaymentByEmail(by...\n      JUMPDEST \t\t\tfunction sendPaymentByEmail(by...\n      PUSH [tag] 32\t\t\tfunction sendPaymentByEmail(by...\n      PUSH 4\t\t\tfunction sendPaymentByEmail(by...\n      DUP1 \t\t\tfunction sendPaymentByEmail(by...\n      CALLDATASIZE \t\t\tfunction sendPaymentByEmail(by...\n      SUB \t\t\tfunction sendPaymentByEmail(by...\n      DUP2 \t\t\tfunction sendPaymentByEmail(by...\n      ADD \t\t\tfunction sendPaymentByEmail(by...\n      SWAP1 \t\t\tfunction sendPaymentByEmail(by...\n      PUSH [tag] 33\t\t\tfunction sendPaymentByEmail(by...\n      SWAP2 \t\t\tfunction sendPaymentByEmail(by...\n      SWAP1 \t\t\tfunction sendPaymentByEmail(by...\n      PUSH [tag] 34\t\t\tfunction sendPaymentByEmail(by...\n      JUMP \t\t\tfunction sendPaymentByEmail(by...\n    tag 33\t\t\tfunction sendPaymentByEmail(by...\n      JUMPDEST \t\t\tfunction sendPaymentByEmail(by...\n      PUSH [tag] 35\t\t\tfunction sendPaymentByEmail(by...\n      JUMP \t\t\tfunction sendPaymentByEmail(by...\n    tag 32\t\t\tfunction sendPaymentByEmail(by...\n      JUMPDEST \t\t\tfunction sendPaymentByEmail(by...\n      STOP \t\t\tfunction sendPaymentByEmail(by...\n    tag 7\t\t\tfunction computeEmailHash(stri...\n      JUMPDEST \t\t\tfunction computeEmailHash(stri...\n      CALLVALUE \t\t\tfunction computeEmailHash(stri...\n      DUP1 \t\t\tfunction computeEmailHash(stri...\n      ISZERO \t\t\tfunction computeEmailHash(stri...\n      PUSH [tag] 36\t\t\tfunction computeEmailHash(stri...\n      JUMPI \t\t\tfunction computeEmailHash(stri...\n      PUSH 0\t\t\tfunction computeEmailHash(stri...\n      PUSH 0\t\t\tfunction computeEmailHash(stri...\n      REVERT \t\t\tfunction computeEmailHash(stri...\n    tag 36\t\t\tfunction computeEmailHash(stri...\n      JUMPDEST \t\t\tfunction computeEmailHash(stri...\n      POP \t\t\tfunction computeEmailHash(stri...\n      PUSH [tag] 37\t\t\tfunction computeEmailHash(stri...\n      PUSH 4\t\t\tfunction computeEmailHash(stri...\n      DUP1 \t\t\tfunction computeEmailHash(stri...\n      CALLDATASIZE \t\t\tfunction computeEmailHash(stri...\n      SUB \t\t\tfunction computeEmailHash(stri...\n      DUP2 \t\t\tfunction computeEmailHash(stri...\n      ADD \t\t\tfunction computeEmailHash(stri...\n      SWAP1 \t\t\tfunction computeEmailHash(stri...\n      PUSH [tag] 38\t\t\tfunction computeEmailHash(stri...\n      SWAP2 \t\t\tfunction computeEmailHash(stri...\n      SWAP1 \t\t\tfunction computeEmailHash(stri...\n      PUSH [tag] 39\t\t\tfunction computeEmailHash(stri...\n      JUMP \t\t\tfunction computeEmailHash(stri...\n    tag 38\t\t\tfunction computeEmailHash(stri...\n      JUMPDEST \t\t\tfunction computeEmailHash(stri...\n      PUSH [tag] 40\t\t\tfunction computeEmailHash(stri...\n      JUMP \t\t\tfunction computeEmailHash(stri...\n    tag 37\t\t\tfunction computeEmailHash(stri...\n      JUMPDEST \t\t\tfunction computeEmailHash(stri...\n      PUSH 40\t\t\tfunction computeEmailHash(stri...\n      MLOAD \t\t\tfunction computeEmailHash(stri...\n      PUSH [tag] 41\t\t\tfunction computeEmailHash(stri...\n      SWAP2 \t\t\tfunction computeEmailHash(stri...\n      SWAP1 \t\t\tfunction computeEmailHash(stri...\n      PUSH [tag] 42\t\t\tfunction computeEmailHash(stri...\n      JUMP \t\t\tfunction computeEmailHash(stri...\n    tag 41\t\t\tfunction computeEmailHash(stri...\n      JUMPDEST \t\t\tfunction computeEmailHash(stri...\n      PUSH 40\t\t\tfunction computeEmailHash(stri...\n      MLOAD \t\t\tfunction computeEmailHash(stri...\n      DUP1 \t\t\tfunction computeEmailHash(stri...\n      SWAP2 \t\t\tfunction computeEmailHash(stri...\n      SUB \t\t\tfunction computeEmailHash(stri...\n      SWAP1 \t\t\tfunction computeEmailHash(stri...\n      RETURN \t\t\tfunction computeEmailHash(stri...\n    tag 8\t\t\taddress public owner\n      JUMPDEST \t\t\taddress public owner\n      CALLVALUE \t\t\taddress public owner\n      DUP1 \t\t\taddress public owner\n      ISZERO \t\t\taddress public owner\n      PUSH [tag] 43\t\t\taddress public owner\n      JUMPI \t\t\taddress public owner\n      PUSH 0\t\t\taddress public owner\n      PUSH 0\t\t\taddress public owner\n      REVERT \t\t\taddress public owner\n    tag 43\t\t\taddress public owner\n      JUMPDEST \t\t\taddress public owner\n      POP \t\t\taddress public owner\n      PUSH [tag] 44\t\t\taddress public owner\n      PUSH [tag] 45\t\t\taddress public owner\n      JUMP \t\t\taddress public owner\n    tag 44\t\t\taddress public owner\n      JUMPDEST \t\t\taddress public owner\n      PUSH 40\t\t\taddress public owner\n      MLOAD \t\t\taddress public owner\n      PUSH [tag] 46\t\t\taddress public owner\n      SWAP2 \t\t\taddress public owner\n      SWAP1 \t\t\taddress public owner\n      PUSH [tag] 19\t\t\taddress public owner\n      JUMP \t\t\taddress public owner\n    tag 46\t\t\taddress public owner\n      JUMPDEST \t\t\taddress public owner\n      PUSH 40\t\t\taddress public owner\n      MLOAD \t\t\taddress public owner\n      DUP1 \t\t\taddress public owner\n      SWAP2 \t\t\taddress public owner\n      SUB \t\t\taddress public owner\n      SWAP1 \t\t\taddress public owner\n      RETURN \t\t\taddress public owner\n    tag 9\t\t\tfunction registerEmail(bytes32...\n      JUMPDEST \t\t\tfunction registerEmail(bytes32...\n      CALLVALUE \t\t\tfunction registerEmail(bytes32...\n      DUP1 \t\t\tfunction registerEmail(bytes32...\n      ISZERO \t\t\tfunction registerEmail(bytes32...\n      PUSH [tag] 47\t\t\tfunction registerEmail(bytes32...\n      JUMPI \t\t\tfunction registerEmail(bytes32...\n      PUSH 0\t\t\tfunction registerEmail(bytes32...\n      PUSH 0\t\t\tfunction registerEmail(bytes32...\n      REVERT \t\t\tfunction registerEmail(bytes32...\n    tag 47\t\t\tfunction registerEmail(bytes32...\n      JUMPDEST \t\t\tfunction registerEmail(bytes32...\n      POP \t\t\tfunction registerEmail(bytes32...\n      PUSH [tag] 48\t\t\tfunction registerEmail(bytes32...\n      PUSH 4\t\t\tfunction registerEmail(bytes32...\n      DUP1 \t\t\tfunction registerEmail(bytes32...\n      CALLDATASIZE \t\t\tfunction registerEmail(bytes32...\n      SUB \t\t\tfunction registerEmail(bytes32...\n      DUP2 \t\t\tfunction registerEmail(bytes32...\n      ADD \t\t\tfunction registerEmail(bytes32...\n      SWAP1 \t\t\tfunction registerEmail(bytes32...\n      PUSH [tag] 49\t\t\tfunction registerEmail(bytes32...\n      SWAP2 \t\t\tfunction registerEmail(bytes32...\n      SWAP1 \t\t\tfunction registerEmail(bytes32...\n      PUSH [tag] 50\t\t\tfunction registerEmail(bytes32...\n      JUMP \t\t\tfunction registerEmail(bytes32...\n    tag 49\t\t\tfunction registerEmail(bytes32...\n      JUMPDEST \t\t\tfunction registerEmail(bytes32...\n      PUSH [tag] 51\t\t\tfunction registerEmail(bytes32...\n      JUMP \t\t\tfunction registerEmail(bytes32...\n    tag 48\t\t\tfunction registerEmail(bytes32...\n      JUMPDEST \t\t\tfunction registerEmail(bytes32...\n      STOP \t\t\tfunction registerEmail(bytes32...\n    tag 10\t\t\tfunction adminOverrideEmail(by...\n      JUMPDEST \t\t\tfunction adminOverrideEmail(by...\n      CALLVALUE \t\t\tfunction adminOverrideEmail(by...\n      DUP1 \t\t\tfunction adminOverrideEmail(by...\n      ISZERO \t\t\tfunction adminOverrideEmail(by...\n      PUSH [tag] 52\t\t\tfunction adminOverrideEmail(by...\n      JUMPI \t\t\tfunction adminOverrideEmail(by...\n      PUSH 0\t\t\tfunction adminOverrideEmail(by...\n      PUSH 0\t\t\tfunction adminOverrideEmail(by...\n      REVERT \t\t\tfunction adminOverrideEmail(by...\n    tag 52\t\t\tfunction adminOverrideEmail(by...\n      JUMPDEST \t\t\tfunction adminOverrideEmail(by...\n      POP \t\t\tfunction adminOverrideEmail(by...\n      PUSH [tag] 53\t\t\tfunction adminOverrideEmail(by...\n      PUSH 4\t\t\tfunction adminOverrideEmail(by...\n      DUP1 \t\t\tfunction adminOverrideEmail(by...\n      CALLDATASIZE \t\t\tfunction adminOverrideEmail(by...\n      SUB \t\t\tfunction adminOverrideEmail(by...\n      DUP2 \t\t\tfunction adminOverrideEmail(by...\n      ADD \t\t\tfunction adminOverrideEmail(by...\n      SWAP1 \t\t\tfunction adminOverrideEmail(by...\n      PUSH [tag] 54\t\t\tfunction adminOverrideEmail(by...\n      SWAP2 \t\t\tfunction adminOverrideEmail(by...\n      SWAP1 \t\t\tfunction adminOverrideEmail(by...\n      PUSH [tag] 50\t\t\tfunction adminOverrideEmail(by...\n      JUMP \t\t\tfunction adminOverrideEmail(by...\n    tag 54\t\t\tfunction adminOverrideEmail(by...\n      JUMPDEST \t\t\tfunction adminOverrideEmail(by...\n      PUSH [tag] 55\t\t\tfunction adminOverrideEmail(by...\n      JUMP \t\t\tfunction adminOverrideEmail(by...\n    tag 53\t\t\tfunction adminOverrideEmail(by...\n      JUMPDEST \t\t\tfunction adminOverrideEmail(by...\n      STOP \t\t\tfunction adminOverrideEmail(by...\n    tag 11\t\t\tfunction transferOwnership(add...\n      JUMPDEST \t\t\tfunction transferOwnership(add...\n      CALLVALUE \t\t\tfunction transferOwnership(add...\n      DUP1 \t\t\tfunction transferOwnership(add...\n      ISZERO \t\t\tfunction transferOwnership(add...\n      PUSH [tag] 56\t\t\tfunction transferOwnership(add...\n      JUMPI \t\t\tfunction transferOwnership(add...\n      PUSH 0\t\t\tfunction transferOwnership(add...\n      PUSH 0\t\t\tfunction transferOwnership(add...\n      REVERT \t\t\tfunction transferOwnership(add...\n    tag 56\t\t\tfunction transferOwnership(add...\n      JUMPDEST \t\t\tfunction transferOwnership(add...\n      POP \t\t\tfunction transferOwnership(add...\n      PUSH [tag] 57\t\t\tfunction transferOwnership(add...\n      PUSH 4\t\t\tfunction transferOwnership(add...\n      DUP1 \t\t\tfunction transferOwnership(add...\n      CALLDATASIZE \t\t\tfunction transferOwnership(add...\n      SUB \t\t\tfunction transferOwnership(add...\n      DUP2 \t\t\tfunction transferOwnership(add...\n      ADD \t\t\tfunction transferOwnership(add...\n      SWAP1 \t\t\tfunction transferOwnership(add...\n      PUSH [tag] 58\t\t\tfunction transferOwnership(add...\n      SWAP2 \t\t\tfunction transferOwnership(add...\n      SWAP1 \t\t\tfunction transferOwnership(add...\n      PUSH [tag] 59\t\t\tfunction transferOwnership(add...\n      JUMP \t\t\tfunction transferOwnership(add...\n    tag 58\t\t\tfunction transferOwnership(add...\n      JUMPDEST \t\t\tfunction transferOwnership(add...\n      PUSH [tag] 60\t\t\tfunction transferOwnership(add...\n      JUMP \t\t\tfunction transferOwnership(add...\n    tag 57\t\t\tfunction transferOwnership(add...\n      JUMPDEST \t\t\tfunction transferOwnership(add...\n      STOP \t\t\tfunction transferOwnership(add...\n    tag 17\t\t\tfunction getWalletByEmail(byte...\n      JUMPDEST \t\t\tfunction getWalletByEmail(byte...\n      PUSH 0\t\t\taddress\n      PUSH 2\t\t\temailProfiles\n      PUSH 0\t\t\temailProfiles[emailHash]\n      DUP4 \t\t\temailHash\n      DUP2 \t\t\temailProfiles[emailHash]\n      MSTORE \t\t\temailProfiles[emailHash]\n      PUSH 20\t\t\temailProfiles[emailHash]\n      ADD \t\t\temailProfiles[emailHash]\n      SWAP1 \t\t\temailProfiles[emailHash]\n      DUP2 \t\t\temailProfiles[emailHash]\n      MSTORE \t\t\temailProfiles[emailHash]\n      PUSH 20\t\t\temailProfiles[emailHash]\n      ADD \t\t\temailProfiles[emailHash]\n      PUSH 0\t\t\temailProfiles[emailHash]\n      KECCAK256 \t\t\temailProfiles[emailHash]\n      PUSH 0\t\t\temailProfiles[emailHash].walle...\n      ADD \t\t\temailProfiles[emailHash].walle...\n      PUSH 0\t\t\temailProfiles[emailHash].walle...\n      SWAP1 \t\t\temailProfiles[emailHash].walle...\n      SLOAD \t\t\temailProfiles[emailHash].walle...\n      SWAP1 \t\t\temailProfiles[emailHash].walle...\n      PUSH 100\t\t\temailProfiles[emailHash].walle...\n      EXP \t\t\temailProfiles[emailHash].walle...\n      SWAP1 \t\t\temailProfiles[emailHash].walle...\n      DIV \t\t\temailProfiles[emailHash].walle...\n      PUSH FFFFFFFFFFFFFFFFFFFFFFFFFFFFFFFFFFFFFFFF\t\t\temailProfiles[emailHash].walle...\n      AND \t\t\temailProfiles[emailHash].walle...\n      SWAP1 \t\t\treturn emailProfiles[emailHash...\n      POP \t\t\treturn emailProfiles[emailHash...\n      SWAP2 \t\t\tfunction getWalletByEmail(byte...\n      SWAP1 \t\t\tfunction getWalletByEmail(byte...\n      POP \t\t\tfunction getWalletByEmail(byte...\n      JUMP \t\t\tfunction getWalletByEmail(byte...\n    tag 22\t\t\tfunction withdraw() public onl...\n      JUMPDEST \t\t\tfunction withdraw() public onl...\n      PUSH 0\t\t\towner\n      PUSH 0\t\t\towner\n      SWAP1 \t\t\towner\n      SLOAD \t\t\towner\n      SWAP1 \t\t\towner\n      PUSH 100\t\t\towner\n      EXP \t\t\towner\n      SWAP1 \t\t\towner\n      DIV \t\t\towner\n      PUSH FFFFFFFFFFFFFFFFFFFFFFFFFFFFFFFFFFFFFFFF\t\t\towner\n      AND \t\t\towner\n      PUSH FFFFFFFFFFFFFFFFFFFFFFFFFFFFFFFFFFFFFFFF\t\t\tmsg.sender == owner\n      AND \t\t\tmsg.sender == owner\n      CALLER \t\t\tmsg.sender\n      PUSH FFFFFFFFFFFFFFFFFFFFFFFFFFFFFFFFFFFFFFFF\t\t\tmsg.sender == owner\n      AND \t\t\tmsg.sender == owner\n      EQ \t\t\tmsg.sender == owner\n      PUSH [tag] 63\t\t\trequire(msg.sender == owner, \"...\n      JUMPI \t\t\trequire(msg.sender == owner, \"...\n      PUSH 40\t\t\trequire(msg.sender == owner, \"...\n      MLOAD \t\t\trequire(msg.sender == owner, \"...\n      PUSH 8C379A000000000000000000000000000000000000000000000000000000000\t\t\trequire(msg.sender == owner, \"...\n      DUP2 \t\t\trequire(msg.sender == owner, \"...\n      MSTORE \t\t\trequire(msg.sender == owner, \"...\n      PUSH 4\t\t\trequire(msg.sender == owner, \"...\n      ADD \t\t\trequire(msg.sender == owner, \"...\n      PUSH [tag] 64\t\t\trequire(msg.sender == owner, \"...\n      SWAP1 \t\t\trequire(msg.sender == owner, \"...\n      PUSH [tag] 65\t\t\trequire(msg.sender == owner, \"...\n      JUMP \t\t\trequire(msg.sender == owner, \"...\n    tag 64\t\t\trequire(msg.sender == owner, \"...\n      JUMPDEST \t\t\trequire(msg.sender == owner, \"...\n      PUSH 40\t\t\trequire(msg.sender == owner, \"...\n      MLOAD \t\t\trequire(msg.sender == owner, \"...\n      DUP1 \t\t\trequire(msg.sender == owner, \"...\n      SWAP2 \t\t\trequire(msg.sender == owner, \"...\n      SUB \t\t\trequire(msg.sender == owner, \"...\n      SWAP1 \t\t\trequire(msg.sender == owner, \"...\n      REVERT \t\t\trequire(msg.sender == owner, \"...\n    tag 63\t\t\trequire(msg.sender == owner, \"...\n      JUMPDEST \t\t\trequire(msg.sender == owner, \"...\n      PUSH 0\t\t\towner\n      PUSH 0\t\t\towner\n      SWAP1 \t\t\towner\n      SLOAD \t\t\towner\n      SWAP1 \t\t\towner\n      PUSH 100\t\t\towner\n      EXP \t\t\towner\n      SWAP1 \t\t\towner\n      DIV \t\t\towner\n      PUSH FFFFFFFFFFFFFFFFFFFFFFFFFFFFFFFFFFFFFFFF\t\t\towner\n      AND \t\t\towner\n      PUSH FFFFFFFFFFFFFFFFFFFFFFFFFFFFFFFFFFFFFFFF\t\t\tpayable(owner).transfer\n      AND \t\t\tpayable(owner).transfer\n      PUSH 8FC\t\t\tpayable(owner).transfer(addres...\n      SELFBALANCE \t\t\taddress(this).balance\n      SWAP1 \t\t\tpayable(owner).transfer(addres...\n      DUP2 \t\t\tpayable(owner).transfer(addres...\n      ISZERO \t\t\tpayable(owner).transfer(addres...\n      MUL \t\t\tpayable(owner).transfer(addres...\n      SWAP1 \t\t\tpayable(owner).transfer(addres...\n      PUSH 40\t\t\tpayable(owner).transfer(addres...\n      MLOAD \t\t\tpayable(owner).transfer(addres...\n      PUSH 0\t\t\tpayable(owner).transfer(addres...\n      PUSH 40\t\t\tpayable(owner).transfer(addres...\n      MLOAD \t\t\tpayable(owner).transfer(addres...\n      DUP1 \t\t\tpayable(owner).transfer(addres...\n      DUP4 \t\t\tpayable(owner).transfer(addres...\n      SUB \t\t\tpayable(owner).transfer(addres...\n      DUP2 \t\t\tpayable(owner).transfer(addres...\n      DUP6 \t\t\tpayable(owner).transfer(addres...\n      DUP9 \t\t\tpayable(owner).transfer(addres...\n      DUP9 \t\t\tpayable(owner).transfer(addres...\n      CALL \t\t\tpayable(owner).transfer(addres...\n      SWAP4 \t\t\tpayable(owner).transfer(addres...\n      POP \t\t\tpayable(owner).transfer(addres...\n      POP \t\t\tpayable(owner).transfer(addres...\n      POP \t\t\tpayable(owner).transfer(addres...\n      POP \t\t\tpayable(owner).transfer(addres...\n      ISZERO \t\t\tpayable(owner).transfer(addres...\n      DUP1 \t\t\tpayable(owner).transfer(addres...\n      ISZERO \t\t\tpayable(owner).transfer(addres...\n      PUSH [tag] 68\t\t\tpayable(owner).transfer(addres...\n      JUMPI \t\t\tpayable(owner).transfer(addres...\n      RETURNDATASIZE \t\t\tpayable(owner).transfer(addres...\n      PUSH 0\t\t\tpayable(owner).transfer(addres...\n      PUSH 0\t\t\tpayable(owner).transfer(addres...\n      RETURNDATACOPY \t\t\tpayable(owner).transfer(addres...\n      RETURNDATASIZE \t\t\tpayable(owner).transfer(addres...\n      PUSH 0\t\t\tpayable(owner).transfer(addres...\n      REVERT \t\t\tpayable(owner).transfer(addres...\n    tag 68\t\t\tpayable(owner).transfer(addres...\n      JUMPDEST \t\t\tpayable(owner).transfer(addres...\n      POP \t\t\tpayable(owner).transfer(addres...\n      JUMP \t\t\tfunction withdraw() public onl...\n    tag 26\t\t\tfunction getUserProfile(bytes3...\n      JUMPDEST \t\t\tfunction getUserProfile(bytes3...\n      PUSH 0\t\t\taddress wallet\n      PUSH 0\t\t\tuint256 registeredAt\n      PUSH 0\t\t\tuint256 lastUpdatedAt\n      PUSH 0\t\t\tuint256 totalReceived\n      PUSH 0\t\t\tuint256 totalSent\n      PUSH 0\t\t\tUserProfile memory profile\n      PUSH 2\t\t\temailProfiles\n      PUSH 0\t\t\temailProfiles[emailHash]\n      DUP9 \t\t\temailHash\n      DUP2 \t\t\temailProfiles[emailHash]\n      MSTORE \t\t\temailProfiles[emailHash]\n      PUSH 20\t\t\temailProfiles[emailHash]\n      ADD \t\t\temailProfiles[emailHash]\n      SWAP1 \t\t\temailProfiles[emailHash]\n      DUP2 \t\t\temailProfiles[emailHash]\n      MSTORE \t\t\temailProfiles[emailHash]\n      PUSH 20\t\t\temailProfiles[emailHash]\n      ADD \t\t\temailProfiles[emailHash]\n      PUSH 0\t\t\temailProfiles[emailHash]\n      KECCAK256 \t\t\temailProfiles[emailHash]\n      PUSH 40\t\t\tUserProfile memory profile = e...\n      MLOAD \t\t\tUserProfile memory profile = e...\n      DUP1 \t\t\tUserProfile memory profile = e...\n      PUSH A0\t\t\tUserProfile memory profile = e...\n      ADD \t\t\tUserProfile memory profile = e...\n      PUSH 40\t\t\tUserProfile memory profile = e...\n      MSTORE \t\t\tUserProfile memory profile = e...\n      SWAP1 \t\t\tUserProfile memory profile = e...\n      DUP2 \t\t\tUserProfile memory profile = e...\n      PUSH 0\t\t\tUserProfile memory profile = e...\n      DUP3 \t\t\tUserProfile memory profile = e...\n      ADD \t\t\tUserProfile memory profile = e...\n      PUSH 0\t\t\tUserProfile memory profile = e...\n      SWAP1 \t\t\tUserProfile memory profile = e...\n      SLOAD \t\t\tUserProfile memory profile = e...\n      SWAP1 \t\t\tUserProfile memory profile = e...\n      PUSH 100\t\t\tUserProfile memory profile = e...\n      EXP \t\t\tUserProfile memory profile = e...\n      SWAP1 \t\t\tUserProfile memory profile = e...\n      DIV \t\t\tUserProfile memory profile = e...\n      PUSH FFFFFFFFFFFFFFFFFFFFFFFFFFFFFFFFFFFFFFFF\t\t\tUserProfile memory profile = e...\n      AND \t\t\tUserProfile memory profile = e...\n      PUSH FFFFFFFFFFFFFFFFFFFFFFFFFFFFFFFFFFFFFFFF\t\t\tUserProfile memory profile = e...\n      AND \t\t\tUserProfile memory profile = e...\n      PUSH FFFFFFFFFFFFFFFFFFFFFFFFFFFFFFFFFFFFFFFF\t\t\tUserProfile memory profile = e...\n      AND \t\t\tUserProfile memory profile = e...\n      DUP2 \t\t\tUserProfile memory profile = e...\n      MSTORE \t\t\tUserProfile memory profile = e...\n      PUSH 20\t\t\tUserProfile memory profile = e...\n      ADD \t\t\tUserProfile memory profile = e...\n      PUSH 1\t\t\tUserProfile memory profile = e...\n      DUP3 \t\t\tUserProfile memory profile = e...\n      ADD \t\t\tUserProfile memory profile = e...\n      SLOAD \t\t\tUserProfile memory profile = e...\n      DUP2 \t\t\tUserProfile memory profile = e...\n      MSTORE \t\t\tUserProfile memory profile = e...\n      PUSH 20\t\t\tUserProfile memory profile = e...\n      ADD \t\t\tUserProfile memory profile = e...\n      PUSH 2\t\t\tUserProfile memory profile = e...\n      DUP3 \t\t\tUserProfile memory profile = e...\n      ADD \t\t\tUserProfile memory profile = e...\n      SLOAD \t\t\tUserProfile memory profile = e...\n      DUP2 \t\t\tUserProfile memory profile = e...\n      MSTORE \t\t\tUserProfile memory profile = e...\n      PUSH 20\t\t\tUserProfile memory profile = e...\n      ADD \t\t\tUserProfile memory profile = e...\n      PUSH 3\t\t\tUserProfile memory profile = e...\n      DUP3 \t\t\tUserProfile memory profile = e...\n      ADD \t\t\tUserProfile memory profile = e...\n      SLOAD \t\t\tUserProfile memory profile = e...\n      DUP2 \t\t\tUserProfile memory profile = e...\n      MSTORE \t\t\tUserProfile memory profile = e...\n      PUSH 20\t\t\tUserProfile memory profile = e...\n      ADD \t\t\tUserProfile memory profile = e...\n      PUSH 4\t\t\tUserProfile memory profile = e...\n      DUP3 \t\t\tUserProfile memory profile = e...\n      ADD \t\t\tUserProfile memory profile = e...\n      SLOAD \t\t\tUserProfile memory profile = e...\n      DUP2 \t\t\tUserProfile memory profile = e...\n      MSTORE \t\t\tUserProfile memory profile = e...\n      POP \t\t\tUserProfile memory profile = e...\n      POP \t\t\tUserProfile memory profile = e...\n      SWAP1 \t\t\tUserProfile memory profile = e...\n      POP \t\t\tUserProfile memory profile = e...\n      DUP1 \t\t\tprofile\n      PUSH 0\t\t\tprofile.wallet\n      ADD \t\t\tprofile.wallet\n      MLOAD \t\t\tprofile.wallet\n      DUP2 \t\t\tprofile\n      PUSH 20\t\t\tprofile.registeredAt\n      ADD \t\t\tprofile.registeredAt\n      MLOAD \t\t\tprofile.registeredAt\n      DUP3 \t\t\tprofile\n      PUSH 40\t\t\tprofile.lastUpdatedAt\n      ADD \t\t\tprofile.lastUpdatedAt\n      MLOAD \t\t\tprofile.lastUpdatedAt\n      DUP4 \t\t\tprofile\n      PUSH 60\t\t\tprofile.totalReceived\n      ADD \t\t\tprofile.totalReceived\n      MLOAD \t\t\tprofile.totalReceived\n      DUP5 \t\t\tprofile\n      PUSH 80\t\t\tprofile.totalSent\n      ADD \t\t\tprofile.totalSent\n      MLOAD \t\t\tprofile.totalSent\n      SWAP6 \t\t\treturn (\\r\\n            profil...\n      POP \t\t\treturn (\\r\\n            profil...\n      SWAP6 \t\t\treturn (\\r\\n            profil...\n      POP \t\t\treturn (\\r\\n            profil...\n      SWAP6 \t\t\treturn (\\r\\n            profil...\n      POP \t\t\treturn (\\r\\n            profil...\n      SWAP6 \t\t\treturn (\\r\\n            profil...\n      POP \t\t\treturn (\\r\\n            profil...\n      SWAP6 \t\t\treturn (\\r\\n            profil...\n      POP \t\t\treturn (\\r\\n            profil...\n      POP \t\t\treturn (\\r\\n            profil...\n      SWAP2 \t\t\tfunction getUserProfile(bytes3...\n      SWAP4 \t\t\tfunction getUserProfile(bytes3...\n      SWAP6 \t\t\tfunction getUserProfile(bytes3...\n      SWAP1 \t\t\tfunction getUserProfile(bytes3...\n      SWAP3 \t\t\tfunction getUserProfile(bytes3...\n      SWAP5 \t\t\tfunction getUserProfile(bytes3...\n      POP \t\t\tfunction getUserProfile(bytes3...\n      JUMP \t\t\tfunction getUserProfile(bytes3...\n    tag 31\t\t\tfunction sendPaymentToEmail(by...\n      JUMPDEST \t\t\tfunction sendPaymentToEmail(by...\n      PUSH 0\t\t\taddress payable toWallet\n      PUSH 2\t\t\temailProfiles\n      PUSH 0\t\t\temailProfiles[toEmailHash]\n      DUP4 \t\t\ttoEmailHash\n      DUP2 \t\t\temailProfiles[toEmailHash]\n      MSTORE \t\t\temailProfiles[toEmailHash]\n      PUSH 20\t\t\temailProfiles[toEmailHash]\n      ADD \t\t\temailProfiles[toEmailHash]\n      SWAP1 \t\t\temailProfiles[toEmailHash]\n      DUP2 \t\t\temailProfiles[toEmailHash]\n      MSTORE \t\t\temailProfiles[toEmailHash]\n      PUSH 20\t\t\temailProfiles[toEmailHash]\n      ADD \t\t\temailProfiles[toEmailHash]\n      PUSH 0\t\t\temailProfiles[toEmailHash]\n      KECCAK256 \t\t\temailProfiles[toEmailHash]\n      PUSH 0\t\t\temailProfiles[toEmailHash].wal...\n      ADD \t\t\temailProfiles[toEmailHash].wal...\n      PUSH 0\t\t\temailProfiles[toEmailHash].wal...\n      SWAP1 \t\t\temailProfiles[toEmailHash].wal...\n      SLOAD \t\t\temailProfiles[toEmailHash].wal...\n      SWAP1 \t\t\temailProfiles[toEmailHash].wal...\n      PUSH 100\t\t\temailProfiles[toEmailHash].wal...\n      EXP \t\t\temailProfiles[toEmailHash].wal...\n      SWAP1 \t\t\temailProfiles[toEmailHash].wal...\n      DIV \t\t\temailProfiles[toEmailHash].wal...\n      PUSH FFFFFFFFFFFFFFFFFFFFFFFFFFFFFFFFFFFFFFFF\t\t\temailProfiles[toEmailHash].wal...\n      AND \t\t\temailProfiles[toEmailHash].wal...\n      SWAP1 \t\t\taddress payable toWallet = pay...\n      POP \t\t\taddress payable toWallet = pay...\n      PUSH 0\t\t\t0\n      PUSH FFFFFFFFFFFFFFFFFFFFFFFFFFFFFFFFFFFFFFFF\t\t\ttoWallet != address(0)\n      AND \t\t\ttoWallet != address(0)\n      DUP2 \t\t\ttoWallet\n      PUSH FFFFFFFFFFFFFFFFFFFFFFFFFFFFFFFFFFFFFFFF\t\t\ttoWallet != address(0)\n      AND \t\t\ttoWallet != address(0)\n      SUB \t\t\ttoWallet != address(0)\n      PUSH [tag] 71\t\t\trequire(toWallet != address(0)...\n      JUMPI \t\t\trequire(toWallet != address(0)...\n      PUSH 40\t\t\trequire(toWallet != address(0)...\n      MLOAD \t\t\trequire(toWallet != address(0)...\n      PUSH 8C379A000000000000000000000000000000000000000000000000000000000\t\t\trequire(toWallet != address(0)...\n      DUP2 \t\t\trequire(toWallet != address(0)...\n      MSTORE \t\t\trequire(toWallet != address(0)...\n      PUSH 4\t\t\trequire(toWallet != address(0)...\n      ADD \t\t\trequire(toWallet != address(0)...\n      PUSH [tag] 72\t\t\trequire(toWallet != address(0)...\n      SWAP1 \t\t\trequire(toWallet != address(0)...\n      PUSH [tag] 73\t\t\trequire(toWallet != address(0)...\n      JUMP \t\t\trequire(toWallet != address(0)...\n    tag 72\t\t\trequire(toWallet != address(0)...\n      JUMPDEST \t\t\trequire(toWallet != address(0)...\n      PUSH 40\t\t\trequire(toWallet != address(0)...\n      MLOAD \t\t\trequire(toWallet != address(0)...\n      DUP1 \t\t\trequire(toWallet != address(0)...\n      SWAP2 \t\t\trequire(toWallet != address(0)...\n      SUB \t\t\trequire(toWallet != address(0)...\n      SWAP1 \t\t\trequire(toWallet != address(0)...\n      REVERT \t\t\trequire(toWallet != address(0)...\n    tag 71\t\t\trequire(toWallet != address(0)...\n      JUMPDEST \t\t\trequire(toWallet != address(0)...\n      PUSH 0\t\t\tbytes32 fromEmailHash\n      PUSH 0\t\t\tbool senderIsRegistered\n      PUSH 0\t\t\tfalse\n      SWAP1 \t\t\tbool senderIsRegistered = fals...\n      POP \t\t\tbool senderIsRegistered = fals...\n      PUSH 0\t\t\tuint i\n      PUSH 0\t\t\t0\n      SWAP1 \t\t\tuint i = 0\n      POP \t\t\tuint i = 0\n    tag 74\t\t\tfor (uint i = 0; i < 10; i++) ...\n      JUMPDEST \t\t\tfor (uint i = 0; i < 10; i++) ...\n      PUSH A\t\t\t10\n      DUP2 \t\t\ti\n      LT \t\t\ti < 10\n      ISZERO \t\t\tfor (uint i = 0; i < 10; i++) ...\n      PUSH [tag] 75\t\t\tfor (uint i = 0; i < 10; i++) ...\n      JUMPI \t\t\tfor (uint i = 0; i < 10; i++) ...\n      PUSH 0\t\t\tbytes32 testHash\n      DUP2 \t\t\ti\n      PUSH 40\t\t\tabi.encodePacked(\"placeholder\"...\n      MLOAD \t\t\tabi.encodePacked(\"placeholder\"...\n      PUSH 20\t\t\tabi.encodePacked(\"placeholder\"...\n      ADD \t\t\tabi.encodePacked(\"placeholder\"...\n      PUSH [tag] 77\t\t\tabi.encodePacked(\"placeholder\"...\n      SWAP2 \t\t\tabi.encodePacked(\"placeholder\"...\n      SWAP1 \t\t\tabi.encodePacked(\"placeholder\"...\n      PUSH [tag] 78\t\t\tabi.encodePacked(\"placeholder\"...\n      JUMP \t\t\tabi.encodePacked(\"placeholder\"...\n    tag 77\t\t\tabi.encodePacked(\"placeholder\"...\n      JUMPDEST \t\t\tabi.encodePacked(\"placeholder\"...\n      PUSH 40\t\t\tabi.encodePacked(\"placeholder\"...\n      MLOAD \t\t\tabi.encodePacked(\"placeholder\"...\n      PUSH 20\t\t\tabi.encodePacked(\"placeholder\"...\n      DUP2 \t\t\tabi.encodePacked(\"placeholder\"...\n      DUP4 \t\t\tabi.encodePacked(\"placeholder\"...\n      SUB \t\t\tabi.encodePacked(\"placeholder\"...\n      SUB \t\t\tabi.encodePacked(\"placeholder\"...\n      DUP2 \t\t\tabi.encodePacked(\"placeholder\"...\n      MSTORE \t\t\tabi.encodePacked(\"placeholder\"...\n      SWAP1 \t\t\tabi.encodePacked(\"placeholder\"...\n      PUSH 40\t\t\tabi.encodePacked(\"placeholder\"...\n      MSTORE \t\t\tabi.encodePacked(\"placeholder\"...\n      DUP1 \t\t\tkeccak256(abi.encodePacked(\"pl...\n      MLOAD \t\t\tkeccak256(abi.encodePacked(\"pl...\n      SWAP1 \t\t\tkeccak256(abi.encodePacked(\"pl...\n      PUSH 20\t\t\tkeccak256(abi.encodePacked(\"pl...\n      ADD \t\t\tkeccak256(abi.encodePacked(\"pl...\n      KECCAK256 \t\t\tkeccak256(abi.encodePacked(\"pl...\n      SWAP1 \t\t\tbytes32 testHash = keccak256(a...\n      POP \t\t\tbytes32 testHash = keccak256(a...\n      CALLER \t\t\tmsg.sender\n      PUSH FFFFFFFFFFFFFFFFFFFFFFFFFFFFFFFFFFFFFFFF\t\t\temailProfiles[testHash].wallet...\n      AND \t\t\temailProfiles[testHash].wallet...\n      PUSH 2\t\t\temailProfiles\n      PUSH 0\t\t\temailProfiles[testHash]\n      DUP4 \t\t\ttestHash\n      DUP2 \t\t\temailProfiles[testHash]\n      MSTORE \t\t\temailProfiles[testHash]\n      PUSH 20\t\t\temailProfiles[testHash]\n      ADD \t\t\temailProfiles[testHash]\n      SWAP1 \t\t\temailProfiles[testHash]\n      DUP2 \t\t\temailProfiles[testHash]\n      MSTORE \t\t\temailProfiles[testHash]\n      PUSH 20\t\t\temailProfiles[testHash]\n      ADD \t\t\temailProfiles[testHash]\n      PUSH 0\t\t\temailProfiles[testHash]\n      KECCAK256 \t\t\temailProfiles[testHash]\n      PUSH 0\t\t\temailProfiles[testHash].wallet\n      ADD \t\t\temailProfiles[testHash].wallet\n      PUSH 0\t\t\temailProfiles[testHash].wallet\n      SWAP1 \t\t\temailProfiles[testHash].wallet\n      SLOAD \t\t\temailProfiles[testHash].wallet\n      SWAP1 \t\t\temailProfiles[testHash].wallet\n      PUSH 100\t\t\temailProfiles[testHash].wallet\n      EXP \t\t\temailProfiles[testHash].wallet\n      SWAP1 \t\t\temailProfiles[testHash].wallet\n      DIV \t\t\temailProfiles[testHash].wallet\n      PUSH FFFFFFFFFFFFFFFFFFFFFFFFFFFFFFFFFFFFFFFF\t\t\temailProfiles[testHash].wallet\n      AND \t\t\temailProfiles[testHash].wallet\n      PUSH FFFFFFFFFFFFFFFFFFFFFFFFFFFFFFFFFFFFFFFF\t\t\temailProfiles[testHash].wallet...\n      AND \t\t\temailProfiles[testHash].wallet...\n      SUB \t\t\temailProfiles[testHash].wallet...\n      PUSH [tag] 79\t\t\tif (emailProfiles[testHash].wa...\n      JUMPI \t\t\tif (emailProfiles[testHash].wa...\n      DUP1 \t\t\ttestHash\n      SWAP4 \t\t\tfromEmailHash = testHash\n      POP \t\t\tfromEmailHash = testHash\n      PUSH 1\t\t\ttrue\n      SWAP3 \t\t\tsenderIsRegistered = true\n      POP \t\t\tsenderIsRegistered = true\n      POP \t\t\tbreak\n      PUSH [tag] 75\t\t\tbreak\n      JUMP \t\t\tbreak\n    tag 79\t\t\tif (emailProfiles[testHash].wa...\n      JUMPDEST \t\t\tif (emailProfiles[testHash].wa...\n      POP \t\t\t{\\r\\n            // This is in...\n      DUP1 \t\t\ti++\n      DUP1 \t\t\ti++\n      PUSH 1\t\t\ti++\n      ADD \t\t\ti++\n      SWAP2 \t\t\ti++\n      POP \t\t\ti++\n      POP \t\t\ti++\n      PUSH [tag] 74\t\t\tfor (uint i = 0; i < 10; i++) ...\n      JUMP \t\t\tfor (uint i = 0; i < 10; i++) ...\n    tag 75\t\t\tfor (uint i = 0; i < 10; i++) ...\n      JUMPDEST \t\t\tfor (uint i = 0; i < 10; i++) ...\n      POP \t\t\tfor (uint i = 0; i < 10; i++) ...\n      DUP1 \t\t\tsenderIsRegistered\n      ISZERO \t\t\tif (senderIsRegistered) {\\r\\n ...\n      PUSH [tag] 80\t\t\tif (senderIsRegistered) {\\r\\n ...\n      JUMPI \t\t\tif (senderIsRegistered) {\\r\\n ...\n      CALLVALUE \t\t\tmsg.value\n      PUSH 2\t\t\temailProfiles\n      PUSH 0\t\t\temailProfiles[fromEmailHash]\n      DUP5 \t\t\tfromEmailHash\n      DUP2 \t\t\temailProfiles[fromEmailHash]\n      MSTORE \t\t\temailProfiles[fromEmailHash]\n      PUSH 20\t\t\temailProfiles[fromEmailHash]\n      ADD \t\t\temailProfiles[fromEmailHash]\n      SWAP1 \t\t\temailProfiles[fromEmailHash]\n      DUP2 \t\t\temailProfiles[fromEmailHash]\n      MSTORE \t\t\temailProfiles[fromEmailHash]\n      PUSH 20\t\t\temailProfiles[fromEmailHash]\n      ADD \t\t\temailProfiles[fromEmailHash]\n      PUSH 0\t\t\temailProfiles[fromEmailHash]\n      KECCAK256 \t\t\temailProfiles[fromEmailHash]\n      PUSH 4\t\t\temailProfiles[fromEmailHash].t...\n      ADD \t\t\temailProfiles[fromEmailHash].t...\n      PUSH 0\t\t\temailProfiles[fromEmailHash].t...\n      DUP3 \t\t\temailProfiles[fromEmailHash].t...\n      DUP3 \t\t\temailProfiles[fromEmailHash].t...\n      SLOAD \t\t\temailProfiles[fromEmailHash].t...\n      PUSH [tag] 81\t\t\temailProfiles[fromEmailHash].t...\n      SWAP2 \t\t\temailProfiles[fromEmailHash].t...\n      SWAP1 \t\t\temailProfiles[fromEmailHash].t...\n      PUSH [tag] 82\t\t\temailProfiles[fromEmailHash].t...\n      JUMP \t\t\temailProfiles[fromEmailHash].t...\n    tag 81\t\t\temailProfiles[fromEmailHash].t...\n      JUMPDEST \t\t\temailProfiles[fromEmailHash].t...\n      SWAP3 \t\t\temailProfiles[fromEmailHash].t...\n      POP \t\t\temailProfiles[fromEmailHash].t...\n      POP \t\t\temailProfiles[fromEmailHash].t...\n      DUP2 \t\t\temailProfiles[fromEmailHash].t...\n      SWAP1 \t\t\temailProfiles[fromEmailHash].t...\n      SSTORE \t\t\temailProfiles[fromEmailHash].t...\n      POP \t\t\temailProfiles[fromEmailHash].t...\n    tag 80\t\t\tif (senderIsRegistered) {\\r\\n ...\n      JUMPDEST \t\t\tif (senderIsRegistered) {\\r\\n ...\n      CALLVALUE \t\t\tmsg.value\n      PUSH 2\t\t\temailProfiles\n      PUSH 0\t\t\temailProfiles[toEmailHash]\n      DUP7 \t\t\ttoEmailHash\n      DUP2 \t\t\temailProfiles[toEmailHash]\n      MSTORE \t\t\temailProfiles[toEmailHash]\n      PUSH 20\t\t\temailProfiles[toEmailHash]\n      ADD \t\t\temailProfiles[toEmailHash]\n      SWAP1 \t\t\temailProfiles[toEmailHash]\n      DUP2 \t\t\temailProfiles[toEmailHash]\n      MSTORE \t\t\temailProfiles[toEmailHash]\n      PUSH 20\t\t\temailProfiles[toEmailHash]\n      ADD \t\t\temailProfiles[toEmailHash]\n      PUSH 0\t\t\temailProfiles[toEmailHash]\n      KECCAK256 \t\t\temailProfiles[toEmailHash]\n      PUSH 3\t\t\temailProfiles[toEmailHash].tot...\n      ADD \t\t\temailProfiles[toEmailHash].tot...\n      PUSH 0\t\t\temailProfiles[toEmailHash].tot...\n      DUP3 \t\t\temailProfiles[toEmailHash].tot...\n      DUP3 \t\t\temailProfiles[toEmailHash].tot...\n      SLOAD \t\t\temailProfiles[toEmailHash].tot...\n      PUSH [tag] 83\t\t\temailProfiles[toEmailHash].tot...\n      SWAP2 \t\t\temailProfiles[toEmailHash].tot...\n      SWAP1 \t\t\temailProfiles[toEmailHash].tot...\n      PUSH [tag] 82\t\t\temailProfiles[toEmailHash].tot...\n      JUMP \t\t\temailProfiles[toEmailHash].tot...\n    tag 83\t\t\temailProfiles[toEmailHash].tot...\n      JUMPDEST \t\t\temailProfiles[toEmailHash].tot...\n      SWAP3 \t\t\temailProfiles[toEmailHash].tot...\n      POP \t\t\temailProfiles[toEmailHash].tot...\n      POP \t\t\temailProfiles[toEmailHash].tot...\n      DUP2 \t\t\temailProfiles[toEmailHash].tot...\n      SWAP1 \t\t\temailProfiles[toEmailHash].tot...\n      SSTORE \t\t\temailProfiles[toEmailHash].tot...\n      POP \t\t\temailProfiles[toEmailHash].tot...\n      PUSH 0\t\t\tbool sent\n      DUP4 \t\t\ttoWallet\n      PUSH FFFFFFFFFFFFFFFFFFFFFFFFFFFFFFFFFFFFFFFF\t\t\ttoWallet.call\n      AND \t\t\ttoWallet.call\n      CALLVALUE \t\t\tmsg.value\n      PUSH 40\t\t\ttoWallet.call{value: msg.value...\n      MLOAD \t\t\ttoWallet.call{value: msg.value...\n      PUSH [tag] 84\t\t\ttoWallet.call{value: msg.value...\n      SWAP1 \t\t\ttoWallet.call{value: msg.value...\n      PUSH [tag] 85\t\t\ttoWallet.call{value: msg.value...\n      JUMP \t\t\ttoWallet.call{value: msg.value...\n    tag 84\t\t\ttoWallet.call{value: msg.value...\n      JUMPDEST \t\t\ttoWallet.call{value: msg.value...\n      PUSH 0\t\t\ttoWallet.call{value: msg.value...\n      PUSH 40\t\t\ttoWallet.call{value: msg.value...\n      MLOAD \t\t\ttoWallet.call{value: msg.value...\n      DUP1 \t\t\ttoWallet.call{value: msg.value...\n      DUP4 \t\t\ttoWallet.call{value: msg.value...\n      SUB \t\t\ttoWallet.call{value: msg.value...\n      DUP2 \t\t\ttoWallet.call{value: msg.value...\n      DUP6 \t\t\ttoWallet.call{value: msg.value...\n      DUP8 \t\t\ttoWallet.call{value: msg.value...\n      GAS \t\t\ttoWallet.call{value: msg.value...\n      CALL \t\t\ttoWallet.call{value: msg.value...\n      SWAP3 \t\t\ttoWallet.call{value: msg.value...\n      POP \t\t\ttoWallet.call{value: msg.value...\n      POP \t\t\ttoWallet.call{value: msg.value...\n      POP \t\t\ttoWallet.call{value: msg.value...\n      RETURNDATASIZE \t\t\ttoWallet.call{value: msg.value...\n      DUP1 \t\t\ttoWallet.call{value: msg.value...\n      PUSH 0\t\t\ttoWallet.call{value: msg.value...\n      DUP2 \t\t\ttoWallet.call{value: msg.value...\n      EQ \t\t\ttoWallet.call{value: msg.value...\n      PUSH [tag] 88\t\t\ttoWallet.call{value: msg.value...\n      JUMPI \t\t\ttoWallet.call{value: msg.value...\n      PUSH 40\t\t\ttoWallet.call{value: msg.value...\n      MLOAD \t\t\ttoWallet.call{value: msg.value...\n      SWAP2 \t\t\ttoWallet.call{value: msg.value...\n      POP \t\t\ttoWallet.call{value: msg.value...\n      PUSH 1F\t\t\ttoWallet.call{value: msg.value...\n      NOT \t\t\ttoWallet.call{value: msg.value...\n      PUSH 3F\t\t\ttoWallet.call{value: msg.value...\n      RETURNDATASIZE \t\t\ttoWallet.call{value: msg.value...\n      ADD \t\t\ttoWallet.call{value: msg.value...\n      AND \t\t\ttoWallet.call{value: msg.value...\n      DUP3 \t\t\ttoWallet.call{value: msg.value...\n      ADD \t\t\ttoWallet.call{value: msg.value...\n      PUSH 40\t\t\ttoWallet.call{value: msg.value...\n      MSTORE \t\t\ttoWallet.call{value: msg.value...\n      RETURNDATASIZE \t\t\ttoWallet.call{value: msg.value...\n      DUP3 \t\t\ttoWallet.call{value: msg.value...\n      MSTORE \t\t\ttoWallet.call{value: msg.value...\n      RETURNDATASIZE \t\t\ttoWallet.call{value: msg.value...\n      PUSH 0\t\t\ttoWallet.call{value: msg.value...\n      PUSH 20\t\t\ttoWallet.call{value: msg.value...\n      DUP5 \t\t\ttoWallet.call{value: msg.value...\n      ADD \t\t\ttoWallet.call{value: msg.value...\n      RETURNDATACOPY \t\t\ttoWallet.call{value: msg.value...\n      PUSH [tag] 87\t\t\ttoWallet.call{value: msg.value...\n      JUMP \t\t\ttoWallet.call{value: msg.value...\n    tag 88\t\t\ttoWallet.call{value: msg.value...\n      JUMPDEST \t\t\ttoWallet.call{value: msg.value...\n      PUSH 60\t\t\ttoWallet.call{value: msg.value...\n      SWAP2 \t\t\ttoWallet.call{value: msg.value...\n      POP \t\t\ttoWallet.call{value: msg.value...\n    tag 87\t\t\ttoWallet.call{value: msg.value...\n      JUMPDEST \t\t\ttoWallet.call{value: msg.value...\n      POP \t\t\ttoWallet.call{value: msg.value...\n      POP \t\t\t(bool sent, ) = toWallet.call{...\n      SWAP1 \t\t\t(bool sent, ) = toWallet.call{...\n      POP \t\t\t(bool sent, ) = toWallet.call{...\n      DUP1 \t\t\tsent\n      PUSH [tag] 89\t\t\trequire(sent, \"Failed to send ...\n      JUMPI \t\t\trequire(sent, \"Failed to send ...\n      PUSH 40\t\t\trequire(sent, \"Failed to send ...\n      MLOAD \t\t\trequire(sent, \"Failed to send ...\n      PUSH 8C379A000000000000000000000000000000000000000000000000000000000\t\t\trequire(sent, \"Failed to send ...\n      DUP2 \t\t\trequire(sent, \"Failed to send ...\n      MSTORE \t\t\trequire(sent, \"Failed to send ...\n      PUSH 4\t\t\trequire(sent, \"Failed to send ...\n      ADD \t\t\trequire(sent, \"Failed to send ...\n      PUSH [tag] 90\t\t\trequire(sent, \"Failed to send ...\n      SWAP1 \t\t\trequire(sent, \"Failed to send ...\n      PUSH [tag] 91\t\t\trequire(sent, \"Failed to send ...\n      JUMP \t\t\trequire(sent, \"Failed to send ...\n    tag 90\t\t\trequire(sent, \"Failed to send ...\n      JUMPDEST \t\t\trequire(sent, \"Failed to send ...\n      PUSH 40\t\t\trequire(sent, \"Failed to send ...\n      MLOAD \t\t\trequire(sent, \"Failed to send ...\n      DUP1 \t\t\trequire(sent, \"Failed to send ...\n      SWAP2 \t\t\trequire(sent, \"Failed to send ...\n      SUB \t\t\trequire(sent, \"Failed to send ...\n      SWAP1 \t\t\trequire(sent, \"Failed to send ...\n      REVERT \t\t\trequire(sent, \"Failed to send ...\n    tag 89\t\t\trequire(sent, \"Failed to send ...\n      JUMPDEST \t\t\trequire(sent, \"Failed to send ...\n      DUP5 \t\t\ttoEmailHash\n      DUP3 \t\t\tsenderIsRegistered\n      PUSH [tag] 92\t\t\tsenderIsRegistered ? fromEmail...\n      JUMPI \t\t\tsenderIsRegistered ? fromEmail...\n      PUSH 0\t\t\t0\n      PUSH 0\t\t\tbytes32(0)\n      SHL \t\t\tbytes32(0)\n      PUSH [tag] 93\t\t\tsenderIsRegistered ? fromEmail...\n      JUMP \t\t\tsenderIsRegistered ? fromEmail...\n    tag 92\t\t\tsenderIsRegistered ? fromEmail...\n      JUMPDEST \t\t\tsenderIsRegistered ? fromEmail...\n      DUP4 \t\t\tfromEmailHash\n    tag 93\t\t\tsenderIsRegistered ? fromEmail...\n      JUMPDEST \t\t\tsenderIsRegistered ? fromEmail...\n      PUSH 6F2C8059F88AF5345E68DB9CEA15E62A0AA75BB19B80B8A46B694F57F655D627\t\t\tPaymentSent(\\r\\n            se...\n      CALLVALUE \t\t\tmsg.value\n      PUSH 40\t\t\tPaymentSent(\\r\\n            se...\n      MLOAD \t\t\tPaymentSent(\\r\\n            se...\n      PUSH [tag] 94\t\t\tPaymentSent(\\r\\n            se...\n      SWAP2 \t\t\tPaymentSent(\\r\\n            se...\n      SWAP1 \t\t\tPaymentSent(\\r\\n            se...\n      PUSH [tag] 95\t\t\tPaymentSent(\\r\\n            se...\n      JUMP \t\t\tPaymentSent(\\r\\n            se...\n    tag 94\t\t\tPaymentSent(\\r\\n            se...\n      JUMPDEST \t\t\tPaymentSent(\\r\\n            se...\n      PUSH 40\t\t\tPaymentSent(\\r\\n            se...\n      MLOAD \t\t\tPaymentSent(\\r\\n            se...\n      DUP1 \t\t\tPaymentSent(\\r\\n            se...\n      SWAP2 \t\t\tPaymentSent(\\r\\n            se...\n      SUB \t\t\tPaymentSent(\\r\\n            se...\n      SWAP1 \t\t\tPaymentSent(\\r\\n            se...\n      LOG3 \t\t\tPaymentSent(\\r\\n            se...\n      POP \t\t\t{\\r\\n        address payable t...\n      POP \t\t\t{\\r\\n        address payable t...\n      POP \t\t\t{\\r\\n        address payable t...\n      POP \t\t\t{\\r\\n        address payable t...\n      POP \t\t\tfunction sendPaymentToEmail(by...\n      JUMP \t\t\tfunction sendPaymentToEmail(by...\n    tag 35\t\t\tfunction sendPaymentByEmail(by...\n      JUMPDEST \t\t\tfunction sendPaymentByEmail(by...\n      PUSH 0\t\t\taddress payable toWallet\n      PUSH 2\t\t\temailProfiles\n      PUSH 0\t\t\temailProfiles[toEmailHash]\n      DUP4 \t\t\ttoEmailHash\n      DUP2 \t\t\temailProfiles[toEmailHash]\n      MSTORE \t\t\temailProfiles[toEmailHash]\n      PUSH 20\t\t\temailProfiles[toEmailHash]\n      ADD \t\t\temailProfiles[toEmailHash]\n      SWAP1 \t\t\temailProfiles[toEmailHash]\n      DUP2 \t\t\temailProfiles[toEmailHash]\n      MSTORE \t\t\temailProfiles[toEmailHash]\n      PUSH 20\t\t\temailProfiles[toEmailHash]\n      ADD \t\t\temailProfiles[toEmailHash]\n      PUSH 0\t\t\temailProfiles[toEmailHash]\n      KECCAK256 \t\t\temailProfiles[toEmailHash]\n      PUSH 0\t\t\temailProfiles[toEmailHash].wal...\n      ADD \t\t\temailProfiles[toEmailHash].wal...\n      PUSH 0\t\t\temailProfiles[toEmailHash].wal...\n      SWAP1 \t\t\temailProfiles[toEmailHash].wal...\n      SLOAD \t\t\temailProfiles[toEmailHash].wal...\n      SWAP1 \t\t\temailProfiles[toEmailHash].wal...\n      PUSH 100\t\t\temailProfiles[toEmailHash].wal...\n      EXP \t\t\temailProfiles[toEmailHash].wal...\n      SWAP1 \t\t\temailProfiles[toEmailHash].wal...\n      DIV \t\t\temailProfiles[toEmailHash].wal...\n      PUSH FFFFFFFFFFFFFFFFFFFFFFFFFFFFFFFFFFFFFFFF\t\t\temailProfiles[toEmailHash].wal...\n      AND \t\t\temailProfiles[toEmailHash].wal...\n      SWAP1 \t\t\taddress payable toWallet = pay...\n      POP \t\t\taddress payable toWallet = pay...\n      PUSH 0\t\t\t0\n      PUSH FFFFFFFFFFFFFFFFFFFFFFFFFFFFFFFFFFFFFFFF\t\t\ttoWallet != address(0)\n      AND \t\t\ttoWallet != address(0)\n      DUP2 \t\t\ttoWallet\n      PUSH FFFFFFFFFFFFFFFFFFFFFFFFFFFFFFFFFFFFFFFF\t\t\ttoWallet != address(0)\n      AND \t\t\ttoWallet != address(0)\n      SUB \t\t\ttoWallet != address(0)\n      PUSH [tag] 97\t\t\trequire(toWallet != address(0)...\n      JUMPI \t\t\trequire(toWallet != address(0)...\n      PUSH 40\t\t\trequire(toWallet != address(0)...\n      MLOAD \t\t\trequire(toWallet != address(0)...\n      PUSH 8C379A000000000000000000000000000000000000000000000000000000000\t\t\trequire(toWallet != address(0)...\n      DUP2 \t\t\trequire(toWallet != address(0)...\n      MSTORE \t\t\trequire(toWallet != address(0)...\n      PUSH 4\t\t\trequire(toWallet != address(0)...\n      ADD \t\t\trequire(toWallet != address(0)...\n      PUSH [tag] 98\t\t\trequire(toWallet != address(0)...\n      SWAP1 \t\t\trequire(toWallet != address(0)...\n      PUSH [tag] 73\t\t\trequire(toWallet != address(0)...\n      JUMP \t\t\trequire(toWallet != address(0)...\n    tag 98\t\t\trequire(toWallet != address(0)...\n      JUMPDEST \t\t\trequire(toWallet != address(0)...\n      PUSH 40\t\t\trequire(toWallet != address(0)...\n      MLOAD \t\t\trequire(toWallet != address(0)...\n      DUP1 \t\t\trequire(toWallet != address(0)...\n      SWAP2 \t\t\trequire(toWallet != address(0)...\n      SUB \t\t\trequire(toWallet != address(0)...\n      SWAP1 \t\t\trequire(toWallet != address(0)...\n      REVERT \t\t\trequire(toWallet != address(0)...\n    tag 97\t\t\trequire(toWallet != address(0)...\n      JUMPDEST \t\t\trequire(toWallet != address(0)...\n      PUSH 2\t\t\temailProfiles\n      PUSH 0\t\t\temailProfiles[fromEmailHash]\n      DUP5 \t\t\tfromEmailHash\n      DUP2 \t\t\temailProfiles[fromEmailHash]\n      MSTORE \t\t\temailProfiles[fromEmailHash]\n      PUSH 20\t\t\temailProfiles[fromEmailHash]\n      ADD \t\t\temailProfiles[fromEmailHash]\n      SWAP1 \t\t\temailProfiles[fromEmailHash]\n      DUP2 \t\t\temailProfiles[fromEmailHash]\n      MSTORE \t\t\temailProfiles[fromEmailHash]\n      PUSH 20\t\t\temailProfiles[fromEmailHash]\n      ADD \t\t\temailProfiles[fromEmailHash]\n      PUSH 0\t\t\temailProfiles[fromEmailHash]\n      KECCAK256 \t\t\temailProfiles[fromEmailHash]\n      PUSH 0\t\t\temailProfiles[fromEmailHash].w...\n      ADD \t\t\temailProfiles[fromEmailHash].w...\n      PUSH 0\t\t\temailProfiles[fromEmailHash].w...\n      SWAP1 \t\t\temailProfiles[fromEmailHash].w...\n      SLOAD \t\t\temailProfiles[fromEmailHash].w...\n      SWAP1 \t\t\temailProfiles[fromEmailHash].w...\n      PUSH 100\t\t\temailProfiles[fromEmailHash].w...\n      EXP \t\t\temailProfiles[fromEmailHash].w...\n      SWAP1 \t\t\temailProfiles[fromEmailHash].w...\n      DIV \t\t\temailProfiles[fromEmailHash].w...\n      PUSH FFFFFFFFFFFFFFFFFFFFFFFFFFFFFFFFFFFFFFFF\t\t\temailProfiles[fromEmailHash].w...\n      AND \t\t\temailProfiles[fromEmailHash].w...\n      PUSH FFFFFFFFFFFFFFFFFFFFFFFFFFFFFFFFFFFFFFFF\t\t\tmsg.sender == emailProfiles[fr...\n      AND \t\t\tmsg.sender == emailProfiles[fr...\n      CALLER \t\t\tmsg.sender\n      PUSH FFFFFFFFFFFFFFFFFFFFFFFFFFFFFFFFFFFFFFFF\t\t\tmsg.sender == emailProfiles[fr...\n      AND \t\t\tmsg.sender == emailProfiles[fr...\n      EQ \t\t\tmsg.sender == emailProfiles[fr...\n      DUP1 \t\t\tmsg.sender == emailProfiles[fr...\n      PUSH [tag] 99\t\t\tmsg.sender == emailProfiles[fr...\n      JUMPI \t\t\tmsg.sender == emailProfiles[fr...\n      POP \t\t\tmsg.sender == emailProfiles[fr...\n      PUSH 0\t\t\towner\n      PUSH 0\t\t\towner\n      SWAP1 \t\t\towner\n      SLOAD \t\t\towner\n      SWAP1 \t\t\towner\n      PUSH 100\t\t\towner\n      EXP \t\t\towner\n      SWAP1 \t\t\towner\n      DIV \t\t\towner\n      PUSH FFFFFFFFFFFFFFFFFFFFFFFFFFFFFFFFFFFFFFFF\t\t\towner\n      AND \t\t\towner\n      PUSH FFFFFFFFFFFFFFFFFFFFFFFFFFFFFFFFFFFFFFFF\t\t\tmsg.sender == owner\n      AND \t\t\tmsg.sender == owner\n      CALLER \t\t\tmsg.sender\n      PUSH FFFFFFFFFFFFFFFFFFFFFFFFFFFFFFFFFFFFFFFF\t\t\tmsg.sender == owner\n      AND \t\t\tmsg.sender == owner\n      EQ \t\t\tmsg.sender == owner\n    tag 99\t\t\tmsg.sender == emailProfiles[fr...\n      JUMPDEST \t\t\tmsg.sender == emailProfiles[fr...\n      PUSH [tag] 100\t\t\trequire(\\r\\n            msg.se...\n      JUMPI \t\t\trequire(\\r\\n            msg.se...\n      PUSH 40\t\t\trequire(\\r\\n            msg.se...\n      MLOAD \t\t\trequire(\\r\\n            msg.se...\n      PUSH 8C379A000000000000000000000000000000000000000000000000000000000\t\t\trequire(\\r\\n            msg.se...\n      DUP2 \t\t\trequire(\\r\\n            msg.se...\n      MSTORE \t\t\trequire(\\r\\n            msg.se...\n      PUSH 4\t\t\trequire(\\r\\n            msg.se...\n      ADD \t\t\trequire(\\r\\n            msg.se...\n      PUSH [tag] 101\t\t\trequire(\\r\\n            msg.se...\n      SWAP1 \t\t\trequire(\\r\\n            msg.se...\n      PUSH [tag] 102\t\t\trequire(\\r\\n            msg.se...\n      JUMP \t\t\trequire(\\r\\n            msg.se...\n    tag 101\t\t\trequire(\\r\\n            msg.se...\n      JUMPDEST \t\t\trequire(\\r\\n            msg.se...\n      PUSH 40\t\t\trequire(\\r\\n            msg.se...\n      MLOAD \t\t\trequire(\\r\\n            msg.se...\n      DUP1 \t\t\trequire(\\r\\n            msg.se...\n      SWAP2 \t\t\trequire(\\r\\n            msg.se...\n      SUB \t\t\trequire(\\r\\n            msg.se...\n      SWAP1 \t\t\trequire(\\r\\n            msg.se...\n      REVERT \t\t\trequire(\\r\\n            msg.se...\n    tag 100\t\t\trequire(\\r\\n            msg.se...\n      JUMPDEST \t\t\trequire(\\r\\n            msg.se...\n      CALLVALUE \t\t\tmsg.value\n      PUSH 2\t\t\temailProfiles\n      PUSH 0\t\t\temailProfiles[fromEmailHash]\n      DUP6 \t\t\tfromEmailHash\n      DUP2 \t\t\temailProfiles[fromEmailHash]\n      MSTORE \t\t\temailProfiles[fromEmailHash]\n      PUSH 20\t\t\temailProfiles[fromEmailHash]\n      ADD \t\t\temailProfiles[fromEmailHash]\n      SWAP1 \t\t\temailProfiles[fromEmailHash]\n      DUP2 \t\t\temailProfiles[fromEmailHash]\n      MSTORE \t\t\temailProfiles[fromEmailHash]\n      PUSH 20\t\t\temailProfiles[fromEmailHash]\n      ADD \t\t\temailProfiles[fromEmailHash]\n      PUSH 0\t\t\temailProfiles[fromEmailHash]\n      KECCAK256 \t\t\temailProfiles[fromEmailHash]\n      PUSH 4\t\t\temailProfiles[fromEmailHash].t...\n      ADD \t\t\temailProfiles[fromEmailHash].t...\n      PUSH 0\t\t\temailProfiles[fromEmailHash].t...\n      DUP3 \t\t\temailProfiles[fromEmailHash].t...\n      DUP3 \t\t\temailProfiles[fromEmailHash].t...\n      SLOAD \t\t\temailProfiles[fromEmailHash].t...\n      PUSH [tag] 103\t\t\temailProfiles[fromEmailHash].t...\n      SWAP2 \t\t\temailProfiles[fromEmailHash].t...\n      SWAP1 \t\t\temailProfiles[fromEmailHash].t...\n      PUSH [tag] 82\t\t\temailProfiles[fromEmailHash].t...\n      JUMP \t\t\temailProfiles[fromEmailHash].t...\n    tag 103\t\t\temailProfiles[fromEmailHash].t...\n      JUMPDEST \t\t\temailProfiles[fromEmailHash].t...\n      SWAP3 \t\t\temailProfiles[fromEmailHash].t...\n      POP \t\t\temailProfiles[fromEmailHash].t...\n      POP \t\t\temailProfiles[fromEmailHash].t...\n      DUP2 \t\t\temailProfiles[fromEmailHash].t...\n      SWAP1 \t\t\temailProfiles[fromEmailHash].t...\n      SSTORE \t\t\temailProfiles[fromEmailHash].t...\n      POP \t\t\temailProfiles[fromEmailHash].t...\n      CALLVALUE \t\t\tmsg.value\n      PUSH 2\t\t\temailProfiles\n      PUSH 0\t\t\temailProfiles[toEmailHash]\n      DUP5 \t\t\ttoEmailHash\n      DUP2 \t\t\temailProfiles[toEmailHash]\n      MSTORE \t\t\temailProfiles[toEmailHash]\n      PUSH 20\t\t\temailProfiles[toEmailHash]\n      ADD \t\t\temailProfiles[toEmailHash]\n      SWAP1 \t\t\temailProfiles[toEmailHash]\n      DUP2 \t\t\temailProfiles[toEmailHash]\n      MSTORE \t\t\temailProfiles[toEmailHash]\n      PUSH 20\t\t\temailProfiles[toEmailHash]\n      ADD \t\t\temailProfiles[toEmailHash]\n      PUSH 0\t\t\temailProfiles[toEmailHash]\n      KECCAK256 \t\t\temailProfiles[toEmailHash]\n      PUSH 3\t\t\temailProfiles[toEmailHash].tot...\n      ADD \t\t\temailProfiles[toEmailHash].tot...\n      PUSH 0\t\t\temailProfiles[toEmailHash].tot...\n      DUP3 \t\t\temailProfiles[toEmailHash].tot...\n      DUP3 \t\t\temailProfiles[toEmailHash].tot...\n      SLOAD \t\t\temailProfiles[toEmailHash].tot...\n      PUSH [tag] 104\t\t\temailProfiles[toEmailHash].tot...\n      SWAP2 \t\t\temailProfiles[toEmailHash].tot...\n      SWAP1 \t\t\temailProfiles[toEmailHash].tot...\n      PUSH [tag] 82\t\t\temailProfiles[toEmailHash].tot...\n      JUMP \t\t\temailProfiles[toEmailHash].tot...\n    tag 104\t\t\temailProfiles[toEmailHash].tot...\n      JUMPDEST \t\t\temailProfiles[toEmailHash].tot...\n      SWAP3 \t\t\temailProfiles[toEmailHash].tot...\n      POP \t\t\temailProfiles[toEmailHash].tot...\n      POP \t\t\temailProfiles[toEmailHash].tot...\n      DUP2 \t\t\temailProfiles[toEmailHash].tot...\n      SWAP1 \t\t\temailProfiles[toEmailHash].tot...\n      SSTORE \t\t\temailProfiles[toEmailHash].tot...\n      POP \t\t\temailProfiles[toEmailHash].tot...\n      PUSH 0\t\t\tbool sent\n      DUP2 \t\t\ttoWallet\n      PUSH FFFFFFFFFFFFFFFFFFFFFFFFFFFFFFFFFFFFFFFF\t\t\ttoWallet.call\n      AND \t\t\ttoWallet.call\n      CALLVALUE \t\t\tmsg.value\n      PUSH 40\t\t\ttoWallet.call{value: msg.value...\n      MLOAD \t\t\ttoWallet.call{value: msg.value...\n      PUSH [tag] 105\t\t\ttoWallet.call{value: msg.value...\n      SWAP1 \t\t\ttoWallet.call{value: msg.value...\n      PUSH [tag] 85\t\t\ttoWallet.call{value: msg.value...\n      JUMP \t\t\ttoWallet.call{value: msg.value...\n    tag 105\t\t\ttoWallet.call{value: msg.value...\n      JUMPDEST \t\t\ttoWallet.call{value: msg.value...\n      PUSH 0\t\t\ttoWallet.call{value: msg.value...\n      PUSH 40\t\t\ttoWallet.call{value: msg.value...\n      MLOAD \t\t\ttoWallet.call{value: msg.value...\n      DUP1 \t\t\ttoWallet.call{value: msg.value...\n      DUP4 \t\t\ttoWallet.call{value: msg.value...\n      SUB \t\t\ttoWallet.call{value: msg.value...\n      DUP2 \t\t\ttoWallet.call{value: msg.value...\n      DUP6 \t\t\ttoWallet.call{value: msg.value...\n      DUP8 \t\t\ttoWallet.call{value: msg.value...\n      GAS \t\t\ttoWallet.call{value: msg.value...\n      CALL \t\t\ttoWallet.call{value: msg.value...\n      SWAP3 \t\t\ttoWallet.call{value: msg.value...\n      POP \t\t\ttoWallet.call{value: msg.value...\n      POP \t\t\ttoWallet.call{value: msg.value...\n      POP \t\t\ttoWallet.call{value: msg.value...\n      RETURNDATASIZE \t\t\ttoWallet.call{value: msg.value...\n      DUP1 \t\t\ttoWallet.call{value: msg.value...\n      PUSH 0\t\t\ttoWallet.call{value: msg.value...\n      DUP2 \t\t\ttoWallet.call{value: msg.value...\n      EQ \t\t\ttoWallet.call{value: msg.value...\n      PUSH [tag] 108\t\t\ttoWallet.call{value: msg.value...\n      JUMPI \t\t\ttoWallet.call{value: msg.value...\n      PUSH 40\t\t\ttoWallet.call{value: msg.value...\n      MLOAD \t\t\ttoWallet.call{value: msg.value...\n      SWAP2 \t\t\ttoWallet.call{value: msg.value...\n      POP \t\t\ttoWallet.call{value: msg.value...\n      PUSH 1F\t\t\ttoWallet.call{value: msg.value...\n      NOT \t\t\ttoWallet.call{value: msg.value...\n      PUSH 3F\t\t\ttoWallet.call{value: msg.value...\n      RETURNDATASIZE \t\t\ttoWallet.call{value: msg.value...\n      ADD \t\t\ttoWallet.call{value: msg.value...\n      AND \t\t\ttoWallet.call{value: msg.value...\n      DUP3 \t\t\ttoWallet.call{value: msg.value...\n      ADD \t\t\ttoWallet.call{value: msg.value...\n      PUSH 40\t\t\ttoWallet.call{value: msg.value...\n      MSTORE \t\t\ttoWallet.call{value: msg.value...\n      RETURNDATASIZE \t\t\ttoWallet.call{value: msg.value...\n      DUP3 \t\t\ttoWallet.call{value: msg.value...\n      MSTORE \t\t\ttoWallet.call{value: msg.value...\n      RETURNDATASIZE \t\t\ttoWallet.call{value: msg.value...\n      PUSH 0\t\t\ttoWallet.call{value: msg.value...\n      PUSH 20\t\t\ttoWallet.call{value: msg.value...\n      DUP5 \t\t\ttoWallet.call{value: msg.value...\n      ADD \t\t\ttoWallet.call{value: msg.value...\n      RETURNDATACOPY \t\t\ttoWallet.call{value: msg.value...\n      PUSH [tag] 107\t\t\ttoWallet.call{value: msg.value...\n      JUMP \t\t\ttoWallet.call{value: msg.value...\n    tag 108\t\t\ttoWallet.call{value: msg.value...\n      JUMPDEST \t\t\ttoWallet.call{value: msg.value...\n      PUSH 60\t\t\ttoWallet.call{value: msg.value...\n      SWAP2 \t\t\ttoWallet.call{value: msg.value...\n      POP \t\t\ttoWallet.call{value: msg.value...\n    tag 107\t\t\ttoWallet.call{value: msg.value...\n      JUMPDEST \t\t\ttoWallet.call{value: msg.value...\n      POP \t\t\ttoWallet.call{value: msg.value...\n      POP \t\t\t(bool sent, ) = toWallet.call{...\n      SWAP1 \t\t\t(bool sent, ) = toWallet.call{...\n      POP \t\t\t(bool sent, ) = toWallet.call{...\n      DUP1 \t\t\tsent\n      PUSH [tag] 109\t\t\trequire(sent, \"Failed to send ...\n      JUMPI \t\t\trequire(sent, \"Failed to send ...\n      PUSH 40\t\t\trequire(sent, \"Failed to send ...\n      MLOAD \t\t\trequire(sent, \"Failed to send ...\n      PUSH 8C379A000000000000000000000000000000000000000000000000000000000\t\t\trequire(sent, \"Failed to send ...\n      DUP2 \t\t\trequire(sent, \"Failed to send ...\n      MSTORE \t\t\trequire(sent, \"Failed to send ...\n      PUSH 4\t\t\trequire(sent, \"Failed to send ...\n      ADD \t\t\trequire(sent, \"Failed to send ...\n      PUSH [tag] 110\t\t\trequire(sent, \"Failed to send ...\n      SWAP1 \t\t\trequire(sent, \"Failed to send ...\n      PUSH [tag] 91\t\t\trequire(sent, \"Failed to send ...\n      JUMP \t\t\trequire(sent, \"Failed to send ...\n    tag 110\t\t\trequire(sent, \"Failed to send ...\n      JUMPDEST \t\t\trequire(sent, \"Failed to send ...\n      PUSH 40\t\t\trequire(sent, \"Failed to send ...\n      MLOAD \t\t\trequire(sent, \"Failed to send ...\n      DUP1 \t\t\trequire(sent, \"Failed to send ...\n      SWAP2 \t\t\trequire(sent, \"Failed to send ...\n      SUB \t\t\trequire(sent, \"Failed to send ...\n      SWAP1 \t\t\trequire(sent, \"Failed to send ...\n      REVERT \t\t\trequire(sent, \"Failed to send ...\n    tag 109\t\t\trequire(sent, \"Failed to send ...\n      JUMPDEST \t\t\trequire(sent, \"Failed to send ...\n      DUP3 \t\t\ttoEmailHash\n      DUP5 \t\t\tfromEmailHash\n      PUSH 6F2C8059F88AF5345E68DB9CEA15E62A0AA75BB19B80B8A46B694F57F655D627\t\t\tPaymentSent(fromEmailHash, toE...\n      CALLVALUE \t\t\tmsg.value\n      PUSH 40\t\t\tPaymentSent(fromEmailHash, toE...\n      MLOAD \t\t\tPaymentSent(fromEmailHash, toE...\n      PUSH [tag] 111\t\t\tPaymentSent(fromEmailHash, toE...\n      SWAP2 \t\t\tPaymentSent(fromEmailHash, toE...\n      SWAP1 \t\t\tPaymentSent(fromEmailHash, toE...\n      PUSH [tag] 95\t\t\tPaymentSent(fromEmailHash, toE...\n      JUMP \t\t\tPaymentSent(fromEmailHash, toE...\n    tag 111\t\t\tPaymentSent(fromEmailHash, toE...\n      JUMPDEST \t\t\tPaymentSent(fromEmailHash, toE...\n      PUSH 40\t\t\tPaymentSent(fromEmailHash, toE...\n      MLOAD \t\t\tPaymentSent(fromEmailHash, toE...\n      DUP1 \t\t\tPaymentSent(fromEmailHash, toE...\n      SWAP2 \t\t\tPaymentSent(fromEmailHash, toE...\n      SUB \t\t\tPaymentSent(fromEmailHash, toE...\n      SWAP1 \t\t\tPaymentSent(fromEmailHash, toE...\n      LOG3 \t\t\tPaymentSent(fromEmailHash, toE...\n      POP \t\t\t{\\r\\n        address payable t...\n      POP \t\t\t{\\r\\n        address payable t...\n      POP \t\t\tfunction sendPaymentByEmail(by...\n      POP \t\t\tfunction sendPaymentByEmail(by...\n      JUMP \t\t\tfunction sendPaymentByEmail(by...\n    tag 40\t\t\tfunction computeEmailHash(stri...\n      JUMPDEST \t\t\tfunction computeEmailHash(stri...\n      PUSH 0\t\t\tbytes32\n      DUP2 \t\t\temail\n      PUSH 40\t\t\tabi.encodePacked(email)\n      MLOAD \t\t\tabi.encodePacked(email)\n      PUSH 20\t\t\tabi.encodePacked(email)\n      ADD \t\t\tabi.encodePacked(email)\n      PUSH [tag] 113\t\t\tabi.encodePacked(email)\n      SWAP2 \t\t\tabi.encodePacked(email)\n      SWAP1 \t\t\tabi.encodePacked(email)\n      PUSH [tag] 114\t\t\tabi.encodePacked(email)\n      JUMP \t\t\tabi.encodePacked(email)\n    tag 113\t\t\tabi.encodePacked(email)\n      JUMPDEST \t\t\tabi.encodePacked(email)\n      PUSH 40\t\t\tabi.encodePacked(email)\n      MLOAD \t\t\tabi.encodePacked(email)\n      PUSH 20\t\t\tabi.encodePacked(email)\n      DUP2 \t\t\tabi.encodePacked(email)\n      DUP4 \t\t\tabi.encodePacked(email)\n      SUB \t\t\tabi.encodePacked(email)\n      SUB \t\t\tabi.encodePacked(email)\n      DUP2 \t\t\tabi.encodePacked(email)\n      MSTORE \t\t\tabi.encodePacked(email)\n      SWAP1 \t\t\tabi.encodePacked(email)\n      PUSH 40\t\t\tabi.encodePacked(email)\n      MSTORE \t\t\tabi.encodePacked(email)\n      DUP1 \t\t\tkeccak256(abi.encodePacked(ema...\n      MLOAD \t\t\tkeccak256(abi.encodePacked(ema...\n      SWAP1 \t\t\tkeccak256(abi.encodePacked(ema...\n      PUSH 20\t\t\tkeccak256(abi.encodePacked(ema...\n      ADD \t\t\tkeccak256(abi.encodePacked(ema...\n      KECCAK256 \t\t\tkeccak256(abi.encodePacked(ema...\n      SWAP1 \t\t\treturn keccak256(abi.encodePac...\n      POP \t\t\treturn keccak256(abi.encodePac...\n      SWAP2 \t\t\tfunction computeEmailHash(stri...\n      SWAP1 \t\t\tfunction computeEmailHash(stri...\n      POP \t\t\tfunction computeEmailHash(stri...\n      JUMP \t\t\tfunction computeEmailHash(stri...\n    tag 45\t\t\taddress public owner\n      JUMPDEST \t\t\taddress public owner\n      PUSH 0\t\t\taddress public owner\n      PUSH 0\t\t\taddress public owner\n      SWAP1 \t\t\taddress public owner\n      SLOAD \t\t\taddress public owner\n      SWAP1 \t\t\taddress public owner\n      PUSH 100\t\t\taddress public owner\n      EXP \t\t\taddress public owner\n      SWAP1 \t\t\taddress public owner\n      DIV \t\t\taddress public owner\n      PUSH FFFFFFFFFFFFFFFFFFFFFFFFFFFFFFFFFFFFFFFF\t\t\taddress public owner\n      AND \t\t\taddress public owner\n      DUP2 \t\t\taddress public owner\n      JUMP \t\t\taddress public owner\n    tag 51\t\t\tfunction registerEmail(bytes32...\n      JUMPDEST \t\t\tfunction registerEmail(bytes32...\n      PUSH 0\t\t\t0\n      PUSH FFFFFFFFFFFFFFFFFFFFFFFFFFFFFFFFFFFFFFFF\t\t\twallet != address(0)\n      AND \t\t\twallet != address(0)\n      DUP2 \t\t\twallet\n      PUSH FFFFFFFFFFFFFFFFFFFFFFFFFFFFFFFFFFFFFFFF\t\t\twallet != address(0)\n      AND \t\t\twallet != address(0)\n      SUB \t\t\twallet != address(0)\n      PUSH [tag] 116\t\t\trequire(wallet != address(0), ...\n      JUMPI \t\t\trequire(wallet != address(0), ...\n      PUSH 40\t\t\trequire(wallet != address(0), ...\n      MLOAD \t\t\trequire(wallet != address(0), ...\n      PUSH 8C379A000000000000000000000000000000000000000000000000000000000\t\t\trequire(wallet != address(0), ...\n      DUP2 \t\t\trequire(wallet != address(0), ...\n      MSTORE \t\t\trequire(wallet != address(0), ...\n      PUSH 4\t\t\trequire(wallet != address(0), ...\n      ADD \t\t\trequire(wallet != address(0), ...\n      PUSH [tag] 117\t\t\trequire(wallet != address(0), ...\n      SWAP1 \t\t\trequire(wallet != address(0), ...\n      PUSH [tag] 118\t\t\trequire(wallet != address(0), ...\n      JUMP \t\t\trequire(wallet != address(0), ...\n    tag 117\t\t\trequire(wallet != address(0), ...\n      JUMPDEST \t\t\trequire(wallet != address(0), ...\n      PUSH 40\t\t\trequire(wallet != address(0), ...\n      MLOAD \t\t\trequire(wallet != address(0), ...\n      DUP1 \t\t\trequire(wallet != address(0), ...\n      SWAP2 \t\t\trequire(wallet != address(0), ...\n      SUB \t\t\trequire(wallet != address(0), ...\n      SWAP1 \t\t\trequire(wallet != address(0), ...\n      REVERT \t\t\trequire(wallet != address(0), ...\n    tag 116\t\t\trequire(wallet != address(0), ...\n      JUMPDEST \t\t\trequire(wallet != address(0), ...\n      PUSH 0\t\t\t0\n      PUSH FFFFFFFFFFFFFFFFFFFFFFFFFFFFFFFFFFFFFFFF\t\t\temailProfiles[emailHash].walle...\n      AND \t\t\temailProfiles[emailHash].walle...\n      PUSH 2\t\t\temailProfiles\n      PUSH 0\t\t\temailProfiles[emailHash]\n      DUP5 \t\t\temailHash\n      DUP2 \t\t\temailProfiles[emailHash]\n      MSTORE \t\t\temailProfiles[emailHash]\n      PUSH 20\t\t\temailProfiles[emailHash]\n      ADD \t\t\temailProfiles[emailHash]\n      SWAP1 \t\t\temailProfiles[emailHash]\n      DUP2 \t\t\temailProfiles[emailHash]\n      MSTORE \t\t\temailProfiles[emailHash]\n      PUSH 20\t\t\temailProfiles[emailHash]\n      ADD \t\t\temailProfiles[emailHash]\n      PUSH 0\t\t\temailProfiles[emailHash]\n      KECCAK256 \t\t\temailProfiles[emailHash]\n      PUSH 0\t\t\temailProfiles[emailHash].walle...\n      ADD \t\t\temailProfiles[emailHash].walle...\n      PUSH 0\t\t\temailProfiles[emailHash].walle...\n      SWAP1 \t\t\temailProfiles[emailHash].walle...\n      SLOAD \t\t\temailProfiles[emailHash].walle...\n      SWAP1 \t\t\temailProfiles[emailHash].walle...\n      PUSH 100\t\t\temailProfiles[emailHash].walle...\n      EXP \t\t\temailProfiles[emailHash].walle...\n      SWAP1 \t\t\temailProfiles[emailHash].walle...\n      DIV \t\t\temailProfiles[emailHash].walle...\n      PUSH FFFFFFFFFFFFFFFFFFFFFFFFFFFFFFFFFFFFFFFF\t\t\temailProfiles[emailHash].walle...\n      AND \t\t\temailProfiles[emailHash].walle...\n      PUSH FFFFFFFFFFFFFFFFFFFFFFFFFFFFFFFFFFFFFFFF\t\t\temailProfiles[emailHash].walle...\n      AND \t\t\temailProfiles[emailHash].walle...\n      EQ \t\t\temailProfiles[emailHash].walle...\n      PUSH [tag] 119\t\t\tif (emailProfiles[emailHash].w...\n      JUMPI \t\t\tif (emailProfiles[emailHash].w...\n      CALLER \t\t\tmsg.sender\n      PUSH FFFFFFFFFFFFFFFFFFFFFFFFFFFFFFFFFFFFFFFF\t\t\temailProfiles[emailHash].walle...\n      AND \t\t\temailProfiles[emailHash].walle...\n      PUSH 2\t\t\temailProfiles\n      PUSH 0\t\t\temailProfiles[emailHash]\n      DUP5 \t\t\temailHash\n      DUP2 \t\t\temailProfiles[emailHash]\n      MSTORE \t\t\temailProfiles[emailHash]\n      PUSH 20\t\t\temailProfiles[emailHash]\n      ADD \t\t\temailProfiles[emailHash]\n      SWAP1 \t\t\temailProfiles[emailHash]\n      DUP2 \t\t\temailProfiles[emailHash]\n      MSTORE \t\t\temailProfiles[emailHash]\n      PUSH 20\t\t\temailProfiles[emailHash]\n      ADD \t\t\temailProfiles[emailHash]\n      PUSH 0\t\t\temailProfiles[emailHash]\n      KECCAK256 \t\t\temailProfiles[emailHash]\n      PUSH 0\t\t\temailProfiles[emailHash].walle...\n      ADD \t\t\temailProfiles[emailHash].walle...\n      PUSH 0\t\t\temailProfiles[emailHash].walle...\n      SWAP1 \t\t\temailProfiles[emailHash].walle...\n      SLOAD \t\t\temailProfiles[emailHash].walle...\n      SWAP1 \t\t\temailProfiles[emailHash].walle...\n      PUSH 100\t\t\temailProfiles[emailHash].walle...\n      EXP \t\t\temailProfiles[emailHash].walle...\n      SWAP1 \t\t\temailProfiles[emailHash].walle...\n      DIV \t\t\temailProfiles[emailHash].walle...\n      PUSH FFFFFFFFFFFFFFFFFFFFFFFFFFFFFFFFFFFFFFFF\t\t\temailProfiles[emailHash].walle...\n      AND \t\t\temailProfiles[emailHash].walle...\n      PUSH FFFFFFFFFFFFFFFFFFFFFFFFFFFFFFFFFFFFFFFF\t\t\temailProfiles[emailHash].walle...\n      AND \t\t\temailProfiles[emailHash].walle...\n      EQ \t\t\temailProfiles[emailHash].walle...\n      PUSH [tag] 120\t\t\trequire(emailProfiles[emailHas...\n      JUMPI \t\t\trequire(emailProfiles[emailHas...\n      PUSH 40\t\t\trequire(emailProfiles[emailHas...\n      MLOAD \t\t\trequire(emailProfiles[emailHas...\n      PUSH 8C379A000000000000000000000000000000000000000000000000000000000\t\t\trequire(emailProfiles[emailHas...\n      DUP2 \t\t\trequire(emailProfiles[emailHas...\n      MSTORE \t\t\trequire(emailProfiles[emailHas...\n      PUSH 4\t\t\trequire(emailProfiles[emailHas...\n      ADD \t\t\trequire(emailProfiles[emailHas...\n      PUSH [tag] 121\t\t\trequire(emailProfiles[emailHas...\n      SWAP1 \t\t\trequire(emailProfiles[emailHas...\n      PUSH [tag] 122\t\t\trequire(emailProfiles[emailHas...\n      JUMP \t\t\trequire(emailProfiles[emailHas...\n    tag 121\t\t\trequire(emailProfiles[emailHas...\n      JUMPDEST \t\t\trequire(emailProfiles[emailHas...\n      PUSH 40\t\t\trequire(emailProfiles[emailHas...\n      MLOAD \t\t\trequire(emailProfiles[emailHas...\n      DUP1 \t\t\trequire(emailProfiles[emailHas...\n      SWAP2 \t\t\trequire(emailProfiles[emailHas...\n      SUB \t\t\trequire(emailProfiles[emailHas...\n      SWAP1 \t\t\trequire(emailProfiles[emailHas...\n      REVERT \t\t\trequire(emailProfiles[emailHas...\n    tag 120\t\t\trequire(emailProfiles[emailHas...\n      JUMPDEST \t\t\trequire(emailProfiles[emailHas...\n    tag 119\t\t\tif (emailProfiles[emailHash].w...\n      JUMPDEST \t\t\tif (emailProfiles[emailHash].w...\n      PUSH 0\t\t\t0\n      PUSH FFFFFFFFFFFFFFFFFFFFFFFFFFFFFFFFFFFFFFFF\t\t\temailProfiles[emailHash].walle...\n      AND \t\t\temailProfiles[emailHash].walle...\n      PUSH 2\t\t\temailProfiles\n      PUSH 0\t\t\temailProfiles[emailHash]\n      DUP5 \t\t\temailHash\n      DUP2 \t\t\temailProfiles[emailHash]\n      MSTORE \t\t\temailProfiles[emailHash]\n      PUSH 20\t\t\temailProfiles[emailHash]\n      ADD \t\t\temailProfiles[emailHash]\n      SWAP1 \t\t\temailProfiles[emailHash]\n      DUP2 \t\t\temailProfiles[emailHash]\n      MSTORE \t\t\temailProfiles[emailHash]\n      PUSH 20\t\t\temailProfiles[emailHash]\n      ADD \t\t\temailProfiles[emailHash]\n      PUSH 0\t\t\temailProfiles[emailHash]\n      KECCAK256 \t\t\temailProfiles[emailHash]\n      PUSH 0\t\t\temailProfiles[emailHash].walle...\n      ADD \t\t\temailProfiles[emailHash].walle...\n      PUSH 0\t\t\temailProfiles[emailHash].walle...\n      SWAP1 \t\t\temailProfiles[emailHash].walle...\n      SLOAD \t\t\temailProfiles[emailHash].walle...\n      SWAP1 \t\t\temailProfiles[emailHash].walle...\n      PUSH 100\t\t\temailProfiles[emailHash].walle...\n      EXP \t\t\temailProfiles[emailHash].walle...\n      SWAP1 \t\t\temailProfiles[emailHash].walle...\n      DIV \t\t\temailProfiles[emailHash].walle...\n      PUSH FFFFFFFFFFFFFFFFFFFFFFFFFFFFFFFFFFFFFFFF\t\t\temailProfiles[emailHash].walle...\n      AND \t\t\temailProfiles[emailHash].walle...\n      PUSH FFFFFFFFFFFFFFFFFFFFFFFFFFFFFFFFFFFFFFFF\t\t\temailProfiles[emailHash].walle...\n      AND \t\t\temailProfiles[emailHash].walle...\n      SUB \t\t\temailProfiles[emailHash].walle...\n      PUSH [tag] 123\t\t\tif (emailProfiles[emailHash].w...\n      JUMPI \t\t\tif (emailProfiles[emailHash].w...\n      PUSH 40\t\t\tUserProfile({\\r\\n             ...\n      MLOAD \t\t\tUserProfile({\\r\\n             ...\n      DUP1 \t\t\tUserProfile({\\r\\n             ...\n      PUSH A0\t\t\tUserProfile({\\r\\n             ...\n      ADD \t\t\tUserProfile({\\r\\n             ...\n      PUSH 40\t\t\tUserProfile({\\r\\n             ...\n      MSTORE \t\t\tUserProfile({\\r\\n             ...\n      DUP1 \t\t\tUserProfile({\\r\\n             ...\n      DUP3 \t\t\twallet\n      PUSH FFFFFFFFFFFFFFFFFFFFFFFFFFFFFFFFFFFFFFFF\t\t\tUserProfile({\\r\\n             ...\n      AND \t\t\tUserProfile({\\r\\n             ...\n      DUP2 \t\t\tUserProfile({\\r\\n             ...\n      MSTORE \t\t\tUserProfile({\\r\\n             ...\n      PUSH 20\t\t\tUserProfile({\\r\\n             ...\n      ADD \t\t\tUserProfile({\\r\\n             ...\n      TIMESTAMP \t\t\tblock.timestamp\n      DUP2 \t\t\tUserProfile({\\r\\n             ...\n      MSTORE \t\t\tUserProfile({\\r\\n             ...\n      PUSH 20\t\t\tUserProfile({\\r\\n             ...\n      ADD \t\t\tUserProfile({\\r\\n             ...\n      TIMESTAMP \t\t\tblock.timestamp\n      DUP2 \t\t\tUserProfile({\\r\\n             ...\n      MSTORE \t\t\tUserProfile({\\r\\n             ...\n      PUSH 20\t\t\tUserProfile({\\r\\n             ...\n      ADD \t\t\tUserProfile({\\r\\n             ...\n      PUSH 0\t\t\t0\n      DUP2 \t\t\tUserProfile({\\r\\n             ...\n      MSTORE \t\t\tUserProfile({\\r\\n             ...\n      PUSH 20\t\t\tUserProfile({\\r\\n             ...\n      ADD \t\t\tUserProfile({\\r\\n             ...\n      PUSH 0\t\t\t0\n      DUP2 \t\t\tUserProfile({\\r\\n             ...\n      MSTORE \t\t\tUserProfile({\\r\\n             ...\n      POP \t\t\tUserProfile({\\r\\n             ...\n      PUSH 2\t\t\temailProfiles\n      PUSH 0\t\t\temailProfiles[emailHash]\n      DUP5 \t\t\temailHash\n      DUP2 \t\t\temailProfiles[emailHash]\n      MSTORE \t\t\temailProfiles[emailHash]\n      PUSH 20\t\t\temailProfiles[emailHash]\n      ADD \t\t\temailProfiles[emailHash]\n      SWAP1 \t\t\temailProfiles[emailHash]\n      DUP2 \t\t\temailProfiles[emailHash]\n      MSTORE \t\t\temailProfiles[emailHash]\n      PUSH 20\t\t\temailProfiles[emailHash]\n      ADD \t\t\temailProfiles[emailHash]\n      PUSH 0\t\t\temailProfiles[emailHash]\n      KECCAK256 \t\t\temailProfiles[emailHash]\n      PUSH 0\t\t\temailProfiles[emailHash] = Use...\n      DUP3 \t\t\temailProfiles[emailHash] = Use...\n      ADD \t\t\temailProfiles[emailHash] = Use...\n      MLOAD \t\t\temailProfiles[emailHash] = Use...\n      DUP2 \t\t\temailProfiles[emailHash] = Use...\n      PUSH 0\t\t\temailProfiles[emailHash] = Use...\n      ADD \t\t\temailProfiles[emailHash] = Use...\n      PUSH 0\t\t\temailProfiles[emailHash] = Use...\n      PUSH 100\t\t\temailProfiles[emailHash] = Use...\n      EXP \t\t\temailProfiles[emailHash] = Use...\n      DUP2 \t\t\temailProfiles[emailHash] = Use...\n      SLOAD \t\t\temailProfiles[emailHash] = Use...\n      DUP2 \t\t\temailProfiles[emailHash] = Use...\n      PUSH FFFFFFFFFFFFFFFFFFFFFFFFFFFFFFFFFFFFFFFF\t\t\temailProfiles[emailHash] = Use...\n      MUL \t\t\temailProfiles[emailHash] = Use...\n      NOT \t\t\temailProfiles[emailHash] = Use...\n      AND \t\t\temailProfiles[emailHash] = Use...\n      SWAP1 \t\t\temailProfiles[emailHash] = Use...\n      DUP4 \t\t\temailProfiles[emailHash] = Use...\n      PUSH FFFFFFFFFFFFFFFFFFFFFFFFFFFFFFFFFFFFFFFF\t\t\temailProfiles[emailHash] = Use...\n      AND \t\t\temailProfiles[emailHash] = Use...\n      MUL \t\t\temailProfiles[emailHash] = Use...\n      OR \t\t\temailProfiles[emailHash] = Use...\n      SWAP1 \t\t\temailProfiles[emailHash] = Use...\n      SSTORE \t\t\temailProfiles[emailHash] = Use...\n      POP \t\t\temailProfiles[emailHash] = Use...\n      PUSH 20\t\t\temailProfiles[emailHash] = Use...\n      DUP3 \t\t\temailProfiles[emailHash] = Use...\n      ADD \t\t\temailProfiles[emailHash] = Use...\n      MLOAD \t\t\temailProfiles[emailHash] = Use...\n      DUP2 \t\t\temailProfiles[emailHash] = Use...\n      PUSH 1\t\t\temailProfiles[emailHash] = Use...\n      ADD \t\t\temailProfiles[emailHash] = Use...\n      SSTORE \t\t\temailProfiles[emailHash] = Use...\n      PUSH 40\t\t\temailProfiles[emailHash] = Use...\n      DUP3 \t\t\temailProfiles[emailHash] = Use...\n      ADD \t\t\temailProfiles[emailHash] = Use...\n      MLOAD \t\t\temailProfiles[emailHash] = Use...\n      DUP2 \t\t\temailProfiles[emailHash] = Use...\n      PUSH 2\t\t\temailProfiles[emailHash] = Use...\n      ADD \t\t\temailProfiles[emailHash] = Use...\n      SSTORE \t\t\temailProfiles[emailHash] = Use...\n      PUSH 60\t\t\temailProfiles[emailHash] = Use...\n      DUP3 \t\t\temailProfiles[emailHash] = Use...\n      ADD \t\t\temailProfiles[emailHash] = Use...\n      MLOAD \t\t\temailProfiles[emailHash] = Use...\n      DUP2 \t\t\temailProfiles[emailHash] = Use...\n      PUSH 3\t\t\temailProfiles[emailHash] = Use...\n      ADD \t\t\temailProfiles[emailHash] = Use...\n      SSTORE \t\t\temailProfiles[emailHash] = Use...\n      PUSH 80\t\t\temailProfiles[emailHash] = Use...\n      DUP3 \t\t\temailProfiles[emailHash] = Use...\n      ADD \t\t\temailProfiles[emailHash] = Use...\n      MLOAD \t\t\temailProfiles[emailHash] = Use...\n      DUP2 \t\t\temailProfiles[emailHash] = Use...\n      PUSH 4\t\t\temailProfiles[emailHash] = Use...\n      ADD \t\t\temailProfiles[emailHash] = Use...\n      SSTORE \t\t\temailProfiles[emailHash] = Use...\n      SWAP1 \t\t\temailProfiles[emailHash] = Use...\n      POP \t\t\temailProfiles[emailHash] = Use...\n      POP \t\t\temailProfiles[emailHash] = Use...\n      PUSH [tag] 124\t\t\tif (emailProfiles[emailHash].w...\n      JUMP \t\t\tif (emailProfiles[emailHash].w...\n    tag 123\t\t\tif (emailProfiles[emailHash].w...\n      JUMPDEST \t\t\tif (emailProfiles[emailHash].w...\n      DUP1 \t\t\twallet\n      PUSH 2\t\t\temailProfiles\n      PUSH 0\t\t\temailProfiles[emailHash]\n      DUP5 \t\t\temailHash\n      DUP2 \t\t\temailProfiles[emailHash]\n      MSTORE \t\t\temailProfiles[emailHash]\n      PUSH 20\t\t\temailProfiles[emailHash]\n      ADD \t\t\temailProfiles[emailHash]\n      SWAP1 \t\t\temailProfiles[emailHash]\n      DUP2 \t\t\temailProfiles[emailHash]\n      MSTORE \t\t\temailProfiles[emailHash]\n      PUSH 20\t\t\temailProfiles[emailHash]\n      ADD \t\t\temailProfiles[emailHash]\n      PUSH 0\t\t\temailProfiles[emailHash]\n      KECCAK256 \t\t\temailProfiles[emailHash]\n      PUSH 0\t\t\temailProfiles[emailHash].walle...\n      ADD \t\t\temailProfiles[emailHash].walle...\n      PUSH 0\t\t\temailProfiles[emailHash].walle...\n      PUSH 100\t\t\temailProfiles[emailHash].walle...\n      EXP \t\t\temailProfiles[emailHash].walle...\n      DUP2 \t\t\temailProfiles[emailHash].walle...\n      SLOAD \t\t\temailProfiles[emailHash].walle...\n      DUP2 \t\t\temailProfiles[emailHash].walle...\n      PUSH FFFFFFFFFFFFFFFFFFFFFFFFFFFFFFFFFFFFFFFF\t\t\temailProfiles[emailHash].walle...\n      MUL \t\t\temailProfiles[emailHash].walle...\n      NOT \t\t\temailProfiles[emailHash].walle...\n      AND \t\t\temailProfiles[emailHash].walle...\n      SWAP1 \t\t\temailProfiles[emailHash].walle...\n      DUP4 \t\t\temailProfiles[emailHash].walle...\n      PUSH FFFFFFFFFFFFFFFFFFFFFFFFFFFFFFFFFFFFFFFF\t\t\temailProfiles[emailHash].walle...\n      AND \t\t\temailProfiles[emailHash].walle...\n      MUL \t\t\temailProfiles[emailHash].walle...\n      OR \t\t\temailProfiles[emailHash].walle...\n      SWAP1 \t\t\temailProfiles[emailHash].walle...\n      SSTORE \t\t\temailProfiles[emailHash].walle...\n      POP \t\t\temailProfiles[emailHash].walle...\n      TIMESTAMP \t\t\tblock.timestamp\n      PUSH 2\t\t\temailProfiles\n      PUSH 0\t\t\temailProfiles[emailHash]\n      DUP5 \t\t\temailHash\n      DUP2 \t\t\temailProfiles[emailHash]\n      MSTORE \t\t\temailProfiles[emailHash]\n      PUSH 20\t\t\temailProfiles[emailHash]\n      ADD \t\t\temailProfiles[emailHash]\n      SWAP1 \t\t\temailProfiles[emailHash]\n      DUP2 \t\t\temailProfiles[emailHash]\n      MSTORE \t\t\temailProfiles[emailHash]\n      PUSH 20\t\t\temailProfiles[emailHash]\n      ADD \t\t\temailProfiles[emailHash]\n      PUSH 0\t\t\temailProfiles[emailHash]\n      KECCAK256 \t\t\temailProfiles[emailHash]\n      PUSH 2\t\t\temailProfiles[emailHash].lastU...\n      ADD \t\t\temailProfiles[emailHash].lastU...\n      DUP2 \t\t\temailProfiles[emailHash].lastU...\n      SWAP1 \t\t\temailProfiles[emailHash].lastU...\n      SSTORE \t\t\temailProfiles[emailHash].lastU...\n      POP \t\t\temailProfiles[emailHash].lastU...\n    tag 124\t\t\tif (emailProfiles[emailHash].w...\n      JUMPDEST \t\t\tif (emailProfiles[emailHash].w...\n      DUP1 \t\t\twallet\n      PUSH 1\t\t\temailToWallet\n      PUSH 0\t\t\temailToWallet[emailHash]\n      DUP5 \t\t\temailHash\n      DUP2 \t\t\temailToWallet[emailHash]\n      MSTORE \t\t\temailToWallet[emailHash]\n      PUSH 20\t\t\temailToWallet[emailHash]\n      ADD \t\t\temailToWallet[emailHash]\n      SWAP1 \t\t\temailToWallet[emailHash]\n      DUP2 \t\t\temailToWallet[emailHash]\n      MSTORE \t\t\temailToWallet[emailHash]\n      PUSH 20\t\t\temailToWallet[emailHash]\n      ADD \t\t\temailToWallet[emailHash]\n      PUSH 0\t\t\temailToWallet[emailHash]\n      KECCAK256 \t\t\temailToWallet[emailHash]\n      PUSH 0\t\t\temailToWallet[emailHash]\n      PUSH 100\t\t\temailToWallet[emailHash] = wal...\n      EXP \t\t\temailToWallet[emailHash] = wal...\n      DUP2 \t\t\temailToWallet[emailHash] = wal...\n      SLOAD \t\t\temailToWallet[emailHash] = wal...\n      DUP2 \t\t\temailToWallet[emailHash] = wal...\n      PUSH FFFFFFFFFFFFFFFFFFFFFFFFFFFFFFFFFFFFFFFF\t\t\temailToWallet[emailHash] = wal...\n      MUL \t\t\temailToWallet[emailHash] = wal...\n      NOT \t\t\temailToWallet[emailHash] = wal...\n      AND \t\t\temailToWallet[emailHash] = wal...\n      SWAP1 \t\t\temailToWallet[emailHash] = wal...\n      DUP4 \t\t\temailToWallet[emailHash] = wal...\n      PUSH FFFFFFFFFFFFFFFFFFFFFFFFFFFFFFFFFFFFFFFF\t\t\temailToWallet[emailHash] = wal...\n      AND \t\t\temailToWallet[emailHash] = wal...\n      MUL \t\t\temailToWallet[emailHash] = wal...\n      OR \t\t\temailToWallet[emailHash] = wal...\n      SWAP1 \t\t\temailToWallet[emailHash] = wal...\n      SSTORE \t\t\temailToWallet[emailHash] = wal...\n      POP \t\t\temailToWallet[emailHash] = wal...\n      DUP1 \t\t\twallet\n      PUSH FFFFFFFFFFFFFFFFFFFFFFFFFFFFFFFFFFFFFFFF\t\t\tEmailRegistered(emailHash, wal...\n      AND \t\t\tEmailRegistered(emailHash, wal...\n      DUP3 \t\t\temailHash\n      PUSH 3E3775452C1A736BC664F4466FCAB0687388450658C0A5FDABC4DA48B96FB210\t\t\tEmailRegistered(emailHash, wal...\n      PUSH 40\t\t\tEmailRegistered(emailHash, wal...\n      MLOAD \t\t\tEmailRegistered(emailHash, wal...\n      PUSH 40\t\t\tEmailRegistered(emailHash, wal...\n      MLOAD \t\t\tEmailRegistered(emailHash, wal...\n      DUP1 \t\t\tEmailRegistered(emailHash, wal...\n      SWAP2 \t\t\tEmailRegistered(emailHash, wal...\n      SUB \t\t\tEmailRegistered(emailHash, wal...\n      SWAP1 \t\t\tEmailRegistered(emailHash, wal...\n      LOG3 \t\t\tEmailRegistered(emailHash, wal...\n      POP \t\t\tfunction registerEmail(bytes32...\n      POP \t\t\tfunction registerEmail(bytes32...\n      JUMP \t\t\tfunction registerEmail(bytes32...\n    tag 55\t\t\tfunction adminOverrideEmail(by...\n      JUMPDEST \t\t\tfunction adminOverrideEmail(by...\n      PUSH 0\t\t\towner\n      PUSH 0\t\t\towner\n      SWAP1 \t\t\towner\n      SLOAD \t\t\towner\n      SWAP1 \t\t\towner\n      PUSH 100\t\t\towner\n      EXP \t\t\towner\n      SWAP1 \t\t\towner\n      DIV \t\t\towner\n      PUSH FFFFFFFFFFFFFFFFFFFFFFFFFFFFFFFFFFFFFFFF\t\t\towner\n      AND \t\t\towner\n      PUSH FFFFFFFFFFFFFFFFFFFFFFFFFFFFFFFFFFFFFFFF\t\t\tmsg.sender == owner\n      AND \t\t\tmsg.sender == owner\n      CALLER \t\t\tmsg.sender\n      PUSH FFFFFFFFFFFFFFFFFFFFFFFFFFFFFFFFFFFFFFFF\t\t\tmsg.sender == owner\n      AND \t\t\tmsg.sender == owner\n      EQ \t\t\tmsg.sender == owner\n      PUSH [tag] 126\t\t\trequire(msg.sender == owner, \"...\n      JUMPI \t\t\trequire(msg.sender == owner, \"...\n      PUSH 40\t\t\trequire(msg.sender == owner, \"...\n      MLOAD \t\t\trequire(msg.sender == owner, \"...\n      PUSH 8C379A000000000000000000000000000000000000000000000000000000000\t\t\trequire(msg.sender == owner, \"...\n      DUP2 \t\t\trequire(msg.sender == owner, \"...\n      MSTORE \t\t\trequire(msg.sender == owner, \"...\n      PUSH 4\t\t\trequire(msg.sender == owner, \"...\n      ADD \t\t\trequire(msg.sender == owner, \"...\n      PUSH [tag] 127\t\t\trequire(msg.sender == owner, \"...\n      SWAP1 \t\t\trequire(msg.sender == owner, \"...\n      PUSH [tag] 65\t\t\trequire(msg.sender == owner, \"...\n      JUMP \t\t\trequire(msg.sender == owner, \"...\n    tag 127\t\t\trequire(msg.sender == owner, \"...\n      JUMPDEST \t\t\trequire(msg.sender == owner, \"...\n      PUSH 40\t\t\trequire(msg.sender == owner, \"...\n      MLOAD \t\t\trequire(msg.sender == owner, \"...\n      DUP1 \t\t\trequire(msg.sender == owner, \"...\n      SWAP2 \t\t\trequire(msg.sender == owner, \"...\n      SUB \t\t\trequire(msg.sender == owner, \"...\n      SWAP1 \t\t\trequire(msg.sender == owner, \"...\n      REVERT \t\t\trequire(msg.sender == owner, \"...\n    tag 126\t\t\trequire(msg.sender == owner, \"...\n      JUMPDEST \t\t\trequire(msg.sender == owner, \"...\n      PUSH 0\t\t\t0\n      PUSH FFFFFFFFFFFFFFFFFFFFFFFFFFFFFFFFFFFFFFFF\t\t\tnewWallet != address(0)\n      AND \t\t\tnewWallet != address(0)\n      DUP2 \t\t\tnewWallet\n      PUSH FFFFFFFFFFFFFFFFFFFFFFFFFFFFFFFFFFFFFFFF\t\t\tnewWallet != address(0)\n      AND \t\t\tnewWallet != address(0)\n      SUB \t\t\tnewWallet != address(0)\n      PUSH [tag] 129\t\t\trequire(newWallet != address(0...\n      JUMPI \t\t\trequire(newWallet != address(0...\n      PUSH 40\t\t\trequire(newWallet != address(0...\n      MLOAD \t\t\trequire(newWallet != address(0...\n      PUSH 8C379A000000000000000000000000000000000000000000000000000000000\t\t\trequire(newWallet != address(0...\n      DUP2 \t\t\trequire(newWallet != address(0...\n      MSTORE \t\t\trequire(newWallet != address(0...\n      PUSH 4\t\t\trequire(newWallet != address(0...\n      ADD \t\t\trequire(newWallet != address(0...\n      PUSH [tag] 130\t\t\trequire(newWallet != address(0...\n      SWAP1 \t\t\trequire(newWallet != address(0...\n      PUSH [tag] 131\t\t\trequire(newWallet != address(0...\n      JUMP \t\t\trequire(newWallet != address(0...\n    tag 130\t\t\trequire(newWallet != address(0...\n      JUMPDEST \t\t\trequire(newWallet != address(0...\n      PUSH 40\t\t\trequire(newWallet != address(0...\n      MLOAD \t\t\trequire(newWallet != address(0...\n      DUP1 \t\t\trequire(newWallet != address(0...\n      SWAP2 \t\t\trequire(newWallet != address(0...\n      SUB \t\t\trequire(newWallet != address(0...\n      SWAP1 \t\t\trequire(newWallet != address(0...\n      REVERT \t\t\trequire(newWallet != address(0...\n    tag 129\t\t\trequire(newWallet != address(0...\n      JUMPDEST \t\t\trequire(newWallet != address(0...\n      PUSH 0\t\t\tuint256 originalRegTime\n      PUSH 2\t\t\temailProfiles\n      PUSH 0\t\t\temailProfiles[emailHash]\n      DUP5 \t\t\temailHash\n      DUP2 \t\t\temailProfiles[emailHash]\n      MSTORE \t\t\temailProfiles[emailHash]\n      PUSH 20\t\t\temailProfiles[emailHash]\n      ADD \t\t\temailProfiles[emailHash]\n      SWAP1 \t\t\temailProfiles[emailHash]\n      DUP2 \t\t\temailProfiles[emailHash]\n      MSTORE \t\t\temailProfiles[emailHash]\n      PUSH 20\t\t\temailProfiles[emailHash]\n      ADD \t\t\temailProfiles[emailHash]\n      PUSH 0\t\t\temailProfiles[emailHash]\n      KECCAK256 \t\t\temailProfiles[emailHash]\n      PUSH 1\t\t\temailProfiles[emailHash].regis...\n      ADD \t\t\temailProfiles[emailHash].regis...\n      SLOAD \t\t\temailProfiles[emailHash].regis...\n      SWAP1 \t\t\tuint256 originalRegTime = emai...\n      POP \t\t\tuint256 originalRegTime = emai...\n      PUSH 40\t\t\tUserProfile({\\r\\n            w...\n      MLOAD \t\t\tUserProfile({\\r\\n            w...\n      DUP1 \t\t\tUserProfile({\\r\\n            w...\n      PUSH A0\t\t\tUserProfile({\\r\\n            w...\n      ADD \t\t\tUserProfile({\\r\\n            w...\n      PUSH 40\t\t\tUserProfile({\\r\\n            w...\n      MSTORE \t\t\tUserProfile({\\r\\n            w...\n      DUP1 \t\t\tUserProfile({\\r\\n            w...\n      DUP4 \t\t\tnewWallet\n      PUSH FFFFFFFFFFFFFFFFFFFFFFFFFFFFFFFFFFFFFFFF\t\t\tUserProfile({\\r\\n            w...\n      AND \t\t\tUserProfile({\\r\\n            w...\n      DUP2 \t\t\tUserProfile({\\r\\n            w...\n      MSTORE \t\t\tUserProfile({\\r\\n            w...\n      PUSH 20\t\t\tUserProfile({\\r\\n            w...\n      ADD \t\t\tUserProfile({\\r\\n            w...\n      PUSH 0\t\t\t0\n      DUP4 \t\t\toriginalRegTime\n      GT \t\t\toriginalRegTime > 0\n      PUSH [tag] 132\t\t\toriginalRegTime > 0 ? original...\n      JUMPI \t\t\toriginalRegTime > 0 ? original...\n      TIMESTAMP \t\t\tblock.timestamp\n      PUSH [tag] 133\t\t\toriginalRegTime > 0 ? original...\n      JUMP \t\t\toriginalRegTime > 0 ? original...\n    tag 132\t\t\toriginalRegTime > 0 ? original...\n      JUMPDEST \t\t\toriginalRegTime > 0 ? original...\n      DUP3 \t\t\toriginalRegTime\n    tag 133\t\t\toriginalRegTime > 0 ? original...\n      JUMPDEST \t\t\toriginalRegTime > 0 ? original...\n      DUP2 \t\t\tUserProfile({\\r\\n            w...\n      MSTORE \t\t\tUserProfile({\\r\\n            w...\n      PUSH 20\t\t\tUserProfile({\\r\\n            w...\n      ADD \t\t\tUserProfile({\\r\\n            w...\n      TIMESTAMP \t\t\tblock.timestamp\n      DUP2 \t\t\tUserProfile({\\r\\n            w...\n      MSTORE \t\t\tUserProfile({\\r\\n            w...\n      PUSH 20\t\t\tUserProfile({\\r\\n            w...\n      ADD \t\t\tUserProfile({\\r\\n            w...\n      PUSH 2\t\t\temailProfiles\n      PUSH 0\t\t\temailProfiles[emailHash]\n      DUP7 \t\t\temailHash\n      DUP2 \t\t\temailProfiles[emailHash]\n      MSTORE \t\t\temailProfiles[emailHash]\n      PUSH 20\t\t\temailProfiles[emailHash]\n      ADD \t\t\temailProfiles[emailHash]\n      SWAP1 \t\t\temailProfiles[emailHash]\n      DUP2 \t\t\temailProfiles[emailHash]\n      MSTORE \t\t\temailProfiles[emailHash]\n      PUSH 20\t\t\temailProfiles[emailHash]\n      ADD \t\t\temailProfiles[emailHash]\n      PUSH 0\t\t\temailProfiles[emailHash]\n      KECCAK256 \t\t\temailProfiles[emailHash]\n      PUSH 3\t\t\temailProfiles[emailHash].total...\n      ADD \t\t\temailProfiles[emailHash].total...\n      SLOAD \t\t\temailProfiles[emailHash].total...\n      DUP2 \t\t\tUserProfile({\\r\\n            w...\n      MSTORE \t\t\tUserProfile({\\r\\n            w...\n      PUSH 20\t\t\tUserProfile({\\r\\n            w...\n      ADD \t\t\tUserProfile({\\r\\n            w...\n      PUSH 2\t\t\temailProfiles\n      PUSH 0\t\t\temailProfiles[emailHash]\n      DUP7 \t\t\temailHash\n      DUP2 \t\t\temailProfiles[emailHash]\n      MSTORE \t\t\temailProfiles[emailHash]\n      PUSH 20\t\t\temailProfiles[emailHash]\n      ADD \t\t\temailProfiles[emailHash]\n      SWAP1 \t\t\temailProfiles[emailHash]\n      DUP2 \t\t\temailProfiles[emailHash]\n      MSTORE \t\t\temailProfiles[emailHash]\n      PUSH 20\t\t\temailProfiles[emailHash]\n      ADD \t\t\temailProfiles[emailHash]\n      PUSH 0\t\t\temailProfiles[emailHash]\n      KECCAK256 \t\t\temailProfiles[emailHash]\n      PUSH 4\t\t\temailProfiles[emailHash].total...\n      ADD \t\t\temailProfiles[emailHash].total...\n      SLOAD \t\t\temailProfiles[emailHash].total...\n      DUP2 \t\t\tUserProfile({\\r\\n            w...\n      MSTORE \t\t\tUserProfile({\\r\\n            w...\n      POP \t\t\tUserProfile({\\r\\n            w...\n      PUSH 2\t\t\temailProfiles\n      PUSH 0\t\t\temailProfiles[emailHash]\n      DUP6 \t\t\temailHash\n      DUP2 \t\t\temailProfiles[emailHash]\n      MSTORE \t\t\temailProfiles[emailHash]\n      PUSH 20\t\t\temailProfiles[emailHash]\n      ADD \t\t\temailProfiles[emailHash]\n      SWAP1 \t\t\temailProfiles[emailHash]\n      DUP2 \t\t\temailProfiles[emailHash]\n      MSTORE \t\t\temailProfiles[emailHash]\n      PUSH 20\t\t\temailProfiles[emailHash]\n      ADD \t\t\temailProfiles[emailHash]\n      PUSH 0\t\t\temailProfiles[emailHash]\n      KECCAK256 \t\t\temailProfiles[emailHash]\n      PUSH 0\t\t\temailProfiles[emailHash] = Use...\n      DUP3 \t\t\temailProfiles[emailHash] = Use...\n      ADD \t\t\temailProfiles[emailHash] = Use...\n      MLOAD \t\t\temailProfiles[emailHash] = Use...\n      DUP2 \t\t\temailProfiles[emailHash] = Use...\n      PUSH 0\t\t\temailProfiles[emailHash] = Use...\n      ADD \t\t\temailProfiles[emailHash] = Use...\n      PUSH 0\t\t\temailProfiles[emailHash] = Use...\n      PUSH 100\t\t\temailProfiles[emailHash] = Use...\n      EXP \t\t\temailProfiles[emailHash] = Use...\n      DUP2 \t\t\temailProfiles[emailHash] = Use...\n      SLOAD \t\t\temailProfiles[emailHash] = Use...\n      DUP2 \t\t\temailProfiles[emailHash] = Use...\n      PUSH FFFFFFFFFFFFFFFFFFFFFFFFFFFFFFFFFFFFFFFF\t\t\temailProfiles[emailHash] = Use...\n      MUL \t\t\temailProfiles[emailHash] = Use...\n      NOT \t\t\temailProfiles[emailHash] = Use...\n      AND \t\t\temailProfiles[emailHash] = Use...\n      SWAP1 \t\t\temailProfiles[emailHash] = Use...\n      DUP4 \t\t\temailProfiles[emailHash] = Use...\n      PUSH FFFFFFFFFFFFFFFFFFFFFFFFFFFFFFFFFFFFFFFF\t\t\temailProfiles[emailHash] = Use...\n      AND \t\t\temailProfiles[emailHash] = Use...\n      MUL \t\t\temailProfiles[emailHash] = Use...\n      OR \t\t\temailProfiles[emailHash] = Use...\n      SWAP1 \t\t\temailProfiles[emailHash] = Use...\n      SSTORE \t\t\temailProfiles[emailHash] = Use...\n      POP \t\t\temailProfiles[emailHash] = Use...\n      PUSH 20\t\t\temailProfiles[emailHash] = Use...\n      DUP3 \t\t\temailProfiles[emailHash] = Use...\n      ADD \t\t\temailProfiles[emailHash] = Use...\n      MLOAD \t\t\temailProfiles[emailHash] = Use...\n      DUP2 \t\t\temailProfiles[emailHash] = Use...\n      PUSH 1\t\t\temailProfiles[emailHash] = Use...\n      ADD \t\t\temailProfiles[emailHash] = Use...\n      SSTORE \t\t\temailProfiles[emailHash] = Use...\n      PUSH 40\t\t\temailProfiles[emailHash] = Use...\n      DUP3 \t\t\temailProfiles[emailHash] = Use...\n      ADD \t\t\temailProfiles[emailHash] = Use...\n      MLOAD \t\t\temailProfiles[emailHash] = Use...\n      DUP2 \t\t\temailProfiles[emailHash] = Use...\n      PUSH 2\t\t\temailProfiles[emailHash] = Use...\n      ADD \t\t\temailProfiles[emailHash] = Use...\n      SSTORE \t\t\temailProfiles[emailHash] = Use...\n      PUSH 60\t\t\temailProfiles[emailHash] = Use...\n      DUP3 \t\t\temailProfiles[emailHash] = Use...\n      ADD \t\t\temailProfiles[emailHash] = Use...\n      MLOAD \t\t\temailProfiles[emailHash] = Use...\n      DUP2 \t\t\temailProfiles[emailHash] = Use...\n      PUSH 3\t\t\temailProfiles[emailHash] = Use...\n      ADD \t\t\temailProfiles[emailHash] = Use...\n      SSTORE \t\t\temailProfiles[emailHash] = Use...\n      PUSH 80\t\t\temailProfiles[emailHash] = Use...\n      DUP3 \t\t\temailProfiles[emailHash] = Use...\n      ADD \t\t\temailProfiles[emailHash] = Use...\n      MLOAD \t\t\temailProfiles[emailHash] = Use...\n      DUP2 \t\t\temailProfiles[emailHash] = Use...\n      PUSH 4\t\t\temailProfiles[emailHash] = Use...\n      ADD \t\t\temailProfiles[emailHash] = Use...\n      SSTORE \t\t\temailProfiles[emailHash] = Use...\n      SWAP1 \t\t\temailProfiles[emailHash] = Use...\n      POP \t\t\temailProfiles[emailHash] = Use...\n      POP \t\t\temailProfiles[emailHash] = Use...\n      DUP2 \t\t\tnewWallet\n      PUSH 1\t\t\temailToWallet\n      PUSH 0\t\t\temailToWallet[emailHash]\n      DUP6 \t\t\temailHash\n      DUP2 \t\t\temailToWallet[emailHash]\n      MSTORE \t\t\temailToWallet[emailHash]\n      PUSH 20\t\t\temailToWallet[emailHash]\n      ADD \t\t\temailToWallet[emailHash]\n      SWAP1 \t\t\temailToWallet[emailHash]\n      DUP2 \t\t\temailToWallet[emailHash]\n      MSTORE \t\t\temailToWallet[emailHash]\n      PUSH 20\t\t\temailToWallet[emailHash]\n      ADD \t\t\temailToWallet[emailHash]\n      PUSH 0\t\t\temailToWallet[emailHash]\n      KECCAK256 \t\t\temailToWallet[emailHash]\n      PUSH 0\t\t\temailToWallet[emailHash]\n      PUSH 100\t\t\temailToWallet[emailHash] = new...\n      EXP \t\t\temailToWallet[emailHash] = new...\n      DUP2 \t\t\temailToWallet[emailHash] = new...\n      SLOAD \t\t\temailToWallet[emailHash] = new...\n      DUP2 \t\t\temailToWallet[emailHash] = new...\n      PUSH FFFFFFFFFFFFFFFFFFFFFFFFFFFFFFFFFFFFFFFF\t\t\temailToWallet[emailHash] = new...\n      MUL \t\t\temailToWallet[emailHash] = new...\n      NOT \t\t\temailToWallet[emailHash] = new...\n      AND \t\t\temailToWallet[emailHash] = new...\n      SWAP1 \t\t\temailToWallet[emailHash] = new...\n      DUP4 \t\t\temailToWallet[emailHash] = new...\n      PUSH FFFFFFFFFFFFFFFFFFFFFFFFFFFFFFFFFFFFFFFF\t\t\temailToWallet[emailHash] = new...\n      AND \t\t\temailToWallet[emailHash] = new...\n      MUL \t\t\temailToWallet[emailHash] = new...\n      OR \t\t\temailToWallet[emailHash] = new...\n      SWAP1 \t\t\temailToWallet[emailHash] = new...\n      SSTORE \t\t\temailToWallet[emailHash] = new...\n      POP \t\t\temailToWallet[emailHash] = new...\n      DUP2 \t\t\tnewWallet\n      PUSH FFFFFFFFFFFFFFFFFFFFFFFFFFFFFFFFFFFFFFFF\t\t\tEmailRegistered(emailHash, new...\n      AND \t\t\tEmailRegistered(emailHash, new...\n      DUP4 \t\t\temailHash\n      PUSH 3E3775452C1A736BC664F4466FCAB0687388450658C0A5FDABC4DA48B96FB210\t\t\tEmailRegistered(emailHash, new...\n      PUSH 40\t\t\tEmailRegistered(emailHash, new...\n      MLOAD \t\t\tEmailRegistered(emailHash, new...\n      PUSH 40\t\t\tEmailRegistered(emailHash, new...\n      MLOAD \t\t\tEmailRegistered(emailHash, new...\n      DUP1 \t\t\tEmailRegistered(emailHash, new...\n      SWAP2 \t\t\tEmailRegistered(emailHash, new...\n      SUB \t\t\tEmailRegistered(emailHash, new...\n      SWAP1 \t\t\tEmailRegistered(emailHash, new...\n      LOG3 \t\t\tEmailRegistered(emailHash, new...\n      POP \t\t\t{\\r\\n        require(newWallet...\n      POP \t\t\tfunction adminOverrideEmail(by...\n      POP \t\t\tfunction adminOverrideEmail(by...\n      JUMP \t\t\tfunction adminOverrideEmail(by...\n    tag 60\t\t\tfunction transferOwnership(add...\n      JUMPDEST \t\t\tfunction transferOwnership(add...\n      PUSH 0\t\t\towner\n      PUSH 0\t\t\towner\n      SWAP1 \t\t\towner\n      SLOAD \t\t\towner\n      SWAP1 \t\t\towner\n      PUSH 100\t\t\towner\n      EXP \t\t\towner\n      SWAP1 \t\t\towner\n      DIV \t\t\towner\n      PUSH FFFFFFFFFFFFFFFFFFFFFFFFFFFFFFFFFFFFFFFF\t\t\towner\n      AND \t\t\towner\n      PUSH FFFFFFFFFFFFFFFFFFFFFFFFFFFFFFFFFFFFFFFF\t\t\tmsg.sender == owner\n      AND \t\t\tmsg.sender == owner\n      CALLER \t\t\tmsg.sender\n      PUSH FFFFFFFFFFFFFFFFFFFFFFFFFFFFFFFFFFFFFFFF\t\t\tmsg.sender == owner\n      AND \t\t\tmsg.sender == owner\n      EQ \t\t\tmsg.sender == owner\n      PUSH [tag] 135\t\t\trequire(msg.sender == owner, \"...\n      JUMPI \t\t\trequire(msg.sender == owner, \"...\n      PUSH 40\t\t\trequire(msg.sender == owner, \"...\n      MLOAD \t\t\trequire(msg.sender == owner, \"...\n      PUSH 8C379A000000000000000000000000000000000000000000000000000000000\t\t\trequire(msg.sender == owner, \"...\n      DUP2 \t\t\trequire(msg.sender == owner, \"...\n      MSTORE \t\t\trequire(msg.sender == owner, \"...\n      PUSH 4\t\t\trequire(msg.sender == owner, \"...\n      ADD \t\t\trequire(msg.sender == owner, \"...\n      PUSH [tag] 136\t\t\trequire(msg.sender == owner, \"...\n      SWAP1 \t\t\trequire(msg.sender == owner, \"...\n      PUSH [tag] 65\t\t\trequire(msg.sender == owner, \"...\n      JUMP \t\t\trequire(msg.sender == owner, \"...\n    tag 136\t\t\trequire(msg.sender == owner, \"...\n      JUMPDEST \t\t\trequire(msg.sender == owner, \"...\n      PUSH 40\t\t\trequire(msg.sender == owner, \"...\n      MLOAD \t\t\trequire(msg.sender == owner, \"...\n      DUP1 \t\t\trequire(msg.sender == owner, \"...\n      SWAP2 \t\t\trequire(msg.sender == owner, \"...\n      SUB \t\t\trequire(msg.sender == owner, \"...\n      SWAP1 \t\t\trequire(msg.sender == owner, \"...\n      REVERT \t\t\trequire(msg.sender == owner, \"...\n    tag 135\t\t\trequire(msg.sender == owner, \"...\n      JUMPDEST \t\t\trequire(msg.sender == owner, \"...\n      PUSH 0\t\t\t0\n      PUSH FFFFFFFFFFFFFFFFFFFFFFFFFFFFFFFFFFFFFFFF\t\t\tnewOwner != address(0)\n      AND \t\t\tnewOwner != address(0)\n      DUP2 \t\t\tnewOwner\n      PUSH FFFFFFFFFFFFFFFFFFFFFFFFFFFFFFFFFFFFFFFF\t\t\tnewOwner != address(0)\n      AND \t\t\tnewOwner != address(0)\n      SUB \t\t\tnewOwner != address(0)\n      PUSH [tag] 138\t\t\trequire(newOwner != address(0)...\n      JUMPI \t\t\trequire(newOwner != address(0)...\n      PUSH 40\t\t\trequire(newOwner != address(0)...\n      MLOAD \t\t\trequire(newOwner != address(0)...\n      PUSH 8C379A000000000000000000000000000000000000000000000000000000000\t\t\trequire(newOwner != address(0)...\n      DUP2 \t\t\trequire(newOwner != address(0)...\n      MSTORE \t\t\trequire(newOwner != address(0)...\n      PUSH 4\t\t\trequire(newOwner != address(0)...\n      ADD \t\t\trequire(newOwner != address(0)...\n      PUSH [tag] 139\t\t\trequire(newOwner != address(0)...\n      SWAP1 \t\t\trequire(newOwner != address(0)...\n      PUSH [tag] 140\t\t\trequire(newOwner != address(0)...\n      JUMP \t\t\trequire(newOwner != address(0)...\n    tag 139\t\t\trequire(newOwner != address(0)...\n      JUMPDEST \t\t\trequire(newOwner != address(0)...\n      PUSH 40\t\t\trequire(newOwner != address(0)...\n      MLOAD \t\t\trequire(newOwner != address(0)...\n      DUP1 \t\t\trequire(newOwner != address(0)...\n      SWAP2 \t\t\trequire(newOwner != address(0)...\n      SUB \t\t\trequire(newOwner != address(0)...\n      SWAP1 \t\t\trequire(newOwner != address(0)...\n      REVERT \t\t\trequire(newOwner != address(0)...\n    tag 138\t\t\trequire(newOwner != address(0)...\n      JUMPDEST \t\t\trequire(newOwner != address(0)...\n      DUP1 \t\t\tnewOwner\n      PUSH FFFFFFFFFFFFFFFFFFFFFFFFFFFFFFFFFFFFFFFF\t\t\tOwnershipTransferred(owner, ne...\n      AND \t\t\tOwnershipTransferred(owner, ne...\n      PUSH 0\t\t\towner\n      PUSH 0\t\t\towner\n      SWAP1 \t\t\towner\n      SLOAD \t\t\towner\n      SWAP1 \t\t\towner\n      PUSH 100\t\t\towner\n      EXP \t\t\towner\n      SWAP1 \t\t\towner\n      DIV \t\t\towner\n      PUSH FFFFFFFFFFFFFFFFFFFFFFFFFFFFFFFFFFFFFFFF\t\t\towner\n      AND \t\t\towner\n      PUSH FFFFFFFFFFFFFFFFFFFFFFFFFFFFFFFFFFFFFFFF\t\t\tOwnershipTransferred(owner, ne...\n      AND \t\t\tOwnershipTransferred(owner, ne...\n      PUSH 8BE0079C531659141344CD1FD0A4F28419497F9722A3DAAFE3B4186F6B6457E0\t\t\tOwnershipTransferred(owner, ne...\n      PUSH 40\t\t\tOwnershipTransferred(owner, ne...\n      MLOAD \t\t\tOwnershipTransferred(owner, ne...\n      PUSH 40\t\t\tOwnershipTransferred(owner, ne...\n      MLOAD \t\t\tOwnershipTransferred(owner, ne...\n      DUP1 \t\t\tOwnershipTransferred(owner, ne...\n      SWAP2 \t\t\tOwnershipTransferred(owner, ne...\n      SUB \t\t\tOwnershipTransferred(owner, ne...\n      SWAP1 \t\t\tOwnershipTransferred(owner, ne...\n      LOG3 \t\t\tOwnershipTransferred(owner, ne...\n      DUP1 \t\t\tnewOwner\n      PUSH 0\t\t\towner\n      PUSH 0\t\t\towner\n      PUSH 100\t\t\towner = newOwner\n      EXP \t\t\towner = newOwner\n      DUP2 \t\t\towner = newOwner\n      SLOAD \t\t\towner = newOwner\n      DUP2 \t\t\towner = newOwner\n      PUSH FFFFFFFFFFFFFFFFFFFFFFFFFFFFFFFFFFFFFFFF\t\t\towner = newOwner\n      MUL \t\t\towner = newOwner\n      NOT \t\t\towner = newOwner\n      AND \t\t\towner = newOwner\n      SWAP1 \t\t\towner = newOwner\n      DUP4 \t\t\towner = newOwner\n      PUSH FFFFFFFFFFFFFFFFFFFFFFFFFFFFFFFFFFFFFFFF\t\t\towner = newOwner\n      AND \t\t\towner = newOwner\n      MUL \t\t\towner = newOwner\n      OR \t\t\towner = newOwner\n      SWAP1 \t\t\towner = newOwner\n      SSTORE \t\t\towner = newOwner\n      POP \t\t\towner = newOwner\n      POP \t\t\tfunction transferOwnership(add...\n      JUMP \t\t\tfunction transferOwnership(add...\n    tag 141\t\t\t-License-Identifier: MIT\\r\\npr...\n      JUMPDEST \t\t\t-License-Identifier: MIT\\r\\npr...\n      PUSH 0\t\t\tsolidi\n      PUSH 40\t\t\te \n      MLOAD \t\t\t @title E\n      SWAP1 \t\t\t\\n\\r\\n/**\\r\\n * @title E\n      POP \t\t\t\\n\\r\\n/**\\r\\n * @title E\n      SWAP1 \t\t\t-License-Identifier: MIT\\r\\npr...\n      JUMP \t\t\t-License-Identifier: MIT\\r\\npr...\n    tag 142\t\t\tegistry\\r\\n * @dev Contract fo...\n      JUMPDEST \t\t\tegistry\\r\\n * @dev Contract fo...\n      PUSH 0\t\t\ta\n      PUSH 0\t\t\to\n      REVERT \t\t\ts\\r\\n * Compat\n    tag 143\t\t\ttaMask and EIP-1193 compliant ...\n      JUMPDEST \t\t\ttaMask and EIP-1193 compliant ...\n      PUSH 0\t\t\t\\n\n      PUSH 0\t\t\t \n      REVERT \t\t\ter;\\r\\n    \\r\\n \n    tag 144\t\t\tg of keccak256 hashed emails t...\n      JUMPDEST \t\t\tg of keccak256 hashed emails t...\n      PUSH 0\t\t\tt addre\n      DUP2 \t\t\ts32 =\n      SWAP1 \t\t\tapping(bytes32 =\n      POP \t\t\tapping(bytes32 =\n      SWAP2 \t\t\tg of keccak256 hashed emails t...\n      SWAP1 \t\t\tg of keccak256 hashed emails t...\n      POP \t\t\tg of keccak256 hashed emails t...\n      JUMP \t\t\tg of keccak256 hashed emails t...\n    tag 145\t\t\trivate emailToWallet;\\r\\n    \\...\n      JUMPDEST \t\t\trivate emailToWallet;\\r\\n    \\...\n      PUSH [tag] 200\t\t\tfile {\\r\\n        address \n      DUP2 \t\t\tdress\n      PUSH [tag] 144\t\t\tfile {\\r\\n        address \n      JUMP \t\t\tfile {\\r\\n        address \n    tag 200\t\t\tfile {\\r\\n        address \n      JUMPDEST \t\t\tfile {\\r\\n        address \n      DUP2 \t\t\tUserP\n      EQ \t\t\tct UserProfile {\\r\\n        ad...\n      PUSH [tag] 201\t\t\t\\r\\n    struct UserProfile {\\r...\n      JUMPI \t\t\t\\r\\n    struct UserProfile {\\r...\n      PUSH 0\t\t\t \n      PUSH 0\t\t\t \n      REVERT \t\t\tt;\\r\\n        \n    tag 201\t\t\t\\r\\n    struct UserProfile {\\r...\n      JUMPDEST \t\t\t\\r\\n    struct UserProfile {\\r...\n      POP \t\t\trivate emailToWallet;\\r\\n    \\...\n      JUMP \t\t\trivate emailToWallet;\\r\\n    \\...\n    tag 146\t\t\teredAt;\\r\\n        uint256 las...\n      JUMPDEST \t\t\teredAt;\\r\\n        uint256 las...\n      PUSH 0\t\t\t   ui\n      DUP2 \t\t\tt256 t\n      CALLDATALOAD \t\t\t\\r\\n        uint256 to\n      SWAP1 \t\t\tReceived;\\r\\n        uint256 t...\n      POP \t\t\tReceived;\\r\\n        uint256 t...\n      PUSH [tag] 203\t\t\t\\n    }\\r\\n    \\r\\n    // Enha...\n      DUP2 \t\t\ted ma\n      PUSH [tag] 145\t\t\t\\n    }\\r\\n    \\r\\n    // Enha...\n      JUMP \t\t\t\\n    }\\r\\n    \\r\\n    // Enha...\n    tag 203\t\t\t\\n    }\\r\\n    \\r\\n    // Enha...\n      JUMPDEST \t\t\t\\n    }\\r\\n    \\r\\n    // Enha...\n      SWAP3 \t\t\teredAt;\\r\\n        uint256 las...\n      SWAP2 \t\t\teredAt;\\r\\n        uint256 las...\n      POP \t\t\teredAt;\\r\\n        uint256 las...\n      POP \t\t\teredAt;\\r\\n        uint256 las...\n      JUMP \t\t\teredAt;\\r\\n        uint256 las...\n    tag 16\t\t\tofile data\\r\\n    mapping(byte...\n      JUMPDEST \t\t\tofile data\\r\\n    mapping(byte...\n      PUSH 0\t\t\tilProf\n      PUSH 20\t\t\tRe\n      DUP3 \t\t\t event Em\n      DUP5 \t\t\tents\\r\\n \n      SUB \t\t\t/ Events\\r\\n    event Ema\n      SLT \t\t\t   // Events\\r\\n    event Emai...\n      ISZERO \t\t\t\\r\\n    // Events\\r\\n    event...\n      PUSH [tag] 205\t\t\t\\r\\n    // Events\\r\\n    event...\n      JUMPI \t\t\t\\r\\n    // Events\\r\\n    event...\n      PUSH [tag] 206\t\t\tered(bytes32 indexed emailHash...\n      PUSH [tag] 142\t\t\tered(bytes32 indexed emailHash...\n      JUMP \t\t\tered(bytes32 indexed emailHash...\n    tag 206\t\t\tered(bytes32 indexed emailHash...\n      JUMPDEST \t\t\tered(bytes32 indexed emailHash...\n    tag 205\t\t\t\\r\\n    // Events\\r\\n    event...\n      JUMPDEST \t\t\t\\r\\n    // Events\\r\\n    event...\n      PUSH 0\t\t\tn\n      PUSH [tag] 207\t\t\t56 amount);\\r\\n    event Owner...\n      DUP5 \t\t\tddress \n      DUP3 \t\t\tsferre\n      DUP6 \t\t\tnershipTr\n      ADD \t\t\tt OwnershipTransferred\n      PUSH [tag] 146\t\t\t56 amount);\\r\\n    event Owner...\n      JUMP \t\t\t56 amount);\\r\\n    event Owner...\n    tag 207\t\t\t56 amount);\\r\\n    event Owner...\n      JUMPDEST \t\t\t56 amount);\\r\\n    event Owner...\n      SWAP2 \t\t\tash, uint256 amount);\\r\\n    e...\n      POP \t\t\tash, uint256 amount);\\r\\n    e...\n      POP \t\t\texed fromEmailHash, bytes32 in...\n      SWAP3 \t\t\tofile data\\r\\n    mapping(byte...\n      SWAP2 \t\t\tofile data\\r\\n    mapping(byte...\n      POP \t\t\tofile data\\r\\n    mapping(byte...\n      POP \t\t\tofile data\\r\\n    mapping(byte...\n      JUMP \t\t\tofile data\\r\\n    mapping(byte...\n    tag 147\t\t\tddress indexed newOwner);\\r\\n ...\n      JUMPDEST \t\t\tddress indexed newOwner);\\r\\n ...\n      PUSH 0\t\t\t// Modi\n      PUSH FFFFFFFFFFFFFFFFFFFFFFFFFFFFFFFFFFFFFFFF\t\t\t\\r\\n        require(msg.sender...\n      DUP3 \t\t\tner()\n      AND \t\t\tlyOwner() {\\r\\n        require...\n      SWAP1 \t\t\tmodifier onlyOwner() {\\r\\n    ...\n      POP \t\t\tmodifier onlyOwner() {\\r\\n    ...\n      SWAP2 \t\t\tddress indexed newOwner);\\r\\n ...\n      SWAP1 \t\t\tddress indexed newOwner);\\r\\n ...\n      POP \t\t\tddress indexed newOwner);\\r\\n ...\n      JUMP \t\t\tddress indexed newOwner);\\r\\n ...\n    tag 148\t\t\tcall this function\");\\r\\n     ...\n      JUMPDEST \t\t\tcall this function\");\\r\\n     ...\n      PUSH 0\t\t\t  }\\r\\n  \n      PUSH [tag] 210\t\t\t\\r\\n    constructor() {\\r\\n \n      DUP3 \t\t\t) {\\r\\n\n      PUSH [tag] 147\t\t\t\\r\\n    constructor() {\\r\\n \n      JUMP \t\t\t\\r\\n    constructor() {\\r\\n \n    tag 210\t\t\t\\r\\n    constructor() {\\r\\n \n      JUMPDEST \t\t\t\\r\\n    constructor() {\\r\\n \n      SWAP1 \t\t\tConstructor\\r\\n    constructor...\n      POP \t\t\tConstructor\\r\\n    constructor...\n      SWAP2 \t\t\tcall this function\");\\r\\n     ...\n      SWAP1 \t\t\tcall this function\");\\r\\n     ...\n      POP \t\t\tcall this function\");\\r\\n     ...\n      JUMP \t\t\tcall this function\");\\r\\n     ...\n    tag 149\t\t\t = msg.sender;\\r\\n    }\\r\\n   ...\n      JUMPDEST \t\t\t = msg.sender;\\r\\n    }\\r\\n   ...\n      PUSH [tag] 212\t\t\t     * @param newOwner T\n      DUP2 \t\t\twner \n      PUSH [tag] 148\t\t\t     * @param newOwner T\n      JUMP \t\t\t     * @param newOwner T\n    tag 212\t\t\t     * @param newOwner T\n      JUMPDEST \t\t\t     * @param newOwner T\n      DUP3 \t\t\tess\n      MSTORE \t\t\tew address\\r\\n     * @param ne...\n      POP \t\t\t = msg.sender;\\r\\n    }\\r\\n   ...\n      POP \t\t\t = msg.sender;\\r\\n    }\\r\\n   ...\n      JUMP \t\t\t = msg.sender;\\r\\n    }\\r\\n   ...\n    tag 19\t\t\t transfer ownership to\\r\\n    ...\n      JUMPDEST \t\t\t transfer ownership to\\r\\n    ...\n      PUSH 0\t\t\tOwne\n      PUSH 20\t\t\tdd\n      DUP3 \t\t\twOwner !=\n      ADD \t\t\te(newOwner != addr\n      SWAP1 \t\t\t  require(newOwner != addr\n      POP \t\t\t  require(newOwner != addr\n      PUSH [tag] 214\t\t\tew owner cannot be zero addres...\n      PUSH 0\t\t\td\n      DUP4 \t\t\tpTransfer\n      ADD \t\t\trshipTransferred(\n      DUP5 \t\t\temit O\n      PUSH [tag] 149\t\t\tew owner cannot be zero addres...\n      JUMP \t\t\tew owner cannot be zero addres...\n    tag 214\t\t\tew owner cannot be zero addres...\n      JUMPDEST \t\t\tew owner cannot be zero addres...\n      SWAP3 \t\t\t transfer ownership to\\r\\n    ...\n      SWAP2 \t\t\t transfer ownership to\\r\\n    ...\n      POP \t\t\t transfer ownership to\\r\\n    ...\n      POP \t\t\t transfer ownership to\\r\\n    ...\n      JUMP \t\t\t transfer ownership to\\r\\n    ...\n    tag 150\t\t\tr);\\r\\n        owner = newOwne...\n      JUMPDEST \t\t\tr);\\r\\n        owner = newOwne...\n      PUSH 0\t\t\t\\r\\n    \\r\n      DUP2 \t\t\tRegis\n      SWAP1 \t\t\t    * @dev Regis\n      POP \t\t\t    * @dev Regis\n      SWAP2 \t\t\tr);\\r\\n        owner = newOwne...\n      SWAP1 \t\t\tr);\\r\\n        owner = newOwne...\n      POP \t\t\tr);\\r\\n        owner = newOwne...\n      JUMP \t\t\tr);\\r\\n        owner = newOwne...\n    tag 151\t\t\te an email-to-wallet mapping\\r...\n      JUMPDEST \t\t\te an email-to-wallet mapping\\r...\n      PUSH [tag] 217\t\t\tddress\\r\\n     * @param wa\n      DUP2 \t\t\tram w\n      PUSH [tag] 150\t\t\tddress\\r\\n     * @param wa\n      JUMP \t\t\tddress\\r\\n     * @param wa\n    tag 217\t\t\tddress\\r\\n     * @param wa\n      JUMPDEST \t\t\tddress\\r\\n     * @param wa\n      DUP3 \t\t\tail\n      MSTORE \t\t\t the email address\\r\\n     * @...\n      POP \t\t\te an email-to-wallet mapping\\r...\n      POP \t\t\te an email-to-wallet mapping\\r...\n      JUMP \t\t\te an email-to-wallet mapping\\r...\n    tag 28\t\t\tet address to associate with t...\n      JUMPDEST \t\t\tet address to associate with t...\n      PUSH 0\t\t\t    \n      PUSH A0\t\t\ted,\n      DUP3 \t\t\tdy regist\n      ADD \t\t\tlready registered, \n      SWAP1 \t\t\tail is already registered, \n      POP \t\t\tail is already registered, \n      PUSH [tag] 219\t\t\ts being updated by the current...\n      PUSH 0\t\t\te\n      DUP4 \t\t\temailProf\n      ADD \t\t\tif (emailProfiles\n      DUP9 \t\t\t\\n     \n      PUSH [tag] 149\t\t\ts being updated by the current...\n      JUMP \t\t\ts being updated by the current...\n    tag 219\t\t\ts being updated by the current...\n      JUMPDEST \t\t\ts being updated by the current...\n      PUSH [tag] 220\t\t\t.wallet != address(0)) {\\r\\n  ...\n      PUSH 20\t\t\th]\n      DUP4 \t\t\tes[emailH\n      ADD \t\t\tofiles[emailHash].\n      DUP8 \t\t\te(emai\n      PUSH [tag] 151\t\t\t.wallet != address(0)) {\\r\\n  ...\n      JUMP \t\t\t.wallet != address(0)) {\\r\\n  ...\n    tag 220\t\t\t.wallet != address(0)) {\\r\\n  ...\n      JUMPDEST \t\t\t.wallet != address(0)) {\\r\\n  ...\n      PUSH [tag] 221\t\t\tsg.sender, \"Email already regi...\n      PUSH 40\t\t\t\\r\\n\n      DUP4 \t\t\t\\r\\n       \n      ADD \t\t\tt\");\\r\\n        }\\r\\n \n      DUP7 \t\t\ther wa\n      PUSH [tag] 151\t\t\tsg.sender, \"Email already regi...\n      JUMP \t\t\tsg.sender, \"Email already regi...\n    tag 221\t\t\tsg.sender, \"Email already regi...\n      JUMPDEST \t\t\tsg.sender, \"Email already regi...\n      PUSH [tag] 222\t\t\t      // Update or create prof...\n      PUSH 60\t\t\tsh\n      DUP4 \t\t\tles[email\n      ADD \t\t\trofiles[emailHash]\n      DUP6 \t\t\tf (ema\n      PUSH [tag] 151\t\t\t      // Update or create prof...\n      JUMP \t\t\t      // Update or create prof...\n    tag 222\t\t\t      // Update or create prof...\n      JUMPDEST \t\t\t      // Update or create prof...\n      PUSH [tag] 223\t\t\taddress(0)) {\\r\\n            /...\n      PUSH 80\t\t\tfil\n      DUP4 \t\t\t   emailP\n      ADD \t\t\t       emailProfile\n      DUP5 \t\t\ton\\r\\n  \n      PUSH [tag] 151\t\t\taddress(0)) {\\r\\n            /...\n      JUMP \t\t\taddress(0)) {\\r\\n            /...\n    tag 223\t\t\taddress(0)) {\\r\\n            /...\n      JUMPDEST \t\t\taddress(0)) {\\r\\n            /...\n      SWAP7 \t\t\tet address to associate with t...\n      SWAP6 \t\t\tet address to associate with t...\n      POP \t\t\tet address to associate with t...\n      POP \t\t\tet address to associate with t...\n      POP \t\t\tet address to associate with t...\n      POP \t\t\tet address to associate with t...\n      POP \t\t\tet address to associate with t...\n      POP \t\t\tet address to associate with t...\n      JUMP \t\t\tet address to associate with t...\n    tag 34\t\t\t UserProfile({\\r\\n            ...\n      JUMPDEST \t\t\t UserProfile({\\r\\n            ...\n      PUSH 0\t\t\tistere\n      PUSH 0\t\t\tt: blo\n      PUSH 40\t\t\tt:\n      DUP4 \t\t\tlastUpdat\n      DUP6 \t\t\t       \n      SUB \t\t\t             lastUpdate\n      SLT \t\t\t\\n                lastUpdatedA...\n      ISZERO \t\t\tp,\\r\\n                lastUpda...\n      PUSH [tag] 225\t\t\tp,\\r\\n                lastUpda...\n      JUMPI \t\t\tp,\\r\\n                lastUpda...\n      PUSH [tag] 226\t\t\tck.timestamp,\\r\\n             ...\n      PUSH [tag] 142\t\t\tck.timestamp,\\r\\n             ...\n      JUMP \t\t\tck.timestamp,\\r\\n             ...\n    tag 226\t\t\tck.timestamp,\\r\\n             ...\n      JUMPDEST \t\t\tck.timestamp,\\r\\n             ...\n    tag 225\t\t\tp,\\r\\n                lastUpda...\n      JUMPDEST \t\t\tp,\\r\\n                lastUpda...\n      PUSH 0\t\t\t \n      PUSH [tag] 227\t\t\t registration\\r\\n            e...\n      DUP6 \t\t\tlHash].\n      DUP3 \t\t\tiles[e\n      DUP7 \t\t\t  emailPr\n      ADD \t\t\t      emailProfiles[em\n      PUSH [tag] 146\t\t\t registration\\r\\n            e...\n      JUMP \t\t\t registration\\r\\n            e...\n    tag 227\t\t\t registration\\r\\n            e...\n      JUMPDEST \t\t\t registration\\r\\n            e...\n      SWAP3 \t\t\te existing registration\\r\\n   ...\n      POP \t\t\te existing registration\\r\\n   ...\n      POP \t\t\t });\\r\\n        } else {\\r\\n  ...\n      PUSH 20\t\t\tas\n      PUSH [tag] 228\t\t\t.timestamp;\\r\\n        }\\r\\n  ...\n      DUP6 \t\t\tAlso up\n      DUP3 \t\t\t      \n      DUP7 \t\t\t       \\r\\n\n      ADD \t\t\t}\\r\\n        \\r\\n        /\n      PUSH [tag] 146\t\t\t.timestamp;\\r\\n        }\\r\\n  ...\n      JUMP \t\t\t.timestamp;\\r\\n        }\\r\\n  ...\n    tag 228\t\t\t.timestamp;\\r\\n        }\\r\\n  ...\n      JUMPDEST \t\t\t.timestamp;\\r\\n        }\\r\\n  ...\n      SWAP2 \t\t\tAt = block.timestamp;\\r\\n     ...\n      POP \t\t\tAt = block.timestamp;\\r\\n     ...\n      POP \t\t\t         emailProfiles[emailHa...\n      SWAP3 \t\t\t UserProfile({\\r\\n            ...\n      POP \t\t\t UserProfile({\\r\\n            ...\n      SWAP3 \t\t\t UserProfile({\\r\\n            ...\n      SWAP1 \t\t\t UserProfile({\\r\\n            ...\n      POP \t\t\t UserProfile({\\r\\n            ...\n      JUMP \t\t\t UserProfile({\\r\\n            ...\n    tag 152\t\t\tfor backward compatibility\\r\\n...\n      JUMPDEST \t\t\tfor backward compatibility\\r\\n...\n      PUSH 0\t\t\td\n      PUSH 0\t\t\te\n      REVERT \t\t\tlRegistered(\n    tag 153\t\t\tallet);\\r\\n    }\\r\\n    \\r\\n  ...\n      JUMPDEST \t\t\tallet);\\r\\n    }\\r\\n    \\r\\n  ...\n      PUSH 0\t\t\tH\n      PUSH 0\t\t\ta\n      REVERT \t\t\taram emailHa\n    tag 154\t\t\tk256 hash of the email address...\n      JUMPDEST \t\t\tk256 hash of the email address...\n      PUSH 0\t\t\teturn \n      PUSH 1F\t\t\t\\r\\n\n      NOT \t\t\tmail\\r\\n \n      PUSH 1F\t\t\thi\n      DUP4 \t\t\t with\n      ADD \t\t\tated with this\n      AND \t\t\tsociated with this email\\r\\n  \n      SWAP1 \t\t\taddress associated with this e...\n      POP \t\t\taddress associated with this e...\n      SWAP2 \t\t\tk256 hash of the email address...\n      SWAP1 \t\t\tk256 hash of the email address...\n      POP \t\t\tk256 hash of the email address...\n      JUMP \t\t\tk256 hash of the email address...\n    tag 155\t\t\tunction getWalletByEmail(bytes...\n      JUMPDEST \t\t\tunction getWalletByEmail(bytes...\n      PUSH 4E487B7100000000000000000000000000000000000000000000000000000000\t\t\tic view returns (address) {\\r\\...\n      PUSH 0\t\t\tu\n      MSTORE \t\t\tHash) public view returns (add...\n      PUSH 41\t\t\t*\\r\\n \n      PUSH 4\t\t\t \n      MSTORE \t\t\t  \\r\\n    /**\\r\\n  \n      PUSH 24\t\t\tuser\n      PUSH 0\t\t\tl\n      REVERT \t\t\t Get full user \n    tag 156\t\t\trmation\\r\\n     * @param email...\n      JUMPDEST \t\t\trmation\\r\\n     * @param email...\n      PUSH [tag] 234\t\t\teturn wallet The wallet add\n      DUP3 \t\t\tt ad\n      PUSH [tag] 154\t\t\teturn wallet The wallet add\n      JUMP \t\t\teturn wallet The wallet add\n    tag 234\t\t\teturn wallet The wallet add\n      JUMPDEST \t\t\teturn wallet The wallet add\n      DUP2 \t\t\t    * \n      ADD \t\t\ts\\r\\n     * @return wallet The...\n      DUP2 \t\t\tstamp\\r\n      DUP2 \t\t\t update ti\n      LT \t\t\tast update timestamp\\r\\n\n      PUSH FFFFFFFFFFFFFFFF\t\t\teturn lastUpdatedA\n      DUP3 \t\t\tp\\r\\n     * \n      GT \t\t\ttamp\\r\\n     * @return lastUpd...\n      OR \t\t\tmestamp\\r\\n     * @return last...\n      ISZERO \t\t\t timestamp\\r\\n     * @return l...\n      PUSH [tag] 235\t\t\t timestamp\\r\\n     * @return l...\n      JUMPI \t\t\t timestamp\\r\\n     * @return l...\n      PUSH [tag] 236\t\t\t * @return totalRe\n      PUSH [tag] 155\t\t\t * @return totalRe\n      JUMP \t\t\t * @return totalRe\n    tag 236\t\t\t * @return totalRe\n      JUMPDEST \t\t\t * @return totalRe\n    tag 235\t\t\t timestamp\\r\\n     * @return l...\n      JUMPDEST \t\t\t timestamp\\r\\n     * @return l...\n      DUP1 \t\t\tved\\r\\n     \n      PUSH 40\t\t\tec\n      MSTORE \t\t\tl ETH received\\r\\n     *\n      POP \t\t\t256 hash of the email address\\...\n      POP \t\t\trmation\\r\\n     * @param email...\n      POP \t\t\trmation\\r\\n     * @param email...\n      JUMP \t\t\trmation\\r\\n     * @param email...\n    tag 157\t\t\talSent Total ETH sent\\r\\n     ...\n      JUMPDEST \t\t\talSent Total ETH sent\\r\\n     ...\n      PUSH 0\t\t\t  func\n      PUSH [tag] 238\t\t\tytes32 emailHash) pu\n      PUSH [tag] 141\t\t\tytes32 emailHash) pu\n      JUMP \t\t\tytes32 emailHash) pu\n    tag 238\t\t\tytes32 emailHash) pu\n      JUMPDEST \t\t\tytes32 emailHash) pu\n      SWAP1 \t\t\trProfile(bytes32 emailHash) pu\n      POP \t\t\trProfile(bytes32 emailHash) pu\n      PUSH [tag] 239\t\t\t returns (\\r\\n        address ...\n      DUP3 \t\t\twall\n      DUP3 \t\t\taddres\n      PUSH [tag] 156\t\t\t returns (\\r\\n        address ...\n      JUMP \t\t\t returns (\\r\\n        address ...\n    tag 239\t\t\t returns (\\r\\n        address ...\n      JUMPDEST \t\t\t returns (\\r\\n        address ...\n      SWAP2 \t\t\talSent Total ETH sent\\r\\n     ...\n      SWAP1 \t\t\talSent Total ETH sent\\r\\n     ...\n      POP \t\t\talSent Total ETH sent\\r\\n     ...\n      JUMP \t\t\talSent Total ETH sent\\r\\n     ...\n    tag 158\t\t\tuint256 registeredAt,\\r\\n     ...\n      JUMPDEST \t\t\tuint256 registeredAt,\\r\\n     ...\n      PUSH 0\t\t\t uin\n      PUSH FFFFFFFFFFFFFFFF\t\t\tofile = emailProfi\n      DUP3 \t\t\temory \n      GT \t\t\te memory profile = emailProfil\n      ISZERO \t\t\tfile memory profile = emailPro...\n      PUSH [tag] 241\t\t\tfile memory profile = emailPro...\n      JUMPI \t\t\tfile memory profile = emailPro...\n      PUSH [tag] 242\t\t\temailHash];\\r\\n     \n      PUSH [tag] 155\t\t\temailHash];\\r\\n     \n      JUMP \t\t\temailHash];\\r\\n     \n    tag 242\t\t\temailHash];\\r\\n     \n      JUMPDEST \t\t\temailHash];\\r\\n     \n    tag 241\t\t\tfile memory profile = emailPro...\n      JUMPDEST \t\t\tfile memory profile = emailPro...\n      PUSH [tag] 243\t\t\t     profile.wallet,\\r\\n      ...\n      DUP3 \t\t\t      \n      PUSH [tag] 154\t\t\t     profile.wallet,\\r\\n      ...\n      JUMP \t\t\t     profile.wallet,\\r\\n      ...\n    tag 243\t\t\t     profile.wallet,\\r\\n      ...\n      JUMPDEST \t\t\t     profile.wallet,\\r\\n      ...\n      SWAP1 \t\t\t\\n            profile.wallet,\\...\n      POP \t\t\t\\n            profile.wallet,\\...\n      PUSH 20\t\t\tated\n      DUP2 \t\t\tastU\n      ADD \t\t\tle.lastUpdatedA\n      SWAP1 \t\t\t   profile.lastUpdatedA\n      POP \t\t\t   profile.lastUpdatedA\n      SWAP2 \t\t\tuint256 registeredAt,\\r\\n     ...\n      SWAP1 \t\t\tuint256 registeredAt,\\r\\n     ...\n      POP \t\t\tuint256 registeredAt,\\r\\n     ...\n      JUMP \t\t\tuint256 registeredAt,\\r\\n     ...\n    tag 159\t\t\t   profile.totalReceived,\\r\\n ...\n      JUMPDEST \t\t\t   profile.totalReceived,\\r\\n ...\n      DUP3 \t\t\t @dev \n      DUP2 \t\t\t   \n      DUP4 \t\t\t**\\r\n      CALLDATACOPY \t\t\t\\r\\n    \\r\\n    /**\\r\\n     * ...\n      PUSH 0\t\t\th\n      DUP4 \t\t\tl to a\n      DUP4 \t\t\t em\n      ADD \t\t\t one email to an\n      MSTORE \t\t\tnt from one email to anothe\n      POP \t\t\t   profile.totalReceived,\\r\\n ...\n      POP \t\t\t   profile.totalReceived,\\r\\n ...\n      POP \t\t\t   profile.totalReceived,\\r\\n ...\n      JUMP \t\t\t   profile.totalReceived,\\r\\n ...\n    tag 160\t\t\tram fromEmailHash The sender's...\n      JUMPDEST \t\t\tram fromEmailHash The sender's...\n      PUSH 0\t\t\tient'\n      PUSH [tag] 246\t\t\t/\\r\\n    function sendPaymentB...\n      PUSH [tag] 247\t\t\tsendPaymentByEmail(bytes32 fro...\n      DUP5 \t\t\tbytes3\n      PUSH [tag] 158\t\t\tsendPaymentByEmail(bytes32 fro...\n      JUMP \t\t\tsendPaymentByEmail(bytes32 fro...\n    tag 247\t\t\tsendPaymentByEmail(bytes32 fro...\n      JUMPDEST \t\t\tsendPaymentByEmail(bytes32 fro...\n      PUSH [tag] 157\t\t\t/\\r\\n    function sendPaymentB...\n      JUMP \t\t\t/\\r\\n    function sendPaymentB...\n    tag 246\t\t\t/\\r\\n    function sendPaymentB...\n      JUMPDEST \t\t\t/\\r\\n    function sendPaymentB...\n      SWAP1 \t\t\th\\r\\n     */\\r\\n    function s...\n      POP \t\t\th\\r\\n     */\\r\\n    function s...\n      DUP3 \t\t\table {\n      DUP2 \t\t\tlic p\n      MSTORE \t\t\tsh) public payable {\\r\n      PUSH 20\t\t\tet =\n      DUP2 \t\t\t toWa\n      ADD \t\t\table toWallet = \n      DUP5 \t\t\t].w\n      DUP5 \t\t\tEmailH\n      DUP5 \t\t\tes[\n      ADD \t\t\tofiles[toEmailHa\n      GT \t\t\tlProfiles[toEmailHash].wa\n      ISZERO \t\t\tmailProfiles[toEmailHash].wall...\n      PUSH [tag] 248\t\t\tmailProfiles[toEmailHash].wall...\n      JUMPI \t\t\tmailProfiles[toEmailHash].wall...\n      PUSH [tag] 249\t\t\tt);\\r\\n        require(toWalle...\n      PUSH [tag] 153\t\t\tt);\\r\\n        require(toWalle...\n      JUMP \t\t\tt);\\r\\n        require(toWalle...\n    tag 249\t\t\tt);\\r\\n        require(toWalle...\n      JUMPDEST \t\t\tt);\\r\\n        require(toWalle...\n    tag 248\t\t\tmailProfiles[toEmailHash].wall...\n      JUMPDEST \t\t\tmailProfiles[toEmailHash].wall...\n      PUSH [tag] 250\t\t\t\\n        // Either the sender...\n      DUP5 \t\t\ttered \n      DUP3 \t\t\treg\n      DUP6 \t\t\t th\n      PUSH [tag] 159\t\t\t\\n        // Either the sender...\n      JUMP \t\t\t\\n        // Either the sender...\n    tag 250\t\t\t\\n        // Either the sender...\n      JUMPDEST \t\t\t\\n        // Either the sender...\n      POP \t\t\t email hash\\r\\n     */\\r\\n    ...\n      SWAP4 \t\t\tram fromEmailHash The sender's...\n      SWAP3 \t\t\tram fromEmailHash The sender's...\n      POP \t\t\tram fromEmailHash The sender's...\n      POP \t\t\tram fromEmailHash The sender's...\n      POP \t\t\tram fromEmailHash The sender's...\n      JUMP \t\t\tram fromEmailHash The sender's...\n    tag 161\t\t\t the contract owner\\r\\n       ...\n      JUMPDEST \t\t\t the contract owner\\r\\n       ...\n      PUSH 0\t\t\tender\n      DUP3 \t\t\tsg.\n      PUSH 1F\t\t\tet |\n      DUP4 \t\t\tsh].wa\n      ADD \t\t\tilHash].wallet ||\n      SLT \t\t\tmEmailHash].wallet || msg.s\n      PUSH [tag] 252\t\t\tofiles[fromEmailHash].wallet |...\n      JUMPI \t\t\tofiles[fromEmailHash].wallet |...\n      PUSH [tag] 253\t\t\tr == owner,\\r\\n            \"Se...\n      PUSH [tag] 152\t\t\tr == owner,\\r\\n            \"Se...\n      JUMP \t\t\tr == owner,\\r\\n            \"Se...\n    tag 253\t\t\tr == owner,\\r\\n            \"Se...\n      JUMPDEST \t\t\tr == owner,\\r\\n            \"Se...\n    tag 252\t\t\tofiles[fromEmailHash].wallet |...\n      JUMPDEST \t\t\tofiles[fromEmailHash].wallet |...\n      DUP2 \t\t\t      \n      CALLDATALOAD \t\t\t statistics\\r\\n       \n      PUSH [tag] 254\t\t\tmEmailHash].totalSent += msg.v...\n      DUP5 \t\t\talR\n      DUP3 \t\t\tash].t\n      PUSH 20\t\t\toEma\n      DUP7 \t\t\tofiles\n      ADD \t\t\tilProfiles[toEmai\n      PUSH [tag] 160\t\t\tmEmailHash].totalSent += msg.v...\n      JUMP \t\t\tmEmailHash].totalSent += msg.v...\n    tag 254\t\t\tmEmailHash].totalSent += msg.v...\n      JUMPDEST \t\t\tmEmailHash].totalSent += msg.v...\n      SWAP2 \t\t\tfiles[fromEmailHash].totalSent...\n      POP \t\t\tfiles[fromEmailHash].totalSent...\n      POP \t\t\t== emailProfiles[fromEmailHash...\n      SWAP3 \t\t\t the contract owner\\r\\n       ...\n      SWAP2 \t\t\t the contract owner\\r\\n       ...\n      POP \t\t\t the contract owner\\r\\n       ...\n      POP \t\t\t the contract owner\\r\\n       ...\n      JUMP \t\t\t the contract owner\\r\\n       ...\n    tag 39\t\t\tg.value;\\r\\n        \\r\\n      ...\n      JUMPDEST \t\t\tg.value;\\r\\n        \\r\\n      ...\n      PUSH 0\t\t\ttoWall\n      PUSH 20\t\t\tui\n      DUP3 \t\t\t\\n        \n      DUP5 \t\t\tue}(\"\")\n      SUB \t\t\t.value}(\"\");\\r\\n        r\n      SLT \t\t\t msg.value}(\"\");\\r\\n        re...\n      ISZERO \t\t\tue: msg.value}(\"\");\\r\\n       ...\n      PUSH [tag] 256\t\t\tue: msg.value}(\"\");\\r\\n       ...\n      JUMPI \t\t\tue: msg.value}(\"\");\\r\\n       ...\n      PUSH [tag] 257\t\t\tent, \"Failed to send payment\")...\n      PUSH [tag] 142\t\t\tent, \"Failed to send payment\")...\n      JUMP \t\t\tent, \"Failed to send payment\")...\n    tag 257\t\t\tent, \"Failed to send payment\")...\n      JUMPDEST \t\t\tent, \"Failed to send payment\")...\n    tag 256\t\t\tue: msg.value}(\"\");\\r\\n       ...\n      JUMPDEST \t\t\tue: msg.value}(\"\");\\r\\n       ...\n      PUSH 0\t\t\tp\n      DUP3 \t\t\t @dev Sen\n      ADD \t\t\t   * @dev Send pa\n      CALLDATALOAD \t\t\t\\r\\n    /**\\r\\n     * @dev Sen...\n      PUSH FFFFFFFFFFFFFFFF\t\t\tddress\\r\\n     * @pa\n      DUP2 \t\t\t email\n      GT \t\t\t an email address\\r\\n     * @p...\n      ISZERO \t\t\t to an email address\\r\\n     *...\n      PUSH [tag] 258\t\t\t to an email address\\r\\n     *...\n      JUMPI \t\t\t to an email address\\r\\n     *...\n      PUSH [tag] 259\t\t\ttoEmailHash The recipient's em...\n      PUSH [tag] 143\t\t\ttoEmailHash The recipient's em...\n      JUMP \t\t\ttoEmailHash The recipient's em...\n    tag 259\t\t\ttoEmailHash The recipient's em...\n      JUMPDEST \t\t\ttoEmailHash The recipient's em...\n    tag 258\t\t\t to an email address\\r\\n     *...\n      JUMPDEST \t\t\t to an email address\\r\\n     *...\n      PUSH [tag] 260\t\t\tlic payable {\\r\\n        addre...\n      DUP5 \t\t\tle(emai\n      DUP3 \t\t\tt = pa\n      DUP6 \t\t\tble toWal\n      ADD \t\t\tpayable toWallet = pay\n      PUSH [tag] 161\t\t\tlic payable {\\r\\n        addre...\n      JUMP \t\t\tlic payable {\\r\\n        addre...\n    tag 260\t\t\tlic payable {\\r\\n        addre...\n      JUMPDEST \t\t\tlic payable {\\r\\n        addre...\n      SWAP2 \t\t\tlHash) public payable {\\r\\n   ...\n      POP \t\t\tlHash) public payable {\\r\\n   ...\n      POP \t\t\tash, msg.value);\\r\\n    }\\r\\n ...\n      SWAP3 \t\t\tg.value;\\r\\n        \\r\\n      ...\n      SWAP2 \t\t\tg.value;\\r\\n        \\r\\n      ...\n      POP \t\t\tg.value;\\r\\n        \\r\\n      ...\n      POP \t\t\tg.value;\\r\\n        \\r\\n      ...\n      JUMP \t\t\tg.value;\\r\\n        \\r\\n      ...\n    tag 162\t\t\tallet);\\r\\n        require(toW...\n      JUMPDEST \t\t\tallet);\\r\\n        require(toW...\n      PUSH [tag] 262\t\t\t      \\r\\n        // Calcu\n      DUP2 \t\t\t Calc\n      PUSH [tag] 144\t\t\t      \\r\\n        // Calcu\n      JUMP \t\t\t      \\r\\n        // Calcu\n    tag 262\t\t\t      \\r\\n        // Calcu\n      JUMPDEST \t\t\t      \\r\\n        // Calcu\n      DUP3 \t\t\t;\\r\\n\n      MSTORE \t\t\ttered\");\\r\\n        \\r\\n      ...\n      POP \t\t\tallet);\\r\\n        require(toW...\n      POP \t\t\tallet);\\r\\n        require(toW...\n      JUMP \t\t\tallet);\\r\\n        require(toW...\n    tag 42\t\t\t email hash (if registered)\\r\\...\n      JUMPDEST \t\t\t email hash (if registered)\\r\\...\n      PUSH 0\t\t\t= fa\n      PUSH 20\t\t\t s\n      DUP3 \t\t\t // Find \n      ADD \t\t\t     // Find if se\n      SWAP1 \t\t\t   \\r\\n        // Find if se\n      POP \t\t\t   \\r\\n        // Find if se\n      PUSH [tag] 264\t\t\tgistered with any email\\r\\n   ...\n      PUSH 0\t\t\t \n      DUP4 \t\t\t i++) {\\r\\n\n      ADD \t\t\t 10; i++) {\\r\\n    \n      DUP5 \t\t\t = 0; \n      PUSH [tag] 162\t\t\tgistered with any email\\r\\n   ...\n      JUMP \t\t\tgistered with any email\\r\\n   ...\n    tag 264\t\t\tgistered with any email\\r\\n   ...\n      JUMPDEST \t\t\tgistered with any email\\r\\n   ...\n      SWAP3 \t\t\t email hash (if registered)\\r\\...\n      SWAP2 \t\t\t email hash (if registered)\\r\\...\n      POP \t\t\t email hash (if registered)\\r\\...\n      POP \t\t\t email hash (if registered)\\r\\...\n      JUMP \t\t\t email hash (if registered)\\r\\...\n    tag 163\t\t\ts is inefficient but works for...\n      JUMPDEST \t\t\ts is inefficient but works for...\n      PUSH [tag] 266\t\t\tnvironment, you would us\n      DUP2 \t\t\tuld u\n      PUSH [tag] 148\t\t\tnvironment, you would us\n      JUMP \t\t\tnvironment, you would us\n    tag 266\t\t\tnvironment, you would us\n      JUMPDEST \t\t\tnvironment, you would us\n      DUP2 \t\t\tction\n      EQ \t\t\toduction environment, you woul...\n      PUSH [tag] 267\t\t\t// In a production environment...\n      JUMPI \t\t\t// In a production environment...\n      PUSH 0\t\t\tk\n      PUSH 0\t\t\tl\n      REVERT \t\t\teverse looku\n    tag 267\t\t\t// In a production environment...\n      JUMPDEST \t\t\t// In a production environment...\n      POP \t\t\ts is inefficient but works for...\n      JUMP \t\t\ts is inefficient but works for...\n    tag 164\t\t\tdex\\r\\n            bytes32 tes...\n      JUMPDEST \t\t\tdex\\r\\n            bytes32 tes...\n      PUSH 0\t\t\tabi.e\n      DUP2 \t\t\t      \n      CALLDATALOAD \t\t\tlder\", i));\\r\\n       \n      SWAP1 \t\t\t(\"placeholder\", i));\\r\\n      ...\n      POP \t\t\t(\"placeholder\", i));\\r\\n      ...\n      PUSH [tag] 269\t\t\temailProfiles[testHash].wallet...\n      DUP2 \t\t\tlet =\n      PUSH [tag] 163\t\t\temailProfiles[testHash].wallet...\n      JUMP \t\t\temailProfiles[testHash].wallet...\n    tag 269\t\t\temailProfiles[testHash].wallet...\n      JUMPDEST \t\t\temailProfiles[testHash].wallet...\n      SWAP3 \t\t\tdex\\r\\n            bytes32 tes...\n      SWAP2 \t\t\tdex\\r\\n            bytes32 tes...\n      POP \t\t\tdex\\r\\n            bytes32 tes...\n      POP \t\t\tdex\\r\\n            bytes32 tes...\n      JUMP \t\t\tdex\\r\\n            bytes32 tes...\n    tag 50\t\t\t {\\r\\n                fromEmai...\n      JUMPDEST \t\t\t {\\r\\n                fromEmai...\n      PUSH 0\t\t\trIsReg\n      PUSH 0\t\t\ttered \n      PUSH 40\t\t\t  \n      DUP4 \t\t\t\\r\\n       \n      DUP6 \t\t\t   brea\n      SUB \t\t\t       break;\\r\\n        \n      SLT \t\t\t           break;\\r\\n         ...\n      ISZERO \t\t\t              break;\\r\\n      ...\n      PUSH [tag] 271\t\t\t              break;\\r\\n      ...\n      JUMPI \t\t\t              break;\\r\\n      ...\n      PUSH [tag] 272\t\t\t       }\\r\\n        \\r\\n      ...\n      PUSH [tag] 142\t\t\t       }\\r\\n        \\r\\n      ...\n      JUMP \t\t\t       }\\r\\n        \\r\\n      ...\n    tag 272\t\t\t       }\\r\\n        \\r\\n      ...\n      JUMPDEST \t\t\t       }\\r\\n        \\r\\n      ...\n    tag 271\t\t\t              break;\\r\\n      ...\n      JUMPDEST \t\t\t              break;\\r\\n      ...\n      PUSH 0\t\t\t \n      PUSH [tag] 273\t\t\tash].totalSent += msg.value;\\r...\n      DUP6 \t\t\t    \\r\\n \n      DUP3 \t\t\t  }\\r\\n \n      DUP7 \t\t\tue;\\r\\n    \n      ADD \t\t\t.value;\\r\\n        }\\r\\n  \n      PUSH [tag] 146\t\t\tash].totalSent += msg.value;\\r...\n      JUMP \t\t\tash].totalSent += msg.value;\\r...\n    tag 273\t\t\tash].totalSent += msg.value;\\r...\n      JUMPDEST \t\t\tash].totalSent += msg.value;\\r...\n      SWAP3 \t\t\tfromEmailHash].totalSent += ms...\n      POP \t\t\tfromEmailHash].totalSent += ms...\n      POP \t\t\trIsRegistered) {\\r\\n          ...\n      PUSH 20\t\t\tma\n      PUSH [tag] 274\t\t\ttotalReceived += msg.value;\\r\\...\n      DUP6 \t\t\t  // Se\n      DUP3 \t\t\t \\r\\n   \n      DUP7 \t\t\te;\\r\\n     \n      ADD \t\t\tvalue;\\r\\n        \\r\\n    \n      PUSH [tag] 164\t\t\ttotalReceived += msg.value;\\r\\...\n      JUMP \t\t\ttotalReceived += msg.value;\\r\\...\n    tag 274\t\t\ttotalReceived += msg.value;\\r\\...\n      JUMPDEST \t\t\ttotalReceived += msg.value;\\r\\...\n      SWAP2 \t\t\tmailHash].totalReceived += msg...\n      POP \t\t\tmailHash].totalReceived += msg...\n      POP \t\t\tte recipient stats\\r\\n        ...\n      SWAP3 \t\t\t {\\r\\n                fromEmai...\n      POP \t\t\t {\\r\\n                fromEmai...\n      SWAP3 \t\t\t {\\r\\n                fromEmai...\n      SWAP1 \t\t\t {\\r\\n                fromEmai...\n      POP \t\t\t {\\r\\n                fromEmai...\n      JUMP \t\t\t {\\r\\n                fromEmai...\n    tag 59\t\t\tl sent, ) = toWallet.call{valu...\n      JUMPDEST \t\t\tl sent, ) = toWallet.call{valu...\n      PUSH 0\t\t\tequire\n      PUSH 20\t\t\t\\r\\n\n      DUP3 \t\t\t);\\r\\n     \n      DUP5 \t\t\t paymen\n      SUB \t\t\tsend payment\");\\r\\n      \n      SLT \t\t\t to send payment\");\\r\\n       ...\n      ISZERO \t\t\tled to send payment\");\\r\\n    ...\n      PUSH [tag] 276\t\t\tled to send payment\");\\r\\n    ...\n      JUMPI \t\t\tled to send payment\");\\r\\n    ...\n      PUSH [tag] 277\t\t\t    emit PaymentSent(\\r\\n     ...\n      PUSH [tag] 142\t\t\t    emit PaymentSent(\\r\\n     ...\n      JUMP \t\t\t    emit PaymentSent(\\r\\n     ...\n    tag 277\t\t\t    emit PaymentSent(\\r\\n     ...\n      JUMPDEST \t\t\t    emit PaymentSent(\\r\\n     ...\n    tag 276\t\t\tled to send payment\");\\r\\n    ...\n      JUMPDEST \t\t\tled to send payment\");\\r\\n    ...\n      PUSH 0\t\t\t \n      PUSH [tag] 278\t\t\t\\n    }\\r\\n    \\r\\n    /**\\r\\n...\n      DUP5 \t\t\tnction \n      DUP3 \t\t\ttility\n      DUP6 \t\t\t   * @dev\n      ADD \t\t\t\\r\\n     * @dev Utility \n      PUSH [tag] 164\t\t\t\\n    }\\r\\n    \\r\\n    /**\\r\\n...\n      JUMP \t\t\t\\n    }\\r\\n    \\r\\n    /**\\r\\n...\n    tag 278\t\t\t\\n    }\\r\\n    \\r\\n    /**\\r\\n...\n      JUMPDEST \t\t\t\\n    }\\r\\n    \\r\\n    /**\\r\\n...\n      SWAP2 \t\t\t       );\\r\\n    }\\r\\n    \\r\\n...\n      POP \t\t\t       );\\r\\n    }\\r\\n    \\r\\n...\n      POP \t\t\t      toEmailHash,\\r\\n        ...\n      SWAP3 \t\t\tl sent, ) = toWallet.call{valu...\n      SWAP2 \t\t\tl sent, ) = toWallet.call{valu...\n      POP \t\t\tl sent, ) = toWallet.call{valu...\n      POP \t\t\tl sent, ) = toWallet.call{valu...\n      JUMP \t\t\tl sent, ) = toWallet.call{valu...\n    tag 165\t\t\tfchain\\r\\n     * @param email ...\n      JUMPDEST \t\t\tfchain\\r\\n     * @param email ...\n      PUSH 0\t\t\t256 hash of\n      DUP3 \t\t\t  func\n      DUP3 \t\t\t/\\r\\n\n      MSTORE \t\t\t\\n     */\\r\\n    funct\n      PUSH 20\t\t\ty em\n      DUP3 \t\t\tmem\n      ADD \t\t\ting memory ema\n      SWAP1 \t\t\tteEmailHash(string memory ema\n      POP \t\t\tteEmailHash(string memory ema\n      SWAP3 \t\t\tfchain\\r\\n     * @param email ...\n      SWAP2 \t\t\tfchain\\r\\n     * @param email ...\n      POP \t\t\tfchain\\r\\n     * @param email ...\n      POP \t\t\tfchain\\r\\n     * @param email ...\n      JUMP \t\t\tfchain\\r\\n     * @param email ...\n    tag 166\t\t\ture returns (bytes32) {\\r\\n   ...\n      JUMPDEST \t\t\ture returns (bytes32) {\\r\\n   ...\n      PUSH 4F6E6C79206F776E65722063616E2063616C6C20746869732066756E6374696F\t\t\tly sent to the contract\\r\\n   ...\n      PUSH 0\t\t\tn\n      DUP3 \t\t\ts acci\n      ADD \t\t\tfunds accident\n      MSTORE \t\t\taw any funds accidentally sent...\n      PUSH 6E00000000000000000000000000000000000000000000000000000000000000\t\t\tOwn\n      PUSH 20\t\t\t o\n      DUP3 \t\t\t) publ\n      ADD \t\t\traw() public on\n      MSTORE \t\t\tn withdraw() public onlyOwne\n      POP \t\t\ture returns (bytes32) {\\r\\n   ...\n      JUMP \t\t\ture returns (bytes32) {\\r\\n   ...\n    tag 167\t\t\tpayable(owner).transfer(addres...\n      JUMPDEST \t\t\tpayable(owner).transfer(addres...\n      PUSH 0\t\t\t* O\n      PUSH [tag] 282\t\t\tsomeone loses access to their ...\n      PUSH 21\t\t\tnO\n      DUP4 \t\t\t ad\n      PUSH [tag] 165\t\t\tsomeone loses access to their ...\n      JUMP \t\t\tsomeone loses access to their ...\n    tag 282\t\t\tsomeone loses access to their ...\n      JUMPDEST \t\t\tsomeone loses access to their ...\n      SWAP2 \t\t\tsed if someone loses access to...\n      POP \t\t\tsed if someone loses access to...\n      PUSH [tag] 283\t\t\til(bytes32 emailHash, address ...\n      DUP3 \t\t\t ad\n      PUSH [tag] 166\t\t\til(bytes32 emailHash, address ...\n      JUMP \t\t\til(bytes32 emailHash, address ...\n    tag 283\t\t\til(bytes32 emailHash, address ...\n      JUMPDEST \t\t\til(bytes32 emailHash, address ...\n      PUSH 40\t\t\t a\n      DUP3 \t\t\t ze\n      ADD \t\t\t set zero ad\n      SWAP1 \t\t\t\"Cannot set zero ad\n      POP \t\t\t\"Cannot set zero ad\n      SWAP2 \t\t\tpayable(owner).transfer(addres...\n      SWAP1 \t\t\tpayable(owner).transfer(addres...\n      POP \t\t\tpayable(owner).transfer(addres...\n      JUMP \t\t\tpayable(owner).transfer(addres...\n    tag 65\t\t\t      \\r\\n        // Keep the ...\n      JUMPDEST \t\t\t      \\r\\n        // Keep the ...\n      PUSH 0\t\t\tilPr\n      PUSH 20\t\t\t\\n \n      DUP3 \t\t\trProfile(\n      ADD \t\t\t UserProfile({\\r\\n  \n      SWAP1 \t\t\tlHash] = UserProfile({\\r\\n  \n      POP \t\t\tlHash] = UserProfile({\\r\\n  \n      DUP2 \t\t\tsteredAt:\n      DUP2 \t\t\t  re\n      SUB \t\t\t      registeredAt: \n      PUSH 0\t\t\t \n      DUP4 \t\t\tWallet,\\r\\n\n      ADD \t\t\t newWallet,\\r\\n    \n      MSTORE \t\t\twallet: newWallet,\\r\\n        ...\n      PUSH [tag] 285\t\t\t0 ? originalRegTime : block.ti...\n      DUP2 \t\t\temai\n      PUSH [tag] 167\t\t\t0 ? originalRegTime : block.ti...\n      JUMP \t\t\t0 ? originalRegTime : block.ti...\n    tag 285\t\t\t0 ? originalRegTime : block.ti...\n      JUMPDEST \t\t\t0 ? originalRegTime : block.ti...\n      SWAP1 \t\t\tgTime > 0 ? originalRegTime : ...\n      POP \t\t\tgTime > 0 ? originalRegTime : ...\n      SWAP2 \t\t\t      \\r\\n        // Keep the ...\n      SWAP1 \t\t\t      \\r\\n        // Keep the ...\n      POP \t\t\t      \\r\\n        // Keep the ...\n      JUMP \t\t\t      \\r\\n        // Keep the ...\n    tag 168\t\t\tceived,\\r\\n            totalSe...\n      JUMPDEST \t\t\tceived,\\r\\n            totalSe...\n      PUSH 526563697069656E7420656D61696C206E6F7420726567697374657265640000\t\t\tailToWallet[emailHash] = newWa...\n      PUSH 0\t\t\t \n      DUP3 \t\t\t\\r\\n    \n      ADD \t\t\tping\\r\\n        \n      MSTORE \t\t\tple mapping\\r\\n        emailTo...\n      POP \t\t\tceived,\\r\\n            totalSe...\n      JUMP \t\t\tceived,\\r\\n            totalSe...\n    tag 169\t\t\t\\n        emit EmailRegistered...\n      JUMPDEST \t\t\t\\n        emit EmailRegistered...\n      PUSH 0\t\t\t\n      PUSH [tag] 288\t\t\t\n      PUSH 1E\t\t\t\n      DUP4 \t\t\t\n      PUSH [tag] 165\t\t\t\n      JUMP \t\t\t\n    tag 288\t\t\t\n      JUMPDEST \t\t\t\n      SWAP2 \t\t\t\n      POP \t\t\t\n      PUSH [tag] 289\t\t\t\n      DUP3 \t\t\t\n      PUSH [tag] 168\t\t\t\n      JUMP \t\t\t\n    tag 289\t\t\t\n      JUMPDEST \t\t\t\n      PUSH 20\t\t\t\n      DUP3 \t\t\t\n      ADD \t\t\t\n      SWAP1 \t\t\t\n      POP \t\t\t\n      SWAP2 \t\t\t\\n        emit EmailRegistered...\n      SWAP1 \t\t\t\\n        emit EmailRegistered...\n      POP \t\t\t\\n        emit EmailRegistered...\n      JUMP \t\t\t\\n        emit EmailRegistered...\n    tag 73\t\t\t\n      JUMPDEST \t\t\t\n      PUSH 0\t\t\t\n      PUSH 20\t\t\t\n      DUP3 \t\t\t\n      ADD \t\t\t\n      SWAP1 \t\t\t\n      POP \t\t\t\n      DUP2 \t\t\t\n      DUP2 \t\t\t\n      SUB \t\t\t\n      PUSH 0\t\t\t\n      DUP4 \t\t\t\n      ADD \t\t\t\n      MSTORE \t\t\t\n      PUSH [tag] 291\t\t\t\n      DUP2 \t\t\t\n      PUSH [tag] 169\t\t\t\n      JUMP \t\t\t\n    tag 291\t\t\t\n      JUMPDEST \t\t\t\n      SWAP1 \t\t\t\n      POP \t\t\t\n      SWAP2 \t\t\t\n      SWAP1 \t\t\t\n      POP \t\t\t\n      JUMP \t\t\t\n    tag 170\t\t\t\n      JUMPDEST \t\t\t\n      PUSH 0\t\t\t\n      DUP2 \t\t\t\n      SWAP1 \t\t\t\n      POP \t\t\t\n      SWAP3 \t\t\t\n      SWAP2 \t\t\t\n      POP \t\t\t\n      POP \t\t\t\n      JUMP \t\t\t\n    tag 171\t\t\t\n      JUMPDEST \t\t\t\n      PUSH 706C616365686F6C646572000000000000000000000000000000000000000000\t\t\t\n      PUSH 0\t\t\t\n      DUP3 \t\t\t\n      ADD \t\t\t\n      MSTORE \t\t\t\n      POP \t\t\t\n      JUMP \t\t\t\n    tag 172\t\t\t\n      JUMPDEST \t\t\t\n      PUSH 0\t\t\t\n      PUSH [tag] 295\t\t\t\n      PUSH B\t\t\t\n      DUP4 \t\t\t\n      PUSH [tag] 170\t\t\t\n      JUMP \t\t\t\n    tag 295\t\t\t\n      JUMPDEST \t\t\t\n      SWAP2 \t\t\t\n      POP \t\t\t\n      PUSH [tag] 296\t\t\t\n      DUP3 \t\t\t\n      PUSH [tag] 171\t\t\t\n      JUMP \t\t\t\n    tag 296\t\t\t\n      JUMPDEST \t\t\t\n      PUSH B\t\t\t\n      DUP3 \t\t\t\n      ADD \t\t\t\n      SWAP1 \t\t\t\n      POP \t\t\t\n      SWAP2 \t\t\t\n      SWAP1 \t\t\t\n      POP \t\t\t\n      JUMP \t\t\t\n    tag 173\t\t\t\n      JUMPDEST \t\t\t\n      PUSH 0\t\t\t\n      DUP2 \t\t\t\n      SWAP1 \t\t\t\n      POP \t\t\t\n      SWAP2 \t\t\t\n      SWAP1 \t\t\t\n      POP \t\t\t\n      JUMP \t\t\t\n    tag 174\t\t\t\n      JUMPDEST \t\t\t\n      PUSH [tag] 299\t\t\t\n      PUSH [tag] 300\t\t\t\n      DUP3 \t\t\t\n      PUSH [tag] 150\t\t\t\n      JUMP \t\t\t\n    tag 300\t\t\t\n      JUMPDEST \t\t\t\n      PUSH [tag] 173\t\t\t\n      JUMP \t\t\t\n    tag 299\t\t\t\n      JUMPDEST \t\t\t\n      DUP3 \t\t\t\n      MSTORE \t\t\t\n      POP \t\t\t\n      POP \t\t\t\n      JUMP \t\t\t\n    tag 78\t\t\t\n      JUMPDEST \t\t\t\n      PUSH 0\t\t\t\n      PUSH [tag] 302\t\t\t\n      DUP3 \t\t\t\n      PUSH [tag] 172\t\t\t\n      JUMP \t\t\t\n    tag 302\t\t\t\n      JUMPDEST \t\t\t\n      SWAP2 \t\t\t\n      POP \t\t\t\n      PUSH [tag] 303\t\t\t\n      DUP3 \t\t\t\n      DUP5 \t\t\t\n      PUSH [tag] 174\t\t\t\n      JUMP \t\t\t\n    tag 303\t\t\t\n      JUMPDEST \t\t\t\n      PUSH 20\t\t\t\n      DUP3 \t\t\t\n      ADD \t\t\t\n      SWAP2 \t\t\t\n      POP \t\t\t\n      DUP2 \t\t\t\n      SWAP1 \t\t\t\n      POP \t\t\t\n      SWAP3 \t\t\t\n      SWAP2 \t\t\t\n      POP \t\t\t\n      POP \t\t\t\n      JUMP \t\t\t\n    tag 175\t\t\t\n      JUMPDEST \t\t\t\n      PUSH 4E487B7100000000000000000000000000000000000000000000000000000000\t\t\t\n      PUSH 0\t\t\t\n      MSTORE \t\t\t\n      PUSH 11\t\t\t\n      PUSH 4\t\t\t\n      MSTORE \t\t\t\n      PUSH 24\t\t\t\n      PUSH 0\t\t\t\n      REVERT \t\t\t\n    tag 82\t\t\t\n      JUMPDEST \t\t\t\n      PUSH 0\t\t\t\n      PUSH [tag] 306\t\t\t\n      DUP3 \t\t\t\n      PUSH [tag] 150\t\t\t\n      JUMP \t\t\t\n    tag 306\t\t\t\n      JUMPDEST \t\t\t\n      SWAP2 \t\t\t\n      POP \t\t\t\n      PUSH [tag] 307\t\t\t\n      DUP4 \t\t\t\n      PUSH [tag] 150\t\t\t\n      JUMP \t\t\t\n    tag 307\t\t\t\n      JUMPDEST \t\t\t\n      SWAP3 \t\t\t\n      POP \t\t\t\n      DUP3 \t\t\t\n      DUP3 \t\t\t\n      ADD \t\t\t\n      SWAP1 \t\t\t\n      POP \t\t\t\n      DUP1 \t\t\t\n      DUP3 \t\t\t\n      GT \t\t\t\n      ISZERO \t\t\t\n      PUSH [tag] 308\t\t\t\n      JUMPI \t\t\t\n      PUSH [tag] 309\t\t\t\n      PUSH [tag] 175\t\t\t\n      JUMP \t\t\t\n    tag 309\t\t\t\n      JUMPDEST \t\t\t\n    tag 308\t\t\t\n      JUMPDEST \t\t\t\n      SWAP3 \t\t\t\n      SWAP2 \t\t\t\n      POP \t\t\t\n      POP \t\t\t\n      JUMP \t\t\t\n    tag 176\t\t\t\n      JUMPDEST \t\t\t\n      PUSH 0\t\t\t\n      DUP2 \t\t\t\n      SWAP1 \t\t\t\n      POP \t\t\t\n      SWAP3 \t\t\t\n      SWAP2 \t\t\t\n      POP \t\t\t\n      POP \t\t\t\n      JUMP \t\t\t\n    tag 177\t\t\t\n      JUMPDEST \t\t\t\n      POP \t\t\t\n      JUMP \t\t\t\n    tag 178\t\t\t\n      JUMPDEST \t\t\t\n      PUSH 0\t\t\t\n      PUSH [tag] 313\t\t\t\n      PUSH 0\t\t\t\n      DUP4 \t\t\t\n      PUSH [tag] 176\t\t\t\n      JUMP \t\t\t\n    tag 313\t\t\t\n      JUMPDEST \t\t\t\n      SWAP2 \t\t\t\n      POP \t\t\t\n      PUSH [tag] 314\t\t\t\n      DUP3 \t\t\t\n      PUSH [tag] 177\t\t\t\n      JUMP \t\t\t\n    tag 314\t\t\t\n      JUMPDEST \t\t\t\n      PUSH 0\t\t\t\n      DUP3 \t\t\t\n      ADD \t\t\t\n      SWAP1 \t\t\t\n      POP \t\t\t\n      SWAP2 \t\t\t\n      SWAP1 \t\t\t\n      POP \t\t\t\n      JUMP \t\t\t\n    tag 85\t\t\t\n      JUMPDEST \t\t\t\n      PUSH 0\t\t\t\n      PUSH [tag] 316\t\t\t\n      DUP3 \t\t\t\n      PUSH [tag] 178\t\t\t\n      JUMP \t\t\t\n    tag 316\t\t\t\n      JUMPDEST \t\t\t\n      SWAP2 \t\t\t\n      POP \t\t\t\n      DUP2 \t\t\t\n      SWAP1 \t\t\t\n      POP \t\t\t\n      SWAP2 \t\t\t\n      SWAP1 \t\t\t\n      POP \t\t\t\n      JUMP \t\t\t\n    tag 179\t\t\t\n      JUMPDEST \t\t\t\n      PUSH 4661696C656420746F2073656E64207061796D656E7400000000000000000000\t\t\t\n      PUSH 0\t\t\t\n      DUP3 \t\t\t\n      ADD \t\t\t\n      MSTORE \t\t\t\n      POP \t\t\t\n      JUMP \t\t\t\n    tag 180\t\t\t\n      JUMPDEST \t\t\t\n      PUSH 0\t\t\t\n      PUSH [tag] 319\t\t\t\n      PUSH 16\t\t\t\n      DUP4 \t\t\t\n      PUSH [tag] 165\t\t\t\n      JUMP \t\t\t\n    tag 319\t\t\t\n      JUMPDEST \t\t\t\n      SWAP2 \t\t\t\n      POP \t\t\t\n      PUSH [tag] 320\t\t\t\n      DUP3 \t\t\t\n      PUSH [tag] 179\t\t\t\n      JUMP \t\t\t\n    tag 320\t\t\t\n      JUMPDEST \t\t\t\n      PUSH 20\t\t\t\n      DUP3 \t\t\t\n      ADD \t\t\t\n      SWAP1 \t\t\t\n      POP \t\t\t\n      SWAP2 \t\t\t\n      SWAP1 \t\t\t\n      POP \t\t\t\n      JUMP \t\t\t\n    tag 91\t\t\t\n      JUMPDEST \t\t\t\n      PUSH 0\t\t\t\n      PUSH 20\t\t\t\n      DUP3 \t\t\t\n      ADD \t\t\t\n      SWAP1 \t\t\t\n      POP \t\t\t\n      DUP2 \t\t\t\n      DUP2 \t\t\t\n      SUB \t\t\t\n      PUSH 0\t\t\t\n      DUP4 \t\t\t\n      ADD \t\t\t\n      MSTORE \t\t\t\n      PUSH [tag] 322\t\t\t\n      DUP2 \t\t\t\n      PUSH [tag] 180\t\t\t\n      JUMP \t\t\t\n    tag 322\t\t\t\n      JUMPDEST \t\t\t\n      SWAP1 \t\t\t\n      POP \t\t\t\n      SWAP2 \t\t\t\n      SWAP1 \t\t\t\n      POP \t\t\t\n      JUMP \t\t\t\n    tag 95\t\t\t\n      JUMPDEST \t\t\t\n      PUSH 0\t\t\t\n      PUSH 20\t\t\t\n      DUP3 \t\t\t\n      ADD \t\t\t\n      SWAP1 \t\t\t\n      POP \t\t\t\n      PUSH [tag] 324\t\t\t\n      PUSH 0\t\t\t\n      DUP4 \t\t\t\n      ADD \t\t\t\n      DUP5 \t\t\t\n      PUSH [tag] 151\t\t\t\n      JUMP \t\t\t\n    tag 324\t\t\t\n      JUMPDEST \t\t\t\n      SWAP3 \t\t\t\n      SWAP2 \t\t\t\n      POP \t\t\t\n      POP \t\t\t\n      JUMP \t\t\t\n    tag 181\t\t\t\n      JUMPDEST \t\t\t\n      PUSH 53656E646572206E6F7420617574686F72697A656420666F7220746869732065\t\t\t\n      PUSH 0\t\t\t\n      DUP3 \t\t\t\n      ADD \t\t\t\n      MSTORE \t\t\t\n      PUSH 6D61696C00000000000000000000000000000000000000000000000000000000\t\t\t\n      PUSH 20\t\t\t\n      DUP3 \t\t\t\n      ADD \t\t\t\n      MSTORE \t\t\t\n      POP \t\t\t\n      JUMP \t\t\t\n    tag 182\t\t\t\n      JUMPDEST \t\t\t\n      PUSH 0\t\t\t\n      PUSH [tag] 327\t\t\t\n      PUSH 24\t\t\t\n      DUP4 \t\t\t\n      PUSH [tag] 165\t\t\t\n      JUMP \t\t\t\n    tag 327\t\t\t\n      JUMPDEST \t\t\t\n      SWAP2 \t\t\t\n      POP \t\t\t\n      PUSH [tag] 328\t\t\t\n      DUP3 \t\t\t\n      PUSH [tag] 181\t\t\t\n      JUMP \t\t\t\n    tag 328\t\t\t\n      JUMPDEST \t\t\t\n      PUSH 40\t\t\t\n      DUP3 \t\t\t\n      ADD \t\t\t\n      SWAP1 \t\t\t\n      POP \t\t\t\n      SWAP2 \t\t\t\n      SWAP1 \t\t\t\n      POP \t\t\t\n      JUMP \t\t\t\n    tag 102\t\t\t\n      JUMPDEST \t\t\t\n      PUSH 0\t\t\t\n      PUSH 20\t\t\t\n      DUP3 \t\t\t\n      ADD \t\t\t\n      SWAP1 \t\t\t\n      POP \t\t\t\n      DUP2 \t\t\t\n      DUP2 \t\t\t\n      SUB \t\t\t\n      PUSH 0\t\t\t\n      DUP4 \t\t\t\n      ADD \t\t\t\n      MSTORE \t\t\t\n      PUSH [tag] 330\t\t\t\n      DUP2 \t\t\t\n      PUSH [tag] 182\t\t\t\n      JUMP \t\t\t\n    tag 330\t\t\t\n      JUMPDEST \t\t\t\n      SWAP1 \t\t\t\n      POP \t\t\t\n      SWAP2 \t\t\t\n      SWAP1 \t\t\t\n      POP \t\t\t\n      JUMP \t\t\t\n    tag 183\t\t\t\n      JUMPDEST \t\t\t\n      PUSH 0\t\t\t\n      DUP2 \t\t\t\n      MLOAD \t\t\t\n      SWAP1 \t\t\t\n      POP \t\t\t\n      SWAP2 \t\t\t\n      SWAP1 \t\t\t\n      POP \t\t\t\n      JUMP \t\t\t\n    tag 184\t\t\t\n      JUMPDEST \t\t\t\n      DUP3 \t\t\t\n      DUP2 \t\t\t\n      DUP4 \t\t\t\n      MCOPY \t\t\t\n      PUSH 0\t\t\t\n      DUP4 \t\t\t\n      DUP4 \t\t\t\n      ADD \t\t\t\n      MSTORE \t\t\t\n      POP \t\t\t\n      POP \t\t\t\n      POP \t\t\t\n      JUMP \t\t\t\n    tag 185\t\t\t\n      JUMPDEST \t\t\t\n      PUSH 0\t\t\t\n      PUSH [tag] 334\t\t\t\n      DUP3 \t\t\t\n      PUSH [tag] 183\t\t\t\n      JUMP \t\t\t\n    tag 334\t\t\t\n      JUMPDEST \t\t\t\n      PUSH [tag] 335\t\t\t\n      DUP2 \t\t\t\n      DUP6 \t\t\t\n      PUSH [tag] 170\t\t\t\n      JUMP \t\t\t\n    tag 335\t\t\t\n      JUMPDEST \t\t\t\n      SWAP4 \t\t\t\n      POP \t\t\t\n      PUSH [tag] 336\t\t\t\n      DUP2 \t\t\t\n      DUP6 \t\t\t\n      PUSH 20\t\t\t\n      DUP7 \t\t\t\n      ADD \t\t\t\n      PUSH [tag] 184\t\t\t\n      JUMP \t\t\t\n    tag 336\t\t\t\n      JUMPDEST \t\t\t\n      DUP1 \t\t\t\n      DUP5 \t\t\t\n      ADD \t\t\t\n      SWAP2 \t\t\t\n      POP \t\t\t\n      POP \t\t\t\n      SWAP3 \t\t\t\n      SWAP2 \t\t\t\n      POP \t\t\t\n      POP \t\t\t\n      JUMP \t\t\t\n    tag 114\t\t\t\n      JUMPDEST \t\t\t\n      PUSH 0\t\t\t\n      PUSH [tag] 338\t\t\t\n      DUP3 \t\t\t\n      DUP5 \t\t\t\n      PUSH [tag] 185\t\t\t\n      JUMP \t\t\t\n    tag 338\t\t\t\n      JUMPDEST \t\t\t\n      SWAP2 \t\t\t\n      POP \t\t\t\n      DUP2 \t\t\t\n      SWAP1 \t\t\t\n      POP \t\t\t\n      SWAP3 \t\t\t\n      SWAP2 \t\t\t\n      POP \t\t\t\n      POP \t\t\t\n      JUMP \t\t\t\n    tag 186\t\t\t\n      JUMPDEST \t\t\t\n      PUSH 43616E6E6F74207265676973746572207A65726F206164647265737300000000\t\t\t\n      PUSH 0\t\t\t\n      DUP3 \t\t\t\n      ADD \t\t\t\n      MSTORE \t\t\t\n      POP \t\t\t\n      JUMP \t\t\t\n    tag 187\t\t\t\n      JUMPDEST \t\t\t\n      PUSH 0\t\t\t\n      PUSH [tag] 341\t\t\t\n      PUSH 1C\t\t\t\n      DUP4 \t\t\t\n      PUSH [tag] 165\t\t\t\n      JUMP \t\t\t\n    tag 341\t\t\t\n      JUMPDEST \t\t\t\n      SWAP2 \t\t\t\n      POP \t\t\t\n      PUSH [tag] 342\t\t\t\n      DUP3 \t\t\t\n      PUSH [tag] 186\t\t\t\n      JUMP \t\t\t\n    tag 342\t\t\t\n      JUMPDEST \t\t\t\n      PUSH 20\t\t\t\n      DUP3 \t\t\t\n      ADD \t\t\t\n      SWAP1 \t\t\t\n      POP \t\t\t\n      SWAP2 \t\t\t\n      SWAP1 \t\t\t\n      POP \t\t\t\n      JUMP \t\t\t\n    tag 118\t\t\t\n      JUMPDEST \t\t\t\n      PUSH 0\t\t\t\n      PUSH 20\t\t\t\n      DUP3 \t\t\t\n      ADD \t\t\t\n      SWAP1 \t\t\t\n      POP \t\t\t\n      DUP2 \t\t\t\n      DUP2 \t\t\t\n      SUB \t\t\t\n      PUSH 0\t\t\t\n      DUP4 \t\t\t\n      ADD \t\t\t\n      MSTORE \t\t\t\n      PUSH [tag] 344\t\t\t\n      DUP2 \t\t\t\n      PUSH [tag] 187\t\t\t\n      JUMP \t\t\t\n    tag 344\t\t\t\n      JUMPDEST \t\t\t\n      SWAP1 \t\t\t\n      POP \t\t\t\n      SWAP2 \t\t\t\n      SWAP1 \t\t\t\n      POP \t\t\t\n      JUMP \t\t\t\n    tag 188\t\t\t\n      JUMPDEST \t\t\t\n      PUSH 456D61696C20616C7265616479207265676973746572656420746F20616E6F74\t\t\t\n      PUSH 0\t\t\t\n      DUP3 \t\t\t\n      ADD \t\t\t\n      MSTORE \t\t\t\n      PUSH 6865722077616C6C657400000000000000000000000000000000000000000000\t\t\t\n      PUSH 20\t\t\t\n      DUP3 \t\t\t\n      ADD \t\t\t\n      MSTORE \t\t\t\n      POP \t\t\t\n      JUMP \t\t\t\n    tag 189\t\t\t\n      JUMPDEST \t\t\t\n      PUSH 0\t\t\t\n      PUSH [tag] 347\t\t\t\n      PUSH 2A\t\t\t\n      DUP4 \t\t\t\n      PUSH [tag] 165\t\t\t\n      JUMP \t\t\t\n    tag 347\t\t\t\n      JUMPDEST \t\t\t\n      SWAP2 \t\t\t\n      POP \t\t\t\n      PUSH [tag] 348\t\t\t\n      DUP3 \t\t\t\n      PUSH [tag] 188\t\t\t\n      JUMP \t\t\t\n    tag 348\t\t\t\n      JUMPDEST \t\t\t\n      PUSH 40\t\t\t\n      DUP3 \t\t\t\n      ADD \t\t\t\n      SWAP1 \t\t\t\n      POP \t\t\t\n      SWAP2 \t\t\t\n      SWAP1 \t\t\t\n      POP \t\t\t\n      JUMP \t\t\t\n    tag 122\t\t\t\n      JUMPDEST \t\t\t\n      PUSH 0\t\t\t\n      PUSH 20\t\t\t\n      DUP3 \t\t\t\n      ADD \t\t\t\n      SWAP1 \t\t\t\n      POP \t\t\t\n      DUP2 \t\t\t\n      DUP2 \t\t\t\n      SUB \t\t\t\n      PUSH 0\t\t\t\n      DUP4 \t\t\t\n      ADD \t\t\t\n      MSTORE \t\t\t\n      PUSH [tag] 350\t\t\t\n      DUP2 \t\t\t\n      PUSH [tag] 189\t\t\t\n      JUMP \t\t\t\n    tag 350\t\t\t\n      JUMPDEST \t\t\t\n      SWAP1 \t\t\t\n      POP \t\t\t\n      SWAP2 \t\t\t\n      SWAP1 \t\t\t\n      POP \t\t\t\n      JUMP \t\t\t\n    tag 190\t\t\t\n      JUMPDEST \t\t\t\n      PUSH 43616E6E6F7420736574207A65726F2061646472657373000000000000000000\t\t\t\n      PUSH 0\t\t\t\n      DUP3 \t\t\t\n      ADD \t\t\t\n      MSTORE \t\t\t\n      POP \t\t\t\n      JUMP \t\t\t\n    tag 191\t\t\t\n      JUMPDEST \t\t\t\n      PUSH 0\t\t\t\n      PUSH [tag] 353\t\t\t\n      PUSH 17\t\t\t\n      DUP4 \t\t\t\n      PUSH [tag] 165\t\t\t\n      JUMP \t\t\t\n    tag 353\t\t\t\n      JUMPDEST \t\t\t\n      SWAP2 \t\t\t\n      POP \t\t\t\n      PUSH [tag] 354\t\t\t\n      DUP3 \t\t\t\n      PUSH [tag] 190\t\t\t\n      JUMP \t\t\t\n    tag 354\t\t\t\n      JUMPDEST \t\t\t\n      PUSH 20\t\t\t\n      DUP3 \t\t\t\n      ADD \t\t\t\n      SWAP1 \t\t\t\n      POP \t\t\t\n      SWAP2 \t\t\t\n      SWAP1 \t\t\t\n      POP \t\t\t\n      JUMP \t\t\t\n    tag 131\t\t\t\n      JUMPDEST \t\t\t\n      PUSH 0\t\t\t\n      PUSH 20\t\t\t\n      DUP3 \t\t\t\n      ADD \t\t\t\n      SWAP1 \t\t\t\n      POP \t\t\t\n      DUP2 \t\t\t\n      DUP2 \t\t\t\n      SUB \t\t\t\n      PUSH 0\t\t\t\n      DUP4 \t\t\t\n      ADD \t\t\t\n      MSTORE \t\t\t\n      PUSH [tag] 356\t\t\t\n      DUP2 \t\t\t\n      PUSH [tag] 191\t\t\t\n      JUMP \t\t\t\n    tag 356\t\t\t\n      JUMPDEST \t\t\t\n      SWAP1 \t\t\t\n      POP \t\t\t\n      SWAP2 \t\t\t\n      SWAP1 \t\t\t\n      POP \t\t\t\n      JUMP \t\t\t\n    tag 192\t\t\t\n      JUMPDEST \t\t\t\n      PUSH 4E6577206F776E65722063616E6E6F74206265207A65726F2061646472657373\t\t\t\n      PUSH 0\t\t\t\n      DUP3 \t\t\t\n      ADD \t\t\t\n      MSTORE \t\t\t\n      POP \t\t\t\n      JUMP \t\t\t\n    tag 193\t\t\t\n      JUMPDEST \t\t\t\n      PUSH 0\t\t\t\n      PUSH [tag] 359\t\t\t\n      PUSH 20\t\t\t\n      DUP4 \t\t\t\n      PUSH [tag] 165\t\t\t\n      JUMP \t\t\t\n    tag 359\t\t\t\n      JUMPDEST \t\t\t\n      SWAP2 \t\t\t\n      POP \t\t\t\n      PUSH [tag] 360\t\t\t\n      DUP3 \t\t\t\n      PUSH [tag] 192\t\t\t\n      JUMP \t\t\t\n    tag 360\t\t\t\n      JUMPDEST \t\t\t\n      PUSH 20\t\t\t\n      DUP3 \t\t\t\n      ADD \t\t\t\n      SWAP1 \t\t\t\n      POP \t\t\t\n      SWAP2 \t\t\t\n      SWAP1 \t\t\t\n      POP \t\t\t\n      JUMP \t\t\t\n    tag 140\t\t\t\n      JUMPDEST \t\t\t\n      PUSH 0\t\t\t\n      PUSH 20\t\t\t\n      DUP3 \t\t\t\n      ADD \t\t\t\n      SWAP1 \t\t\t\n      POP \t\t\t\n      DUP2 \t\t\t\n      DUP2 \t\t\t\n      SUB \t\t\t\n      PUSH 0\t\t\t\n      DUP4 \t\t\t\n      ADD \t\t\t\n      MSTORE \t\t\t\n      PUSH [tag] 362\t\t\t\n      DUP2 \t\t\t\n      PUSH [tag] 193\t\t\t\n      JUMP \t\t\t\n    tag 362\t\t\t\n      JUMPDEST \t\t\t\n      SWAP1 \t\t\t\n      POP \t\t\t\n      SWAP2 \t\t\t\n      SWAP1 \t\t\t\n      POP \t\t\t\n      JUMP \t\t\t\n    .data\n"
}